:020000040800F2
:1000000028080020890200085B2500085325000805
:1000100057250008C5080008292B0008000000002B
:10002000000000000000000000000000E1250008C2
:10003000C90800080000000065250008E325000845
:10004000AD0200085D250008AD020008D1250008BA
:10005000AD020008AD020008CB080008AD020008A0
:10006000AD020008AD020008AD020008AD020008B4
:10007000AD020008AD020008AD020008AD020008A4
:10008000AD020008AD020008AD020008AD02000894
:10009000AD020008AD020008AD020008AD02000884
:1000A000AD020008AD020008AD020008AD02000874
:1000B000AD020008AD02000801260008AD020008EC
:1000C000AD020008AD020008AD020008AD02000854
:1000D000AD020008192B0008AD020008AD020008AF
:1000E000AD02000869250008AD020008AD02000855
:1000F000AD020008AD020008AD020008AD02000824
:10010000AD020008AD020008AD020008AD02000813
:10011000AD020008AD020008AD020008AD02000803
:10012000AD020008AD020008AD020008AD020008F3
:10013000AD020008AD020008AD020008AD020008E3
:10014000AD020008AD020008AD020008AD020008D3
:10015000AD020008AD020008AD020008AD020008C3
:10016000AD020008AD020008AD020008AD020008B3
:10017000AD020008AD020008AD020008000000005A
:10018000AD020008AD02000800F002F800F06DF8C2
:100190000AA090E8000C82448344AAF10107DA45E2
:1001A00001D100F062F8AFF2090EBAE80F0013F0C7
:1001B000010F18BFFB1A43F0010318477CB500007C
:1001C0009CB500000A444FF0000C10F8013B13F0FE
:1001D000070408BF10F8014B1D1108BF10F8015BA0
:1001E000641E05D010F8016B641E01F8016BF9D193
:1001F00013F0080F1EBF10F8014BAD1C0C1B09D1EA
:100200006D1E58BF01F801CBFAD505E014F8016B5B
:1002100001F8016B6D1EF9D59142D6D370470000ED
:100220000023002400250026103A28BF78C1FBD8FF
:10023000520728BF30C148BF0B607047642900F0E7
:100240001D81752900F01A81782900F053816329F6
:1002500000F0CE82732900F0D382002070471FB5D2
:1002600007F094FF1FBD10B510BD00F0FBFA11465A
:10027000FFF7F5FF06F076FA00F019FB03B4FFF77D
:10028000F2FF03BC02F075FC0C48016841F47001F8
:1002900001600B4880470B480047FEE7FEE7FEE79A
:1002A000FEE7FEE7FEE7FEE7FEE7FEE7FEE700000B
:1002B00005480649044A064B7047000088ED00E0F7
:1002C000ED250008890100082804002028080020E6
:1002D00028040020704753EA020C00F069802DE9E1
:1002E000F04B4FF00006002B1FBFB3FA83F503FA63
:1002F00005F424FA05F65E4012BF1643B2FA82F501
:1003000002FA05F4C5F120051EBF22FA05FC44EAF5
:100310000C04203556EA044C4FEA144418BF641C00
:100320004FF000084FF00009904271EB030C39D3F5
:10033000002919BFB1FA81F701FA07F6B0FA80F780
:1003400000FA07F6C7F120071EBF20FA07FC46EAAD
:100350000C062037B6FBF4FCA7EB0507103F07F0AF
:100360001F0BCBF120060CFA0BFB2CFA06F644BF50
:10037000B3460026202FA4BF5E464FF0000B5BEA79
:10038000060C08BF4FF0010B19EB0B09ABFB027C0D
:1003900048EB0608C01B06FB02CC0BFB03CC71EB41
:1003A0000C01C1E70B46024641464846BDE8F08BCA
:1003B00013B54FF000004FF00001AFF30080BDE82F
:1003C0001C4070470FB4044910B503AA029800F00E
:1003D0001BFA10BC5DF814FB0800002070B5044641
:1003E00085690068C10601D5302600E02026C007D7
:1003F00007D070BDD4E9012130469047206A401CE7
:1004000020626D1EF6D570BD70B504468569007812
:10041000C00707D170BDD4E9012120209047206A90
:10042000401C20626D1EF6D570BD70B50C460546A9
:10043000012A05D02878800600D5EA69002302E069
:10044000012305E05B1C934202D2E05C0028F9D155
:10045000A869E618C01AA861286A184428622846C4
:10046000FFF7BCFF04E0D5E9012114F8010B904728
:10047000B442F8D32846FFF7C7FF70BD2DE9F0411D
:100480000646002410687529314616A510D0AFF332
:100490000080002802DA404213A507E031688A078D
:1004A00001D512A502E0490704D511A5012401E0F8
:1004B000AFF3008000210A2206F1240709E0B0FB17
:1004C000F2FCB0FBF2F302FB1C003030785418460B
:1004D000491C0028F3D123462A463046BDE8F041A6
:1004E00000F023B9000000002D0000002B000000E8
:1004F0002000000070B504460D4621461068AFF399
:1005000000802188090502D50F4A7A4402E00E4A8C
:100510007A440E32002104F1240305E000F00F06B6
:100520000009965D5E54491C0028F7D1207800230D
:10053000000704D5702D02D009B1022311322046E4
:10054000BDE8704000F0F1B820AC00002DE9F05F8C
:10055000894604464FF0000ADFF874B1FB44C0F846
:1005600020A02046E1688847002874D0252806D0BE
:10057000D4E901219047206A401C2062F1E700265F
:100580005F462046E16888472028054607DB312D75
:1005900005D2781910F8200C08B10643F1E7B0072E
:1005A00001D526F00406C4F81CA00027C4F818A042
:1005B0002A2D09D0284602F0D5FA38B304EB870873
:1005C000303DC8F8185019E059F8041B204604EBD8
:1005D00087029161E1688847012F054618D1E069DB
:1005E000002820DA26F020061DE0D8F8180000EBDD
:1005F000800005EB40003038C8F818002046E1685C
:100600008847054602F0AEFA0028EED1012F0AD045
:100610002E2D08D12046E16888477F1C0546022F11
:1006200046F02006C4DBA069002803DA404246F009
:100630000106A061F00701D026F010066C2D0BD04A
:10064000682D09D04C2D39D06A2D35D0742D35D078
:100650007A2D33D016E038E0E1682F4620468847EF
:10066000B842054609D16C2F26D04FF48060E1686E
:10067000064320468847054604E06C2F1AD04FF405
:10068000807006430DB3A5F14100192802D820352A
:1006900046F400664A462946204626604E46FFF745
:1006A000CDFD80B101280BD0F61D26F0070000F12A
:1006B000080956E74020E4E78020D8E70020D6E785
:1006C00006F104094DE7284652E7206ABDE8F09F8D
:1006D000F6AB00004FF0000200B513469446964674
:1006E000203922BFA0E80C50A0E80C50B1F1200145
:1006F000BFF4F7AF090728BFA0E80C5048BF0CC0F3
:100700005DF804EB890028BF40F8042B08BF704750
:1007100048BF20F8022B11F0804F18BF00F8012BC2
:10072000704770477047704770472DE9F0470D4696
:1007300099469246044600F124080168880604D5CB
:10074000E06921F01001216000E00120A84201DDF4
:10075000471B00E00027A1697A1902EB0900081A7B
:10076000A0612078C00602D42046FFF737FE00269D
:1007700008E0D4E901211AF806009047206A401CDD
:10078000761C20624E45F4DB2078C0060AD5204650
:10079000FFF724FE06E0D4E9012130209047206ACB
:1007A000401C2062381EA7F10107F4DC07E0D4E901
:1007B000012118F805009047206A401C2062281E7D
:1007C000A5F10105F3DC2046FFF71EFE20780006A8
:1007D00002D50220BDE8F0870120FBE710B5436990
:1007E00013B1AFF3008001E0FFF71FFE012010BD41
:1007F000127800F124010A7000224A700122EDE70C
:1008000011684FF0FF32E9E7074B70B50D467B44A6
:1008100000F011F80446284600F020F810B14FF01F
:10082000FF3070BD204670BDCF23000001694A1C17
:1008300002610878704700B58FB0CDE90131002121
:10084000059105497944CDE9031011466846FFF743
:100850007DFE0FB000BD0000E5FFFFFF007B00F054
:1008600080007047754600F029F8AE4605006946DD
:10087000534620F00700854618B020B5FFF718FD55
:10088000BDE820404FF000064FF000074FF0000891
:100890004FF0000B21F00701AC46ACE8C009ACE812
:1008A000C009ACE8C009ACE8C0098D4670470446F1
:1008B000AFF300802046FFF7E1FC000000487047DE
:1008C000C403002000BFFEE7704710B5012000F010
:1008D000EDF810BD70B504461D460023B5F5804FF8
:1008E00013D154F822300C480340D1E9000640EA05
:1008F00006108E6840EA06208E8940EA06408E691E
:100900003043034344F8223003E06FF0704044F872
:100910002200002070BD00000000F0CF10B503469B
:100920000022086853F8202012480240D1E901044F
:100930002043CC6820430C6920434C6920438C69D8
:100940002043CC6920430C6A20434C6A20438C6AC4
:100950002043CC6A2043CC6B20430C6B20430243E2
:100960008868082801D142F04002086843F8202036
:10097000002010BD8000F0FF30B503460024501C5D
:1009800053F8204004F04044D1E9000540EA051046
:100990008D6840EA05208D8940EA0545088A401E99
:1009A00045EA0055087D801E45EA00608D692843B0
:1009B0000443501C43F82040002030BD70B504466D
:1009C000A56D00F0A1F9064694F83500022808D07C
:1009D0008020606500BF002084F8340000BF012043
:1009E00070BD2068006820F016002168086020684B
:1009F000406920F0800021684861206C08B9A06C33
:100A000028B12068006820F008002168086020688C
:100A1000006820F00100216808600FE000F074F920
:100A2000801B05280AD92020606500BF002084F8BB
:100A3000340000BF032084F83500D1E72068006847
:100A400000F001000028E9D194F85C103F208840B4
:100A5000A86000BF002084F8340000BF012084F8A3
:100A600035000020BCE7014691F83500022803D08C
:100A70008020486501207047052081F8350008680E
:100A8000006820F001000A6810600020F3E7000011
:100A900010B50446012C05D100BF0102024800F048
:100AA0001DF900BF10BD00000014024010B504463F
:100AB00004480068204020B1024804602046FFF747
:100AC000E7FF10BD143C0140F8B502460B46002577
:100AD000002400200021DEE0012606FA01F51E6850
:100AE00006EA0504AC4275D11E7906F00306012E14
:100AF00004D01E7906F00306022E13D190684F0031
:100B00000326BE40B0434F00DE68BE4030439060D5
:100B1000506801268E40B0431E79C6F300168E4001
:100B2000304350601E7906F00306032E09D0D068CA
:100B30004F000326BE40B0434F009E68BE40304386
:100B4000D0601E7906F00306022E13D1CF0802F101
:100B5000200656F827004E07F70E0F26BE40B0437A
:100B60004F07FF0E1E69BE403043CF0802F120063A
:100B700046F8270010684F000326BE40B0431E7998
:100B800006F003064F00BE40304310605E6806F07A
:100B90008056B6F1805F7DD100BF00260096404EA2
:100BA000366846F480463E4F3E603E46366806F460
:100BB0008046009600BF00BF3A4E8F0856F82700C7
:100BC0008E07370F0F26BE40B043374EB24202D1D8
:100BD000002624E05EE0354EB24201D101261EE03F
:100BE000334EB24201D1022619E0324EB24201D157
:100BF000032614E0304EB24201D104260FE02F4EFE
:100C0000B24201D105260AE02D4EB24201D106269C
:100C100005E02C4EB24201D1072600E008268F07DE
:100C20003F0FBE4030431F4E8F0846F82700264E28
:100C30003068A0435E6806F48036B6F5803F00D188
:100C40002043214E3060361D3068A0435E6806F4B4
:100C50000036B6F5003F00D120431B4E361D3060F4
:100C6000361D3068A0435E6806F48016B6F5801F16
:100C700000D12043144E08363060361D3068A04342
:100C80005E6806F40016B6F5001F00D120430E4E34
:100C90000C363060491C1029FFF41EAFF8BD00006F
:100CA000443802400838014000000240000402407D
:100CB00000080240000C02400010024000140240F4
:100CC00000180240001C0240003C0140024613692B
:100CD0000B400BB1012000E00020704710B54269C5
:100CE00021EA020302EA010443EA0443836110BDDE
:100CF0000AB1816101E00B0483617047014800681B
:100D0000000C7047002004E00148006870470000B4
:100D1000100000200348006803490978084401498D
:100D200008607047100000201800002010B50A4825
:100D3000006840F40070084908600846006840F404
:100D400080600860052000F07FF80F2000F006F8B2
:100D500000F02AF8002010BD003C024070B50446A7
:100D60000E4800784FF47A71B1FBF0F00C49096835
:100D7000B1FBF0F5284601F005F908B1012070BD7E
:100D8000102C07D200222146501E00F01EF8054804
:100D9000046001E00120F2E70020F0E718000020E5
:100DA000000000201400002070470146084600287B
:100DB00009DB00F01F0301229A4043099B0003F165
:100DC000E023C3F8002100BF70472DE9F05F8046A3
:100DD0000D461646002701F0A9FE074639462A4669
:100DE000334601F00700C0F1070ABAF1040F02D937
:100DF0004FF0040A01E0C0F1070AD14600F1040AED
:100E0000BAF1070F02D24FF0000A01E0A0F1030A85
:100E1000D4464FF0010A0AFA09FAAAF1010A0AEACD
:100E2000020A0AFA0CFA4FF0010B0BFA0CFBABF1B9
:100E3000010B0BEA030B4AEA0B042146404601F082
:100E40007DFEBDE8F09F000000BF00F00702064BEA
:100E500019684FF6FF031940044B0B4343EA022184
:100E6000014B196000BF70470CED00E00000FA056F
:100E70002A49096821F0E00102681143274A1160FC
:100E80002749096821F48031254A1160111F09683A
:100E900021F48031121F11602149091D096821F4D4
:100EA00080311F4A121D1160111D096821F4803123
:100EB000121D1160416801F48031B1F5803F07D106
:100EC0001749091F096841F48031154A121F116042
:100ED000416801F40031B1F5003F05D110490968BE
:100EE00041F480310E4A1160017901F0010139B1FC
:100EF0000B49091D096841F48031094A121D11602E
:100F0000017901F00201022907D105490831096878
:100F100041F48031024A083211607047007000408D
:100F2000043C014008B501200349086203480068F9
:100F3000009000BF08BD000000000E42007000409D
:100F4000012001490861704700000E4202494968CA
:100F50000143014A5160704700700040064A126820
:100F600022F00402044B1A60012901D130BF02E0D3
:100F700040BF20BF20BF704710ED00E00748006869
:100F800040F00200054908600548006840F0040090
:100F90000349086000BF00BF30BF704700700040C9
:100FA00010ED00E00D4A126822F0030202430B4BE1
:100FB0001A600B4A126842F00402094B1A600129B8
:100FC00001D130BF02E040BF20BF20BF044A1268F9
:100FD00022F00402024B1A607047000000700040CB
:100FE00010ED00E00EB51748406800F0040004283A
:100FF00014D100BF002201021348FFF779FE00BFA1
:101000004FF4784011A110221346CDE9002102903F
:10101000C82282211E2005F051FA12E01F2010A1E3
:1010200010221346CDE900210290C82282211E2001
:1010300005F044FA00BF012291020348FFF758FE71
:1010400000BF0EBD00700040001402405056442006
:101050004C6F7720566F6C7461676521000000004B
:1010600050564420566F6C74616765204F4B2120A9
:101070000000000010B50648006800F4803028B178
:10108000FFF7B0FF4FF480300149086010BD000049
:10109000143C014070B504460D460CB9012070BDEA
:1010A0005848006800F00700A84209D255490D7061
:1010B0000846006800F00700A84201D00120EEE7D2
:1010C000207800F0020002281DD1207800F00400F2
:1010D000042805D14C48006840F4E0504A490860B3
:1010E000207800F00800082805D14748006840F43F
:1010F0006040454908604448006820F0F000A1685D
:10110000084341490860207800F00100A8B36068F6
:10111000012807D13C4808380068C0F34040B8B9FE
:101120000120BCE76068022802D06068032807D16C
:10113000354808380068C0F3406048B90120AEE780
:10114000314808380068C0F3400008B90120A6E71C
:101150002D48006820F00300616808432A490860B0
:10116000FFF7D2FD064609E0FFF7CEFD801B41F2F6
:101170008831884202D9032091E707E022480068BD
:1011800000F00C006168B0EB810FEDD11D480068E4
:1011900000F00700A84209D91A490D7008460068F6
:1011A00000F00700A84201D0012078E7207800F085
:1011B0000400042807D11448006820F4E050E168D6
:1011C000084311490860207800F00800082808D179
:1011D0000D48006820F46040216940EAC1000A49D6
:1011E000086000F03FF808490968C1F30311074A95
:1011F000515CC8400649086006480068FFF7AEFD2C
:1012000000204CE7003C024008380240968100086C
:101210000000002014000020014800687047000012
:101220000000002000B5FFF7F7FF04490968C1F38B
:101230008221034A515CC84000BD000008380240CA
:10124000A681000800B5FFF7E7FF04490968C1F36C
:101250004231034A515CC84000BD000008380240DA
:10126000A68100082DE9F047002400250026A146AC
:101270002548006800F00C0020B1042805D008289B
:101280003AD105E0DFF8849039E0DFF8849036E069
:101290001D48001F006800F03F041B48001F006845
:1012A00000F4800078B11A481749091F0968C1F392
:1012B0008811A0FB01700146224600233846FFF743
:1012C0000AF805460EE011480F49091F0968C1F3E5
:1012D0008811A0FB01700146224600233846FEF724
:1012E000FAFF05460848001F0068C0F30140401C93
:1012F0004600B5FBF6F902E0DFF8109000BF00BF32
:101300004846BDE8F0870000083802400024F40099
:1013100000127A00F8B504460CB90120F8BD207817
:1013200000F00100002874D0F948006800F00C00BB
:1013300004280DD0F648006800F00C00082813D1EE
:10134000F348001F006800F48000B0F5800F0BD157
:10135000EF4808380068C0F34040002859D0606862
:10136000002856D10120D9E700BF6068B0F5803F62
:1013700008D1E7480838006840F48030E44908396B
:1013800008601EE06068B0F5A02F0DD1E048083875
:10139000006840F48020DE4908390860084600688B
:1013A00040F4803008600CE0D9480838006820F428
:1013B0008030D749083908600846006820F480204A
:1013C000086000BF606890B1FFF79EFC054606E02C
:1013D000FFF79AFC401B642801D903209EE7CC4804
:1013E00008380068C0F340400028F1D011E0FFF752
:1013F0008BFC054606E0FFF787FC401B642801D9FB
:1014000003208BE7C24808380068C0F3404000283A
:10141000F1D1207800F0020002285FD1BC480068BA
:1014200000F00C0058B1BA48006800F00C00082821
:101430001CD1B748001F006800F48000B0B9B44860
:1014400008380068C0F3400020B1E068012801D0EE
:10145000012063E7AE480838006820F0F8002169F1
:1014600040EAC100AA490839086037E0E06800B3E3
:101470000120A8490860FFF747FC054606E0FFF792
:1014800043FC401B022801D9032047E7A048083845
:101490000068C0F340000028F1D09D48083800687B
:1014A00020F0F800216940EAC10099490839086034
:1014B00014E0002097490860FFF726FC054606E087
:1014C000FFF722FC401B022801D9032026E79048A1
:1014D00008380068C0F340000028F1D1207800F0FF
:1014E000080008282CD16069A8B101208A49086049
:1014F000FFF70AFC054606E0FFF706FC401B022842
:1015000001D903200AE782486C300068C0F340002C
:101510000028F1D014E000207F490860FFF7F4FBB9
:10152000054606E0FFF7F0FB401B022801D9032027
:10153000F4E677486C300068C0F340000028F1D131
:10154000207800F00400042870D10027704838305B
:10155000006800F0805090B900BF002000906C48F7
:101560003830006840F080506949383108600846DA
:10157000006800F08050009000BF00BF012767485E
:10158000006800F48070B0B96448006840F480706E
:1015900062490860FFF7B8FB054606E0FFF7B4FBB9
:1015A000401B022801D90320B8E65C48006800F41B
:1015B00080700028F2D000BFA068012808D15448EC
:1015C0006830006840F001005149683108601DE052
:1015D000A06805280DD14E486830006840F004002E
:1015E0004B49683108600846006840F00100086017
:1015F0000CE047486830006820F001004449683139
:1016000008600846006820F00400086000BFA06879
:10161000A8B1FFF779FB054609E0FFF775FB401B12
:1016200041F28831884202D9032077E626E0384823
:1016300068300068C0F340000028EED013E0FFF7E8
:1016400063FB054608E0FFF75FFB401B41F2883172
:10165000884201D9032061E62D4868300068C0F354
:1016600040000028EFD1012F07D129483830006809
:1016700020F0805026493831086000BFA06900285A
:1016800045D02348006800F00C0008285DD0A06910
:10169000022845D100201F490866FFF735FB0546A3
:1016A00006E0FFF731FB401B022801D9032035E695
:1016B000174808380068C0F340600028F1D1D4E929
:1016C00007010843616A40EA81110122A06AC2EB66
:1016D000500041EA00412C20005D41EA00600C49C5
:1016E000091F086001200B490866FFF70DFB05463E
:1016F00006E0FFF709FB401B022801D903200DE695
:10170000034808380068C0F340600028F1D049E081
:101710000838024000004742800E474200700040F7
:10172000002021490866FFF7EFFA054606E0FFF7BB
:10173000EBFA401B022801D90320EFE51B480068A3
:10174000C0F340600028F2D12CE0A069012800D14C
:10175000E4E51648001D0668A069012820D006F4BB
:101760008001E06981421BD106F03F01206A81427D
:1017700016D147F6C0703040616AB0EB811F0FD1BF
:1017800006F440310122A06AC2EB5000B1EB004FD9
:1017900006D106F070612C20005DB1EB006F01D026
:1017A0000120BBE50020B9E50000474200380240B7
:1017B000704702460023106800F1500303EB8103D9
:1017C0001868704710B50023046804F1500303EB58
:1017D00081031A6010BD000018B5034600BF187FD2
:1017E000012801D1022018BD0120187700BF022076
:1017F000587700BFCA201C68606253201C68606272
:1018000000BF1868806800F4806000B34148006839
:1018100040094FF47A74B0FBF4F06043009000BFCD
:101820000098441E009460B900BFFF201C686062ED
:1018300000BF0320587700BF0020187700BF0320A7
:10184000D1E71868C068C0F380000028E8D11868A4
:10185000806820F480601C68A0602E480068400901
:101860004FF47A74B0FBF4F06043009000BF00982E
:10187000441E009460B900BFFF201C68606200BF76
:101880000320587700BF0020187700BF0320AAE785
:101890001868C068C0F380000028E8D0186841616B
:1018A0001868806820F007001C68A06018688068CD
:1018B00010431C68A0601848006840F48000164C73
:1018C000206015480830006840F48000124C08344D
:1018D00020601868C06800F0800060F490601C68A8
:1018E000E0601868806840F480401C68A060186858
:1018F000806840F480601C68A06000BFFF201C6806
:10190000606200BF0120587700BF0020187700BF39
:1019100000BF68E700000020003C014010B504460D
:1019200000BF4FF480610248FFF7D8F900BF10BD37
:101930000014024010B504462068C068C0F380203F
:1019400050B12046FFF7EAFF2068C06800F0800031
:1019500060F490602168C8604FF48000024908601C
:101960000120607710BD0000143C014010B5044612
:1019700005A0FEF727FD00BF4FF480610548FFF783
:10198000ADF900BF10BD0000414C41524D20412136
:101990000D0A00000014024010B50446206880685B
:1019A000C0F3003078B12068C068C0F3002050B1A7
:1019B0002046FFF7DBFF2068C06800F0800060F47D
:1019C000C0702168C86020688068C0F3403078B17A
:1019D0002068C068C0F3402050B12046FFF7E8FE01
:1019E0002068C06800F0800060F420702168C86042
:1019F0004FF40030024908600120607710BD0000FC
:101A0000143C01402DE9F84103460C4615460026DA
:101A100000277C48006840094FF47A71B0FBF1F070
:101A20004843009000BF187F012802D10220BDE882
:101A3000F8810120187700BF0220587755BB18683D
:101A4000806800F0400000B102E00020E07000BFBC
:101A5000E06900B900E000BF207800F08DFD4FEA9A
:101A60000048607800F088FD48EA0028A07800F07F
:101A700083FD48EA0008E07848EA004894F820002E
:101A800000F07AFD48EA0060E1690843616940EAD4
:101A900001061FE01868806800F0400000B102E015
:101AA0000020E07000BFE06900B900E000BF2078CE
:101AB0000004617840EA0120A1780843E17840EA17
:101AC000014094F8201040EA0160E169084361692F
:101AD00040EA0106A169606840EA010700BFCA2028
:101AE0001968486253201968486200BF606AB0F5FF
:101AF000807F36D11868806820F48070196888600B
:101B00001868C06800F0800060F4C0701968C86090
:101B100000BF0098411E009160B900BFFF20196806
:101B2000486200BF0320587700BF0020187700BF2D
:101B300003207CE71868C06800F001000028E8D0A6
:101B40001868C661186847641868806840F4807037
:101B5000196888601868806840F480501968886047
:101B600035E01868806820F400701968886018688B
:101B7000C06800F0800060F420701968C86000BF81
:101B80000098411E009160B900BFFF2019684862AB
:101B900000BF0320587700BF0020187700BF032044
:101BA00045E71868C068C0F340000028E8D018680E
:101BB0000662186887641868806840F400701968C5
:101BC00088601868806840F40050196888600E4882
:101BD000006840F400300C4908600B480830006889
:101BE00040F4003008490831086000BFFF20196840
:101BF000486200BF0120587700BF0020187700BF5F
:101C000000BF14E700000020003C01402DE9F04136
:101C100004460D461646002700BF207F012802D14A
:101C20000220BDE8F0810120207700BF022060770C
:101C30004EB9687800F01000102804D1687800F0E0
:101C4000EF000A30687086B9E87800F095FC03046C
:101C5000687800F091FC43EA0023A87800F08CFC3F
:101C60000343287843EA403709E0E87800046978BC
:101C700040EA0120A9780843297840EA413700BFAB
:101C8000CA202168486253202168486200BF20466C
:101C900000F07FFC60B100BFFF202168486200BFF8
:101CA0000420607700BF0020207700BF0120B8E744
:101CB00016483840216848602068C06820F08000DD
:101CC0002168C8602068806800F0200080B9204644
:101CD00000F0B4F860B100BFFF202168486200BF87
:101CE0000420607700BF0020207700BF012098E724
:101CF00000BFFF202168486200BF0120607700BF5D
:101D00000020207700BF00BF8BE700003FFFFF00EF
:101D10002DE9F04104460D461646002700BF207FFE
:101D2000012802D10220BDE8F0810120207700BF08
:101D300002206077CEB92068806800F0400000B1D2
:101D400002E00020E87000BF287800F015FC0304D2
:101D5000687800F011FC43EA0023A87800F00CFC3E
:101D60000343E87843EA004712E02068806800F007
:101D7000400000B102E00020E87000BF28780004B5
:101D8000697840EA0120A9780843E97840EA0147E8
:101D900000BFCA202168486253202168486200BF02
:101DA000204600F0F6FB60B100BFFF2021684862CA
:101DB00000BF0420607700BF0020207700BF012013
:101DC000B1E71D483840216808602068806820F429
:101DD000802021688860D5E903010843216889686B
:101DE0000843216888602068C06820F0800021686E
:101DF000C8602068806800F0200080B9204600F0AC
:101E00001DF860B100BFFF202168486200BF0420B8
:101E1000607700BF0020207700BF012083E700BF6C
:101E2000FF202168486200BF0120607700BF0020CA
:101E3000207700BF00BF76E77F7F7F0070B5044644
:101E400000252068C06820F0A0002168C860FEF767
:101E50005BFF054607E0FEF757FF401BB0F57A7FB2
:101E600001D9032070BD2068C06800F02000002860
:101E7000F1D00020F6E74FF0E020006940F00200CA
:101E80004FF0E0210861704770B504460E461546D4
:101E90000CB9012070BD94F8490028B9002084F8DD
:101EA0004800204600F01CF804F108012068FEF705
:101EB00035FD3146A2682068FEF75EFD2946236B9A
:101EC000D4E90102FEF706FDA168206850F8210060
:101ED00040F00100A268216841F822000020D9E703
:101EE00010B586B0044600BF00200090224800686C
:101EF00040F00100204908600846006800F0010039
:101F0000009000BF00BF00BF002000901A480838B2
:101F1000006840F008001849083908600846006861
:101F200000F00800009000BF00BF00BF002000903C
:101F30000846006840F0100008600846006800F09D
:101F40001000009000BF00BF4CF20370019002200F
:101F5000029001200390022004900C20059001A91A
:101F60000648FEF7B1FD4FF68070019001A90448C4
:101F7000FEF7AAFD06B010BD38380240000C024042
:101F80000010024070B504462546681EB0F1807FFF
:101F900001D301200FE0681E4FF0E02148610F21BE
:101FA0004FF0FF3000F0CAFD00204FF0E0218861C3
:101FB00007200861002070BD4FF0E020006920F08C
:101FC00002004FF0E0210861704710B504460CB9DB
:101FD000012010BD94F83D0028B9002084F83C0091
:101FE000204600F025F8022084F83D00211D2068DD
:101FF00000F028FB012084F8460000BF84F83E0072
:1020000001213F200155402001554120015500BFCD
:1020100000BF012084F842004320015544200155AF
:102020004520015500BF012084F83D000020D0E785
:1020300070470000014691F83D00012801D00120C1
:102040007047022081F83D000868C06840F0010038
:102050000B68D8601A4B086898421BD00868B0F12A
:10206000804F17D0174B0868984213D0164B08685A
:1020700098420FD0154B086898420BD0144B086853
:10208000984207D0134B0868984203D0124B086857
:1020900098420CD10868806800F00702062A0CD02C
:1020A0000868006840F001000B68186005E00868E7
:1020B000006840F001000B6818600020C0E70000D5
:1020C000000001400004004000080040000C0040F7
:1020D0000004014000400140001800407047704774
:1020E0002DE9F84F0446206805682068C668206816
:1020F00047694FF00009CA4605F00F09B9F1000F12
:102100000AD105F0200038B106F0200020B12046A9
:1021100000F039FBBDE8F88FB9F1000F72D007F07D
:10212000010018B906F4907000286BD005F001008A
:1021300030B106F4807018B1206C40F001002064CA
:1021400005F0040030B107F0010018B1206C40F038
:102150000200206405F0020030B107F0010018B160
:10216000206C40F00400206405F0080048B106F03F
:10217000200010B907F0010018B1206C40F00800F1
:102180002064206C70B305F0200028B106F0200018
:1021900010B1204600F0F7FA20684069C0F3801AB9
:1021A000206C00F0080010B9BAF1000F23D02046CF
:1021B00000F0BEFA2068406900F04000402816D1C7
:1021C0002068406920F0400021684861A06B50B150
:1021D0005648A16B0865A06BFEF745FC10B1A06BDB
:1021E000016D88470CE02046FFF779FF08E02046A4
:1021F000FFF775FF04E02046FFF771FF0020206421
:1022000088E7FFE7206B012879D105F0100000284E
:1022100075D006F01000002871D000BF002000909B
:1022200020680068009020684068009000BF00BFF0
:102230002068406900F04000402839D1A06B006858
:1022400040681FFA80F8B8F1000F30D0A08D4045EB
:102250002DDDA4F82E80A06BC069B0F5807F1FD063
:102260002068C06820F480702168C86020684069D8
:1022700020F00100216848612068406920F040009A
:1022800021684861202084F83E00002020632068F7
:10229000C06820F010002168C860A06BFEF78EFBBC
:1022A000A08DE28D801A81B22046FFF717FF31E73B
:1022B000A08DE18D401A1FFA80F8E08DE8B1B8F1E9
:1022C000000F1AD02068C06820F490702168C860A0
:1022D0002068406920F0010021684861202084F8CE
:1022E0003E00002020632068C06820F010002168B4
:1022F000C86041462046FFF7F1FE0BE7FFE705F017
:10230000800030B106F0800018B1204600F0D3FB09
:1023100000E705F0400030B106F0400018B120465B
:1023200000F021FAF6E600BFF4E600001D270008E1
:1023300010B504460CB9012010BDA06900B100E041
:1023400000BF94F83D0028B9002084F83C002046E6
:1023500000F028F8242084F83D002068C06820F4AC
:1023600000502168C860204600F06CFA20680069BF
:1023700020F49040216808612068406920F02A001C
:10238000216848612068C06840F400502168C86036
:1023900000202064202084F83D0084F83E000020C6
:1023A000CAE7000010B586B004462E49206888426E
:1023B00055D100BF00BF002000902B48006840F0BE
:1023C0001000294908600846006800F010000090DD
:1023D00000BF00BF00BF00BF00BF00200090224828
:1023E0001438006840F001001F491439086008469D
:1023F000006800F00100009000BF00BF00BF00BFF8
:1024000000BF002000900846006840F0010008600E
:102410000846006800F00100009000BF00BF00BF48
:1024200048150190022002900120039002200490A0
:102430000720059001A90D48FEF746FB4FF4806088
:1024400001900720059001A90848FEF73DFB2520D3
:10245000FEF7ABFC032211462520FEF7B6FC06B0C2
:1024600010BD00000010014044380240000002404E
:1024700070B504460D46164694F83E00202816D145
:1024800005B10EB9012070BD00BF94F83C000128D1
:1024900001D10220F7E7012084F83C0000BF0020B2
:1024A000206332462946204600F0E2FAEBE702209C
:1024B000E9E7000010B504462049206888423BD176
:1024C0001F48008800F4004088BB1D48008800F4C5
:1024D000804070B11B4800780A2803D000201849BA
:1024E000088024E01648008840F400401449088021
:1024F0001DE0144800780D2806D11148008840F4EA
:1025000080400F49088012E00E4800780C49098885
:10251000C1F30D010C4A505409480088401C084979
:10252000088008460088C72801DD002008800122B5
:1025300004490648FFF79CFF10BD00000010014051
:102540000C0000200E000020F0010020B802002046
:10255000704700BFFEE700BFFEE7704710B5FEF70B
:1025600089FD10BD7047000010B50248FFF714FA4E
:1025700010BD00005C0300200146002203E0521C55
:10258000A1F10A00C1B20A29F9D2100741EA10608C
:10259000704770B5044600252068C06800F0400010
:1025A000A0B9681E2168C860FEF7AEFB054607E0CB
:1025B000FEF7AAFB401BB0F57A7F01D9032070BD5E
:1025C0002068C06800F040000028F1D00020F6E745
:1025D00010B50248FFF7AEF910BD00005C03002003
:1025E000704710B5FEF796FB10BD00000348006869
:1025F00040F47000014908607047000088ED00E079
:1026000010B50E480068C06800F0010078B10C49B0
:1026100008698047002009490968486200BF6420B2
:1026200006490968C86264210448C16000BF6FF0B0
:10263000010002490968086110BD00007C03002008
:10264000FC00002010B50268294B98420ED0B0F172
:10265000804F0BD0274B984208D0274B984205D08B
:10266000264B984202D0264B984203D122F07002AA
:102670004B681A431E4B984220D0B0F1804F1DD0BA
:102680001C4B98421AD01C4B984217D01B4B9842B7
:1026900014D01B4B984211D01A4B98420ED01A4BB3
:1026A00098420BD0194B984208D0194B984205D04C
:1026B000184B984202D0184B984203D122F4407232
:1026C000CB681A4322F080034C6943EA040202609B
:1026D0008B68C3620B688362054B984202D0084B3B
:1026E000984201D10B6903630123436110BD0000CF
:1026F000000001400004004000080040000C0040C1
:1027000000040140004001400044014000480140F5
:1027100000180040001C00400020004070B5054635
:10272000AC6B0020E085E0842046FFF7D8FC70BD4C
:102730000168C96821F490710268D1600168496933
:1027400021F0010102685161016B012905D1016885
:10275000C96821F010010268D160202180F83E1084
:1027600000210163704710B504462068C06820F05E
:1027700040002168C860202084F83D002046FFF713
:10278000E7FE002010BD70B5044694F83E002228F4
:1027900056D1A068B0F5805F0CD1206950B90025F2
:1027A000A66A20684068C0F308003080A06A801CD8
:1027B000A06215E0A56A0026A068B0F5805F03D08E
:1027C000A06828B9206918B920684068287004E01A
:1027D0002068406800F07F002870A06A401CA0625A
:1027E000E08D401E80B2E08540BB2068C06820F0CC
:1027F00020002168C8602068C06820F480702168CB
:10280000C8602068406920F00100216848612020EC
:1028100084F83E00206B01280AD12068C06820F0AF
:1028200010002168C860A18D2046FFF757FC02E028
:102830002046FFF73FFE0020206370BD0020FCE72C
:102840000220FAE72DE9F84F04462068006920F4D9
:102850004050E1680843216808612169A068084385
:1028600061690843E169084300902068C06849F243
:102870000C618843009908432168C860206840695A
:1028800020F44070A16908432168486176492068B6
:10289000884203D075492068884203D1FEF7D2FCF4
:1028A000814602E0FEF7BEFC8146E069B0F5004FCC
:1028B0006CD102206168A0FB015003461920A9FBDE
:1028C000007001462A463846FDF705FD6421B0FB3D
:1028D000F1F04FEA001A02206168A0FB01510B469B
:1028E0001920A9FB00712A463846FDF7F4FC8346FF
:1028F00002206168A0FB015003461920A9FB00716A
:102900002A463846FDF7E7FC6421B0FBF1F000EB06
:10291000C00101EB0010ABEB8000322101EBC000E5
:102920006421B0FBF1F000F0F8000AEB400A02204D
:102930006168A0FB015003461920A9FB0070014605
:102940002A463846FDF7C7FC834602206168A0FB93
:10295000015003461920A9FB00712A463846FDF7AD
:10296000BAFC6421B0FBF1F000EBC00101EB0010F8
:10297000ABEB8000322101EBC0006421B0FBF1F031
:1029800000F007005044216888606AE00420616814
:10299000A0FB015003461920A9FB007001462A46FE
:1029A0003846FDF798FC824604206168A0FB015080
:1029B00003461920A9FB007001462A463846FDF758
:1029C0008AFC6421B0FBF1F000EBC00101EB0010C8
:1029D000AAEB8000322101EB00106421B0FBF1F082
:1029E00000F0F00A04206168A0FB01700346192082
:1029F000A9FB00513A462846FDF76DFC6421B0FB67
:102A0000F1F00AEB001A04206168A0FB01510B46AB
:102A10001920A9FB00712A463846FDF75CFC834665
:102A200004206168A0FB015003461920A9FB007037
:102A300001462A463846FDF74EFC6421B0FBF1F012
:102A400000EBC00101EB0010ABEB8000322101EB89
:102A500000106421B0FBF1F000F00F005044216839
:102A60008860BDE8F88F00000010014000140140AC
:102A700010B5034699629A85DA85002018642220F1
:102A800083F83E0000BF002083F83C0000BF1868B8
:102A9000C06840F480701C68E0601868406940F0CD
:102AA00001001C6860611868C06840F020001C6864
:102AB000E060002010BD014691F83D00212828D19A
:102AC0008868B0F5805F0BD1086948B90A6A108838
:102AD000C0F308000B685860086A801C086205E0B3
:102AE0000B6A581C086218780B685860C88C401E26
:102AF00080B2C88458B90868C06820F080000B68AC
:102B0000D8600868C06840F040000B68D8600020BA
:102B100070470220FCE7000010B50248FFF7E0FA1A
:102B200010BD0000B802002000BFFEE702480068A8
:102B3000C0F30220704700000CED00E010B5002843
:102B400004DB0A07130E054A135406E00A07140EA5
:102B5000034A00F00F031B1FD45410BD00E400E033
:102B600018ED00E030380A2801D20120704700201B
:102B7000704700BF704700000149086070470000BF
:102B80000400002010B504464FF47A7104FB01F0F4
:102B900000F002F810BD000070B5034600224FF0AF
:102BA000E02675690D4E366803FB06F44FF0E0260B
:102BB000B16910E04FF0E026B06988420BD088423E
:102BC00002D20E1A324402E02E1A0E44324401465A
:102BD000A24200D300E0EDE700BF70BD040000207A
:102BE00000BF054A126802F04002002AF9D0C2B2C2
:102BF000014B5A60704700000010014000B587B0DB
:102C000000BF00BF002001903148006840F0100074
:102C10002F4908600846006800F01000019000BFCE
:102C200000BF00BF00BF00BF002001900846006841
:102C300040F0100008600846006800F010000190A5
:102C400000BF00BF00BF00BF00BF002001900846CA
:102C5000006840F0100008600846006800F01000AE
:102C6000019000BF00BF00BF00BF00BF0020019067
:102C70000846006840F0010008600846006800F05F
:102C80000100019000BF00BF00BF10200290002093
:102C90000390012004900220059002A90D48FDF741
:102CA00013FF0820029002A90A48FDF70DFF042037
:102CB000029002A90748FDF707FF012002900220B9
:102CC000049002A90448FDF7FFFE07B000BD000014
:102CD00030380240001002400000024070B5044647
:102CE000002514B101202B4908702A4800780028DB
:102CF00034D010212848FDF7E9FF78B10821264893
:102D0000FDF7E4FF50B104212348FDF7DFFF28B1B0
:102D100001212248FDF7DAFF01281FD10A20FFF721
:102D200031FF00201B49087010211B48FDF7CEFF22
:102D300000B9012508211848FDF7C8FF00B9022590
:102D400004211548FDF7C2FF00B9032501211348EE
:102D5000FDF7BCFF01281BD1042519E010210E4806
:102D6000FDF7B4FF012813D108210B48FDF7AEFF92
:102D700001280DD104210848FDF7A8FF012807D13B
:102D800001210648FDF7A2FF10B901200149087092
:102D9000284670BD240000200010024000000240C0
:102DA00070B504460026094805884088454300213F
:102DB000084603F007FA03F061FC00BF02E0044894
:102DC0000480761CAE42FAD370BD00004C03002094
:102DD0008000006C10B5044658488471002C58D10E
:102DE000F020564908804FF4A0704880084680883B
:102DF00045F21051884210D14FF430504F490881AC
:102E00004FF4285048814FF42C5088814FF4F070D3
:102E100008804FF4487048801AE04848808841F69E
:102E2000631188420DD12C20444908812B20488110
:102E30002A2088814FF4F07008804FF44870488051
:102E400006E02C203D4908812A2048812B208881DA
:102E50003A48808845F21031884205D0374880884A
:102E600047F29671884206D14FF4A070334908802A
:102E70004FF4F07048803148808849F60601884256
:102E800058D14FF4F0702D4908804FF448704880B5
:102E900050E04FF4A07029490880F020488008468F
:102EA000808845F21051884210D14FF430502349A8
:102EB00008814FF4285048814FF42C5088814FF4FA
:102EC000487008804FF4F070488020E01B488088EC
:102ED00041F66311884205D01848808849F60601FA
:102EE00088420DD12C20154908812A2048812B20A9
:102EF00088814FF4487008804FF4F070488006E0F5
:102F00002C200E4908812A2048812B2088810B48DB
:102F1000808845F21031884205D00848808847F201
:102F20009671884206D14FF4F070044908804FF43E
:102F3000A0704880002003F027F810BD4C0300204B
:102F40002DE9F04706460F4690469A46002445462E
:102F50000320A0EB480944E07A1B91B2321990B2E9
:102F6000524600F099F83A1B91B2721990B252464B
:102F700000F092F83A1991B2721990B2524600F0EC
:102F80008BF87A1991B2321990B2524600F084F857
:102F90007A1991B2321B90B2524600F07DF83A197C
:102FA00091B2721B90B2524600F076F87A1B91B241
:102FB000321B90B2524600F06FF83A1B91B2721B6E
:102FC00090B2524600F068F8641CB9F1000F03DAC1
:102FD000A000801D814404E0601B80000A30814411
:102FE0006D1EAC42B8DDBDE8F0872DE9FF4F84B01F
:102FF00081468A460020029083460698A0EB090588
:103000000798A0EB0A06CDF80490CDF800A0002D9B
:1030100001DD012705E00DB9002702E04FF0FF3781
:103020006D42002E02DD4FF0010806E016B94FF0A8
:10303000000802E04FF0FF387642B54201DD2C4631
:1030400000E03446002003901EE0009A91B2019AFD
:1030500090B2119A00F020F8029828440290B344EC
:103060000298A04205DD0298001B029001983844A6
:103070000190A34504DDABEB040B009840440090A5
:103080000398401C80B20390611C03988842DCDDE9
:1030900008B0BDE8F08F000070B505460E46144636
:1030A0003146284603F08EF803F0E8FA01490C8017
:1030B00070BD00008000006C2DE9F84105460E4609
:1030C00017469846079C33463A46314628460094B0
:1030D000FFF78BFF43462A46314628460094FFF708
:1030E00084FF43463A46414628460094FFF77DFF59
:1030F00043463A46314638460094FFF776FFBDE82E
:10310000F88110B5CF2003F0ADFA002003F09EFA4D
:10311000C12003F09BFA302003F098FAED2003F071
:10312000A1FA642003F092FA032003F08FFA122030
:1031300003F08CFA812003F089FAE82003F092FA78
:10314000852003F083FA102003F080FA7A2003F040
:103150007DFACB2003F086FA392003F077FA2C2091
:1031600003F074FA002003F071FA342003F06EFAD1
:10317000022003F06BFAF72003F074FA202003F02A
:1031800065FAEA2003F06EFA002003F05FFA0020EF
:1031900003F05CFAC02003F065FA1B2003F056FA36
:1031A000C12003F05FFA012003F050FAC52003F0BC
:1031B00059FA302003F04AFA302003F047FAC720CA
:1031C00003F050FAB72003F041FA362003F04AFA30
:1031D000482003F03BFA3A2003F044FA552003F06C
:1031E00035FAB12003F03EFA002003F02FFA1A203E
:1031F00003F02CFAB62003F035FA0A2003F026FA81
:10320000A22003F023FAF22003F02CFA002003F0AE
:103210001DFA262003F026FA012003F017FAE02019
:1032200003F020FA0F2003F011FA2A2003F00EFA1F
:10323000282003F00BFA082003F008FA0E2003F010
:1032400005FA082003F002FA542003F0FFF9A92040
:1032500003F0FCF9432003F0F9F90A2003F0F6F932
:103260000F2003F0F3F9002003F0F0F9002003F041
:10327000EDF9002003F0EAF9002003F0E7F9E1207E
:1032800003F0F0F9002003F0E1F9152003F0DEF976
:10329000172003F0DBF9072003F0D8F9112003F021
:1032A000D5F9062003F0D2F92B2003F0CFF95620F0
:1032B00003F0CCF93C2003F0C9F9052003F0C6F96E
:1032C000102003F0C3F90F2003F0C0F93F2003F0F2
:1032D000BDF93F2003F0BAF90F2003F0B7F92B2016
:1032E00003F0C0F9002003F0B1F9002003F0AEF9BB
:1032F000012003F0ABF93F2003F0A8F92A2003F0E6
:10330000B1F9002003F0A2F9002003F09FF900209A
:1033100003F09CF9EF2003F099F9112003F0A2F9D2
:103320007820FFF72FFC292003F09CF910BD10B581
:10333000FF2003F097F9FF2003F088F9982003F0AD
:1033400085F9062003F082F9BC2003F08BF90120F7
:1033500003F07CF90F2003F079F9612003F076F98E
:10336000FF2003F073F9012003F070F9012003F04E
:103370006DF90B2003F06AF9102003F067F937208C
:1033800003F064F9632003F061F9FF2003F05EF9B4
:10339000FF2003F05BF9012003F058F9012003F04E
:1033A00055F9002003F052F9002003F04FF9FF20F7
:1033B00003F04CF9522003F049F9012003F046F9DB
:1033C000002003F043F9402003F040F9BD2003F052
:1033D00049F9012003F03AF9232003F037F9452099
:1033E00003F034F9672003F031F9012003F02EF9DE
:1033F000232003F02BF9452003F028F9672003F080
:1034000025F9BE2003F02EF9002003F01FF901205A
:1034100003F01CF9AB2003F019F9602003F016F952
:10342000222003F013F9222003F010F9222003F0E8
:103430000DF9222003F00AF9222003F007F9C72032
:1034400003F010F9362003F001F9ED2003F00AF93A
:103450007F2003F0FBF80F2003F0F8F8C02003F002
:1034600001F90F2003F0F2F80B2003F0EFF80A2027
:1034700003F0ECF8FC2003F0F5F8082003F0E6F880
:10348000DF2003F0EFF8002003F0E0F8002003F065
:10349000DDF8002003F0DAF8002003F0D7F8002070
:1034A00003F0D4F8202003F0D1F8F32003F0DAF889
:1034B000742003F0CBF8B42003F0D4F8002003F01C
:1034C000C5F8002003F0C2F8002003F0BFF8F72091
:1034D00003F0C8F8822003F0B9F8B12003F0C2F875
:1034E000002003F0B3F8132003F0B0F8132003F02A
:1034F000ADF8F22003F0B6F8802003F0A7F804201E
:1035000003F0A4F8402003F0A1F8282003F09EF86F
:10351000C12003F0A7F8172003F098F8882003F0E3
:1035200095F8882003F092F8202003F08FF8E0202F
:1035300003F098F8002003F089F80A2003F086F8D9
:10354000122003F083F8102003F080F80E2003F01F
:103550007DF8202003F07AF8CC2003F077F80720DC
:1035600003F074F8062003F071F80B2003F06EF8F6
:103570000E2003F06BF80F2003F068F80D2003F025
:1035800065F8152003F062F8102003F05FF80020C2
:1035900003F05CF8E12003F065F8002003F056F832
:1035A0000B2003F053F8132003F050F80D2003F024
:1035B0004DF80E2003F04AF81B2003F047F8712065
:1035C00003F044F8062003F041F8062003F03EF82B
:1035D0000A2003F03BF80F2003F038F80E2003F028
:1035E00035F80F2003F032F8152003F02FF80C20E7
:1035F00003F02CF8002003F029F82A2003F032F819
:10360000002003F023F8002003F020F8012003F04D
:103610001DF8DF2003F01AF82B2003F023F8002018
:1036200003F014F8002003F011F8032003F00EF863
:103630001F2003F00BF83A2003F014F8552003F094
:1036400005F8362003F00EF8002002F0FFFF1120ED
:1036500003F008F87820FFF795FA292003F002F824
:103660001420FFF78FFA2C2002F0FCFF10BD10B5DC
:10367000ED2002F0F7FF012002F0E8FFFE2002F04B
:10368000E5FFEE2002F0EEFFDE2002F0DFFF21205A
:1036900002F0DCFFF12002F0E5FF012002F0D6FF8E
:1036A000DF2002F0DFFF102002F0D0FFC42002F084
:1036B000D9FF8F2002F0CAFFC62002F0D3FF0020FE
:1036C00002F0C4FFE22002F0C1FFE22002F0BEFFE0
:1036D000E22002F0BBFFBF2002F0C4FFAA2002F0EC
:1036E000B5FFB02002F0BEFF0D2002F0AFFF0020BA
:1036F00002F0ACFF0D2002F0A9FF002002F0A6FFAF
:10370000112002F0A3FF002002F0A0FF192002F018
:103710009DFF002002F09AFF212002F097FF002079
:1037200002F094FF2D2002F091FF002002F08EFFA6
:103730003D2002F08BFF002002F088FF5D2002F0A8
:1037400085FF002002F082FF5D2002F07FFF002055
:1037500002F07CFFB12002F085FF802002F076FFAE
:10376000002002F073FF8B2002F070FF002002F0B7
:103770006DFF962002F06AFF002002F067FFB22082
:1037800002F070FF002002F061FF002002F05EFFF7
:10379000022002F05BFF002002F058FF032002F03D
:1037A00055FF002002F052FFB32002F05BFF002023
:1037B00002F04CFF002002F049FF002002F046FF1B
:1037C000002002F043FF002002F040FF002002F042
:1037D0003DFF002002F03AFF002002F037FF0020FA
:1037E00002F034FF002002F031FF002002F02EFF33
:1037F000002002F02BFF002002F028FF002002F042
:1038000025FF002002F022FF002002F01FFF002011
:1038100002F01CFF002002F019FF002002F016FF4A
:10382000002002F013FF002002F010FF002002F041
:103830000DFF002002F00AFF002002F007FFB42075
:1038400002F010FF8B2002F001FF002002F0FEFECC
:10385000962002F0FBFE002002F0F8FEA12002F00C
:10386000F5FE002002F0F2FEB52002F0FBFE022081
:1038700002F0ECFE002002F0E9FE032002F0E6FE7A
:10388000002002F0E3FE042002F0E0FE002002F03F
:10389000DDFEB62002F0E6FE002002F0D7FE00209A
:1038A00002F0D4FEB72002F0DDFE002002F0CEFED2
:1038B000002002F0CBFE3F2002F0C8FE002002F004
:1038C000C5FE5E2002F0C2FE002002F0BFFE6420B2
:1038D00002F0BCFE002002F0B9FE8C2002F0B6FE21
:1038E000002002F0B3FEAC2002F0B0FE002002F097
:1038F000ADFEDC2002F0AAFE002002F0A7FE702040
:1039000002F0A4FE002002F0A1FE902002F09EFE34
:10391000002002F09BFEEB2002F098FE002002F057
:1039200095FEDC2002F092FE002002F08FFEB8200F
:1039300002F098FE002002F089FE002002F086FED0
:10394000002002F083FE002002F080FE002002F042
:103950007DFE002002F07AFE002002F077FE0020BB
:1039600002F074FEBA2002F07DFE242002F06EFE0A
:10397000002002F06BFE002002F068FE002002F042
:1039800065FEC12002F06EFE202002F05FFE0020E6
:1039900002F05CFE542002F059FE002002F056FEB8
:1039A000FF2002F053FE002002F050FEC22002F081
:1039B00059FE0A2002F04AFE002002F047FE0420D1
:1039C00002F044FE002002F041FEC32002F04AFE55
:1039D0003C2002F03BFE002002F038FE3A2002F0CC
:1039E00035FE002002F032FE392002F02FFE0020CA
:1039F00002F02CFE372002F029FE002002F026FE05
:103A00003C2002F023FE002002F020FE362002F0CF
:103A10001DFE002002F01AFE322002F017FE0020E8
:103A200002F014FE2F2002F011FE002002F00EFE24
:103A30002C2002F00BFE002002F008FE292002F0EC
:103A400005FE002002F002FE262002F0FFFD00200D
:103A500002F0FCFD242002F0F9FD002002F0F6FD4A
:103A6000242002F0F3FD002002F0F0FD232002F0FC
:103A7000EDFD002002F0EAFD3C2002F0E7FD002011
:103A800002F0E4FD362002F0E1FD002002F0DEFD50
:103A9000322002F0DBFD002002F0D8FD2F2002F0E2
:103AA000D5FD002002F0D2FD2C2002F0CFFD002039
:103AB00002F0CCFD292002F0C9FD002002F0C6FD75
:103AC000262002F0C3FD002002F0C0FD242002F0F9
:103AD000BDFD002002F0BAFD242002F0B7FD002059
:103AE00002F0B4FD232002F0B1FD002002F0AEFD93
:103AF000C42002F0B7FD622002F0A8FD002002F011
:103B0000A5FD052002F0A2FD002002F09FFD84200B
:103B100002F09CFD002002F099FDF02002F096FDDD
:103B2000002002F093FD182002F090FD002002F02A
:103B30008DFDA42002F08AFD002002F087FD1820F0
:103B400002F084FD002002F081FD502002F07EFD95
:103B5000002002F07BFD0C2002F078FD002002F036
:103B600075FD172002F072FD002002F06FFD952018
:103B700002F06CFD002002F069FDF32002F066FD0A
:103B8000002002F063FDE62002F060FD002002F05C
:103B90005DFDC52002F066FD322002F057FD0020D9
:103BA00002F054FD442002F051FD002002F04EFDD1
:103BB000652002F04BFD002002F048FD762002F067
:103BC00045FD002002F042FD882002F03FFD00206C
:103BD00002F03CFDC62002F045FD202002F036FD3B
:103BE000002002F033FD172002F030FD002002F02B
:103BF0002DFD012002F02AFD002002F027FDC72044
:103C000002F030FD002002F021FD002002F01EFD38
:103C1000002002F01BFD002002F018FDC82002F079
:103C200021FD002002F012FD002002F00FFD002017
:103C300002F00CFD002002F009FDC92002F012FD87
:103C4000002002F003FD002002F000FD002002F041
:103C5000FDFC002002F0FAFC002002F0F7FC00203E
:103C600002F0F4FC002002F0F1FC002002F0EEFC77
:103C7000002002F0EBFC002002F0E8FC002002F043
:103C8000E5FC002002F0E2FC002002F0DFFC002056
:103C900002F0DCFC002002F0D9FC002002F0D6FC8F
:103CA000E02002F0DFFC162002F0D0FC002002F041
:103CB000CDFC1C2002F0CAFC002002F0C7FC212031
:103CC00002F0C4FC002002F0C1FC362002F0BEFC71
:103CD000002002F0BBFC462002F0B8FC002002F0FD
:103CE000B5FC522002F0B2FC002002F0AFFC6420D0
:103CF00002F0ACFC002002F0A9FC7A2002F0A6FC45
:103D0000002002F0A3FC8B2002F0A0FC002002F0B7
:103D10009DFC992002F09AFC002002F097FCA8205C
:103D200002F094FC002002F091FCB92002F08EFC1D
:103D3000002002F08BFCC42002F088FC002002F07E
:103D400085FCCA2002F082FC002002F07FFCD22019
:103D500002F07CFC002002F079FCD92002F076FC15
:103D6000002002F073FCE02002F070FC002002F062
:103D70006DFCF32002F06AFC002002F067FCE120F9
:103D800002F070FC162002F061FC002002F05EFCE4
:103D90001C2002F05BFC002002F058FC222002F004
:103DA00055FC002002F052FC362002F04FFC0020AF
:103DB00002F04CFC452002F049FC002002F046FCD9
:103DC000522002F043FC002002F040FC642002F08C
:103DD0003DFC002002F03AFC7A2002F037FC002083
:103DE00002F034FC8B2002F031FC002002F02EFCAB
:103DF000992002F02BFC002002F028FCA82002F001
:103E000025FC002002F022FCB92002F01FFC00205B
:103E100002F01CFCC42002F019FC002002F016FC89
:103E2000CA2002F013FC002002F010FCD22002F0A5
:103E30000DFC002002F00AFCD82002F007FC002054
:103E400002F004FCE02002F001FC002002F0FEFB86
:103E5000F32002F0FBFB002002F0F8FBE22002F06E
:103E600001FC052002F0F2FB002002F0EFFB0B202A
:103E700002F0ECFB002002F0E9FB1B2002F0E6FB65
:103E8000002002F0E3FB342002F0E0FB002002F00F
:103E9000DDFB442002F0DAFB002002F0D7FB4F20CC
:103EA00002F0D4FB002002F0D1FB612002F0CEFB37
:103EB000002002F0CBFB792002F0C8FB002002F0CA
:103EC000C5FB882002F0C2FB002002F0BFFB972058
:103ED00002F0BCFB002002F0B9FBA62002F0B6FB0A
:103EE000002002F0B3FBB72002F0B0FB002002F08C
:103EF000ADFBC22002F0AAFB002002F0A7FBC72006
:103F000002F0A4FB002002F0A1FBD12002F09EFBF6
:103F1000002002F09BFBD62002F098FB002002F06C
:103F200095FBDD2002F092FB002002F08FFBF320D6
:103F300002F08CFB002002F089FBE32002F092FBF0
:103F4000052002F083FB002002F080FB0A2002F033
:103F50007DFB002002F07AFB1C2002F077FB0020A2
:103F600002F074FB332002F071FB002002F06EFBC4
:103F7000442002F06BFB002002F068FB502002F0AE
:103F800065FB002002F062FB622002F05FFB002074
:103F900002F05CFB782002F059FB002002F056FB97
:103FA000882002F053FB002002F050FB972002F023
:103FB0004DFB002002F04AFBA62002F047FB002048
:103FC00002F044FBB72002F041FB002002F03EFB70
:103FD000C22002F03BFB002002F038FBC72002F0B9
:103FE00035FB002002F032FBD12002F02FFB002035
:103FF00002F02CFBD52002F029FB002002F026FB6A
:10400000DD2002F023FB002002F020FBF32002F071
:104010001DFB002002F01AFBE42002F023FB01202C
:1040200002F014FB002002F011FB012002F00EFB55
:10403000002002F00BFB022002F008FB002002F03F
:1040400005FB2A2002F002FB002002F0FFFA3C20D0
:1040500002F0FCFA002002F0F9FA4B2002F0F6FA26
:10406000002002F0F3FA5D2002F0F0FA002002F0E6
:10407000EDFA742002F0EAFA002002F0E7FA842058
:1040800002F0E4FA002002F0E1FA932002F0DEFAF6
:10409000002002F0DBFAA22002F0D8FA002002F0A1
:1040A000D5FAB32002F0D2FA002002F0CFFABE20F7
:1040B00002F0CCFA002002F0C9FAC42002F0C6FADD
:1040C000002002F0C3FACD2002F0C0FA002002F076
:1040D000BDFAD32002F0BAFA002002F0B7FADD20D0
:1040E00002F0B4FA002002F0B1FAF32002F0AEFAC6
:1040F000002002F0ABFAE52002F0B4FA002002F052
:10410000A5FA002002F0A2FA002002F09FFA002097
:1041100002F09CFA022002F099FA002002F096FACE
:10412000292002F093FA002002F090FA3C2002F0DD
:104130008DFA002002F08AFA4B2002F087FA002064
:1041400002F084FA5D2002F081FA002002F07EFA8B
:10415000742002F07BFA002002F078FA842002F04A
:1041600075FA002002F072FA932002F06FFA002034
:1041700002F06CFAA22002F069FA002002F066FA5E
:10418000B32002F063FA002002F060FABE2002F0D1
:104190005DFA002002F05AFAC42002F057FA00201B
:1041A00002F054FACD2002F051FA002002F04EFA4B
:1041B000D32002F04BFA002002F048FADC2002F093
:1041C00045FA002002F042FAF32002F03FFA002004
:1041D00002F03CFAE62002F045FA112002F036FA2D
:1041E000002002F033FA342002F030FA002002F00E
:1041F0002DFA562002F02AFA002002F027FA762043
:1042000002F024FA002002F021FA772002F01EFAD0
:10421000002002F01BFA662002F018FA002002F0DB
:1042200015FA882002F012FA002002F00FFA992005
:1042300002F00CFA002002F009FABB2002F006FAA4
:10424000002002F003FA992002F000FA002002F0A8
:10425000FDF9662002F0FAF9002002F0F7F9552086
:1042600002F0F4F9002002F0F1F9552002F0EEF925
:10427000002002F0EBF9452002F0E8F9002002F0FE
:10428000E5F9432002F0E2F9002002F0DFF94420D2
:1042900002F0DCF9002002F0D9F9E72002F0E2F99F
:1042A000322002F0D3F9002002F0D0F9552002F0BC
:1042B000CDF9002002F0CAF9762002F0C7F90020FB
:1042C00002F0C4F9662002F0C1F9002002F0BEF944
:1042D000672002F0BBF9002002F0B8F9672002F075
:1042E000B5F9002002F0B2F9872002F0AFF9002002
:1042F00002F0ACF9992002F0A9F9002002F0A6F929
:10430000BB2002F0A3F9002002F0A0F9992002F0EE
:104310009DF9002002F09AF9772002F097F9002029
:1043200002F094F9442002F091F9002002F08EF995
:10433000562002F08BF9002002F088F9232002F0C9
:1043400085F9002002F082F9332002F07FF9002085
:1043500002F07CF9452002F079F9002002F076F9AC
:10436000E82002F07FF9002002F070F9002002F04E
:104370006DF9992002F06AF9002002F067F98720B0
:1043800002F064F9002002F061F9882002F05EF981
:10439000002002F05BF9772002F058F9002002F0CB
:1043A00055F9662002F052F9002002F04FF98820FA
:1043B00002F04CF9002002F049F9AA2002F046F977
:1043C000002002F043F9BB2002F040F9002002F087
:1043D0003DF9992002F03AF9002002F037F9662001
:1043E00002F034F9002002F031F9552002F02EF9E4
:1043F000002002F02BF9552002F028F9002002F0ED
:1044000025F9442002F022F9002002F01FF944208F
:1044100002F01CF9002002F019F9552002F016F9FB
:10442000002002F013F9E92002F01CF9AA2002F0A2
:104430000DF9002002F00AF9002002F007F900202F
:1044400002F004F9002002F00DF9AA2002F0FEF8B3
:10445000CF2002F007F9002002F0F8F8002002F067
:10446000F5F8002002F0F2F8002002F0EFF800204A
:1044700002F0ECF8002002F0E9F8002002F0E6F883
:10448000002002F0E3F8002002F0E0F8002002F043
:10449000DDF8002002F0DAF8002002F0D7F8002062
:1044A00002F0D4F8002002F0D1F8002002F0CEF89B
:1044B000002002F0CBF8002002F0C8F8F02002F053
:1044C000D1F8002002F0C2F8502002F0BFF800201E
:1044D00002F0BCF8002002F0B9F8002002F0B6F8B3
:1044E000F32002F0BFF8002002F0B0F8F92002F04B
:1044F000B9F8062002F0AAF8102002F0A7F8292047
:1045000002F0A4F8002002F0A1F83A2002F0AAF884
:10451000552002F09BF8112002F0A4F86420FEF769
:1045200031FB292002F09EF8352002F09BF8002094
:1045300002F08CF8512002F095F8FF2002F086F886
:10454000532002F08FF82C2002F080F8552002F062
:1045500089F8822002F07AF82C2002F083F810BD4E
:1045600010B555214FF4704002F092F8AA214FF295
:10457000010002F08DF852214FF2020002F088F89B
:1045800008214FF2030002F083F801214FF20400EA
:1045900002F07EF80D214FF4304002F079F80D2141
:1045A0004BF2010002F074F80D214BF2020002F010
:1045B0006FF834214FF4364002F06AF834214BF2A0
:1045C000016002F065F834214BF2026002F060F8FD
:1045D0000D214FF4314002F05BF80D214BF2011038
:1045E00002F056F80D214BF2021002F051F834217E
:1045F0004FF4374002F04CF834214BF2017002F0D6
:1046000047F834214BF2027002F042F800214FF4D7
:10461000324002F03DF800214BF2012002F038F860
:1046200000214BF2022002F033F824214FF43840ED
:1046300002F02EF824214BF6010002F029F8242183
:104640004BF6020002F024F801214FF43F4002F043
:104650001FF80F214FF4334002F01AF80F214BF2EC
:10466000013002F015F80F214BF2023002F010F881
:1046700034214FF4394002F00BF834214BF601108D
:1046800002F006F834214BF6021002F001F808217E
:104690004FF4354001F0FCFF08214BF2015001F0CE
:1046A000F7FF08214BF2025001F0F2FF03214FF413
:1046B000424001F0EDFF24214FF43A4001F0E8FFC1
:1046C00024214BF6012001F0E3FF24214BF60220C8
:1046D00001F0DEFF00214FF43C4001F0D9FF7821CA
:1046E0004BF6014001F0D4FF00214BF6024001F0EF
:1046F000CFFF00214FF43D4001F0CAFF78214BF677
:10470000015001F0C5FF00214BF6025001F0C0FF3F
:1047100000214FF43E4001F0BBFF64214BF60160E5
:1047200001F0B6FF00214FF4514001F0B1FF3321F9
:104730004DF2011001F0ACFF00214DF2021001F02A
:10474000A7FF34214DF2031001F0A2FF00214DF22A
:10475000041001F09DFF3A214DF2051001F098FF81
:1047600000214DF2061001F093FF4A214DF207108F
:1047700001F08EFF00214DF2081001F089FF5C214D
:104780004DF2091001F084FF00214DF20A1001F0F2
:104790007FFF81214DF20B1001F07AFF00214DF2D5
:1047A0000C1001F075FFA6214DF20D1001F070FF05
:1047B00000214DF20E1001F06BFFE5214DF20F10BC
:1047C00001F066FF01214DF2101001F061FF13218D
:1047D0004DF2111001F05CFF01214DF2121001F0B9
:1047E00057FF54214DF2131001F052FF01214DF2F9
:1047F000141001F04DFF82214DF2151001F048FF19
:1048000001214DF2161001F043FFCA214DF217109D
:1048100001F03EFF02214DF2181001F039FF002196
:104820004DF2191001F034FF02214DF21A1001F07F
:104830002FFF01214DF21B1001F02AFF02214DF242
:104840001C1001F025FF34214DF21D1001F020FF56
:1048500002214DF21E1001F01BFF67214DF21F10C7
:1048600001F016FF02214DF2201001F011FF84210A
:104870004DF2211001F00CFF02214DF2221001F047
:1048800007FFA4214DF2231001F002FF02214DF297
:10489000241001F0FDFEB7214DF2251001F0F8FEC5
:1048A00002214DF2261001F0F3FECF214DF2271028
:1048B00001F0EEFE02214DF2281001F0E9FEDE21AA
:1048C0004DF2291001F0E4FE02214DF22A1001F010
:1048D000DFFEF2214DF22B1001F0DAFE02214DF243
:1048E0002C1001F0D5FEFE214DF22D1001F0D0FE6E
:1048F00003214DF22E1001F0CBFE10214DF22F10AE
:1049000001F0C6FE03214DF2301001F0C1FE33214B
:104910004DF2311001F0BCFE03214DF2321001F0D6
:10492000B7FE6D214DF2331001F0B2FE00214FF4BD
:10493000524001F0ADFE33214DF2012001F0A8FEFE
:1049400000214DF2022001F0A3FE34214DF203209C
:1049500001F09EFE00214DF2042001F099FE3A2163
:104960004DF2052001F094FE00214DF2062001F0E9
:104970008FFE4A214DF2072001F08AFE00214DF200
:10498000082001F085FE5C214DF2092001F080FE37
:1049900000214DF20A2001F07BFE81214DF20B2017
:1049A00001F076FE00214DF20C2001F071FEA621EF
:1049B0004DF20D2001F06CFE00214DF20E2001F0B1
:1049C00067FEE5214DF20F2001F062FE01214DF25C
:1049D000102001F05DFE13214DF2112001F058FE70
:1049E00001214DF2122001F053FE54214DF213200B
:1049F00001F04EFE01214DF2142001F049FE82210A
:104A00004DF2152001F044FE01214DF2162001F077
:104A10003FFECA214DF2172001F03AFE02214DF26D
:104A2000182001F035FE00214DF2192001F030FE72
:104A300002214DF21A2001F02BFE01214DF21B2024
:104A400001F026FE02214DF21C2001F021FE34214E
:104A50004DF21D2001F01CFE02214DF21E2001F03E
:104A600017FE67214DF21F2001F012FE02214DF2C8
:104A7000202001F00DFE84214DF2212001F008FEDE
:104A800002214DF2222001F003FEA4214DF2232049
:104A900001F0FEFD02214DF2242001F0F9FDB721C5
:104AA0004DF2252001F0F4FD02214DF2262001F007
:104AB000EFFDCF214DF2272001F0EAFD02214DF25A
:104AC000282001F0E5FDDE214DF2292001F0E0FD76
:104AD00002214DF22A2001F0DBFDF2214DF22B20C4
:104AE00001F0D6FD02214DF22C2001F0D1FDFE2176
:104AF0004DF22D2001F0CCFD03214DF22E2001F0CE
:104B0000C7FD10214DF22F2001F0C2FD03214DF20F
:104B1000302001F0BDFD33214DF2312001F0B8FD10
:104B200003214DF2322001F0B3FD6D214DF233200F
:104B300001F0AEFD00214FF4534001F0A9FD3321F7
:104B40004DF2013001F0A4FD00214DF2023001F0E0
:104B50009FFD34214DF2033001F09AFD00214DF20A
:104B6000043001F095FD3A214DF2053001F090FD41
:104B700000214DF2063001F08BFD4A214DF2073045
:104B800001F086FD00214DF2083001F081FD5C212D
:104B90004DF2093001F07CFD00214DF20A3001F0A8
:104BA00077FD81214DF20B3001F072FD00214DF2B5
:104BB0000C3001F06DFDA6214DF20D3001F068FDC5
:104BC00000214DF20E3001F063FDE5214DF20F3072
:104BD00001F05EFD01214DF2103001F059FD13216D
:104BE0004DF2113001F054FD01214DF2123001F06F
:104BF0004FFD54214DF2133001F04AFD01214DF2D9
:104C0000143001F045FD82214DF2153001F040FDD8
:104C100001214DF2163001F03BFDCA214DF2173053
:104C200001F036FD02214DF2183001F031FD002176
:104C30004DF2193001F02CFD02214DF21A3001F035
:104C400027FD01214DF21B3001F022FD02214DF222
:104C50001C3001F01DFD34214DF21D3001F018FD16
:104C600002214DF21E3001F013FD67214DF21F307D
:104C700001F00EFD02214DF2203001F009FD8421EA
:104C80004DF2213001F004FD02214DF2223001F0FD
:104C9000FFFCA4214DF2233001F0FAFC02214DF279
:104CA000243001F0F5FCB7214DF2253001F0F0FC85
:104CB00002214DF2263001F0EBFCCF214DF22730DE
:104CC00001F0E6FC02214DF2283001F0E1FCDE218A
:104CD0004DF2293001F0DCFC02214DF22A3001F0C6
:104CE000D7FCF2214DF22B3001F0D2FC02214DF223
:104CF0002C3001F0CDFCFE214DF22D3001F0C8FC2E
:104D000003214DF22E3001F0C3FC10214DF22F3063
:104D100001F0BEFC03214DF2303001F0B9FC33212B
:104D20004DF2313001F0B4FC03214DF2323001F08C
:104D3000AFFC6D214DF2333001F0AAFC00214FF49D
:104D4000544001F0A5FC33214DF2014001F0A0FCDC
:104D500000214DF2024001F09BFC34214DF2034052
:104D600001F096FC00214DF2044001F091FC3A2143
:104D70004DF2054001F08CFC00214DF2064001F09F
:104D800087FC4A214DF2074001F082FC00214DF2E0
:104D9000084001F07DFC5C214DF2094001F078FCF7
:104DA00000214DF20A4001F073FC81214DF20B40CD
:104DB00001F06EFC00214DF20C4001F069FCA621CF
:104DC0004DF20D4001F064FC00214DF20E4001F067
:104DD0005FFCE5214DF20F4001F05AFC01214DF23C
:104DE000104001F055FC13214DF2114001F050FC30
:104DF00001214DF2124001F04BFC54214DF21340C1
:104E000001F046FC01214DF2144001F041FC8221E9
:104E10004DF2154001F03CFC01214DF2164001F02D
:104E200037FCCA214DF2174001F032FC02214DF24D
:104E3000184001F02DFC00214DF2194001F028FC32
:104E400002214DF21A4001F023FC01214DF21B40DA
:104E500001F01EFC02214DF21C4001F019FC34212E
:104E60004DF21D4001F014FC02214DF21E4001F0F4
:104E70000FFC67214DF21F4001F00AFC02214DF2A8
:104E8000204001F005FC84214DF2214001F000FC9E
:104E900002214DF2224001F0FBFBA4214DF2234000
:104EA00001F0F6FB02214DF2244001F0F1FBB721A5
:104EB0004DF2254001F0ECFB02214DF2264001F0BD
:104EC000E7FBCF214DF2274001F0E2FB02214DF23A
:104ED000284001F0DDFBDE214DF2294001F0D8FB36
:104EE00002214DF22A4001F0D3FBF2214DF22B407A
:104EF00001F0CEFB02214DF22C4001F0C9FBFE2156
:104F00004DF22D4001F0C4FB03214DF22E4001F083
:104F1000BFFB10214DF22F4001F0BAFB03214DF2EF
:104F2000304001F0B5FB33214DF2314001F0B0FBD0
:104F300003214DF2324001F0ABFB6D214DF23340C5
:104F400001F0A6FB00214FF4554001F0A1FB3321F5
:104F50004DF2015001F09CFB00214DF2025001F096
:104F600097FB34214DF2035001F092FB00214DF2EA
:104F7000045001F08DFB3A214DF2055001F088FB01
:104F800000214DF2065001F083FB4A214DF20750FB
:104F900001F07EFB00214DF2085001F079FB5C210D
:104FA0004DF2095001F074FB00214DF20A5001F05E
:104FB0006FFB81214DF20B5001F06AFB00214DF295
:104FC0000C5001F065FBA6214DF20D5001F060FB85
:104FD00000214DF20E5001F05BFBE5214DF20F5028
:104FE00001F056FB01214DF2105001F051FB13214D
:104FF0004DF2115001F04CFB01214DF2125001F025
:1050000047FB54214DF2135001F042FB01214DF2B8
:10501000145001F03DFB82214DF2155001F038FB98
:1050200001214DF2165001F033FBCA214DF2175009
:1050300001F02EFB02214DF2185001F029FB002156
:105040004DF2195001F024FB02214DF21A5001F0EB
:105050001FFB01214DF21B5001F01AFB02214DF202
:105060001C5001F015FB34214DF21D5001F010FBD6
:1050700002214DF21E5001F00BFB67214DF21F5033
:1050800001F006FB02214DF2205001F001FB8421CA
:105090004DF2215001F0FCFA02214DF2225001F0B4
:1050A000F7FAA4214DF2235001F0F2FA02214DF259
:1050B000245001F0EDFAB7214DF2255001F0E8FA45
:1050C00002214DF2265001F0E3FACF214DF2275094
:1050D00001F0DEFA02214DF2285001F0D9FADE216A
:1050E0004DF2295001F0D4FA02214DF22A5001F07C
:1050F000CFFAF2214DF22B5001F0CAFA02214DF203
:105100002C5001F0C5FAFE214DF22D5001F0C0FAED
:1051100003214DF22E5001F0BBFA10214DF22F5019
:1051200001F0B6FA03214DF2305001F0B1FA33210B
:105130004DF2315001F0ACFA03214DF2325001F042
:10514000A7FA6D214DF2335001F0A2FA00214FF47D
:10515000564001F09DFA33214DF2016001F098FABA
:1051600000214DF2026001F093FA34214DF2036008
:1051700001F08EFA00214DF2046001F089FA3A2123
:105180004DF2056001F084FA00214DF2066001F055
:105190007FFA4A214DF2076001F07AFA00214DF2C0
:1051A000086001F075FA5C214DF2096001F070FAB7
:1051B00000214DF20A6001F06BFA81214DF20B6083
:1051C00001F066FA00214DF20C6001F061FAA621AF
:1051D0004DF20D6001F05CFA00214DF20E6001F01D
:1051E00057FAE5214DF20F6001F052FA01214DF21C
:1051F000106001F04DFA13214DF2116001F048FAF0
:1052000001214DF2126001F043FA54214DF2136076
:1052100001F03EFA01214DF2146001F039FA8221C9
:105220004DF2156001F034FA01214DF2166001F0E3
:105230002FFACA214DF2176001F02AFA02214DF22D
:10524000186001F025FA00214DF2196001F020FAF2
:1052500002214DF21A6001F01BFA01214DF21B6090
:1052600001F016FA02214DF21C6001F011FA34210E
:105270004DF21D6001F00CFA02214DF21E6001F0AA
:1052800007FA67214DF21F6001F002FA02214DF288
:10529000206001F0FDF984214DF2216001F0F8F960
:1052A00002214DF2226001F0F3F9A4214DF22360B6
:1052B00001F0EEF902214DF2246001F0E9F9B72185
:1052C0004DF2256001F0E4F902214DF2266001F073
:1052D000DFF9CF214DF2276001F0DAF902214DF21A
:1052E000286001F0D5F9DE214DF2296001F0D0F9F6
:1052F00002214DF22A6001F0CBF9F2214DF22B6030
:1053000001F0C6F902214DF22C6001F0C1F9FE2135
:105310004DF22D6001F0BCF903214DF22E6001F039
:10532000B7F910214DF22F6001F0B2F903214DF2CF
:10533000306001F0ADF933214DF2316001F0A8F990
:1053400003214DF2326001F0A3F96D214DF233607B
:1053500001F09EF955214FF4704001F099F9AA210E
:105360004FF2010001F094F952214FF2020001F0D6
:105370008FF908214FF2030001F08AF900214FF262
:10538000040001F085F9CC214FF4314001F080F99F
:1053900000214BF2011001F07BF905214FF436405A
:1053A00001F076F970214FF4374001F071F9702166
:1053B0004BF2017001F06CF901214FF4384001F01B
:1053C00067F903214BF6010001F062F903214BF666
:1053D000020001F05DF903214BF6030001F058F9DA
:1053E00002214FF43C4001F053F900214BF60140FB
:1053F00001F04EF900214BF6024001F049F9D021AD
:105400004FF4494001F044F902214CF6011001F03B
:105410003FF950214CF6021001F03AF950214CF6B8
:10542000031001F035F950214CF6041001F030F969
:1054300000214FF4545001F02BF955214FF46850DE
:1054400001F026F94FF4885001F00CF97820FDF7AF
:10545000A3FB4FF4245001F005F910BD10B5E22074
:1054600001F000F91D2001F0F1F8022001F0EEF842
:10547000042001F0EBF86420FDF78EFBE02001F042
:10548000F1F8012001F0E2F80A20FDF77BFBE020B3
:1054900001F0E8F8032001F0D9F80C20FDF772FBC9
:1054A000012001F0DFF80A20FDF76CFBE62001F097
:1054B000D9F82F2001F0CAF8FF2001F0C7F8FF202B
:1054C00001F0C4F8B02001F0CDF8202001F0BEF8C2
:1054D000002001F0BBF8032001F0B8F840F21F30C3
:1054E00001F0B4F8012001F0B1F840F2DF1001F052
:1054F000ADF8002001F0AAF8B42001F0B3F80420C0
:1055000001F0A4F840F21F4001F0A0F8002001F0E3
:105510009DF82E2001F09AF8002001F097F8002065
:1055200001F094F8002001F091F8002001F08EF8CD
:10553000B62001F097F8022001F088F84FF40370CC
:1055400001F084F8002001F081F8172001F07EF8C6
:10555000152001F07BF8002001F078F8002001F020
:1055600075F8F02001F07EF8032001F06FF8292093
:1055700001F078F8D02001F075F8002001F066F80D
:10558000BE2001F06FF8052001F060F8FE2001F068
:105590005DF8012001F05AF8002001F057F80020D2
:1055A00001F054F8002001F051F8B82001F05AF849
:1055B000032001F04BF8012001F048F8BA2001F077
:1055C00051F8012001F042F810BD10B5112001F092
:1055D00049F87820FDF7D6FA362001F043F800208C
:1055E00001F034F83A2001F03DF8052001F02EF8E2
:1055F000B22001F037F80C2001F028F80C2001F05F
:1056000025F8002001F022F8332001F01FF83320A4
:1056100001F01CF8B72001F025F8352001F016F84C
:10562000BB2001F01FF8322001F010F8C02001F07B
:1056300019F80C2001F00AF8C22001F013F801203B
:1056400001F004F8C32001F00DF8102000F0FEFF77
:10565000C42001F007F8202000F0F8FFC62001F078
:1056600001F80F2000F0F2FFD02000F0FBFFA42093
:1056700000F0ECFFA12000F0E9FFE02000F0F2FFD5
:10568000D02000F0E3FF002000F0E0FF022000F057
:10569000DDFF072000F0DAFF0A2000F0D7FF282006
:1056A00000F0D4FF322000F0D1FF442000F0CEFF04
:1056B000422000F0CBFF062000F0C8FF0E2000F0D3
:1056C000C5FF122000F0C2FF142000F0BFFF17201A
:1056D00000F0BCFFE12000F0C5FFD02000F0B6FFD5
:1056E000002000F0B3FF022000F0B0FF072000F020
:1056F000ADFF0A2000F0AAFF282000F0A7FF31200C
:1057000000F0A4FF542000F0A1FF472000F09EFF0E
:105710000E2000F09BFF1C2000F098FF172000F0E7
:1057200095FF1B2000F092FF1E2000F08FFF2A2023
:1057300000F098FF002000F089FF002000F086FFB5
:10574000002000F083FFEF2000F080FF2B2000F00E
:1057500089FF002000F07AFF002000F077FF012091
:1057600000F074FF3F2000F071FF292000F07AFF65
:1057700010BD10B5112000F075FF7820FDF702FA7A
:10578000362000F06FFF482000F060FF3A2000F064
:1057900069FF552000F05AFFF02000F063FFC3209E
:1057A00000F054FFF02000F05DFF962000F04EFF67
:1057B000B42000F057FF012000F048FFB62000F0B1
:1057C00051FF0A2000F042FFA22000F03FFFB72067
:1057D00000F048FFC62000F039FFB92000F042FF7A
:1057E000022000F033FFE02000F030FFC02000F086
:1057F00039FF802000F02AFF162000F027FFC1208B
:1058000000F030FF192000F021FFC22000F02AFF35
:10581000A72000F01BFFC52000F024FF162000F099
:1058200015FFE82000F01EFF402000F00FFF8A2047
:1058300000F00CFF002000F009FF002000F006FF40
:10584000292000F003FF192000F000FFA52000F040
:10585000FDFE332000F0FAFEE02000F003FFF02010
:1058600000F0F4FE072000F0F1FE0D2000F0EEFE47
:10587000042000F0EBFE052000F0E8FE142000F00C
:10588000E5FE362000F0E2FE542000F0DFFE4C2062
:1058900000F0DCFE382000F0D9FE132000F0D6FE28
:1058A000142000F0D3FE2E2000F0D0FE342000F0B3
:1058B000CDFEE12000F0D6FEF02000F0C7FE102063
:1058C00000F0C4FE142000F0C1FE0E2000F0BEFE69
:1058D0000C2000F0BBFE082000F0B8FE352000F0E0
:1058E000B5FE442000F0B2FE4C2000F0AFFE2620B2
:1058F00000F0ACFE102000F0A9FE122000F0A6FE81
:105900002C2000F0A3FE322000F0A0FEF02000F0DA
:10591000A9FE3C2000F09AFEF02000F0A3FE6920D2
:1059200000F094FE7820FDF72DF9212000F09AFE7A
:10593000292000F097FE10BD2DE9F04F05460E46D8
:1059400017469846DDF824A04FF0000B781B401C4A
:105950001FFA80FB344613E02146284600F032FC53
:1059600000F08CFE4FF0000906E00749A1F800A006
:1059700009F101001FFA80F9D945F6DB601C84B2F9
:105980004445E9DDBDE8F08F8000006C00B595B0BE
:1059900000BF00BF00200190F848006840F04000C0
:1059A000F64908600846006800F04000019000BF1A
:1059B00000BF00BF00BF00BF002001900846006884
:1059C00040F0080008600846006800F008000190F8
:1059D00000BF00BF00BF00BF00BF0020019008460D
:1059E000006840F0080008600846006800F0080001
:1059F000019000BF00BF00BF00BF00BF00200190AA
:105A00000846006840F0400008600846006800F062
:105A10004000019000BF00BF00BF00BF00BF0020DA
:105A200001900846006840F00200086008460068DF
:105A300000F00200019000BF00BF00BF881410906A
:105A40000220119001201290022013900C2014903B
:105A500010A9CB48FBF738F82020109010A9C948AE
:105A6000FBF732F81020109010A9C648FBF72CF86D
:105A70004FF48050109010A9C348FBF725F84FF45D
:105A8000004010900120119010A9C048FBF71CF8AD
:105A90004FF02040BE490860BE484860062088603C
:105AA0000021BB48C1601021416100218161C161B9
:105AB00041624FF4805181620021C1624FF4804104
:105AC00001630021416381630F20099000200A9047
:105AD0003C200B9000200F900920029000200390A2
