:020000040800F2
:10000000E80A002029020008E1170008D9170008B3
:10001000DD17000819040008711C0008000000002A
:10002000000000000000000000000000E5170008CC
:100030001D04000800000000E3170008E71700088F
:10004000751C00084D0200084D0200084D02000812
:100050004D0200084D020008210400084D0200086E
:1000600035040008490400085D0400084D0200083A
:100070004D0200084D0200084D0200084D02000824
:100080004D0200084D0200084D0200084D02000814
:100090004D0200084D0200084D0200084D02000804
:1000A0004D0200084D0200084D0200084D020008F4
:1000B0004D020008051800084D0200084D02000816
:1000C0004D0200084D0200084D0200084D020008D4
:1000D0004D020008611C00084D0200084D02000896
:1000E0004D0200084D0200084D0200084D020008B4
:1000F0005D1800084D020008551800084D02000860
:100100004D0200084D0200084D0200084D02000893
:100110004D0200084D020008351800084518000877
:100120004D0200084D0200084D0200084D02000873
:100130004D0200084D0200084D0200084D02000863
:100140004D0200084D0200084D0200084D02000853
:100150004D0200084D0200084D0200084D02000843
:100160004D0200084D0200084D0200084D02000833
:100170004D0200084D0200084D020008000000007A
:100180004D0200084D02000800F002F800F03CF8B3
:100190000AA090E8000C82448344AAF10107DA45E2
:1001A00001D100F031F8AFF2090EBAE80F0013F0F8
:1001B000010F18BFFB1A43F001031847BC3E0000B3
:1001C000DC3E0000103A24BF78C878C1FAD8520744
:1001D00024BF30C830C144BF04680C6070470000C1
:1001E0000023002400250026103A28BF78C1FBD840
:1001F000520728BF30C148BF0B6070471FB502F0DF
:1002000049FB1FBD10B510BD00F0D7F81146FFF730
:10021000F5FF01F01BFF00F0F5F803B4FFF7F2FF64
:1002200003BC01F04BFD00000C48016841F4700173
:1002300001600B4880470B480047FEE7FEE7FEE7FA
:10024000FEE7FEE7FEE7FEE7FEE7FEE7FEE700006B
:1002500005480649044A064B7047000088ED00E057
:10026000F117000889010008E8060020E80A0020CC
:10027000E8060020704753EA020C00F069802DE97F
:10028000F04B4FF00006002B1FBFB3FA83F503FAC3
:1002900005F424FA05F65E4012BF1643B2FA82F561
:1002A00002FA05F4C5F120051EBF22FA05FC44EA56
:1002B0000C04203556EA044C4FEA144418BF641C61
:1002C0004FF000084FF00009904271EB030C39D356
:1002D000002919BFB1FA81F701FA07F6B0FA80F7E1
:1002E00000FA07F6C7F120071EBF20FA07FC46EA0E
:1002F0000C062037B6FBF4FCA7EB0507103F07F010
:100300001F0BCBF120060CFA0BFB2CFA06F644BFB0
:10031000B3460026202FA4BF5E464FF0000B5BEAD9
:10032000060C08BF4FF0010B19EB0B09ABFB027C6D
:1003300048EB0608C01B06FB02CC0BFB03CC71EBA1
:100340000C01C1E70B46024641464846BDE8F08B2A
:1003500013B54FF000004FF00001AFF30080BDE88F
:100360001C4070474FF0000200B513469446964675
:10037000203922BFA0E80C50A0E80C50B1F12001B8
:10038000BFF4F7AF090728BFA0E80C5048BF0CC066
:100390005DF804EB890028BF40F8042B08BF7047C4
:1003A00048BF20F8022B11F0804F18BF00F8012B36
:1003B00070477047704770477047754600F028F8DF
:1003C000AE4605006946534620F00700854618B042
:1003D00020B5FFF73DFFBDE820404FF000064FF08D
:1003E00000074FF000084FF0000B21F00701AC466A
:1003F000ACE8C009ACE8C009ACE8C009ACE8C00989
:100400008D4670470446AFF300802046FFF705FF96
:10041000004870478806002000BFFEE770470000D4
:1004200010B5012000F0DEF801200149086010BD80
:10043000143C014010B5042000F0D4F80420014918
:10044000086010BD143C014010B5082000F0CAF847
:1004500008200149086010BD143C014010B510206F
:1004600000F0C0F810200149086010BD143C0140A4
:1004700070B50446A56D00F0E3F9064694F8350022
:10048000022808D08020606500BF002084F8340076
:1004900000BF012070BD2068006820F016002168B0
:1004A00008602068406920F0800021684861206C65
:1004B00008B9A06C28B12068006820F00800216805
:1004C00008602068006820F00100216808600FE0E3
:1004D00000F0B6F9801B05280AD92020606500BF0E
:1004E000002084F8340000BF032084F83500D1E7F1
:1004F0002068006800F001000028E9D194F85C1041
:100500003F208840A86000BF002084F8340000BF6E
:10051000012084F835000020BCE7014691F8350041
:10052000022803D08020486501207047052081F80B
:1005300035000868006820F001000A68106000209B
:10054000F3E7000010B50446142001F005FD012C6E
:1005500032D0042C1CD0082C0DD0102C39D11021F5
:100560001D4800F04FF928B900BF61011B4800F099
:1005700051F900BF2EE00821174800F043F930B9C7
:1005800000BF4FF48061154800F044F900BF21E03E
:100590000421114800F036F968B900BF4FF48061BA
:1005A0000E4800F037F900BF00BF4FF400710B4850
:1005B00000F030F900BF0DE00121094800F022F9F8
:1005C000012805D100BF0102044800F023F900BF53
:1005D00000E000BF00BF10BD001002400014024048
:1005E0000000024010B5044604480068204020B1D5
:1005F000024804602046FFF7A5FF10BD143C0140EF
:10060000F8B502460B460025002400200021DEE05C
:10061000012606FA01F51E6806EA0504AC4275D10A
:100620001E7906F00306012E04D01E7906F003069B
:10063000022E13D190684F000326BE40B0434F00F6
:10064000DE68BE4030439060506801268E40B04363
:100650001E79C6F300168E40304350601E7906F0B6
:100660000306032E09D0D0684F000326BE40B043D6
:100670004F009E68BE403043D0601E7906F00306EE
:10068000022E13D1CF0802F1200656F827004E079C
:10069000F70E0F26BE40B0434F07FF0E1E69BE4047
:1006A0003043CF0802F1200646F8270010684F00BB
:1006B0000326BE40B0431E7906F003064F00BE403D
:1006C000304310605E6806F08056B6F1805F7DD1E1
:1006D00000BF00260096404E366846F480463E4FE6
:1006E0003E603E46366806F48046009600BF00BF76
:1006F0003A4E8F0856F827008E07370F0F26BE4058
:10070000B043374EB24202D1002624E05EE0354EBF
:10071000B24201D101261EE0334EB24201D102267F
:1007200019E0324EB24201D1032614E0304EB242FB
:1007300001D104260FE02F4EB24201D105260AE076
:100740002D4EB24201D1062605E02C4EB24201D117
:10075000072600E008268F073F0FBE4030431F4E9C
:100760008F0846F82700264E3068A0435E6806F4DE
:100770008036B6F5803F00D12043214E3060361DD3
:100780003068A0435E6806F40036B6F5003F00D13D
:1007900020431B4E361D3060361D3068A0435E6816
:1007A00006F48016B6F5801F00D12043144E08369B
:1007B0003060361D3068A0435E6806F40016B6F55A
:1007C000001F00D120430E4E0C363060491C10290A
:1007D000FFF41EAFF8BD0000443802400838014065
:1007E000000002400004024000080240000C0240E9
:1007F000001002400014024000180240001C024099
:10080000003C0140024613690B400BB1012000E09F
:100810000020704710B5426921EA020302EA010490
:1008200043EA0443836110BD0AB1816101E00B0416
:100830008361704701480068000C7047002004E0A5
:10084000014800687047000010000020034800685D
:1008500003490978084401490860704710000020E6
:100860001800002010B50A48006840F400700849DC
:1008700008600846006840F480600860052000F0C9
:100880007FF80F2000F006F800F02AF8002010BDD5
:10089000003C024070B504460E4800784FF47A716F
:1008A000B1FBF0F00C490968B1FBF0F5284600F007
:1008B00009FC08B1012070BD102C07D2002221468E
:1008C000501E00F01EF80548046001E00120F2E728
:1008D0000020F0E718000020000000201400002095
:1008E000704701460846002809DB00F01F0301227B
:1008F0009A4043099B0003F1E023C3F8002100BFA5
:1009000070472DE9F05F80460D461646002701F03E
:10091000B9F9074639462A46334601F00700C0F1C7
:10092000070ABAF1040F02D94FF0040A01E0C0F13E
:10093000070AD14600F1040ABAF1070F02D24FF0BC
:10094000000A01E0A0F1030AD4464FF0010A0AFAB6
:1009500009FAAAF1010A0AEA020A0AFA0CFA4FF0A5
:10096000010B0BFA0CFBABF1010B0BEA030B4AEA90
:100970000B042146404601F08DF9BDE8F09F0000D0
:1009800000BF00F00702064B19684FF6FF0319403D
:10099000044B0B4343EA0221014B196000BF70472F
:1009A0000CED00E00000FA0570B504460D460CB9E8
:1009B000012070BD5848006800F00700A84209D225
:1009C00055490D700846006800F00700A84201D0A4
:1009D0000120EEE7207800F0020002281DD12078E7
:1009E00000F00400042805D14C48006840F4E050B1
:1009F0004A490860207800F00800082805D14748D7
:100A0000006840F46040454908604448006820F0B0
:100A1000F000A168084341490860207800F0010017
:100A2000A8B36068012807D13C4808380068C0F3C3
:100A30004040B8B90120BCE76068022802D0606875
:100A4000032807D1354808380068C0F3406048B92A
:100A50000120AEE7314808380068C0F3400008B90B
:100A60000120A6E72D48006820F0030061680843D4
:100A70002A490860FFF7E4FE064609E0FFF7E0FEBA
:100A8000801B41F28831884202D9032091E707E0B8
:100A90002248006800F00C006168B0EB810FEDD1D6
:100AA0001D48006800F00700A84209D91A490D70D6
:100AB0000846006800F00700A84201D0012078E74E
:100AC000207800F00400042807D11448006820F4BE
:100AD000E050E168084311490860207800F0080000
:100AE000082808D10D48006820F46040216940EAD8
:100AF000C1000A49086000F03FF808490968C1F3DD
:100B00000311074A515CC84006490860064800685E
:100B1000FFF7C0FE00204CE7003C024008380240CE
:100B20009E280008000000201400002001480068F2
:100B3000704700000000002000B5FFF7F7FF0449F0
:100B40000968C1F38221034A515CC84000BD00001E
:100B500008380240AE28000800B5FFF7E7FF044957
:100B60000968C1F34231034A515CC84000BD00002E
:100B700008380240AE2800082DE9F047002400257F
:100B80000026A1462548006800F00C0020B104288A
:100B900005D008283AD105E0DFF8849039E0DFF885
:100BA000849036E01D48001F006800F03F041B4899
:100BB000001F006800F4800078B11A481749091F27
:100BC0000968C1F38811A0FB017001462246002389
:100BD0003846FFF750FB05460EE011480F49091F44
:100BE0000968C1F38811A0FB017001462246002369
:100BF0003846FFF740FB05460848001F0068C0F371
:100C00000140401C4600B5FBF6F902E0DFF8109009
:100C100000BF00BF4846BDE8F0870000083802402A
:100C20000024F40000127A00F8B504460CB9012043
:100C3000F8BD207800F00100002874D0F948006861
:100C400000F00C0004280DD0F648006800F00C00FD
:100C5000082813D1F348001F006800F48000B0F5A5
:100C6000800F0BD1EF4808380068C0F340400028DF
:100C700059D06068002856D10120D9E700BF6068CC
:100C8000B0F5803F08D1E7480838006840F480306C
:100C9000E449083908601EE06068B0F5A02F0DD166
:100CA000E0480838006840F48020DE4908390860D0
:100CB0000846006840F4803008600CE0D9480838E5
:100CC000006820F48030D749083908600846006879
:100CD00020F48020086000BF606890B1FFF7B0FD8D
:100CE000054606E0FFF7ACFD401B642801D9032050
:100CF0009EE7CC4808380068C0F340400028F1D097
:100D000011E0FFF79DFD054606E0FFF799FD401B4A
:100D1000642801D903208BE7C24808380068C0F373
:100D200040400028F1D1207800F0020002285FD175
:100D3000BC48006800F00C0058B1BA48006800F0E8
:100D40000C0008281CD1B748001F006800F4800080
:100D5000B0B9B44808380068C0F3400020B1E0687A
:100D6000012801D0012063E7AE480838006820F070
:100D7000F800216940EAC100AA490839086037E053
:100D8000E06800B30120A8490860FFF759FD054657
:100D900006E0FFF755FD401B022801D9032047E775
:100DA000A04808380068C0F340000028F1D09D48F2
:100DB0000838006820F0F800216940EAC10099492C
:100DC0000839086014E0002097490860FFF738FDF3
:100DD000054606E0FFF734FD401B022801D9032039
:100DE00026E7904808380068C0F340000028F1D199
:100DF000207800F0080008282CD16069A8B10120F3
:100E00008A490860FFF71CFD054606E0FFF718FD5C
:100E1000401B022801D903200AE782486C30006891
:100E2000C0F340000028F1D014E000207F490860A2
:100E3000FFF706FD054606E0FFF702FD401B02280E
:100E400001D90320F4E677486C300068C0F3400015
:100E50000028F1D1207800F00400042870D1002788
:100E600070483830006800F0805090B900BF002012
:100E700000906C483830006840F080506949383143
:100E800008600846006800F08050009000BF00BF76
:100E900001276748006800F48070B0B964480068B2
:100EA00040F4807062490860FFF7CAFC054606E01E
:100EB000FFF7C6FC401B022801D90320B8E65C48B6
:100EC000006800F480700028F2D000BFA0680128FC
:100ED00008D154486830006840F001005149683139
:100EE00008601DE0A06805280DD14E4868300068F4
:100EF00040F004004B49683108600846006840F043
:100F0000010008600CE047486830006820F00100EC
:100F10004449683108600846006820F00400086011
:100F200000BFA068A8B1FFF78BFC054609E0FFF7FA
:100F300087FC401B41F28831884202D9032077E6C2
:100F400026E0384868300068C0F340000028EED042
:100F500013E0FFF775FC054608E0FFF771FC401B46
:100F600041F28831884201D9032061E62D4868307A
:100F70000068C0F340000028EFD1012F07D12948B5
:100F80003830006820F0805026493831086000BFB2
:100F9000A069002845D02348006800F00C0008280C
:100FA0005DD0A069022845D100201F490866FFF7DF
:100FB00047FC054606E0FFF743FC401B022801D929
:100FC000032035E6174808380068C0F34060002861
:100FD000F1D1D4E907010843616A40EA8111012295
:100FE000A06AC2EB500041EA00412C20005D41EABA
:100FF00000600C49091F086001200B490866FFF7D3
:101000001FFC054606E0FFF71BFC401B022801D928
:1010100003200DE6034808380068C0F3406000284C
:10102000F1D049E00838024000004742800E4742B4
:1010300000700040002021490866FFF701FC0546CA
:1010400006E0FFF7FDFB401B022801D90320EFE576
:101050001B480068C0F340600028F2D12CE0A06972
:10106000012800D1E4E51648001D0668A0690128A2
:1010700020D006F48001E06981421BD106F03F01D7
:10108000206A814216D147F6C0703040616AB0EBE9
:10109000811F0FD106F440310122A06AC2EB50003B
:1010A000B1EB004F06D106F070612C20005DB1EB72
:1010B000006F01D00120BBE50020B9E500004742E8
:1010C0000038024070B504462546681EB0F1807FA6
:1010D00001D301200FE0681E4FF0E02148610F218D
:1010E0004FF0FF3000F0D6FD00204FF0E021886186
:1010F00007200861002070BD70477047704710B529
:10110000044620680069C0F34000D8B12068C06878
:10111000C0F34000B0B16FF0020021680861012007
:1011200020772068806900F0030018B12046FFF79F
:10113000E5FF05E0204600F0ADF8204600F0ABF8F2
:101140000020207720680069C0F38000D8B12068B3
:10115000C068C0F38000B0B16FF00400216808617E
:10116000022020772068806900F4407018B1204682
:10117000FFF7C4FF05E0204600F08CF8204600F0A1
:101180008AF80020207720680069C0F3C000D8B139
:101190002068C068C0F3C000B0B16FF008002168DB
:1011A0000861042020772068C06900F0030018B1AE
:1011B0002046FFF7A3FF05E0204600F06BF820462D
:1011C00000F069F80020207720680069C0F3001063
:1011D000D8B12068C068C0F30010B0B16FF0100043
:1011E00021680861082020772068C06900F44070F9
:1011F00018B12046FFF782FF05E0204600F04AF8CC
:10120000204600F048F8002020772068006900F0B0
:10121000010058B12068C06800F0010030B16FF0E3
:10122000010021680861204600F036F82068006956
:10123000C0F3C01058B12068C068C0F3C01030B10E
:101240006FF08000216808612046FFF755FF206895
:101250000069C0F3801058B12068C068C0F38010E6
:1012600030B16FF0400021680861204600F04BF873
:1012700020680069C0F3401058B12068C068C0F30E
:10128000401030B16FF02000216808612046FFF760
:1012900034FF10BD7047704710B504460A492068F6
:1012A000884205D100BF01150848FFF7B3FA00BF17
:1012B00007492068884205D100BF81150348FFF720
:1012C000A9FA00BF10BD0000001000400014024049
:1012D000001400400246002031B1042907D008293B
:1012E00008D00C290CD108E01368586B09E013688A
:1012F000986B06E01368D86B03E01368186C00E085
:1013000000BF00BF70477047704770472DE9F84F26
:101310000446206805682068C668206847694FF061
:101320000009CA4605F00F09B9F1000F0AD105F00E
:10133000200038B106F0200020B1204600F0C7FAA6
:10134000BDE8F88FB9F1000F72D007F0010018B9AD
:1013500006F4907000286BD005F0010030B106F45F
:10136000807018B1206C40F00100206405F004008A
:1013700030B107F0010018B1206C40F00200206489
:1013800005F0020030B107F0010018B1206C40F008
:101390000400206405F0080048B106F0200010B9F0
:1013A00007F0010018B1206C40F008002064206CA8
:1013B00070B305F0200028B106F0200010B12046DF
:1013C00000F085FA20684069C0F3801A206C00F0B4
:1013D000080010B9BAF1000F23D0204600F04CFAF3
:1013E0002068406900F04000402816D1206840691C
:1013F00020F0400021684861A06B50B15648A16BB5
:101400000865A06BFFF789F810B1A06B016D8847E4
:101410000CE02046FFF779FF08E02046FFF775FF54
:1014200004E02046FFF771FF0020206488E7FFE713
:10143000206B012879D105F01000002875D006F046
:101440001000002871D000BF0020009020680068C4
:10145000009020684068009000BF00BF206840698D
:1014600000F04000402839D1A06B006840681FFAA6
:1014700080F8B8F1000F30D0A08D40452DDDA4F8E4
:101480002E80A06BC069B0F5807F1FD02068C06837
:1014900020F480702168C8602068406920F0010055
:1014A000216848612068406920F040002168486157
:1014B000202084F83E00002020632068C06820F0CF
:1014C00010002168C860A06BFEF7D2FFA08DE28DEE
:1014D000801A81B22046FFF717FF31E7A08DE18D1A
:1014E000401A1FFA80F8E08DE8B1B8F1000F1AD069
:1014F0002068C06820F490702168C8602068406946
:1015000020F0010021684861202084F83E0000207E
:1015100020632068C06820F010002168C860414640
:101520002046FFF7F1FE0BE7FFE705F0800030B142
:1015300006F0800018B1204600F061FB00E705F0DE
:10154000400030B106F0400018B1204600F0AFF97D
:10155000F6E600BFF4E600006518000810B5044682
:101560000CB9012010BDA06900B100E000BF94F8E3
:101570003D0028B9002084F83C00204600F028F8FF
:10158000242084F83D002068C06820F400502168C1
:10159000C860204600F0FAF92068006920F4904005
:1015A000216808612068406920F02A0021684861AC
:1015B0002068C06840F400502168C86000202064A2
:1015C000202084F83D0084F83E000020CAE7000097
:1015D00010B586B004462E492068884255D100BF18
:1015E00000BF002000902B48006840F010002949FF
:1015F00008600846006800F01000009000BF00BFBF
:1016000000BF00BF00BF00200090224814380068CF
:1016100040F001001F49143908600846006800F0D6
:101620000100009000BF00BF00BF00BF00BF00204E
:1016300000900846006840F0010008600846006815
:1016400000F00100009000BF00BF00BF48150190EE
:1016500002200290012003900220049007200590B0
:1016600001A90D48FEF7CCFF4FF4806001900720E0
:10167000059001A90848FEF7C3FF2520FFF731F9BF
:10168000032211462520FFF73CF906B010BD0000EB
:1016900000100140443802400000024070B504468A
:1016A0000D46164694F83E00202816D105B10EB915
:1016B000012070BD00BF94F83C00012801D1022038
:1016C000F7E7012084F83C0000BF00202063324689
:1016D0002946204600F070FAEBE70220E9E7000017
:1016E00010B504462049206888423BD11F48008835
:1016F00000F4004088BB1D48008800F4804070B1B1
:101700001B4800780A2803D000201849088024E0EC
:101710001648008840F40040144908801DE0144831
:1017200000780D2806D11148008840F480400F4908
:10173000088012E00E4800780C490988C1F30D01B9
:101740000C4A505409480088401C08490880084643
:101750000088C72801DD00200880012204490648CE
:10176000FFF79CFF10BD0000001001400C0000209E
:101770000E0000202C000020F40000207047000024
:1017800010B50446054800F021F800BF4FF4806111
:101790000348FFF73FF800BF10BD000038010020EC
:1017A0000014024010B5044620684068C0F3402091
:1017B00058B12068806800F0010030B16FF001007E
:1017C000216888602046FFF7DBFF10BD01460A68EC
:1017D000C86810600020704700BFFEE700BFFEE74A
:1017E00070477047704710B5FFF730F810BD000024
:1017F0000348006840F47000014908607047000029
:1018000088ED00E010B509480068006900F00100AB
:1018100058B100BF4FF480610548FEF7FBFF00BFE1
:101820006FF0010001490968086110BDDC0100206A
:101830000014024010B50248FFF761FC10BD000023
:101840004C01002010B50248FFF759FC10BD000004
:101850004C01002010B500F033FA10BD10B500F0B7
:101860002FFA10BD70B50546AC6B0020E085E08412
:101870002046FFF74AFD70BD0168C96821F49071E8
:101880000268D1600168496921F001010268516173
:10189000016B012905D10168C96821F010010268B6
:1018A000D160202180F83E1000210163704710B5FF
:1018B00004462068C06820F040002168C8602020ED
:1018C00084F83D002046FFF759FF002010BD70B599
:1018D000044694F83E00222856D1A068B0F5805FF7
:1018E0000CD1206950B90025A66A20684068C0F371
:1018F00008003080A06A801CA06215E0A56A00265E
:10190000A068B0F5805F03D0A06828B9206918B935
:1019100020684068287004E02068406800F07F007C
:101920002870A06A401CA062E08D401E80B2E08555
:1019300040BB2068C06820F020002168C860206893
:10194000C06820F480702168C8602068406920F079
:10195000010021684861202084F83E00206B0128A6
:101960000AD12068C06820F010002168C860A18DED
:101970002046FFF7C9FC02E02046FFF7B1FE002039
:10198000206370BD0020FCE70220FAE72DE9F84F44
:1019900004462068006920F44050E168084321684B
:1019A00008612169A068084361690843E169084347
:1019B00000902068C06849F20C6188430099084390
:1019C0002168C8602068406920F44070A16908431C
:1019D0002168486176492068884203D075492068AB
:1019E000884203D1FFF7B8F8814602E0FFF7A4F878
:1019F0008146E069B0F5004F6CD102206168A0FB20
:101A0000015003461920A9FB007001462A463846BA
:101A1000FEF731FC6421B0FBF1F04FEA001A02201E
:101A20006168A0FB01510B461920A9FB00712A46F1
:101A30003846FEF720FC834602206168A0FB015077
:101A400003461920A9FB00712A463846FEF713FC0D
:101A50006421B0FBF1F000EBC00101EB0010ABEB37
:101A60008000322101EBC0006421B0FBF1F000F0F6
:101A7000F8000AEB400A02206168A0FB015003460F
:101A80001920A9FB007001462A463846FEF7F3FBF1
:101A9000834602206168A0FB015003461920A9FB80
:101AA00000712A463846FEF7E6FB6421B0FBF1F0F0
:101AB00000EBC00101EB0010ABEB8000322101EB29
:101AC000C0006421B0FBF1F000F007005044216831
:101AD00088606AE004206168A0FB01500346192079
:101AE000A9FB007001462A463846FEF7C4FB824631
:101AF00004206168A0FB015003461920A9FB007077
:101B000001462A463846FEF7B6FB6421B0FBF1F0E9
:101B100000EBC00101EB0010AAEB8000322101EBC9
:101B200000106421B0FBF1F000F0F00A04206168BD
:101B3000A0FB017003461920A9FB00513A46284634
:101B4000FEF799FB6421B0FBF1F00AEB001A0420C8
:101B50006168A0FB01510B461920A9FB00712A46C0
:101B60003846FEF788FB834604206168A0FB0150DD
:101B700003461920A9FB007001462A463846FEF7A5
:101B80007AFB6421B0FBF1F000EBC00101EB001027
:101B9000ABEB8000322101EB00106421B0FBF1F0CF
:101BA00000F00F00504421688860BDE8F88F000005
:101BB000001001400014014010B5034699629A8557
:101BC000DA8500201864222083F83E0000BF002040
:101BD00083F83C0000BF1868C06840F480701C683F
:101BE000E0601868406940F001001C686061186896
:101BF000C06840F020001C68E060002010BD014675
:101C000091F83D00212828D18868B0F5805F0BD17C
:101C1000086948B90A6A1088C0F308000B68586060
:101C2000086A801C086205E00B6A581C0862187874
:101C30000B685860C88C401E80B2C88458B90868C8
:101C4000C06820F080000B68D8600868C06840F069
:101C500040000B68D860002070470220FCE70000BD
:101C600010B50248FFF752FB10BD0000F400002041
:101C700000BFFEE710B50248FFF794FD10BD00005D
:101C80003801002002480068C0F3022070470000BD
:101C90000CED00E010B5002804DB0A07130E054A1E
:101CA000135406E00A07140E034A00F00F031B1F2B
:101CB000D45410BD00E400E018ED00E000BF704710
:101CC00010B57C480078A0B100207B490880C01E78
:101CD0007A49096808616FF0040078490968086169
:101CE00080107649096808610020744909684862D3
:101CF00010BD72480068006900F00100002847D05C
:101D00006FF001006D49096808616C48006800695E
:101D1000C0F3400000283BD169490870664800883C
:101D200028B965480088401C6349088019E062486A
:101D300000884FF6FF71884203D100205E49088079
:101D40000FE05D480088B0F5004F04DB4FF6FF70F0
:101D50005949088005E0584800884004000C56495D
:101D60000880554800885549096888620020534911
:101D700009684862C01E5149096808616FF0040093
:101D80004E490968086180104C4909680861AFE74D
:101D90004B480078C0B949480068006900F002006B
:101DA000022802D10120464908706FF00200434921
:101DB000096808616FF004004049096808618010F3
:101DC0003E490968086193E73A480078002861D1E4
:101DD0003A480068006900F0020002285AD1042144
:101DE0003648FFF777FA401C36490860002133482F
:101DF000FFF770FA401C34490860324800680968EF
:101E0000884245D201202B490870304800682A4991
:101E100008800846008848B92A480068401C2949BB
:101E2000086029480068401C2749086000202449B0
:101E3000087026482838006820F001002349283916
:101E400008601E480068C06820F002001B4909684D
:101E5000C8601A480068C06820F004001749096883
:101E6000C86016480068C06820F00100134909687E
:101E7000C8606FF002001149096808616FF0040042
:101E80000E490968086180100C490968086101E081
:101E900000F01EF86FF002000849096808616FF051
:101EA000040006490968086180100449096808614E
:101EB00000BF1DE71C0000201E0000209401002030
:101EC00028000020200000202400002028040140D9
:101ED00010B500F051FC002019490870194908801C
:101EE00019490968886218490968486216480068F3
:101EF000C06840F0020014490968C86012480068D0
:101F0000C06840F0010010490968C8600E480068C8
:101F1000006840F001000C49096808606FF0020099
:101F20000949096808616FF00400074909680861F8
:101F3000801005490968086100F020FC10BD000010
:101F40001C0000201E0000209401002001490860B0
:101F5000704700000400002010B504464FF47A7169
:101F600004FB01F000F002F810BD000070B503465C
:101F700000224FF0E02675690D4E366803FB06F42B
:101F80004FF0E026B16910E04FF0E026B0698842DA
:101F90000BD0884202D20E1A324402E02E1A0E44AE
:101FA00032440146A24200D300E0EDE700BF70BD1D
:101FB0000400002000B587B000BF00BF00200190E2
:101FC0002048006840F020001E490860084600686C
:101FD00000F02000019000BF00BF00BF00BF00BFA5
:101FE000002001900846006840F020000860084684
:101FF000006800F02000019000BF00BF00BF48153E
:1020000002900120039004900220059002A90E483E
:10201000FEF7F6FA4FF48060029002A90A48FEF734
:10202000EFFA00BF012251020748FEF7FDFB00BF97
:1020300000BF012291020448FEF7F6FB00BF07B083
:1020400000BD0000303802400014024008B50024F2
:10205000FEF708FC0723022208214FF4A87000F0C5
:102060008FFBA820FFF772FF4FF4E13000F0F6FB82
:10207000FFF7A0FF00F0E4F818231FA20021084694
:1020800000F00CFB10231FA21821002000F006FB1B
:102090000C2320A23421002000F000FB0C231FA2FF
:1020A0003421402000F0FAFA00F0FCF9202421E06D
:1020B00001200C23224634210090242000F018FA3D
:1020C0000C2003232246342100905E2000F09CFA6D
:1020D00000F0E8F9601CC4B27E2C00DD20244FF42F
:1020E000FA70FFF739FF00BF4FF400710D48FEF79B
:1020F00091FB00BFDCE70000414C49454E54454B85
:1021000000000000302E393627204F4C4544205423
:102110004553540041534349493A0000434F444515
:102120003A0000000014024070B500240CE00025C5
:1021300006E00020074901EBC5010855681CC5B23F
:10214000802DF6DB601CC4B2082CF0DB00F0AAF98D
:1021500070BD00008802002000F00F011D4A1268C7
:1021600022F470721B4B1A601A46126842EA8112FE
:102170001A601A46126822F400621A601A4612683F
:10218000C0F3001342EAC322124B1A60124A1268CB
:1021900022F04002104B1A601A461268C0F3401336
:1021A00042EA83120C4B1A600C4A526922F0600218
:1021B0000A4B5A611A465269C0F3801342EA43122D
:1021C000064B5A611A465269C30942EA8312034B0D
:1021D0005A61704714080240140402400010024083
:1021E000F0B5144600267F2801DC3F2900DDF0BD54
:1021F0000B46CF1701EB5777C7F3C702CF1701EB99
:102200005777FF10A1EBC707FDB20123AB40DEB249
:102210004CB10A4B03EBC0039B5C3343074F07EB06
:10222000C007BB5408E0054B03EBC0039B5CB34302
:10223000024F07EBC007BB5400BFD8E7880200205D
:1022400000B587B000BF002001908948006840F0C9
:102250000100874908600846006800F0010001900D
:1022600000BF00BF00BF002001900846006840F09A
:10227000020008600846006800F00200019000BFFC
:1022800000BF00BF002001900846006840F0040035
:1022900008600846006800F00400019000BF00BF1D
:1022A00000BF002001900846006840F00800086068
:1022B0000846006800F00800019000BF00BF00BFA2
:1022C000002001900846006840F0100008600846B1
:1022D000006800F01000019000BF00BF00BF0020A8
:1022E00001900846006840F0400008600846006819
:1022F00000F04000019000BF00BF102002900120BC
:10230000039004900220059002A95A48FEF778F93C
:10231000C020029002A95848FEF772F94FF43C60C1
:10232000029002A95548FEF76BF9C020029002A95D
:102330005348FEF765F96020029002A95148FEF764
:102340005FF94FF40040029002A94F48FEF758F998
:1023500000BF012210214748FEF766FA00BF00BF08
:10236000012280214648FEF75FFA00BF00BF01222C
:1023700080214148FEF758FA00BF00BF00224FF409
:1023800000414148FEF750FA00BF6420FFF7E4FD2A
:1023900000BF0122D1033C48FEF746FA00BF0021EE
:1023A000AE2000F0ABF90021D52000F0A7F9002104
:1023B000502000F0A3F90021A82000F09FF900218F
:1023C0003F2000F09BF90021D32000F097F9002175
:1023D000084600F093F90021402000F08FF9002119
:1023E0008D2000F08BF90021142000F087F90021E6
:1023F000202000F083F90021022000F07FF9002165
:10240000A12000F07BF90021C82000F077F900211D
:10241000DA2000F073F90021122000F06FF900219A
:10242000812000F06BF90021EF2000F067F9002116
:10243000D92000F063F90021F12000F05FF90021BC
:10244000DB2000F05BF90021302000F057F900217B
:10245000A42000F053F90021A62000F04FF900213C
:10246000AF2000F04BF9FFF75FFE07B000BD0000A2
:1024700030380240000002400004024000080240E0
:10248000000C0240001002400018024010B5024645
:10249000012000E050430B00A1F10104E1B2F9D1A9
:1024A00010BD000070B500241CE004F1B001C8B2FA
:1024B000002100F023F90021084600F01FF9002157
:1024C000102000F01BF9002508E0084901EBC501C8
:1024D000085D012100F012F9681CC5B2802DF4DB03
:1024E000601CC4B2082CE0DB70BD00008802002034
:1024F0002DE9FE4F80460E4615461C46DDF830900D
:10250000B346002001902046E31704EB5373DB1021
:1025100021464FEAE47C04EB5C7C4FEAEC0CA4EB34
:10252000CC0CBCF1000F02D04FF0010C01E04FF0D9
:10253000000C6344224604EBD27C4FEA6C0C03FB94
:102540000CF3DBB20093A5F12000C5B20C2C06D130
:1025500005EB4500294901EB8000019011E0102CAA
:1025600004D1274800EB051001900AE0182C06D191
:1025700005EBC500234901EB8000019001E0BDE8B7
:10258000FE8F002734E00198C05D02904FF0000AF2
:1025900028E0029800F0800028B14A4631464046C3
:1025A000FFF71EFE0AE0B9F1000F01D1012000E0A3
:1025B0000020024631464046FFF712FE02984006D0
:1025C000000E0290701CC6B2A6EB0B00A04205D113
:1025D0005E4608F1010000F0FF0806E00AF1010084
:1025E00000F0FF0ABAF1080FD3DB00BF781CC7B2B6
:1025F00000988742C7DB00BFC1E70000B62800088B
:102600002A2D00081A3300082DE9FF4F81B0074634
:1026100091461E460E9D4FF0000A002439E0301B03
:10262000401EC1B20A20FFF731FFB9FBF0F00A21CA
:10263000B0FBF1F201FB1208BAF1000F16D1701EC7
:10264000A04213DDB8F1000F0ED10120AB4605EB1F
:10265000DB71491001FB04710090C8B22B462022A7
:102660000299FFF745FF12E04FF0010A0120AB4647
:1026700005EBDB71491001FB04710090C8B208F151
:102680003001CAB22B460299FFF732FF00BF601C2F
:10269000C4B2B442C3DB05B0BDE8F08FF8B506465E
:1026A0000F4615461C4621E004EBD4714910C1F1D8
:1026B0008001B14202DA00263819C7B2C4F14000E5
:1026C000B84204DA002006460746FFF72DFD012038
:1026D00000902A78234639463046FFF709FF204606
:1026E00004EBD07106EB6101CEB26D1C28787E2818
:1026F00002DC28782028D7DAF8BD000070B505463E
:102700000C462846FFF728FD00BF2CB101224021CE
:102710001648FEF789F804E0002240211348FEF72E
:1027200083F800BF00BF002280211148FEF77CF82B
:1027300000BF00BF002210210E48FEF775F800BF51
:1027400000BF012210210B48FEF76EF800BF00BF4A
:10275000012280210648FEF767F800BF00BF012272
:1027600040210248FEF760F800BF70BD000C024037
:10277000000402400000024072B6704762B6704723
:102780002DE9F04192B080460C4615461E460027C2
:10279000302106A8FDF7E6FD142101A8FDF7E2FDB2
:1027A00000BF002000902A48006840F0805028496F
:1027B00008600846006800F08050009000BF00BF2D
:1027C00000BF002000902348006840F48040214969
:1027D00008600846006800F48040009000BF00BF19
:1027E000012006900004079002200C9041050D91F5
:1027F000CDF83C800E941095119606A8FEF714FAB9
:1028000007461FB1012012B0BDE8F0810F200190F2
:1028100002200290002003904FF4A05004904FF447
:1028200080500590052101A8FEF7BEF807460FB1BC
:102830000120E8E7FDF7FEFF41F20101884205D1E2
:102840000548006840F48070034908600020DAE71A
:102850004038024000700040003C024010B5044681
:1028600009480A4908600846446000218160C16047
:10287000016181610C214161FEF770FE0122044972
:102880000248FEF70BFF10BD00100140F4000020CD
:102890000E0000204FF04070E1EE100A704700007B
:1028A0000000000000000102030406070809000000
:1028B000000001020304000000000000000000000E
:1028C0000000000000003F40000000000000000089
:1028D0003000400030004000000009000BC03D0007
:1028E0000BC03D00090018C024407FE02240318029
:1028F0000000180024C01B000D80324001800380BE
:102900001C4027401C800740004010006000000071
:102910000000000000000000000000001F802040B8
:1029200040200000402020401F80000000000900DF
:1029300006001F80060009000000040004003F801C
:10294000040004000000001000600000000000000F
:102950000000040004000400040004000000000063
:1029600000400000000000000000002001C0060040
:102970003800400000001F802040204020401F8081
:102980000000000010403FC000400000000018C0E0
:102990002140224024401840000010802040244064
:1029A00024401B80000002000D0011003FC00140C8
:1029B00000003C80244024402440238000001F80ED
:1029C000244024403440038000003000200027C011
:1029D0003800200000001B802440244024401B803D
:1029E00000001C0022C0224022401F800000000086
:1029F000000008400000000000000000000004602B
:102A0000000000000000000004000A001100208007
:102A10004040090009000900090009000000000009
:102A20004040208011000A000400180020002340CC
:102A30002400180000001F802040274029401F402C
:102A40000000004007C039000F0001C000402040D6
:102A50003FC0244024401B8000001F8020402040B5
:102A600020403080000020403FC0204020401F8098
:102A7000000020403FC024402E4030C000002040D5
:102A80003FC024402E00300000000F001080204086
:102A900022403380020020403FC0040004003FC0B9
:102AA0002040204020403FC02040204000000060E7
:102AB000202020203FC02000200020403FC0244094
:102AC0000B0030C0204020403FC02040004000406C
:102AD00000C03FC03C0003C03C003FC0000020409D
:102AE0003FC00C4023003FC020001F8020402040FA
:102AF00020401F80000020403FC0244024001800D8
:102B000000001F802140214020E01FA00000204045
:102B10003FC02440260019C0004018C02440244073
:102B2000224031800000300020403FC02040300073
:102B3000000020003F80004000403F802000200037
:102B40003E0001C0070038002000380007C03C00EC
:102B500007C038000000204039C0060039C02040BE
:102B600000002000384007C03840200000003040FE
:102B700021C02640384020C00000000000007FE057
:102B8000402040200000000070000C000380004046
:102B900000000000402040207FE000000000000016
:102BA0002000400020000000000000100010001075
:102BB00000100010001000000000400000000000A5
:102BC0000000000002800540054003C000402000D6
:102BD0003FC0044004400380000000000380044024
:102BE00004400640000000000380044024403FC031
:102BF0000040000003800540054003400000000045
:102C000004401FC0244024402000000002E0055082
:102C100005500650042020403FC00440040003C07B
:102C200000400000044027C00040000000000010E9
:102C30000010041027E00000000020403FC00140C9
:102C4000070004C00440204020403FC00040004036
:102C5000000007C0040007C0040003C000000440D7
:102C600007C00440040003C000400000038004408B
:102C7000044003800000041007F004500440038067
:102C80000000000003800440045007F000100440DE
:102C900007C0024004000400000000000640054098
:102CA000054004C00000000004001F8004400040F4
:102CB0000000040007800040044007C000400400FA
:102CC000070004C0018006000400060001C00700E0
:102CD00001C006000000044006C0010006C0044018
:102CE00000000410071004E001800600040000004A
:102CF000044005C00640044000000000000004003D
:102D00007BE040200000000000000000FFF0000019
:102D10000000000040207BE00400000000004000B4
:102D20008000400020002000400000000000000063
:102D30000000000000000000000000000000000093
:102D40001FCC000C00000000000000000800300054
:102D500060000800300060000000022003FC1E201C
:102D6000022003FC1E200220000000000E181104A7
:102D70003FFF10840C78000000000F0010840F3813
:102D800000C0077818840078000000780F8410C411
:102D900011240E9800E40084000808006800700008
:102DA0000000000000000000000000000000000023
:102DB00007E0181820044002000000004002200430
:102DC000181807E0000000000000024002400180E7
:102DD0000FF001800240024000000080008000806F
:102DE0000FF800800080008000000001000D000E40
:102DF00000000000000000000000000000800080D3
:102E0000008000800080008000800000000C000C2A
:102E10000000000000000000000000000006001894
:102E200000600180060018002000000007F008087C
:102E300010041004080807F000000000080408044B
:102E40001FFC000400040000000000000E0C101421
:102E50001024104411840E0C000000000C18100403
:102E60001104110412880C700000000000E003201F
:102E7000042408241FFC0024000000001F98108474
:102E800011041104108810700000000007F0088879
:102E90001104110418880070000000001C001000CC
:102EA00010FC13001C001000000000000E3811443C
:102EB0001084108411440E38000000000700088CB4
:102EC00010441044088807F00000000000000000D3
:102ED000030C030C000000000000000000000001D3
:102EE000010600000000000000000000008001401A
:102EF0000220041008081004000002200220022012
:102F00000220022002200220000000001004080815
:102F10000410022001400080000000000E0012009A
:102F2000100C106C10800F00000003E00C1813E46C
:102F3000142417C4082807D000000004003C03C470
:102F40001C40074000E4001C000410041FFC110496
:102F5000110411040E880070000003E00C18100426
:102F60001004100410081C10000010041FFC1004B2
:102F700010041004080807F0000010041FFC1104DE
:102F8000110417C410040818000010041FFC1104D9
:102F9000110017C010000800000003E00C18100416
:102FA000100410441C780040000010041FFC108422
:102FB0000080008010841FFC100400001004100426
:102FC0001FFC1004100400000000000300011001A9
:102FD00010011FFE10001000000010041FFC11045F
:102FE00003801464181C1004000010041FFC10045B
:102FF000000400040004000C000010041FFC1F006B
:1030000000FC1F001FFC1004000010041FFC0C0437
:10301000030000E010181FFC100007F0080810045F
:1030200010041004080807F0000010041FFC1084AE
:103030001080108010800F00000007F00818102486
:103040001024101C080A07F2000010041FFC1104D1
:10305000110011C011300E0C000400000E1C1104F0
:103060001084108410441C38000018001000100454
:103070001FFC100410001800000010001FF81004BE
:103080000004000410041FF8100010001E0011E0DE
:10309000001C007013801C0010001FC0103C00E0DA
:1030A0001F0000E0103C1FC000001004180C163474
:1030B00001C001C01634180C100410001C001304C9
:1030C00000FC13041C00100000000804101C106415
:1030D000108413041C0410180000000000000000FD
:1030E0007FFE4002400240020000000030000C0061
:1030F00003800060001C000300000000400240024A
:1031000040027FFE000000000000000000002000E0
:1031100040004000400020000000000100010001CC
:10312000000100010001000100010000400040001A
:1031300020000000000000000000000000980124B2
:1031400001440144014400FC000410001FFC0088FD
:103150000104010400880070000000000070008875
:1031600001040104010400880000000000700088D0
:103170000104010411081FFC0004000000F80144D0
:1031800001440144014400C800000000010401049E
:103190000FFC1104110411001800000000D60129D1
:1031A0000129012901C90106000010041FFC008447
:1031B00001000100010400FC0004000001041904E6
:1031C00019FC0004000400000000000000030001DE
:1031D0000101190119FE0000000010041FFC002469
:1031E000004001B4010C01040000000010041004B0
:1031F0001FFC0004000400000000010401FC0104A5
:10320000010001FC0104010000FC010401FC008438
:1032100001000100010400FC0004000000F80104AA
:1032200001040104010400F80000010101FF008510
:103230000104010400880070000000000070008894
:1032400001040104010501FF00010104010401FC66
:1032500000840104010001800000000000CC012472
:103260000124012401240198000000000100010054
:1032700007F80104010400000000010001F8000447
:1032800000040004010801FC000401000180017039
:10329000000C001001600180010001F0010C003001
:1032A00001C00030010C01F0010000000104018C9C
:1032B00000740170018C01040000010101810171A1
:1032C000000E001801600180010000000184010C63
:1032D000013401440184010C0000000000000000E2
:1032E000000001003EFC400240020000000000001F
:1032F0000000FFFF0000000000000000400240024C
:103300003EFC0100000000000000000060008000A2
:10331000800040004000200020000000000000006D
:10332000000000000000000000000000000000009D
:10333000000000000000000000000000000000008D
:10334000000000000000000000000000000F8038B6
:103350000FFE380F80380000000000000000000061
:1033600000000000000000000100000600000C004A
:10337000003800003100000600000C00003800009A
:103380003000000000000000000061800067F807C6
:10339000F9800061800061800061800061800067C9
:1033A000F807F980006180000000000000000000C4
:1033B00001C0E003E0F00630080418081FFFFE0417
:1033C0000E080787F00381E000000000000001F014
:1033D00000060C00040408060C7001F9C0000E0081
:1033E000003BE000EC18070808040C180003E0009C
:1033F00000000001E00007F003F818041C0804179F
:103400000807E1D003C0E00023B0003C080020081A
:103410000000100000000000000100003100003238
:1034200000001C0000000000000000000000000080
:10343000000000000000000000000000000000008C
:10344000000000000000000000007F0001FFC00736
:1034500080F00C00181000042000020000000000A2
:10346000002000021000040C00180780F001FFC0CB
:10347000007F0000000000000000000000000000CD
:103480000000000000004200006600006600003CF2
:103490000000180003FFC0001800003C0000660098
:1034A0000066000042000000000008000008000064
:1034B000080000080000080001FFC0000800000824
:1034C00000000800000800000800000000000001E3
:1034D00000003100003200001C000000000000006D
:1034E00000000000000000000000000000000000DC
:1034F00000000800000800000800000800000800A4
:103500000008000008000008000008000008000093
:10351000000000000000000000003800003800003B
:103520003800000000000000000000000000000063
:1035300000000000000000000000000600001C0069
:103540000070000180000E0000380000C00007007D
:10355000001C0000300000000000000000007F8020
:1035600001FFE0038070060018040008040008064C
:10357000001803807001FFE0007F80000000000061
:103580000000000001000801000801000803FFF826
:1035900007FFF80000080000080000080000000015
:1035A000000000000001C03802C058040098040167
:1035B00018040218040418061C1803F81801E0F88F
:1035C00000000000000000000001C0E003C0F004A3
:1035D000000804080804080806180803F41801E79E
:1035E000F00001E000000000000000000000030007
:1035F000000D0000110000610000810803010807B0
:10360000FFF80FFFF80001080001080000000000AB
:10361000000000E007FCD0060808061008061008A5
:10362000061008061838060FF00607C00000000054
:103630000000000000003F8001FFE003843002082A
:1036400018041008041008041008071810030FF0DD
:103650000007C000000000000000000003C00007D9
:1036600000000600000600F80607F806180006E04D
:103670000007000006000000000000000001E1E07B
:1036800003F7F0063410041808041808040C0804A2
:103690000C0806161803F3F001C1E000000000005A
:1036A0000000F80003FC3003063804020804020896
:1036B0000402080404100308F001FFC0007F0000AA
:1036C00000000000000000000000000000000000FA
:1036D00000007038007038007038000000000000F2
:1036E00000000000000000000000000000000000DA
:1036F000000000000000301A00301C000000000034
:1037000000000000000000000000000000000000B9
:103710000008000014000022000041000080800129
:103720000040020020040010080008000000000013
:1037300000002100002100002100002100002100E4
:1037400000210000210000210000210000210000D4
:103750000000000000000000080008040010020043
:103760002001004000808000410000220000140081
:1037700000080000000000000003C00004C00004B6
:103780000000080038080F380808380810000C300E
:103790000007E00003C000000000000000003F80C0
:1037A00000FFE0038070020F1006708804C08804D8
:1037B0008308047F8802C09003012000FE400000BF
:1037C000080000180001F8003E0801C200070200CE
:1037D00007E20000FE00001FC80001F800003800EA
:1037E000000804000807FFF807FFF80408080408A9
:1037F0000804080804080806180803F41801E7F08C
:103800000001E0000000000000003F8001FFE00335
:103810008070020018040008040008040008040076
:10382000100600200780C000000004000807FFF811
:1038300007FFF80400080400080400080400180248
:10384000001003807001FFE0007F80000000040092
:103850000807FFF807FFF804080804080804080828
:10386000040808043E08040008060018010060006F
:10387000000004000807FFF807FFF8040808040820
:1038800000040800040800043E00060000060000D2
:10389000018000000000000000003F8001FFE00305
:1038A00080700600180400080402080402080203DD
:1038B000F00783F000020000020004000807FFF890
:1038C00007FFF804080800080000080000080000CE
:1038D000080004080807FFF807FFF80400080000C4
:1038E0000000000004000804000804000807FFF8B6
:1038F00007FFF804000804000804000800000000A6
:1039000000000000000000060000070000010400A5
:103910000104000104000307FFFE07FFFC04000090
:1039200004000004000004000807FFF807FFF80483
:103930000C08001800003E0004C7800503C80600FC
:10394000F804003804001800000804000807FFF815
:1039500007FFF80400080000080000080000080045
:1039600000080000080000180000600000000400CB
:103970000807FFF807800807FC00007FC00003F875
:103980000007C000780007800807FFF807FFF80469
:10399000000804000807FFF807000803C00000E063
:1039A00000003800001E000007000001C00400F005
:1039B00007FFF8040000000000007F8001FFE00323
:1039C00080700600180400080400080600180300B0
:1039D0003001FFE0007F8000000004000807FFF8CE
:1039E00007FFF804040804040004040004040004AD
:1039F0000400060C0003F80001F0000000000000C5
:103A000000007F8001FFE0038070060088040088CA
:103A10000400C806003C03003E01FFE6007F84006E
:103A2000000004000807FFF807FFF804080804086E
:103A300000040C00040F00040BC00610F003F03863
:103A400001E00800000800000001E0F803F0300683
:103A50003010041808041808040C08040C080206A6
:103A6000180207F00781E000000001800006000056
:103A700004000004000004000807FFF807FFF80432
:103A8000000804000004000006000001800004009B
:103A90000007FFE007FFF00400180000080000081E
:103AA00000000800000800000804001007FFE00400
:103AB000000004000006000007E00007FE00041FED
:103AC000E00001F80000380001E0043E0007C000FB
:103AD00006000004000004000007E00007FFC00427
:103AE0001FF80007C007F80007FF80043FF8000731
:103AF000C004F800070000040000000000040008F3
:103B000006001807C07805F1C8003E00001F8004B9
:103B100063E80780F80600180400080000000400AD
:103B20000006000007800007E008047C08001FF87A
:103B30000007F800180804E0080700000600000469
:103B400000000000000100080600380400F804032B
:103B5000E8040F08047C0805F00807C008070018EF
:103B600004006000000000000000000000000000F1
:103B700000000000003FFFFE2000022000022000A5
:103B800002200002200002000000000000000000EF
:103B900008000007000000C0000038000006000018
:103BA00001C000003000000E000001000000000015
:103BB000000000002000022000022000022000027D
:103BC0002000023FFFFE0000000000000000000097
:103BD00000000000000000000000000800001000CD
:103BE000003000002000003000001000000800003D
:103BF00000000000000000000100000100000100C2
:103C000000010000010000010000010000010000AF
:103C100001000001000001000001000000000000A0
:103C20000000002000002000001000001000000034
:103C30000000000000000000000000000000000084
:103C4000000000F00019F8001B18002208002608E8
:103C5000002408002410003FF8001FF800000800AE
:103C6000001800000004000007FFF80FFFF0001824
:103C700018001008002008002008003018001FF06D
:103C8000000FC00000000000000007C0001FF0008F
:103C90001830002008002008002008003C08001C04
:103CA000100000600000000000000000000007C0DD
:103CB000001FF00038180020080020080020080429
:103CC000101007FFF80FFFF00000100000000000C8
:103CD000000000000007C0001FF000123000221892
:103CE000002208002208003208001E10000E2000EA
:103CF000000000000000200000200800200801FF54
:103D0000F803FFF806200804200804200807200014
:103D100003000000000000000000000E000E6E0016
:103D20001FF30031B10020B10020B1003191001F1C
:103D300013002E1E00200E003000000000040008BA
:103D400007FFF80FFFF80010080020000020000017
:103D50002008003FF8001FF80000080000000000E5
:103D600000000000002008002008002008063FF89E
:103D7000063FF800000800000800000800000000EE
:103D8000000000000000000000000300000300200D
:103D900001002001002003063FFE063FFC0000005A
:103DA00000000000000000000004000807FFF80FFA
:103DB000FFF8000188000300002FC00038F8002041
:103DC000380020080000080000000000000000008B
:103DD00004000804000804000807FFF80FFFF800BB
:103DE000000800000800000800000000000000209B
:103DF00008003FF8003FF8001008002000003FF8DE
:103E0000003FF8001008002000003FF8003FF800D5
:103E10000008000000002008003FF8003FF80010F4
:103E200008001000002000002008003FF8001FF8E4
:103E30000000080000000000000007C0000FF000B4
:103E40001830003008002008002008003008001852
:103E500030000FF00007C00000000000000020014B
:103E6000003FFF003FFF0010110020090020080064
:103E70002008003038001FF0000FC00000000000D4
:103E8000000007C0001FF0003818002008002008BC
:103E9000002009001011001FFF003FFF000001007B
:103EA0000000002008002008002008003FF8003F24
:103EB000F80008080010080020080020000030006A
:103EC000003000000000000000000000000C78003E
:103ED0001E18003308002308002108002188002153
:103EE000980030F000386000000000000000200062
:103EF00000200000200000FFF003FFF80020080071
:103F00002008002008000030000000000000000031
:103F100000002000003FF0007FF8000018000008BB
:103F2000000008002010003FF8007FF000001000A3
:103F30000000000000002000003000003C00003FB6
:103F4000800023F0000078000070002380003C0017
:103F5000003000002000002000003C00003FE00096
:103F600023F80000E0002700003E00003FE00021B1
:103F7000F80001E0003E00002000000000002008E2
:103F8000002008003838003E680027800003C80081
:103F90002CF800383800201800200800000000002D
:103FA00000002000003003003C01003F830023ECB0
:103FB000000070002380003C000020000020000072
:103FC0000000000000000000003808002038002039
:103FD000F80023E8002F88003E0800380800201869
:103FE0000000700000000000000000000000000061
:103FF00000000000000008000014001FF7FC300063
:104000000620000200000000000000000000000088
:10401000000000000000000000000000FFFFFF00A3
:104020000000000000000000000000000000000090
:10403000000000002000023000061FF7FC00140002
:104040000008000000000000000000000000000068
:104050000000000000180000600000400000400068
:104060000020000010000008000004000004000010
:104070000C00001000000000984000080000002024
:104080002C000000C4010008C44000082C000020DF
:10409000BC0A0000E00100080024F4000000000059
:1040A0000000000000000000000000001000000000
:1040B00001000000000000000000000000000000FF
:0440C00000000000FC
:040000050800018965
:00000001FF
