:020000040800F2
:10000000F0050020310200083F18000837180008EA
:100010003B180008090600086D1C000800000000DD
:10002000000000000000000000000000431800086D
:100030000D060008000000004118000845180008DF
:100040005502000855020008550200085502000834
:100050005502000855020008550200085502000824
:100060005502000855020008550200085502000814
:100070005502000855020008550200085502000804
:1000800055020008550200085502000855020008F4
:1000900055020008550200085502000855020008E4
:1000A00055020008550200085502000855020008D4
:1000B00055020008550200085502000855020008C4
:1000C00055020008550200085502000855020008B4
:1000D000550200085D1C0008550200085502000882
:1000E0005502000855020008550200085502000894
:1000F0005502000855020008550200085502000884
:100100005502000855020008550200085502000873
:100110005502000855020008550200085502000863
:100120005502000855020008550200085502000853
:100130005502000855020008550200085502000843
:100140005502000855020008550200085502000833
:100150005502000855020008550200085502000823
:100160005502000855020008550200085502000813
:100170005502000855020008550200080000000062
:10018000550200085502000800F002F800F041F89E
:100190000AA090E8000C82448344AAF10107DA45E2
:1001A00001D100F036F8AFF2090EBAE80F0013F0F3
:1001B000010F18BFFB1A43F001031847148D00000C
:1001C000348D0000103A24BF78C878C1FAD852079D
:1001D00024BF30C830C144BF04680C6070470000C1
:1001E0000023002400250026103A28BF78C1FBD840
:1001F000520728BF30C148BF0B607047782900F014
:10020000F580002070471FB505F074FE1FBD10B5C6
:1002100010BD00F0C9F91146FFF7F5FF05F042FBEC
:1002200000F0E7F903B4FFF7F2FF03BC01F03CFD77
:100230000C48016841F4700101600B4880470B488D
:100240000047FEE7FEE7FEE7FEE7FEE7FEE7FEE724
:10025000FEE7FEE7FEE7000005480649044A064BB4
:100260007047000088ED00E04D1800088901000883
:10027000F0010020F0050020F0010020704753EA53
:10028000020C00F069802DE9F04B4FF00006002BC6
:100290001FBFB3FA83F503FA05F424FA05F65E40AE
:1002A00012BF1643B2FA82F502FA05F4C5F1200531
:1002B0001EBF22FA05FC44EA0C04203556EA044C21
:1002C0004FEA144418BF641C4FF000084FF00009B7
:1002D000904271EB030C39D3002919BFB1FA81F7B1
:1002E00001FA07F6B0FA80F700FA07F6C7F120071F
:1002F0001EBF20FA07FC46EA0C062037B6FBF4FCCA
:10030000A7EB0507103F07F01F0BCBF120060CFAF7
:100310000BFB2CFA06F644BFB3460026202FA4BFE1
:100320005E464FF0000B5BEA060C08BF4FF0010B76
:1003300019EB0B09ABFB027C48EB0608C01B06FB64
:1003400002CC0BFB03CC71EB0C01C1E70B46024660
:1003500041464846BDE8F08B13B54FF000004FF022
:100360000001AFF30080BDE81C4070470FB40449A2
:1003700010B503AA029800F0E9F810BC5DF814FB70
:10038000080000202DE9F0410E46044600202062BE
:100390002046E168884730B3252805D0D4E90121FB
:1003A0009047206A401CF2E7E16820460027884712
:1003B000050018D0A5F14100192802D820354FF4C6
:1003C00000673246294620462760FFF717FF40B1F5
:1003D000012804D0F61D26F007060836D8E7361D9A
:1003E000D6E72846DAE7206ABDE8F08170B5044612
:1003F0000D4621461068AFF300802188090502D51B
:100400000F4A7A4402E00E4A7A440E32002104F187
:10041000240305E000F00F060009965D5E54491CB8
:100420000028F7D120780023000704D5702D02D0D2
:1004300009B1022311322046BDE8704000F02DB80A
:100440009F8A00004FF0000200B51346944696467E
:10045000203922BFA0E80C50A0E80C50B1F12001D7
:10046000BFF4F7AF090728BFA0E80C5048BF0CC085
:100470005DF804EB890028BF40F8042B08BF7047E3
:1004800048BF20F8022B11F0804F18BF00F8012B55
:10049000704770477047704770472DE9F0470D4629
:1004A00099469246044600F124080168880604D55E
:1004B000E06921F01001216000E00120A84201DD87
:1004C000471B00E00027A1697A1902EB0900081A0E
:1004D000A0612078C00602D42046AFF30080002639
:1004E00008E0D4E901211AF806009047206A401C70
:1004F000761C20624E45F4DB2078C0060AD52046E3
:10050000AFF3008006E0D4E9012130209047206A53
:10051000401C2062381EA7F10107F4DC07E0D4E993
:10052000012118F805009047206A401C2062281E0F
:10053000A5F10105F3DC2046AFF30080207800062A
:1005400002D50220BDE8F0870120FBE7074B70B51C
:100550000D467B4400F011F80446284600F020F8D0
:1005600010B14FF0FF3070BD204670BDAF180000D5
:1005700001694A1C02610878704700B58FB0CDE967
:1005800001310021059105497944CDE90310114657
:100590006846FFF7F7FE0FB000BD0000E5FFFFFF64
:1005A000007B00F080007047754600F029F8AE46E9
:1005B00005006946534620F00700854618B020B56F
:1005C000FFF74AFEBDE820404FF000064FF000075D
:1005D0004FF000084FF0000B21F00701AC46ACE8EB
:1005E000C009ACE8C009ACE8C009ACE8C0098D4658
:1005F00070470446AFF300802046FFF713FE00006B
:10060000004870479001002000BFFEE770470000DF
:1006100070B504461D460023B5F5804F13D154F83C
:1006200022300C480340D1E9000640EA06108E68EB
:1006300040EA06208E8940EA06408E693043034333
:1006400044F8223003E06FF0704044F822000020AC
:1006500070BD00000000F0CF10B50346002208680E
:1006600053F8202012480240D1E901042043CC680D
:1006700020430C6920434C6920438C692043CC699A
:1006800020430C6A20434C6A20438C6A2043CC6A86
:100690002043CC6B20430C6B20430243886808281E
:1006A00001D142F04002086843F82020002010BD2C
:1006B0008000F0FF30B503460024501C53F8204062
:1006C00004F04044D1E9000540EA05108D6840EA95
:1006D00005208D8940EA0545088A401E45EA0055F7
:1006E000087D801E45EA00608D6928430443501C44
:1006F00043F82040002030BD70B50446A56D00F0E1
:1007000085F9064694F83500022808D080206065F7
:1007100000BF002084F8340000BF012070BD2068B5
:10072000006820F01600216808602068406920F009
:10073000800021684861206C08B9A06C28B120684D
:10074000006820F00800216808602068006820F038
:100750000100216808600FE000F058F9801B0528AF
:100760000AD92020606500BF002084F8340000BF53
:10077000032084F83500D1E72068006800F001000C
:100780000028E9D194F85C103F208840A86000BFA1
:10079000002084F8340000BF012084F835000020D8
:1007A000BCE7014691F83500022803D08020486557
:1007B00001207047052081F835000868006820F0A6
:1007C00001000A6810600020F3E70000F8B5024657
:1007D0000B460025002400200021DEE0012606FA59
:1007E00001F51E6806EA0504AC4275D11E7906F0D3
:1007F0000306012E04D01E7906F00306022E13D143
:1008000090684F000326BE40B0434F00DE68BE40F4
:1008100030439060506801268E40B0431E79C6F385
:1008200000168E40304350601E7906F00306032EFA
:1008300009D0D0684F000326BE40B0434F009E68E9
:10084000BE403043D0601E7906F00306022E13D15D
:10085000CF0802F1200656F827004E07F70E0F26A4
:10086000BE40B0434F07FF0E1E69BE403043CF0865
:1008700002F1200646F8270010684F000326BE400C
:10088000B0431E7906F003064F00BE4030431060AF
:100890005E6806F08056B6F1805F7DD100BF00260D
:1008A0000096404E366846F480463E4F3E603E46D7
:1008B000366806F48046009600BF00BF3A4E8F08A7
:1008C00056F827008E07370F0F26BE40B043374E2D
:1008D000B24202D1002624E05EE0354EB24201D1A0
:1008E00001261EE0334EB24201D1022619E0324EFB
:1008F000B24201D1032614E0304EB24201D10426A7
:100900000FE02F4EB24201D105260AE02D4EB24231
:1009100001D1062605E02C4EB24201D1072600E0A7
:1009200008268F073F0FBE4030431F4E8F0846F802
:100930002700264E3068A0435E6806F48036B6F580
:10094000803F00D12043214E3060361D3068A043E7
:100950005E6806F40036B6F5003F00D120431B4E1A
:10096000361D3060361D3068A0435E6806F4801680
:10097000B6F5801F00D12043144E08363060361D76
:100980003068A0435E6806F40016B6F5001F00D17B
:1009900020430E4E0C363060491C1029FFF41EAF68
:1009A000F8BD000044380240083801400000024011
:1009B0000004024000080240000C02400010024007
:1009C0000014024000180240001C0240003C01409C
:1009D000024613690B400BB1012000E00020704774
:1009E00010B5426921EA020302EA010443EA044322
:1009F000836110BD0AB1816101E00B04836170471E
:100A000001480068000C7047002004E001480068BD
:100A1000704700001000002003480068034909786F
:100A200008440149086070471000002018000020A9
:100A300010B50A48006840F400700849086008468C
:100A4000006840F480600860052000F07FF80F2007
:100A500000F006F800F02AF8002010BD003C02402B
:100A600070B504460E4800784FF47A71B1FBF0F08F
:100A70000C490968B1FBF0F5284600F087FC08B185
:100A8000012070BD102C07D200222146501E00F01C
:100A90001EF80548046001E00120F2E70020F0E7BD
:100AA00018000020000000201400002070470146BC
:100AB0000846002809DB00F01F0301229A40430981
:100AC0009B0003F1E023C3F8002100BF70472DE92C
:100AD000F05F80460D461646002701F0C9F807462C
:100AE00039462A46334601F00700C0F1070ABAF139
:100AF000040F02D94FF0040A01E0C0F1070AD14601
:100B000000F1040ABAF1070F02D24FF0000A01E027
:100B1000A0F1030AD4464FF0010A0AFA09FAAAF131
:100B2000010A0AEA020A0AFA0CFA4FF0010B0BFA60
:100B30000CFBABF1010B0BEA030B4AEA0B04214659
:100B4000404601F09DF8BDE8F09F000000BF00F0B6
:100B50000702064B19684FF6FF031940044B0B437D
:100B600043EA0221014B196000BF70470CED00E021
:100B70000000FA0570B504460D460CB9012070BDA1
:100B80005848006800F00700A84209D255490D7086
:100B90000846006800F00700A84201D00120EEE7F7
:100BA000207800F0020002281DD1207800F0040017
:100BB000042805D14C48006840F4E0504A490860D8
:100BC000207800F00800082805D14748006840F464
:100BD0006040454908604448006820F0F000A16882
:100BE000084341490860207800F00100A8B360681C
:100BF000012807D13C4808380068C0F34040B8B924
:100C00000120BCE76068022802D06068032807D191
:100C1000354808380068C0F3406048B90120AEE7A5
:100C2000314808380068C0F3400008B90120A6E741
:100C30002D48006820F00300616808432A490860D5
:100C4000FFF7E4FE064609E0FFF7E0FE801B41F2F5
:100C50008831884202D9032091E707E022480068E2
:100C600000F00C006168B0EB810FEDD11D48006809
:100C700000F00700A84209D91A490D70084600681B
:100C800000F00700A84201D0012078E7207800F0AA
:100C90000400042807D11448006820F4E050E168FB
:100CA000084311490860207800F00800082808D19E
:100CB0000D48006820F46040216940EAC1000A49FB
:100CC000086000F03FF808490968C1F30311074ABA
:100CD000515CC8400649086006480068FFF7C0FE3E
:100CE00000204CE7003C0240083802400D5F00083D
:100CF0000000002014000020014800687047000038
:100D00000000002000B5FFF7F7FF04490968C1F3B0
:100D10008221034A515CC84000BD000008380240EF
:100D20001D5F000800B5FFF7E7FF04490968C1F33C
:100D30004231034A515CC84000BD000008380240FF
:100D40001D5F00082DE9F047002400250026A1467C
:100D50002548006800F00C0020B1042805D00828C0
:100D60003AD105E0DFF8849039E0DFF8849036E08E
:100D70001D48001F006800F03F041B48001F00686A
:100D800000F4800078B11A481749091F0968C1F3B7
:100D90008811A0FB01700146224600233846FFF768
:100DA0006EFA05460EE011480F49091F0968C1F3A4
:100DB0008811A0FB01700146224600233846FFF748
:100DC0005EFA05460848001F0068C0F30140401C59
:100DD0004600B5FBF6F902E0DFF8109000BF00BF57
:100DE0004846BDE8F0870000083802400024F400BF
:100DF00000127A00F8B504460CB90120F8BD20783D
:100E000000F00100002874D0F948006800F00C00E0
:100E100004280DD0F648006800F00C00082813D113
:100E2000F348001F006800F48000B0F5800F0BD17C
:100E3000EF4808380068C0F34040002859D0606887
:100E4000002856D10120D9E700BF6068B0F5803F87
:100E500008D1E7480838006840F48030E449083990
:100E600008601EE06068B0F5A02F0DD1E04808389A
:100E7000006840F48020DE490839086008460068B0
:100E800040F4803008600CE0D9480838006820F44D
:100E90008030D749083908600846006820F480206F
:100EA000086000BF606890B1FFF7B0FD054606E03E
:100EB000FFF7ACFD401B642801D903209EE7CC4816
:100EC00008380068C0F340400028F1D011E0FFF777
:100ED0009DFD054606E0FFF799FD401B642801D9FA
:100EE00003208BE7C24808380068C0F34040002860
:100EF000F1D1207800F0020002285FD1BC480068E0
:100F000000F00C0058B1BA48006800F00C00082846
:100F10001CD1B748001F006800F48000B0B9B44885
:100F200008380068C0F3400020B1E068012801D013
:100F3000012063E7AE480838006820F0F800216916
:100F400040EAC100AA490839086037E0E06800B308
:100F50000120A8490860FFF759FD054606E0FFF7A4
:100F600055FD401B022801D9032047E7A048083857
:100F70000068C0F340000028F1D09D4808380068A0
:100F800020F0F800216940EAC10099490839086059
:100F900014E0002097490860FFF738FD054606E099
:100FA000FFF734FD401B022801D9032026E79048B3
:100FB00008380068C0F340000028F1D1207800F024
:100FC000080008282CD16069A8B101208A4908606E
:100FD000FFF71CFD054606E0FFF718FD401B022841
:100FE00001D903200AE782486C300068C0F3400052
:100FF0000028F1D014E000207F490860FFF706FDCB
:10100000054606E0FFF702FD401B022801D9032038
:10101000F4E677486C300068C0F340000028F1D156
:10102000207800F00400042870D100277048383080
:10103000006800F0805090B900BF002000906C481C
:101040003830006840F080506949383108600846FF
:10105000006800F08050009000BF00BF0127674883
:10106000006800F48070B0B96448006840F4807093
:1010700062490860FFF7CAFC054606E0FFF7C6FCB8
:10108000401B022801D90320B8E65C48006800F440
:1010900080700028F2D000BFA068012808D1544811
:1010A0006830006840F001005149683108601DE077
:1010B000A06805280DD14E486830006840F0040053
:1010C0004B49683108600846006840F0010008603C
:1010D0000CE047486830006820F00100444968315E
:1010E00008600846006820F00400086000BFA0689F
:1010F000A8B1FFF78BFC054609E0FFF787FC401B12
:1011000041F28831884202D9032077E626E0384848
:1011100068300068C0F340000028EED013E0FFF70D
:1011200075FC054608E0FFF771FC401B41F2883171
:10113000884201D9032061E62D4868300068C0F379
:1011400040000028EFD1012F07D12948383000682E
:1011500020F0805026493831086000BFA06900287F
:1011600045D02348006800F00C0008285DD0A06935
:10117000022845D100201F490866FFF747FC0546B5
:1011800006E0FFF743FC401B022801D9032035E6A7
:10119000174808380068C0F340600028F1D1D4E94E
:1011A00007010843616A40EA81110122A06AC2EB8B
:1011B000500041EA00412C20005D41EA00600C49EA
:1011C000091F086001200B490866FFF71FFC054650
:1011D00006E0FFF71BFC401B022801D903200DE6A7
:1011E000034808380068C0F340600028F1D049E0A7
:1011F0000838024000004742800E4742007000401D
:10120000002021490866FFF701FC054606E0FFF7CC
:10121000FDFB401B022801D90320EFE51B480068B5
:10122000C0F340600028F2D12CE0A069012800D171
:10123000E4E51648001D0668A069012820D006F4E0
:101240008001E06981421BD106F03F01206A8142A2
:1012500016D147F6C0703040616AB0EB811F0FD1E4
:1012600006F440310122A06AC2EB5000B1EB004FFE
:1012700006D106F070612C20005DB1EB006F01D04B
:101280000120BBE50020B9E50000474200380240DC
:1012900070B504460E4615460CB9012070BD94F891
:1012A000490028B9002084F84800204600F01CF8C6
:1012B00004F108012068FFF7CFF93146A2682068E1
:1012C000FFF7F8F92946236BD4E90102FFF7A0F9EB
:1012D000A168206850F8210040F00100A268216850
:1012E00041F822000020D9E710B586B0044600BFBF
:1012F000002000902248006840F00100204908606A
:101300000846006800F00100009000BF00BF00BF69
:10131000002000901A480838006840F0080018497A
:10132000083908600846006800F00800009000BF17
:1013300000BF00BF002000900846006840F0100089
:1013400008600846006800F01000009000BF00BF71
:101350004CF20370019002200290012003900220C1
:1013600004900C20059001A90648FFF72FFA4FF6CC
:101370008070019001A90448FFF728FA06B010BD5B
:1013800038380240000C02400010024070B504469C
:101390002546681EB0F1807F01D301200FE0681E52
:1013A0004FF0E02148610F214FF0FF3000F068FC62
:1013B00000204FF0E021886107200861002070BD07
:1013C000704770472DE9F84F04462068056820688B
:1013D000C668206847694FF00009CA4605F00F0942
:1013E000B9F1000F0AD105F0200038B106F0200055
:1013F00020B1204600F069FABDE8F88FB9F1000F7E
:1014000072D007F0010018B906F4907000286BD074
:1014100005F0010030B106F4807018B1206C40F086
:101420000100206405F0040030B107F0010018B19C
:10143000206C40F00200206405F0020030B107F09B
:10144000010018B1206C40F00400206405F0080091
:1014500048B106F0200010B907F0010018B1206C67
:1014600040F008002064206C70B305F0200028B123
:1014700006F0200010B1204600F027FA20684069ED
:10148000C0F3801A206C00F0080010B9BAF1000F08
:1014900023D0204600F0EEF92068406900F04000BB
:1014A000402816D12068406920F04000216848613A
:1014B000A06B50B15648A16B0865A06BFFF771F99E
:1014C00010B1A06B016D88470CE02046FFF779FF53
:1014D00008E02046FFF775FF04E02046FFF771FFA4
:1014E0000020206488E7FFE7206B012879D105F010
:1014F0001000002875D006F01000002871D000BF41
:1015000000200090206800680090206840680090EB
:1015100000BF00BF2068406900F04000402839D17A
:10152000A06B006840681FFA80F8B8F1000F30D057
:10153000A08D40452DDDA4F82E80A06BC069B0F5CC
:10154000807F1FD02068C06820F480702168C86048
:101550002068406920F001002168486120684069E6
:1015600020F0400021684861202084F83E000020DF
:1015700020632068C06820F010002168C860A06B5C
:10158000FFF7BAF8A08DE28D801A81B22046FFF7EE
:1015900017FF31E7A08DE18D401A1FFA80F8E08D2A
:1015A000E8B1B8F1000F1AD02068C06820F490703C
:1015B0002168C8602068406920F001002168486106
:1015C000202084F83E00002020632068C06820F0BE
:1015D00010002168C86041462046FFF7F1FE0BE786
:1015E000FFE705F0800030B106F0800018B120461A
:1015F00000F003FB00E705F0400030B106F04000CA
:1016000018B1204600F051F9F6E600BFF4E60000FC
:101610006118000810B504460CB9012010BDA0697E
:1016200000B100E000BF94F83D0028B9002084F824
:101630003C00204600F028F8242084F83D00206873
:10164000C06820F400502168C860204600F09CF972
:101650002068006920F49040216808612068406992
:1016600020F02A00216848612068C06840F40050DA
:101670002168C86000202064202084F83D0084F8A0
:101680003E000020CAE7000010B586B004462E498F
:101690002068884255D100BF00BF002000902B4831
:1016A000006840F01000294908600846006800F012
:1016B0001000009000BF00BF00BF00BF00BF0020AF
:1016C000009022481438006840F001001F49143986
:1016D00008600846006800F00100009000BF00BFED
:1016E00000BF00BF00BF002000900846006840F027
:1016F000010008600846006800F00100009000BF8B
:1017000000BF00BF48150190022002900120039005
:10171000022004900720059001A90D48FFF756F814
:101720004FF4806001900720059001A90848FFF759
:101730004DF82520FFF7BBF9032211462520FFF7BE
:10174000C6F906B010BD0000001001404438024048
:101750000000024070B504460D46164694F83E005F
:10176000202816D105B10EB9012070BD00BF94F834
:101770003C00012801D10220F7E7012084F83C0059
:1017800000BF0020206332462946204600F012FAAE
:10179000EBE70220E9E7000010B504462049206885
:1017A00088423BD11F48008800F4004088BB1D4898
:1017B000008800F4804070B11B4800780A2803D0EC
:1017C00000201849088024E01648008840F40040B2
:1017D000144908801DE0144800780D2806D11148EE
:1017E000008840F480400F49088012E00E480078DD
:1017F0000C490988C1F30D010C4A5054094800886E
:10180000401C0849088008460088C72801DD0020E0
:101810000880012204490648FFF79CFF10BD000024
:10182000001001400C0000200E00002024000020C9
:10183000EC000020704700BFFEE700BFFEE77047E6
:101840007047704710B5FFF7E7F810BD0348006810
:1018500040F47000014908607047000088ED00E026
:1018600070B50546AC6B0020E085E0842046FFF7AC
:10187000A8FD70BD0168C96821F490710268D1604B
:101880000168496921F0010102685161016B012978
:1018900005D10168C96821F010010268D1602021DA
:1018A00080F83E1000210163704710B5044620689F
:1018B000C06820F040002168C860202084F83D0006
:1018C0002046FFF7B7FF002010BD70B5044694F81E
:1018D0003E00222856D1A068B0F5805F0CD1206967
:1018E00050B90025A66A20684068C0F3080030801F
:1018F000A06A801CA06215E0A56A0026A068B0F569
:10190000805F03D0A06828B9206918B920684068B2
:10191000287004E02068406800F07F002870A06A0A
:10192000401CA062E08D401E80B2E08540BB206874
:10193000C06820F020002168C8602068C06820F4DA
:1019400080702168C8602068406920F0010021682B
:101950004861202084F83E00206B01280AD12068CD
:10196000C06820F010002168C860A18D2046FFF7F4
:1019700027FD02E02046FFF70FFF0020206370BD27
:101980000020FCE70220FAE72DE9F84F0446206822
:10199000006920F44050E16808432168086121692A
:1019A000A068084361690843E16908430090206822
:1019B000C06849F20C618843009908432168C860F7
:1019C0002068406920F44070A1690843216848619B
:1019D00076492068884203D075492068884203D13F
:1019E000FFF7A0F9814602E0FFF78CF98146E06934
:1019F000B0F5004F6CD102206168A0FB0150034696
:101A00001920A9FB007001462A463846FEF737FC2C
:101A10006421B0FBF1F04FEA001A02206168A0FBDC
:101A200001510B461920A9FB00712A463846FEF7E2
:101A300026FC834602206168A0FB01500346192062
:101A4000A9FB00712A463846FEF719FC6421B0FB59
:101A5000F1F000EBC00101EB0010ABEB8000322194
:101A600001EBC0006421B0FBF1F000F0F8000AEBDC
:101A7000400A02206168A0FB015003461920A9FB1F
:101A8000007001462A463846FEF7F9FB83460220DD
:101A90006168A0FB015003461920A9FB00712A468A
:101AA0003846FEF7ECFB6421B0FBF1F000EBC0011F
:101AB00001EB0010ABEB8000322101EBC000642190
:101AC000B0FBF1F000F007005044216888606AE044
:101AD00004206168A0FB015003461920A9FB007097
:101AE00001462A463846FEF7CAFB82460420616852
:101AF000A0FB015003461920A9FB007001462A46AD
:101B00003846FEF7BCFB6421B0FBF1F000EBC001EE
:101B100001EB0010AAEB8000322101EB00106421E0
:101B2000B0FBF1F000F0F00A04206168A0FB017046
:101B300003461920A9FB00513A462846FEF79FFBB1
:101B40006421B0FBF1F00AEB001A04206168A0FBED
:101B500001510B461920A9FB00712A463846FEF7B1
:101B60008EFB834604206168A0FB015003461920C8
:101B7000A9FB007001462A463846FEF780FB642127
:101B8000B0FBF1F000EBC00101EB0010ABEB80000B
:101B9000322101EB00106421B0FBF1F000F00F00E6
:101BA000504421688860BDE8F88F000000100140B3
:101BB0000014014010B5034699629A85DA85002029
:101BC0001864222083F83E0000BF002083F83C0008
:101BD00000BF1868C06840F480701C68E060186836
:101BE000406940F001001C6860611868C06840F0FE
:101BF00020001C68E060002010BD014691F83D0007
:101C0000212828D18868B0F5805F0BD1086948B9D0
:101C10000A6A1088C0F308000B685860086A801CC4
:101C2000086205E00B6A581C086218780B68586057
:101C3000C88C401E80B2C88458B90868C06820F0BB
:101C400080000B68D8600868C06840F040000B68EE
:101C5000D860002070470220FCE7000010B5024861
:101C6000FFF7B0FB10BD0000EC00002000BFFEE756
:101C700002480068C0F30220704700000CED00E04D
:101C800010B5002804DB0A07130E054A135406E0BA
:101C90000A07140E034A00F00F031B1FD45410BD93
:101CA00000E400E018ED00E000BF704770B5FF25CC
:101CB000284600F029F80446552C01D1002070BDBB
:101CC0005521284600F050F8FF2000F01DF804468A
:101CD000552C01D10020F2E70120F0E710B500F00B
:101CE000CFF810BD70B505460C46164606E02846EE
:101CF0006A1C95B200F008F804F8010B3000A6F158
:101D000001018EB2F3D170BD70B50446002500F01C
:101D100083F9A02000F046F900F0C6F9E0B200F027
:101D200041F900F0C1F900F077F9A12000F03AF98B
:101D300000F0BAF9002000F005F9054600F094F92A
:101D4000284670BD70B505460C46164606E021785B
:101D5000284600F009F8681C85B2641C3000A6F122
:101D600001018EB2F3D170BD70B504460D4600F08E
:101D700053F9A02000F016F900F096F9E0B200F057
:101D800011F900F091F9284600F00CF900F08CF9F7
:101D900000F06AF90A2000F007F870BD01490860F8
:101DA000704700000400002010B504464FF47A711B
:101DB00004FB01F000F002F810BD000070B503460E
:101DC00000224FF0E02675690D4E366803FB06F4DD
:101DD0004FF0E026B16910E04FF0E026B06988428C
:101DE0000BD0884202D20E1A324402E02E1A0E4460
:101DF00032440146A24200D300E0EDE700BF70BDCF
:101E00000400002000BF054A126802F04002002AC8
:101E1000F9D0C2B2014B5A60704700000010014077
:101E200010B500BF00224FF400711148FEF7E2FD2B
:101E300000BF00F01FF800BF012211020C48FEF79E
:101E4000D9FD00BF00F016F800BF00224FF48071EA
:101E50000748FEF7CFFD00BF00F00CF800BF0122DD
:101E600051020348FEF7C6FD00BF00F003F810BDA5
:101E70000004024010B50220FFF7A0FF10BD0000D3
:101E800000B587B000BF00BF002001901B4800686C
:101E900040F00200194908600846006800F002009E
:101EA000019000BF00BF00BF00BF00BF0020019035
:101EB0000846006840F0020008600846006800F02C
:101EC0000200019000BF00BF00BF881502900120F2
:101ED000039004900320059002A90948FEF776FCC0
:101EE0004FF4007002901120039002A90448FEF7FD
:101EF0006DFC00F0B9F807B000BD000030380240BA
:101F00000004024010B500BF012251020C48FEF748
:101F100071FD00BFFFF7AEFF00BF012211020848AC
:101F2000FEF768FD00BFFFF7A5FF00BF00224FF4DA
:101F300080710348FEF75EFD00BFFFF79BFF10BDF9
:101F40000004024070B50546002400261EE060062D
:101F5000040E00BF012211021148FEF74BFD00BF25
:101F6000FFF788FF4FF400710D48FEF731FD08B10F
:101F7000601CC4B200BF00224FF480710848FEF715
:101F800039FD00BFFFF776FF701CC6B2082EDEDBFE
:101F900015B9FFF7B7FF01E0FFF742FF204670BD1C
:101FA0000004024070B50446002528E000BFE009A7
:101FB00028B1012251021748FEF71CFD05E000225E
:101FC0004FF400711348FEF715FD00BFFFF752FFF5
:101FD00000BF012211020F48FEF70CFD00BFFFF702
:101FE00049FF00BF00224FF480710A48FEF702FD4E
:101FF00000BFFFF73FFF6006040E681CC5B2082D46
:10200000D4DB00BF012251020248FEF7F3FC00BFFF
:1020100070BD00000004024010B500BF0122510253
:102020001048FEF7E7FC00BF00BF012211020D4877
:10203000FEF7E0FC00BFFFF71DFF00BF00224FF4DA
:1020400000710848FEF7D6FC00BFFFF713FF00BF82
:1020500000224FF480710348FEF7CCFC00BFFFF76D
:1020600009FF10BD0004024010B500BF00224FF46C
:1020700000710C48FEF7BEFC00BFFFF7FBFE00BF7F
:10208000012211020748FEF7B5FC00BFFFF7F2FE80
:1020900000BF012251020348FEF7ACFC00BFFFF76E
:1020A000E9FE10BD0004024070B50024002500BF09
:1020B000012251021548FEF79DFC00BFFFF7DAFE32
:1020C00000BF012211021148FEF794FC00BFFFF788
:1020D000D1FE07E0601CC4B2FA2C03DDFFF7C4FF99
:1020E000012506E04FF400710848FEF771FC002856
:1020F000F0D100BF00BF00224FF480710348FEF70B
:1021000079FC00BFFFF7B6FE284670BD0004024010
:1021100000B587B000BF00BF0020019031480068C3
:1021200040F010002F4908600846006800F01000D9
:10213000019000BF00BF00BF00BF00BF00200190A2
:102140000846006840F0100008600846006800F08B
:102150001000019000BF00BF00BF00BF00BF002003
:1021600001900846006840F01000086008460068CA
:1021700000F01000019000BF00BF00BF00BF00BF13
:10218000002001900846006840F001000860084601
:10219000006800F00100019000BF00BF00BF1020E8
:1021A000029000200390012004900220059002A9D3
:1021B0000D48FEF70BFB0820029002A90A48FEF723
:1021C00005FB0420029002A90748FEF7FFFA012050
:1021D00002900220049002A90448FEF7F7FA07B023
:1021E00000BD0000303802400010024000000240F4
:1021F00070B50446002514B101202B4908702A4807
:102200000078002834D010212848FEF7E1FB78B18F
:1022100008212648FEF7DCFB50B104212348FEF7D5
:10222000D7FB28B101212248FEF7D2FB01281FD19C
:102230000A20FFF7B9FD00201B49087010211B4838
:10224000FEF7C6FB00B9012508211848FEF7C0FBC0
:1022500000B9022504211548FEF7BAFB00B9032591
:1022600001211348FEF7B4FB01281BD1042519E016
:1022700010210E48FEF7ACFB012813D108210B48B2
:10228000FEF7A6FB01280DD104210848FEF7A0FBAC
:10229000012807D101210648FEF79AFB10B9012059
:1022A00001490870284670BD190000200010024046
:1022B0000000024070B504460026094805884088A1
:1022C00045430021084603F0DFF803F08BFA00BF16
:1022D00002E004480480761CAE42FAD370BD0000D0
:1022E000800100208000006C10B5044658488471BD
:1022F000002C58D1F020564908804FF4A070488037
:102300000846808845F21051884210D14FF4305071
:102310004F4908814FF4285048814FF42C50888150
:102320004FF4F07008804FF4487048801AE0484835
:10233000808841F6631188420DD12C2044490881E0
:102340002B2048812A2088814FF4F07008804FF4B8
:102350004870488006E02C203D4908812A204881A9
:102360002B2088813A48808845F21031884205D078
:102370003748808847F29671884206D14FF4A070A2
:10238000334908804FF4F07048803148808849F61E
:102390000601884258D14FF4F0702D4908804FF45F
:1023A0004870488050E04FF4A07029490880F02020
:1023B00048800846808845F21051884210D14FF479
:1023C0003050234908814FF4285048814FF42C5055
:1023D00088814FF4487008804FF4F070488020E006
:1023E0001B48808841F66311884205D018488088D0
:1023F00049F6060188420DD12C20154908812A2072
:1024000048812B2088814FF4487008804FF4F07089
:10241000488006E02C200E4908812A2048812B2084
:1024200088810B48808845F21031884205D00848E1
:10243000808847F29671884206D14FF4F0700449C3
:1024400008804FF4A0704880002002F0FFFE10BD0D
:102450008001002070B505460E46144631462846D8
:1024600003F012F803F0BEF901490C8070BD0000C2
:102470008000006C10B5CF2003F0A8F9002003F015
:1024800099F9C12003F096F9302003F093F9ED207B
:1024900003F09CF9642003F08DF9032003F08AF91E
:1024A000122003F087F9812003F084F9E82003F07B
:1024B0008DF9852003F07EF9102003F07BF97A2056
:1024C00003F078F9CB2003F081F9392003F072F999
:1024D0002C2003F06FF9002003F06CF9342003F096
:1024E00069F9022003F066F9F72003F06FF9202064
:1024F00003F060F9EA2003F069F9002003F05AF9CB
:10250000002003F057F9C02003F060F91B2003F00E
:1025100051F9C12003F05AF9012003F04BF9C5200D
:1025200003F054F9302003F045F9302003F042F96C
:10253000C72003F04BF9B72003F03CF9362003F035
:1025400045F9482003F036F93A2003F03FF95520C9
:1025500003F030F9B12003F039F9002003F02AF933
:102560001A2003F027F9B62003F030F90A2003F00F
:1025700021F9A22003F01EF9F22003F027F9002030
:1025800003F018F9262003F021F9012003F012F9D5
:10259000E02003F01BF90F2003F00CF92A2003F0D0
:1025A00009F9282003F006F9082003F003F90E20AA
:1025B00003F000F9082003F0FDF8542003F0FAF8C6
:1025C000A92003F0F7F8432003F0F4F80A2003F001
:1025D000F1F80F2003F0EEF8002003F0EBF80020F4
:1025E00003F0E8F8002003F0E5F8002003F0E2F83B
:1025F000E12003F0EBF8002003F0DCF8152003F0F5
:10260000D9F8172003F0D6F8072003F0D3F81120EB
:1026100003F0D0F8062003F0CDF82B2003F0CAF821
:10262000562003F0C7F83C2003F0C4F8052003F05F
:10263000C1F8102003F0BEF80F2003F0BBF83F20D4
:1026400003F0B8F83F2003F0B5F80F2003F0B2F81C
:102650002B2003F0BBF8002003F0ACF8002003F0BF
:10266000A9F8012003F0A6F83F2003F0A3F82A20E0
:1026700003F0ACF8002003F09DF8002003F09AF876
:10268000002003F097F8EF2003F094F8112003F0F6
:102690009DF87820FFF788FB292003F097F810BDFC
:1026A00010B5FF2003F092F8FF2003F083F8982084
:1026B00003F080F8062003F07DF8BC2003F086F8D4
:1026C000012003F077F80F2003F074F8612003F085
:1026D00071F8FF2003F06EF8012003F06BF8012081
:1026E00003F068F80B2003F065F8102003F062F89F
:1026F000372003F05FF8632003F05CF8FF2003F05D
:1027000059F8FF2003F056F8012003F053F8012098
:1027100003F050F8002003F04DF8002003F04AF8D1
:10272000FF2003F047F8522003F044F8012003F0A3
:1027300041F8002003F03EF8402003F03BF8BD20B4
:1027400003F044F8012003F035F8232003F032F8B9
:10275000452003F02FF8672003F02CF8012003F048
:1027600029F8232003F026F8452003F023F86720FA
:1027700003F020F8BE2003F029F8002003F01AF837
:10278000012003F017F8AB2003F014F8602003F0E9
:1027900011F8222003F00EF8222003F00BF822207B
:1027A00003F008F8222003F005F8222003F002F8D5
:1027B000C72003F00BF8362002F0FCFFED2003F0F9
:1027C00005F87F2002F0F6FF0F2002F0F3FFC02093
:1027D00002F0FCFF0F2002F0EDFF0B2002F0EAFFF9
:1027E0000A2002F0E7FFFC2002F0F0FF082002F0D0
:1027F000E1FFDF2002F0EAFF002002F0DBFF002013
:1028000002F0D8FF002002F0D5FF002002F0D2FF36
:10281000002002F0CFFF202002F0CCFFF32002F0D6
:10282000D5FF742002F0C6FFB42002F0CFFF0020D5
:1028300002F0C0FF002002F0BDFF002002F0BAFF4E
:10284000F72002F0C3FF822002F0B4FFB12002F0B3
:10285000BDFF002002F0AEFF132002F0ABFF1320FB
:1028600002F0A8FFF22002F0B1FF802002F0A2FFE8
:10287000042002F09FFF402002F09CFF282002F07D
:1028800099FFC12002F0A2FF172002F093FF8820D9
:1028900002F090FF882002F08DFF202002F08AFFD6
:1028A000E02002F093FF002002F084FF0A2002F0F3
:1028B00081FF122002F07EFF102002F07BFF0E202D
:1028C00002F078FF202002F075FFCC2002F072FFAA
:1028D000072002F06FFF062002F06CFF0B2002F0D1
:1028E00069FF0E2002F066FF0F2002F063FF0D204B
:1028F00002F060FF152002F05DFF102002F05AFF89
:10290000002002F057FFE12002F060FF002002F0FB
:1029100051FF0B2002F04EFF132002F04BFF0D2061
:1029200002F048FF0E2002F045FF1B2002F042FF9C
:10293000712002F03FFF062002F03CFF062002F06B
:1029400039FF0A2002F036FF0F2002F033FF0E207D
:1029500002F030FF0F2002F02DFF152002F02AFFB9
:102960000C2002F027FF002002F024FF2A2002F0B2
:102970002DFF002002F01EFF002002F01BFF0120AF
:1029800002F018FFDF2002F015FF2B2002F01EFFDF
:10299000002002F00FFF002002F00CFF032002F0E5
:1029A00009FF1F2002F006FF3A2002F00FFF55201A
:1029B00002F000FF362002F009FF002002F0FAFECC
:1029C000112002F003FF7820FFF7EEF9292002F032
:1029D000FDFE1420FFF7E8F92C2002F0F7FE10BDF1
:1029E00010B5ED2002F0F2FE012002F0E3FEFE2021
:1029F00002F0E0FEEE2002F0E9FEDE2002F0DAFE58
:102A0000212002F0D7FEF12002F0E0FE012002F0CA
:102A1000D1FEDF2002F0DAFE102002F0CBFEC4204F
:102A200002F0D4FE8F2002F0C5FEC62002F0CEFEDA
:102A3000002002F0BFFEE22002F0BCFEE22002F025
:102A4000B9FEE22002F0B6FEBF2002F0BFFEAA20CF
:102A500002F0B0FEB02002F0B9FE0D2002F0AAFE96
:102A6000002002F0A7FE0D2002F0A4FE002002F0DC
:102A7000A1FE112002F09EFE002002F09BFE192014
:102A800002F098FE002002F095FE212002F092FE56
:102A9000002002F08FFE2D2002F08CFE002002F0BC
:102AA00089FE3D2002F086FE002002F083FE5D20BC
:102AB00002F080FE002002F07DFE5D2002F07AFE32
:102AC000002002F077FEB12002F080FE802002F0AC
:102AD00071FE002002F06EFE8B2002F06BFE0020E3
:102AE00002F068FE962002F065FE002002F062FE11
:102AF000B22002F06BFE002002F05CFE002002F02B
:102B000059FE022002F056FE002002F053FE032080
:102B100002F050FE002002F04DFEB32002F056FEFF
:102B2000002002F047FE002002F044FE002002F0E8
:102B300041FE002002F03EFE002002F03BFE00209D
:102B400002F038FE002002F035FE002002F032FED6
:102B5000002002F02FFE002002F02CFE002002F0E8
:102B600029FE002002F026FE002002F023FE0020B5
:102B700002F020FE002002F01DFE002002F01AFEEE
:102B8000002002F017FE002002F014FE002002F0E8
:102B900011FE002002F00EFE002002F00BFE0020CD
:102BA00002F008FE002002F005FE002002F002FE06
:102BB000B42002F00BFE8B2002F0FCFD002002F09E
:102BC000F9FD962002F0F6FD002002F0F3FDA120B1
:102BD00002F0F0FD002002F0EDFDB52002F0F6FD60
:102BE000022002F0E7FD002002F0E4FD032002F0E5
:102BF000E1FD002002F0DEFD042002F0DBFD0020FC
:102C000002F0D8FDB62002F0E1FD002002F0D2FD76
:102C1000002002F0CFFDB72002F0D8FD002002F026
:102C2000C9FD002002F0C6FD3F2002F0C3FD0020D8
:102C300002F0C0FD5E2002F0BDFD002002F0BAFDF2
:102C4000642002F0B7FD002002F0B4FD8C2002F0F9
:102C5000B1FD002002F0AEFDAC2002F0ABFD002083
:102C600002F0A8FDDC2002F0A5FD002002F0A2FD8C
:102C7000702002F09FFD002002F09CFD902002F0E9
:102C800099FD002002F096FDEB2002F093FD00205C
:102C900002F090FDDC2002F08DFD002002F08AFDA4
:102CA000B82002F093FD002002F084FD002002F025
:102CB00081FD002002F07EFD002002F07BFD00205F
:102CC00002F078FD002002F075FD002002F072FD98
:102CD000002002F06FFDBA2002F078FD242002F0FF
:102CE00069FD002002F066FD002002F063FD002077
:102CF00002F060FDC12002F069FD202002F05AFDC3
:102D0000002002F057FD542002F054FD002002F094
:102D100051FDFF2002F04EFD002002F04BFDC220CD
:102D200002F054FD0A2002F045FD002002F042FDB1
:102D3000042002F03FFD002002F03CFDC32002F021
:102D400045FD3C2002F036FD002002F033FD3A2024
:102D500002F030FD002002F02DFD392002F02AFDA6
:102D6000002002F027FD372002F024FD002002F0B1
:102D700021FD3C2002F01EFD002002F01BFD36204C
:102D800002F018FD002002F015FD322002F012FDC5
:102D9000002002F00FFD2F2002F00CFD002002F0B9
:102DA00009FD2C2002F006FD002002F003FD292081
:102DB00002F000FD002002F0FDFC262002F0FAFCEB
:102DC000002002F0F7FC242002F0F4FC002002F0C6
:102DD000F1FC242002F0EEFC002002F0EBFC2320AA
:102DE00002F0E8FC002002F0E5FC3C2002F0E2FCEE
:102DF000002002F0DFFC362002F0DCFC002002F0B4
:102E0000D9FC322002F0D6FC002002F0D3FC2F20A7
:102E100002F0D0FC002002F0CDFC2C2002F0CAFC15
:102E2000002002F0C7FC292002F0C4FC002002F0C0
:102E3000C1FC262002F0BEFC002002F0BBFC2420D6
:102E400002F0B8FC002002F0B5FC242002F0B2FC35
:102E5000002002F0AFFC232002F0ACFC002002F0C6
:102E6000A9FCC42002F0B2FC622002F0A3FC002006
:102E700002F0A0FC052002F09DFC002002F09AFC6C
:102E8000842002F097FC002002F094FCF02002F075
:102E900091FC002002F08EFC182002F08BFC002038
:102EA00002F088FCA42002F085FC002002F082FCE5
:102EB000182002F07FFC002002F07CFC502002F081
:102EC00079FC002002F076FC0C2002F073FC00205C
:102ED00002F070FC172002F06DFC002002F06AFC8A
:102EE000952002F067FC002002F064FCF32002F061
:102EF00061FC002002F05EFCE62002F05BFC00209A
:102F000002F058FCC52002F061FC322002F052FCB5
:102F1000002002F04FFC442002F04CFC002002F0A4
:102F200049FC652002F046FC002002F043FC7620BC
:102F300002F040FC002002F03DFC882002F03AFC48
:102F4000002002F037FCC62002F040FC202002F0F6
:102F500031FC002002F02EFC172002F02BFC002098
:102F600002F028FC012002F025FC002002F022FCE7
:102F7000C72002F02BFC002002F01CFC002002F015
:102F800019FC002002F016FC002002F013FCC820FF
:102F900002F01CFC002002F00DFC002002F00AFCF4
:102FA000002002F007FC002002F004FCC92002F01F
:102FB0000DFC002002F0FEFB002002F0FBFB0020D5
:102FC00002F0F8FB002002F0F5FB002002F0F2FB1B
:102FD000002002F0EFFB002002F0ECFB002002F0EA
:102FE000E9FB002002F0E6FB002002F0E3FB0020FA
:102FF00002F0E0FB002002F0DDFB002002F0DAFB33
:10300000002002F0D7FB002002F0D4FB002002F0E9
:10301000D1FBE02002F0DAFB162002F0CBFB00200F
:1030200002F0C8FB1C2002F0C5FB002002F0C2FB2E
:10303000212002F0BFFB002002F0BCFB362002F092
:10304000B9FB002002F0B6FB462002F0B3FB0020E3
:1030500002F0B0FB522002F0ADFB002002F0AAFB10
:10306000642002F0A7FB002002F0A4FB7A2002F00B
:10307000A1FB002002F09EFB8B2002F09BFB0020B6
:1030800002F098FB992002F095FB002002F092FBE1
:10309000A82002F08FFB002002F08CFBB92002F088
:1030A00089FB002002F086FBC42002F083FB002095
:1030B00002F080FBCA2002F07DFB002002F07AFBC8
:1030C000D22002F077FB002002F074FBD92002F03E
:1030D00071FB002002F06EFBE02002F06BFB002091
:1030E00002F068FBF32002F065FB002002F062FBB7
:1030F000E12002F06BFB162002F05CFB002002F0E6
:1031000059FB1C2002F056FB002002F053FB22204A
:1031100002F050FB002002F04DFB362002F04AFB8B
:10312000002002F047FB452002F044FB002002F0A3
:1031300041FB522002F03EFB002002F03BFB6420EA
:1031400002F038FB002002F035FB7A2002F032FB5F
:10315000002002F02FFB8B2002F02CFB002002F05D
:1031600029FB992002F026FB002002F023FBA82077
:1031700002F020FB002002F01DFBB92002F01AFB38
:10318000002002F017FBC42002F014FB002002F024
:1031900011FBCA2002F00EFB002002F00BFBD22034
:1031A00002F008FB002002F005FBD82002F002FB31
:1031B000002002F0FFFAE02002F0FCFA002002F00A
:1031C000F9FAF32002F0F6FA002002F0F3FAE22016
:1031D00002F0FCFA052002F0EDFA002002F0EAFA13
:1031E0000B2002F0E7FA002002F0E4FA1B2002F0C4
:1031F000E1FA002002F0DEFA342002F0DBFA0020CF
:1032000002F0D8FA442002F0D5FA002002F0D2FAF7
:103210004F2002F0CFFA002002F0CCFA612002F039
:10322000C9FA002002F0C6FA792002F0C3FA0020A1
:1032300002F0C0FA882002F0BDFA002002F0BAFACB
:10324000972002F0B7FA002002F0B4FAA62002F0AC
:10325000B1FA002002F0AEFAB72002F0ABFA00207B
:1032600002F0A8FAC22002F0A5FA002002F0A2FAA9
:10327000C72002F09FFA002002F09CFAD12002F051
:1032800099FA002002F096FAD62002F093FA002074
:1032900002F090FADD2002F08DFA002002F08AFAA6
:1032A000F32002F087FA002002F084FAE32002F013
:1032B0008DFA052002F07EFA002002F07BFA0A2047
:1032C00002F078FA002002F075FA1C2002F072FA7F
:1032D000002002F06FFA332002F06CFA002002F0B6
:1032E00069FA442002F066FA002002F063FA5020E6
:1032F00002F060FA002002F05DFA622002F05AFA51
:10330000002002F057FA782002F054FA002002F070
:1033100051FA882002F04EFA002002F04BFA972072
:1033200002F048FA002002F045FAA62002F042FA24
:10333000002002F03FFAB72002F03CFA002002F031
:1033400039FAC22002F036FA002002F033FAC72020
:1033500002F030FA002002F02DFAD12002F02AFA11
:10336000002002F027FAD52002F024FA002002F013
:1033700021FADD2002F01EFA002002F01BFAF320F1
:1033800002F018FA002002F015FAE42002F01EFA0A
:10339000012002F00FFA002002F00CFA012002F0E6
:1033A00009FA002002F006FA022002F003FA0020D7
:1033B00002F000FA2A2002F0FDF9002002F0FAF9EA
:1033C0003C2002F0F7F9002002F0F4F94B2002F063
:1033D000F1F9002002F0EEF95D2002F0EBF9002097
:1033E00002F0E8F9742002F0E5F9002002F0E2F9B9
:1033F000842002F0DFF9002002F0DCF9932002F0D3
:10340000D9F9002002F0D6F9A22002F0D3F9002069
:1034100002F0D0F9B32002F0CDF9002002F0CAF991
:10342000BE2002F0C7F9002002F0C4F9C42002F067
:10343000C1F9002002F0BEF9CD2002F0BBF9002056
:1034400002F0B8F9D32002F0B5F9002002F0B2F989
:10345000DD2002F0AFF9002002F0ACF9F32002F019
:10346000A9F9002002F0A6F9E52002F0AFF900204A
:1034700002F0A0F9002002F09DF9002002F09AF974
:10348000002002F097F9022002F094F9002002F0E7
:1034900091F9292002F08EF9002002F08BF93C20EE
:1034A00002F088F9002002F085F94B2002F082F941
:1034B000002002F07FF95D2002F07CF9002002F08C
:1034C00079F9742002F076F9002002F073F9842073
:1034D00002F070F9002002F06DF9932002F06AF911
:1034E000002002F067F9A22002F064F9002002F047
:1034F00061F9B32002F05EF9002002F05BF9BE2012
:1035000002F058F9002002F055F9C42002F052F9F7
:10351000002002F04FF9CD2002F04CF9002002F01B
:1035200049F9D32002F046F9002002F043F9DC20EB
:1035300002F040F9002002F03DF9F32002F03AF9E0
:10354000002002F037F9E62002F040F9112002F0E5
:1035500031F9002002F02EF9342002F02BF900207E
:1035600002F028F9562002F025F9002002F022F995
:10357000762002F01FF9002002F01CF9772002F0FB
:1035800019F9002002F016F9662002F013F9002064
:1035900002F010F9882002F00DF9002002F00AF97B
:1035A000992002F007F9002002F004F9BB2002F094
:1035B00001F9002002F0FEF8992002F0FBF800204B
:1035C00002F0F8F8662002F0F5F8002002F0F2F8B8
:1035D000552002F0EFF8002002F0ECF8552002F040
:1035E000E9F8002002F0E6F8452002F0E3F80020B8
:1035F00002F0E0F8432002F0DDF8002002F0DAF8F3
:10360000442002F0D7F8002002F0D4F8E72002F0BE
:10361000DDF8322002F0CEF8002002F0CBF8552081
:1036200002F0C8F8002002F0C5F8762002F0C2F8D7
:10363000002002F0BFF8662002F0BCF8002002F083
:10364000B9F8672002F0B6F8002002F0B3F867205E
:1036500002F0B0F8002002F0ADF8872002F0AAF8DE
:10366000002002F0A7F8992002F0A4F8002002F050
:10367000A1F8BB2002F09EF8002002F09BF89920F0
:1036800002F098F8002002F095F8772002F092F806
:10369000002002F08FF8442002F08CF8002002F0A5
:1036A00089F8562002F086F8002002F083F82320E3
:1036B00002F080F8002002F07DF8332002F07AF862
:1036C000002002F077F8452002F074F8002002F0A4
:1036D00071F8E82002F07AF8002002F06BF8002080
:1036E00002F068F8992002F065F8002002F062F814
:1036F000872002F05FF8002002F05CF8882002F0DA
:1037000059F8002002F056F8772002F053F8002014
:1037100002F050F8662002F04DF8002002F04AF85E
:10372000882002F047F8002002F044F8AA2002F0B6
:1037300041F8002002F03EF8BB2002F03BF80020E8
:1037400002F038F8992002F035F8002002F032F843
:10375000662002F02FF8002002F02CF8552002F02D
:1037600029F8002002F026F8552002F023F8002066
:1037700002F020F8442002F01DF8002002F01AF8B0
:10378000442002F017F8002002F014F8552002F04F
:1037900011F8002002F00EF8E92002F017F8AA2034
:1037A00002F008F8002002F005F8002002F002F80C
:1037B000002001F0FFFF002002F008F8AA2001F02D
:1037C000F9FFCF2002F002F8002001F0F3FF002003
:1037D00001F0F0FF002001F0EDFF002001F0EAFF12
:1037E000002001F0E7FF002001F0E4FF002001F0DD
:1037F000E1FF002001F0DEFF002001F0DBFF0020F0
:1038000001F0D8FF002001F0D5FF002001F0D2FF29
:10381000002001F0CFFF002001F0CCFF002001F0DC
:10382000C9FF002001F0C6FF002001F0C3FFF02017
:1038300001F0CCFF002001F0BDFF502001F0BAFFE5
:10384000002001F0B7FF002001F0B4FF002001F0DC
:10385000B1FFF32001F0BAFF002001F0ABFFF92027
:1038600001F0B4FF062001F0A5FF102001F0A2FF37
:10387000292001F09FFF002001F09CFF3A2001F079
:10388000A5FF552001F096FF112001F09FFF642055
:10389000FEF78AFA292001F099FF352001F096FF02
:1038A000002001F087FF512001F090FFFF2001F080
:1038B00081FF532001F08AFF2C2001F07BFF55206F
:1038C00001F084FF822001F075FF2C2001F07EFFC3
:1038D00010BD10B555214FF4704001F08DFFAA21A5
:1038E0004FF2010001F088FF52214FF2020001F077
:1038F00083FF08214FF2030001F07EFF01214FF208
:10390000040001F079FF0D214FF4304001F074FF05
:103910000D214BF2010001F06FFF0D214BF202006F
:1039200001F06AFF34214FF4364001F065FF342185
:103930004BF2016001F060FF34214BF2026001F0B4
:103940005BFF0D214FF4314001F056FF0D214BF28A
:10395000011001F051FF0D214BF2021001F04CFF5C
:1039600034214FF4374001F047FF34214BF201700E
:1039700001F042FF34214BF2027001F03DFF0021C3
:103980004FF4324001F038FF00214BF2012001F0EA
:1039900033FF00214BF2022001F02EFF24214FF4CF
:1039A000384001F029FF24214BF6010001F024FFEB
:1039B00024214BF6020001F01FFF01214FF43F408C
:1039C00001F01AFF0F214FF4334001F015FF0F21D2
:1039D0004BF2013001F010FF0F214BF2023001F0E9
:1039E0000BFF34214FF4394001F006FF34214BF630
:1039F000011001F001FF34214BF6021001F0FCFE32
:103A000008214FF4354001F0F7FE08214BF2015038
:103A100001F0F2FE08214BF2025001F0EDFE03210D
:103A20004FF4424001F0E8FE24214FF43A4001F007
:103A3000E3FE24214BF6012001F0DEFE24214BF6AB
:103A4000022001F0D9FE00214FF43C4001F0D4FEE9
:103A500078214BF6014001F0CFFE00214BF60240E9
:103A600001F0CAFE00214FF43D4001F0C5FE78216F
:103A70004BF6015001F0C0FE00214BF6025001F060
:103A8000BBFE00214FF43E4001F0B6FE64214BF630
:103A9000016001F0B1FE00214FF4514001F0ACFE95
:103AA00033214DF2011001F0A7FE00214DF202106A
:103AB00001F0A2FE34214DF2031001F09DFE002121
:103AC0004DF2041001F098FE3A214DF2051001F07C
:103AD00093FE00214DF2061001F08EFE4A214DF2B8
:103AE000071001F089FE00214DF2081001F084FE5C
:103AF0005C214DF2091001F07FFE00214DF20A1009
:103B000001F07AFE81214DF20B1001F075FE0021CB
:103B10004DF20C1001F070FEA6214DF20D1001F0D7
:103B20006BFE00214DF20E1001F066FEE5214DF214
:103B30000F1001F061FE01214DF2101001F05CFE4A
:103B400013214DF2111001F057FE01214DF2121018
:103B500001F052FE54214DF2131001F04DFE0121EF
:103B60004DF2141001F048FE82214DF2151001F0C3
:103B700043FE01214DF2161001F03EFECA214DF226
:103B8000171001F039FE02214DF2181001F034FE39
:103B900000214DF2191001F02FFE02214DF21A10F2
:103BA00001F02AFE01214DF21B1001F025FE022139
:103BB0004DF21C1001F020FE34214DF21D1001F0D9
:103BC0001BFE02214DF21E1001F016FE67214DF280
:103BD0001F1001F011FE02214DF2201001F00CFE29
:103BE00084214DF2211001F007FE02214DF2221036
:103BF00001F002FEA4214DF2231001F0FDFD02218F
:103C00004DF2241001F0F8FDB7214DF2251001F01E
:103C1000F3FD02214DF2261001F0EEFDCF214DF211
:103C2000271001F0E9FD02214DF2281001F0E4FD1A
:103C3000DE214DF2291001F0DFFD02214DF22A10A4
:103C400001F0DAFDF2214DF22B1001F0D5FD022139
:103C50004DF22C1001F0D0FDFE214DF22D1001F09F
:103C6000CBFD03214DF22E1001F0C6FD10214DF2C7
:103C70002F1001F0C1FD03214DF2301001F0BCFD09
:103C800033214DF2311001F0B7FD03214DF2321016
:103C900001F0B2FD6D214DF2331001F0ADFD0021B8
:103CA0004FF4524001F0A8FD33214DF2012001F004
:103CB000A3FD00214DF2022001F09EFD34214DF2C2
:103CC000032001F099FD00214DF2042001F094FD44
:103CD0003A214DF2052001F08FFD00214DF2062022
:103CE00001F08AFD4A214DF2072001F085FD0021F7
:103CF0004DF2082001F080FD5C214DF2092001F019
:103D00007BFD00214DF20A2001F076FD81214DF26C
:103D10000B2001F071FD00214DF20C2001F06CFD33
:103D2000A6214DF20D2001F067FD00214DF20E207D
:103D300001F062FDE5214DF20F2001F05DFD012152
:103D40004DF2102001F058FD13214DF2112001F029
:103D500053FD01214DF2122001F04EFD54214DF290
:103D6000132001F049FD01214DF2142001F044FD22
:103D700082214DF2152001F03FFD01214DF2162068
:103D800001F03AFDCA214DF2172001F035FD022164
:103D90004DF2182001F030FD00214DF2192001F004
:103DA0002BFD02214DF21A2001F026FD01214DF2DA
:103DB0001B2001F021FD02214DF21C2001F01CFD11
:103DC00034214DF21D2001F017FD02214DF21E207D
:103DD00001F012FD67214DF21F2001F00DFD0221BF
:103DE0004DF2202001F008FD84214DF2212001F048
:103DF00003FD02214DF2222001F0FEFCA4214DF230
:103E0000232001F0F9FC02214DF2242001F0F4FC02
:103E1000B7214DF2252001F0EFFC02214DF22620C2
:103E200001F0EAFCCF214DF2272001F0E5FC022150
:103E30004DF2282001F0E0FCDE214DF2292001F0B6
:103E4000DBFC02214DF22A2001F0D6FCF2214DF2DA
:103E50002B2001F0D1FC02214DF22C2001F0CCFCF2
:103E6000FE214DF22D2001F0C7FC03214DF22E2042
:103E700001F0C2FC10214DF22F2001F0BDFC032106
:103E80004DF2302001F0B8FC33214DF2312001F029
:103E9000B3FC03214DF2322001F0AEFC6D214DF256
:103EA000332001F0A9FC00214FF4534001F0A4FCA1
:103EB00033214DF2013001F09FFC00214DF2023020
:103EC00001F09AFC34214DF2033001F095FC002101
:103ED0004DF2043001F090FC3A214DF2053001F032
:103EE0008BFC00214DF2063001F086FC4A214DF298
:103EF000073001F081FC00214DF2083001F07CFC1C
:103F00005C214DF2093001F077FC00214DF20A30BE
:103F100001F072FC81214DF20B3001F06DFC0021AB
:103F20004DF20C3001F068FCA6214DF20D3001F08D
:103F300063FC00214DF20E3001F05EFCE5214DF2F4
:103F40000F3001F059FC01214DF2103001F054FC0A
:103F500013214DF2113001F04FFC01214DF21230CE
:103F600001F04AFC54214DF2133001F045FC0121CF
:103F70004DF2143001F040FC82214DF2153001F079
:103F80003BFC01214DF2163001F036FCCA214DF206
:103F9000173001F031FC02214DF2183001F02CFCF9
:103FA00000214DF2193001F027FC02214DF21A30A8
:103FB00001F022FC01214DF21B3001F01DFC022119
:103FC0004DF21C3001F018FC34214DF21D3001F08F
:103FD00013FC02214DF21E3001F00EFC67214DF260
:103FE0001F3001F009FC02214DF2203001F004FCE9
:103FF00084214DF2213001F0FFFB02214DF22230ED
:1040000001F0FAFBA4214DF2233001F0F5FB02216F
:104010004DF2243001F0F0FBB7214DF2253001F0D4
:10402000EBFB02214DF2263001F0E6FBCF214DF2F1
:10403000273001F0E1FB02214DF2283001F0DCFBDA
:10404000DE214DF2293001F0D7FB02214DF22A305A
:1040500001F0D2FBF2214DF22B3001F0CDFB022119
:104060004DF22C3001F0C8FBFE214DF22D3001F055
:10407000C3FB03214DF22E3001F0BEFB10214DF2A7
:104080002F3001F0B9FB03214DF2303001F0B4FBC9
:1040900033214DF2313001F0AFFB03214DF23230CC
:1040A00001F0AAFB6D214DF2333001F0A5FB002198
:1040B0004FF4544001F0A0FB33214DF2014001F0D8
:1040C0009BFB00214DF2024001F096FB34214DF2A2
:1040D000034001F091FB00214DF2044001F08CFB04
:1040E0003A214DF2054001F087FB00214DF20640D8
:1040F00001F082FB4A214DF2074001F07DFB0021D7
:104100004DF2084001F078FB5C214DF2094001F0CE
:1041100073FB00214DF20A4001F06EFB81214DF24C
:104120000B4001F069FB00214DF20C4001F064FBF3
:10413000A6214DF20D4001F05FFB00214DF20E4033
:1041400001F05AFBE5214DF20F4001F055FB012132
:104150004DF2104001F050FB13214DF2114001F0DF
:104160004BFB01214DF2124001F046FB54214DF270
:10417000134001F041FB01214DF2144001F03CFBE2
:1041800082214DF2154001F037FB01214DF216401E
:1041900001F032FBCA214DF2174001F02DFB022144
:1041A0004DF2184001F028FB00214DF2194001F0BA
:1041B00023FB02214DF21A4001F01EFB01214DF2BA
:1041C0001B4001F019FB02214DF21C4001F014FBD1
:1041D00034214DF21D4001F00FFB02214DF21E4033
:1041E00001F00AFB67214DF21F4001F005FB02219F
:1041F0004DF2204001F000FB84214DF2214001F0FE
:10420000FBFA02214DF2224001F0F6FAA4214DF210
:10421000234001F0F1FA02214DF2244001F0ECFAC2
:10422000B7214DF2254001F0E7FA02214DF2264078
:1042300001F0E2FACF214DF2274001F0DDFA022130
:104240004DF2284001F0D8FADE214DF2294001F06C
:10425000D3FA02214DF22A4001F0CEFAF2214DF2BA
:104260002B4001F0C9FA02214DF22C4001F0C4FAB2
:10427000FE214DF22D4001F0BFFA03214DF22E40F8
:1042800001F0BAFA10214DF22F4001F0B5FA0321E6
:104290004DF2304001F0B0FA33214DF2314001F0DF
:1042A000ABFA03214DF2324001F0A6FA6D214DF236
:1042B000334001F0A1FA00214FF4554001F09CFA7F
:1042C00033214DF2015001F097FA00214DF20250D6
:1042D00001F092FA34214DF2035001F08DFA0021E1
:1042E0004DF2045001F088FA3A214DF2055001F0E8
:1042F00083FA00214DF2065001F07EFA4A214DF278
:10430000075001F079FA00214DF2085001F074FADB
:104310005C214DF2095001F06FFA00214DF20A5074
:1043200001F06AFA81214DF20B5001F065FA00218B
:104330004DF20C5001F060FAA6214DF20D5001F043
:104340005BFA00214DF20E5001F056FAE5214DF2D4
:104350000F5001F051FA01214DF2105001F04CFACA
:1043600013214DF2115001F047FA01214DF2125084
:1043700001F042FA54214DF2135001F03DFA0121AF
:104380004DF2145001F038FA82214DF2155001F02F
:1043900033FA01214DF2165001F02EFACA214DF2E6
:1043A000175001F029FA02214DF2185001F024FAB9
:1043B00000214DF2195001F01FFA02214DF21A505E
:1043C00001F01AFA01214DF21B5001F015FA0221F9
:1043D0004DF21C5001F010FA34214DF21D5001F045
:1043E0000BFA02214DF21E5001F006FA67214DF240
:1043F0001F5001F001FA02214DF2205001F0FCF9AA
:1044000084214DF2215001F0F7F902214DF22250A2
:1044100001F0F2F9A4214DF2235001F0EDF902214F
:104420004DF2245001F0E8F9B7214DF2255001F08A
:10443000E3F902214DF2265001F0DEF9CF214DF2D1
:10444000275001F0D9F902214DF2285001F0D4F99A
:10445000DE214DF2295001F0CFF902214DF22A5010
:1044600001F0CAF9F2214DF22B5001F0C5F90221F9
:104470004DF22C5001F0C0F9FE214DF22D5001F00B
:10448000BBF903214DF22E5001F0B6F910214DF287
:104490002F5001F0B1F903214DF2305001F0ACF989
:1044A00033214DF2315001F0A7F903214DF2325082
:1044B00001F0A2F96D214DF2335001F09DF9002178
:1044C0004FF4564001F098F933214DF2016001F0AC
:1044D00093F900214DF2026001F08EF934214DF282
:1044E000036001F089F900214DF2046001F084F9C4
:1044F0003A214DF2056001F07FF900214DF206608E
:1045000001F07AF94A214DF2076001F075F90021B6
:104510004DF2086001F070F95C214DF2096001F084
:104520006BF900214DF20A6001F066F981214DF22C
:104530000B6001F061F900214DF20C6001F05CF9B3
:10454000A6214DF20D6001F057F900214DF20E60E9
:1045500001F052F9E5214DF20F6001F04DF9012112
:104560004DF2106001F048F913214DF2116001F095
:1045700043F901214DF2126001F03EF954214DF250
:10458000136001F039F901214DF2146001F034F9A2
:1045900082214DF2156001F02FF901214DF21660D4
:1045A00001F02AF9CA214DF2176001F025F9022124
:1045B0004DF2186001F020F900214DF2196001F070
:1045C0001BF902214DF21A6001F016F901214DF29A
:1045D0001B6001F011F902214DF21C6001F00CF991
:1045E00034214DF21D6001F007F902214DF21E60E9
:1045F00001F002F967214DF21F6001F0FDF8022180
:104600004DF2206001F0F8F884214DF2216001F0B4
:10461000F3F802214DF2226001F0EEF8A4214DF2F0
:10462000236001F0E9F802214DF2246001F0E4F882
:10463000B7214DF2256001F0DFF802214DF226602E
:1046400001F0DAF8CF214DF2276001F0D5F8022110
:104650004DF2286001F0D0F8DE214DF2296001F022
:10466000CBF802214DF22A6001F0C6F8F2214DF29A
:104670002B6001F0C1F802214DF22C6001F0BCF872
:10468000FE214DF22D6001F0B7F803214DF22E60AE
:1046900001F0B2F810214DF22F6001F0ADF80321C6
:1046A0004DF2306001F0A8F833214DF2316001F095
:1046B000A3F803214DF2326001F09EF86D214DF216
:1046C000336001F099F855214FF4704001F094F8EF
:1046D000AA214FF2010001F08FF852214FF202009F
:1046E00001F08AF808214FF2030001F085F800215B
:1046F0004FF2040001F080F8CC214FF4314001F07A
:104700007BF800214BF2011001F076F805214FF4FF
:10471000364001F071F870214FF4374001F06CF829
:1047200070214BF2017001F067F801214FF438401D
:1047300001F062F803214BF6010001F05DF803215E
:104740004BF6020001F058F803214BF6030001F08C
:1047500053F802214FF43C4001F04EF800214BF693
:10476000014001F049F800214BF6024001F044F805
:10477000D0214FF4494001F03FF802214CF60110DE
:1047800001F03AF850214CF6021001F035F85021B2
:104790004CF6031001F030F850214CF6041001F0F3
:1047A0002BF800214FF4545001F026F855214FF416
:1047B000685001F021F84FF4885001F007F8782094
:1047C000FDF7FCFA4FF4245001F000F810BD10B5CD
:1047D000E22000F0FBFF1D2000F0ECFF022000F0C3
:1047E000E9FF042000F0E6FF6420FDF7E7FAE0208F
:1047F00000F0ECFF012000F0DDFF0A20FDF7D4FA05
:10480000E02000F0E3FF032000F0D4FF0C20FDF7D0
:10481000CBFA012000F0DAFF0A20FDF7C5FAE62006
:1048200000F0D4FF2F2000F0C5FFFF2000F0C2FFF2
:10483000FF2000F0BFFFB02000F0C8FF202000F0F4
:10484000B9FF002000F0B6FF032000F0B3FF40F2F4
:104850001F3000F0AFFF012000F0ACFF40F2DF108E
:1048600000F0A8FF002000F0A5FFB42000F0AEFF8C
:10487000042000F09FFF40F21F4000F09BFF00204B
:1048800000F098FF2E2000F095FF002000F092FF2E
:10489000002000F08FFF002000F08CFF002000F0CF
:1048A00089FFB62000F092FF022000F083FF4FF452
:1048B000037000F07FFF002000F07CFF172000F065
:1048C00079FF152000F076FF002000F073FF002034
:1048D00000F070FFF02000F079FF032000F06AFF85
:1048E000292000F073FFD02000F070FF002000F0BE
:1048F00061FFBE2000F06AFF052000F05BFFFE2094
:1049000000F058FF012000F055FF002000F052FF9A
:10491000002000F04FFF002000F04CFFB82000F016
:1049200055FF032000F046FF012000F043FFBA20AE
:1049300000F04CFF012000F03DFF10BD10B511202C
:1049400000F044FF7820FDF72FFA362000F03EFFFC
:10495000002000F02FFF3A2000F038FF052000F083
:1049600029FFB22000F032FF0C2000F023FF0C20C2
:1049700000F020FF002000F01DFF332000F01AFFA0
:10498000332000F017FFB72000F020FF352000F0A3
:1049900011FFBB2000F01AFF322000F00BFFC020F7
:1049A00000F014FF0C2000F005FFC22000F00EFF05
:1049B000012000F0FFFEC32000F008FF102000F0EF
:1049C000F9FEC42000F002FF202000F0F3FEC62014
:1049D00000F0FCFE0F2000F0EDFED02000F0F6FE0F
:1049E000A42000F0E7FEA12000F0E4FEE02000F0AB
:1049F000EDFED02000F0DEFE002000F0DBFE022005
:104A000000F0D8FE072000F0D5FE0A2000F0D2FE0C
:104A1000282000F0CFFE322000F0CCFE442000F031
:104A2000C9FE422000F0C6FE062000F0C3FE0E20A4
:104A300000F0C0FE122000F0BDFE142000F0BAFE0F
:104A4000172000F0B7FEE12000F0C0FED02000F0FB
:104A5000B1FE002000F0AEFE022000F0ABFE072009
:104A600000F0A8FE0A2000F0A5FE282000F0A2FE1B
:104A7000312000F09FFE542000F09CFE472000F003
:104A800099FE0E2000F096FE1C2000F093FE1720E9
:104A900000F090FE1B2000F08DFE1E2000F08AFE2C
:104AA0002A2000F093FE002000F084FE002000F099
:104AB00081FE002000F07EFEEF2000F07BFE2B2028
:104AC00000F084FE002000F075FE002000F072FE71
:104AD000012000F06FFE3F2000F06CFE292000F066
:104AE00075FE10BD10B5112000F070FE7820FDF7A6
:104AF0005BF9362000F06AFE482000F05BFE3A20A9
:104B000000F064FE552000F055FEF02000F05EFE3F
:104B1000C32000F04FFEF02000F058FE962000F079
:104B200049FEB42000F052FE012000F043FEB62002
:104B300000F04CFE0A2000F03DFEA22000F03AFEFC
:104B4000B72000F043FEC62000F034FEB92000F08C
:104B50003DFE022000F02EFEE02000F02BFEC020E3
:104B600000F034FE802000F025FE162000F022FE2A
:104B7000C12000F02BFE192000F01CFEC22000F026
:104B800025FEA72000F016FEC52000F01FFE16200F
:104B900000F010FEE82000F019FE402000F00AFEB0
:104BA0008A2000F007FE002000F004FE002000F044
:104BB00001FE292000F0FEFD192000F0FBFDA520DC
:104BC00000F0F8FD332000F0F5FDE02000F0FEFDE0
:104BD000F02000F0EFFD072000F0ECFD0D2000F0CC
:104BE000E9FD042000F0E6FD052000F0E3FD1420BF
:104BF00000F0E0FD362000F0DDFD542000F0DAFD8D
:104C00004C2000F0D7FD382000F0D4FD132000F038
:104C1000D1FD142000F0CEFD2E2000F0CBFD34207D
:104C200000F0C8FDE12000F0D1FDF02000F0C2FD51
:104C3000102000F0BFFD142000F0BCFD0E2000F09D
:104C4000B9FD0C2000F0B6FD082000F0B3FD3520C2
:104C500000F0B0FD442000F0ADFD4C2000F0AAFDB6
:104C6000262000F0A7FD102000F0A4FD122000F087
:104C7000A1FD2C2000F09EFD322000F09BFDF020D5
:104C800000F0A4FD3C2000F095FDF02000F09EFD1A
:104C9000692000F08FFD7820FDF786F8212000F0D4
:104CA00095FD292000F092FD10BD00002DE9F04F88
:104CB00005460E4617469846DDF824A04FF0000B37
:104CC000781B401C1FFA80FB344613E0214628461F
:104CD00000F0DAFB00F086FD4FF0000906E007491E
:104CE000A1F800A009F101001FFA80F9D945F6DB0F
:104CF000601C84B24445E9DDBDE8F08F8000006CA3
:104D000000B595B000BF00BF00200190F8480068D2
:104D100040F04000F64908600846006800F0400096
:104D2000019000BF00BF00BF00BF00BF0020019086
:104D30000846006840F0080008600846006800F077
:104D40000800019000BF00BF00BF00BF00BF0020EF
:104D500001900846006840F00800086008460068B6
:104D600000F00800019000BF00BF00BF00BF00BFFF
:104D7000002001900846006840F0400008600846A6
:104D8000006800F04000019000BF00BF00BF00BFFE
:104D900000BF002001900846006840F00200086053
:104DA0000846006800F00200019000BF00BF00BF8D
:104DB000881410900220119001201290022013906C
:104DC0000C20149010A9CB48FBF700FD2020109078
:104DD00010A9C948FBF7FAFC1020109010A9C6488A
:104DE000FBF7F4FC4FF48050109010A9C348FBF778
:104DF000EDFC4FF4004010900120119010A9C04824
:104E0000FBF7E4FC4FF02040BE490860BE48486014
:104E1000062088600021BB48C1601021416100214B
:104E20008161C16141624FF4805181620021C162A0
:104E30004FF4804101630021416381630F20099099
:104E400000200A903C200B9000200F900920029037
:104E500000200390092004900020089002AA09A9CC
:104E6000A848FCF715FA3220FCF79EFFD32000F08B
:104E7000ADFC00F0DFF9A549888000F0DBF9A3491B
:104E8000888000F0D7F9A1498880084680884FF6CD
:104E9000FF7101EA00209D49888000F0CBF99B4911
:104EA00089880843994988800846808849F24131B9
:104EB00088427CD0042000F089FC00F0BBF99349C3
:104EC000888000F0B7F99149888000F0B3F98F49E4
:104ED0008880084680884FF6FF7101EA00208B49E0
:104EE000888000F0A7F98949898808438749888024
:104EF0000846808848F25251884203D147F28970AF
:104F0000824988808148808847F289718842D0D060
:104F1000D42000F05BFC00F08DF97C49888000F023
:104F200089F97A49888000F085F9784988800846AF
:104F300080884FF6FF7101EA00207449888000F0F4
:104F400079F97249898808437049888008468088C1
:104F500045F210318842ACD0D32000F037FC00F08D
:104F600069F96A49888000F065F96849888000F02D
:104F700061F966498880084680884FF6FF7101EA2A
:104F800000206249888000F055F96049898808430B
:104F90005E4988800846808847F29671884288D0AA
:104FA00055214FF4704000F027FCAA2100E07EE07C
:104FB0004FF2010000F020FC52214FF2020000F0FD
:104FC0001BFC08214FF2030000F016FC01214FF2F8
:104FD000040000F011FC4FF4454000F0F7FB00F036
:104FE00029F94A498880084680884FF6FF7101EA0E
:104FF0000020464988804CF2015000F0E7FB00F0A9
:1050000019F9424989880843404988800520FCF7FE
:10501000CBFE3E48808845F21051884247D0D320CD
:1050200000F0D4FB00F006F93849888000F002F95E
:105030003649888000F0FEF8344988800846808828
:105040004FF6FF7101EA00203049888000F0F2F845
:105050002E49898808432D4988800846808849F66A
:105060000601884223D0A12000F0B0FB00F0E2F856
:105070002649888000F0DEF8244988800846808828
:105080004FF6FF7101EA00202049888000F0D2F835
:105090001E49898808431D4988800846808845F252
:1050A0006171884203D141F663101849888017481E
:1050B000818817A0FBF75AF91448808847F2897154
:1050C000884202D1FFF73AFC4EE01048808849F24E
:1050D0004131884202D1FDF7CDF945E00B48808887
:1050E00045F21031884219D1FDF77AFC3CE000000E
:1050F0003038024000180240000C02400014024008
:105100000004024030010020040100A080010020C2
:105110004C43442049443A25780D0A003F48808892
:1051200047F29671884202D1FFF7DCFC1CE03B4855
:10513000808845F21051884202D1FEF7CAFB13E085
:105140003648808849F60601884202D1FDF7A8FA60
:105150000AE03248808841F66311884204D1FFF7A3
:1051600036FB642000F0F6FA2C48808847F28971FB
:1051700088420AD103200290049029490B6B8A6867
:10518000486802A9FBF744FA38E02448808849F6C9
:10519000060188420BD02148808849F2413188427B
:1051A00005D01E48808845F2105188420AD102205D
:1051B000029004901A490B6B8A68486802A9FBF7B1
:1051C00027FA1BE01548808845F2103188420BD041
:1051D0001248808847F29671884205D00F4880882F
:1051E00041F66311884209D10120029004900C49D4
:1051F0000B6B8A68486802A9FBF70AFA0020FDF7E2
:1052000073F800BF0122D1030648FBF7F3FB00BF90
:105210004FF6FF70FDF74EF815B000BD800100207D
:10522000300100200004024000BF0100A0F1010095
:10523000FBD1704708B50220FFF7F6FF024800884F
:105240000090BDF8000008BD8000006CF0B5054678
:10525000002400278B488079012805D1894880885F
:1052600041F66311884208D186488079F0B98548B3
:10527000808841F66311884218D1082D15D2DFE8E5
:1052800005F00406080A0C0E101206250DE007258D
:105290000BE0042509E0052507E0012505E00025D0
:1052A00003E0032501E0022500BF00BF082D1CD24A
:1052B000DFE805F00406090C0F12151800BF14E012
:1052C00044F0800411E044F040040EE044F0C004D7
:1052D0000BE044F0200408E044F0600405E044F0F2
:1052E000A00402E044F0E00400BF00BF3627654898
:1052F000808845F21051884200D13F026148808881
:1053000049F2413188420BD05E48808847F289716A
:10531000884205D05B48808847F29671884201D167
:1053200044F008042146384600F066FA5548808863
:1053300041F6631188421DD004F0200068B1514845
:10534000008850494988884214DA4E4806884088C7
:105350004C490880084646800CE04A480088494984
:105360004988884206DD47480688408845490880C4
:10537000084646804348808845F21051884252D101
:105380004049488900F022FA002000F013FA3D4914
:105390004989491C88B200F019FA002000F00AFA85
:1053A00038494989891C88B200F010FA35490988C2
:1053B000491EC1F30F2000F0FDF932494989C91C8B
:1053C00088B200F003FA2F490978491EC8B200F0EC
:1053D000F1F92C49888900F0F9F9002000F0EAF988
:1053E00028498989491C88B200F0F0F9002000F0B2
:1053F000E1F924498989891C88B200F0E7F921493B
:105400004988491EC1F30F2000F0D4F91D4989894C
:10541000C91C88B200F0DAF91A498978491EC8B265
:1054200000F0C8F92DE01749488900F0CFF90020B5
:1054300000F0C0F9002000F0BDF912490988491EAA
:10544000C1F30F2000F0B6F90E490978491EC8B221
:1054500000F0B0F90B49888900F0B8F9002000F09D
:10546000A9F9002000F0A6F906494988491EC1F3B0
:105470000F2000F09FF903498978491EC8B200F057
:1054800099F9F0BD8001002010B502460C46454850
:10549000808841F66311884247D142488079A8B993
:1054A00040480088401E801A82B23E49488900F078
:1054B0008DF9002000F07EF9002000F07BF9101239
:1054C00000F078F9D0B200F075F916E03549488956
:1054D00000F07CF9101200F06DF9D0B200F06AF91A
:1054E00030490988491EC1F30F2000F063F92D49A6
:1054F0000978491EC8B200F05DF92A49888900F090
:1055000065F9201200F056F9E0B200F053F9254990
:105510004988491EC1F30F2000F04CF921498978D0
:10552000491EC8B200F046F93AE01E48808845F2AC
:105530001051884220D11B49488900F047F91012C8
:1055400000F038F917494989491C88B200F03EF942
:10555000D0B200F02FF91349888900F037F92012F2
:1055600000F028F90F498989491C88B200F02EF90A
:10557000E0B200F01FF913E00A49488900F026F96B
:10558000101200F017F9D0B200F014F9054988891B
:1055900000F01CF9201200F00DF9E0B200F00AF959
:1055A00010BD0000800100202DE9FC4F80460E4612
:1055B00015461C46B3460020019000902046E31794
:1055C00004EB5373DB1021464FEAE47C04EB5C7C74
:1055D0004FEAEC0CA4EBCC0CBCF1000F02D04FF066
:1055E000010C01E04FF0000C6344224604EBD27C36
:1055F0004FEA6C0C03FB0CF3DBB20193A5F1200026
:10560000C5B20C2C06D0102C0BD0182C0ED0202C90
:1056100018D112E005EB45002D4901EB8000009008
:1056200012E02C4800EB051000900DE005EBC500E2
:10563000294901EB8000009006E0284800EB851026
:10564000009001E0BDE8FC8F00BF00273AE0009821
:1056500010F807904FF0000A2EE009F0800028B102
:10566000314640460C9AFCF7F5FE07E00B9828B946
:105670001B48314602684046FCF7ECFE4FEA4960A1
:105680004FEA1069701C86B216484088B04200DCB0
:10569000D8E7A6EB0B00A0420AD15E4608F1010054
:1056A0001FFA80F80F480088404500DCCAE706E092
:1056B0000AF1010000F0FF0ABAF1080FCDDB00BFCC
:1056C000781CC7B201988742C1DB00BFBAE700006F
:1056D000255F00089963000889690008E5760008DD
:1056E00020000020800100202DE9FC4F04460D46DB
:1056F00090469946DDE90C7A0B9E04F0FF0B08EB0F
:1057000004001FFA80F809EB05001FFA80F917E082
:10571000444502DB5C46A81985B24D4500DB15E027
:105720000020CDE9000A3A78334629462046FFF7A3
:105730003BFF304606EBD07104EB61018CB27F1C5D
:1057400038787E2802DC38782028E1DA00BFBDE80E
:10575000FC8F000070B52DED048B0446BE2000F0D8
:1057600035F8052000F026F8204600F0B2FA41ECAA
:10577000190B9FED0E0B53EC102B00F0BDFA41EC12
:10578000180B00F079FA85B2284600F013F80120D2
:1057900000F010F8FF2000F00DF8002000F00AF8EB
:1057A000002000F007F8BDEC048B70BD66666666ED
:1057B0006666044001B5BDF800000090BDF8000029
:1057C0000149088008BD00008000006C01B5BDF8EB
:1057D00000000090BDF800000149088008BD0000ED
:1057E0007E00006C02480089024908807047000072
:1057F000800100207E00006C034A10804FF0D842E8
:10580000A2F88010704700007E00006C00B587B0E1
:1058100000BF00BF002001902048006840F0200039
:105820001E4908600846006800F02000019000BF93
:1058300000BF00BF00BF00BF002001900846006805
:1058400040F0200008600846006800F02000019049
:1058500000BF00BF00BF48150290012003900490D4
:105860000220059002A90E48FAF7B0FF4FF48060BD
:10587000029002A90A48FAF7A9FF00BF01225102CB
:105880000748FBF7B7F800BF00BF012291020448A8
:10589000FBF7B0F800BF07B000BD00003038024091
:1058A0000014024088B00025FBF7C2F8072302224B
:1058B00008214FF4A87000F055F9A820FCF76EFA03
:1058C0004FF4E13000F0BCF9FFF7A0FFFFF718FA42
:1058D000FCF71EFCFCF702FA4FF478406AA1102294
:1058E0001346CDE900210290C82232211E20FFF785
:1058F000FBFE4FF4784066A110221346CDE900214B
:105900000290C82246211E20FFF7EEFE4FF4784099
:1059100062A110221346CDE900210290C8225A212B
:105920001E20FFF7E1FE4FF4784060A110221346DD
:10593000CDE900210290C8226E211E20FFF7D4FE7F
:1059400028E04FF478405FA110221346CDE90021F2
:105950000290C82282211E20FFF7C6FE4FF4FA7083
:10596000FCF722FA4FF478405BA110221346CDE9F0
:1059700000210290C82282211E20FFF7B5FE4FF4BD
:10598000FA70FCF711FA00BF4FF400715748FBF7AB
:1059900027F800BFFCF78AF90028D2D14FF47840ED
:1059A00053A110221346CDE900210290C822822182
:1059B0001E20FFF799FE66E00020FCF719FC044664
:1059C000022C26D14FF6FF7040F23F13EF229621B2
:1059D00000900020FFF76AF91F2049A1102213460A
:1059E000CDE900210290C82296211E20FFF77CFEFF
:1059F0000F2249490020FCF7A5F91F2047A11022DA
:105A00001346CDE900210290C82296211E20FFF7FF
:105A10006BFE012C28D11F2046A110221346CDE990
:105A200000210290C82296211E20FFF75DFE0F2262
:105A300004A90020FCF756F91F2044A110221346A8
:105A4000CDE900210290C82296211E20FFF74CFECE
:105A50001F2004A910221346CDE900210290C8227C
:105A6000AA211E20FFF740FE681C85B2142D07D125
:105A700000BF4FF400711D48FAF7B2FF00BF0025C8
:105A80000A20FCF791F997E753544D333200000098
:105A900049494320544553540000000041544F4DA0
:105AA00040414C49454E54454B0000004B4559314F
:105AB0003A577269746520204B4559303A526561F6
:105AC00064000000323443303220436865636B2049
:105AD0004661696C65642100506C656173652043A3
