:020000040800F2
:100000000806002031020008EB190008E319000877
:10001000E719000809060008191E00080000000082
:10002000000000000000000000000000EF190008C0
:100030000D06000800000000ED190008F119000885
:100040005502000855020008550200085502000834
:100050005502000855020008550200085502000824
:100060005502000855020008550200085502000814
:100070005502000855020008550200085502000804
:1000800055020008550200085502000855020008F4
:1000900055020008550200085502000855020008E4
:1000A00055020008550200085502000855020008D4
:1000B00055020008550200085502000855020008C4
:1000C00055020008550200085502000855020008B4
:1000D00055020008091E00085502000855020008D4
:1000E0005502000855020008550200085502000894
:1000F0005502000855020008550200085502000884
:100100005502000855020008550200085502000873
:100110005502000855020008550200085502000863
:100120005502000855020008550200085502000853
:100130005502000855020008550200085502000843
:100140005502000855020008550200085502000833
:100150005502000855020008550200085502000823
:100160005502000855020008550200085502000813
:100170005502000855020008550200080000000062
:10018000550200085502000800F002F800F041F89E
:100190000AA090E8000C82448344AAF10107DA45E2
:1001A00001D100F036F8AFF2090EBAE80F0013F0F3
:1001B000010F18BFFB1A43F0010318479C8A000087
:1001C000BC8A0000103A24BF78C878C1FAD8520718
:1001D00024BF30C830C144BF04680C6070470000C1
:1001E0000023002400250026103A28BF78C1FBD840
:1001F000520728BF30C148BF0B607047782900F014
:10020000F580002070471FB505F040FD1FBD10B5FB
:1002100010BD00F0C9F91146FFF7F5FF05F07AFAB5
:1002200000F0E7F903B4FFF7F2FF03BC01F012FEA0
:100230000C48016841F4700101600B4880470B488D
:100240000047FEE7FEE7FEE7FEE7FEE7FEE7FEE724
:10025000FEE7FEE7FEE7000005480649044A064BB4
:100260007047000088ED00E0F919000889010008D6
:10027000080200200806002008020020704753EA08
:10028000020C00F069802DE9F04B4FF00006002BC6
:100290001FBFB3FA83F503FA05F424FA05F65E40AE
:1002A00012BF1643B2FA82F502FA05F4C5F1200531
:1002B0001EBF22FA05FC44EA0C04203556EA044C21
:1002C0004FEA144418BF641C4FF000084FF00009B7
:1002D000904271EB030C39D3002919BFB1FA81F7B1
:1002E00001FA07F6B0FA80F700FA07F6C7F120071F
:1002F0001EBF20FA07FC46EA0C062037B6FBF4FCCA
:10030000A7EB0507103F07F01F0BCBF120060CFAF7
:100310000BFB2CFA06F644BFB3460026202FA4BFE1
:100320005E464FF0000B5BEA060C08BF4FF0010B76
:1003300019EB0B09ABFB027C48EB0608C01B06FB64
:1003400002CC0BFB03CC71EB0C01C1E70B46024660
:1003500041464846BDE8F08B13B54FF000004FF022
:100360000001AFF30080BDE81C4070470FB40449A2
:1003700010B503AA029800F0E9F810BC5DF814FB70
:10038000080000202DE9F0410E46044600202062BE
:100390002046E168884730B3252805D0D4E90121FB
:1003A0009047206A401CF2E7E16820460027884712
:1003B000050018D0A5F14100192802D820354FF4C6
:1003C00000673246294620462760FFF717FF40B1F5
:1003D000012804D0F61D26F007060836D8E7361D9A
:1003E000D6E72846DAE7206ABDE8F08170B5044612
:1003F0000D4621461068AFF300802188090502D51B
:100400000F4A7A4402E00E4A7A440E32002104F187
:10041000240305E000F00F060009965D5E54491CB8
:100420000028F7D120780023000704D5702D02D0D2
:1004300009B1022311322046BDE8704000F02DB80A
:10044000288800004FF0000200B5134694469646F7
:10045000203922BFA0E80C50A0E80C50B1F12001D7
:10046000BFF4F7AF090728BFA0E80C5048BF0CC085
:100470005DF804EB890028BF40F8042B08BF7047E3
:1004800048BF20F8022B11F0804F18BF00F8012B55
:10049000704770477047704770472DE9F0470D4629
:1004A00099469246044600F124080168880604D55E
:1004B000E06921F01001216000E00120A84201DD87
:1004C000471B00E00027A1697A1902EB0900081A0E
:1004D000A0612078C00602D42046AFF30080002639
:1004E00008E0D4E901211AF806009047206A401C70
:1004F000761C20624E45F4DB2078C0060AD52046E3
:10050000AFF3008006E0D4E9012130209047206A53
:10051000401C2062381EA7F10107F4DC07E0D4E993
:10052000012118F805009047206A401C2062281E0F
:10053000A5F10105F3DC2046AFF30080207800062A
:1005400002D50220BDE8F0870120FBE7074B70B51C
:100550000D467B4400F011F80446284600F020F8D0
:1005600010B14FF0FF3070BD204670BD6B1A000017
:1005700001694A1C02610878704700B58FB0CDE967
:1005800001310021059105497944CDE90310114657
:100590006846FFF7F7FE0FB000BD0000E5FFFFFF64
:1005A000007B00F080007047754600F029F8AE46E9
:1005B00005006946534620F00700854618B020B56F
:1005C000FFF74AFEBDE820404FF000064FF000075D
:1005D0004FF000084FF0000B21F00701AC46ACE8EB
:1005E000C009ACE8C009ACE8C009ACE8C0098D4658
:1005F00070470446AFF300802046FFF713FE00006B
:1006000000487047A801002000BFFEE770470000C7
:1006100070B504461D460023B5F5804F13D154F83C
:1006200022300C480340D1E9000640EA06108E68EB
:1006300040EA06208E8940EA06408E693043034333
:1006400044F8223003E06FF0704044F822000020AC
:1006500070BD00000000F0CF10B50346002208680E
:1006600053F8202012480240D1E901042043CC680D
:1006700020430C6920434C6920438C692043CC699A
:1006800020430C6A20434C6A20438C6A2043CC6A86
:100690002043CC6B20430C6B20430243886808281E
:1006A00001D142F04002086843F82020002010BD2C
:1006B0008000F0FF30B503460024501C53F8204062
:1006C00004F04044D1E9000540EA05108D6840EA95
:1006D00005208D8940EA0545088A401E45EA0055F7
:1006E000087D801E45EA00608D6928430443501C44
:1006F00043F82040002030BDF0B5034600BF5879D4
:10070000012801D10220F0BD0120587100BF022054
:1007100018711868046802F0100640F6FE70B040C8
:100720008443D1E9000640EA060502F0100005FA0C
:1007300000F00443186804601868006802F01007AD
:10074000C026BE40B0431E6830600120187100BF53
:100750000020587100BF00BFD5E710B504460CB9A2
:10076000012010BD207920B900206071204600F0E2
:1007700009F8022020710020206101202071002052
:10078000EFE7000010B586B004461A492068884299
:100790002ED100BF00BF002000901748006840F035
:1007A0000100154908600846006800F0010000904B
:1007B00000BF00BF00BF00BF00BF002000900E4878
:1007C0001030006840F000500B49103108600846B6
:1007D000006800F00050009000BF00BF00BF102074
:1007E00001900320029001A9044800F0C5F800BF61
:1007F00006B010BD007400403038024000000240D6
:1008000038B50446002000902068009029B902F114
:100810000800009D2844009004E002F11400009DAF
:100820002844009000980360002038BD10B50246AF
:1008300000BF5079012801D1022010BD0120507164
:1008400000BF022010711068006801F0100401233D
:10085000A34018431368186061B91068006800F07D
:100860003C003C2816D11068406840F00100136835
:1008700058600FE01068006800F4701301F0100475
:100880003C20A040834205D11068406840F002003F
:10089000136858600120107100BF0020507100BF24
:1008A00000BFCAE770B50446A56D00F085F906469D
:1008B00094F83500022808D08020606500BF002031
:1008C00084F8340000BF012070BD2068006820F06B
:1008D0001600216808602068406920F080002168C7
:1008E0004861206C08B9A06C28B12068006820F02D
:1008F0000800216808602068006820F00100216875
:1009000008600FE000F058F9801B05280AD9202064
:10091000606500BF002084F8340000BF032084F825
:100920003500D1E72068006800F001000028E9D117
:1009300094F85C103F208840A86000BF002084F835
:10094000340000BF012084F835000020BCE70146D8
:1009500091F83500022803D08020486501207047B7
:10096000052081F835000868006820F001000A6859
:1009700010600020F3E70000F8B502460B460025A2
:10098000002400200021DEE0012606FA01F51E68A1
:1009900006EA0504AC4275D11E7906F00306012E65
:1009A00004D01E7906F00306022E13D190684F0082
:1009B0000326BE40B0434F00DE68BE403043906027
:1009C000506801268E40B0431E79C6F300168E4053
:1009D000304350601E7906F00306032E09D0D0681C
:1009E0004F000326BE40B0434F009E68BE403043D8
:1009F000D0601E7906F00306022E13D1CF0802F153
:100A0000200656F827004E07F70E0F26BE40B043CB
:100A10004F07FF0E1E69BE403043CF0802F120068B
:100A200046F8270010684F000326BE40B0431E79E9
:100A300006F003064F00BE40304310605E6806F0CB
:100A40008056B6F1805F7DD100BF00260096404EF3
:100A5000366846F480463E4F3E603E46366806F4B1
:100A60008046009600BF00BF3A4E8F0856F8270018
:100A70008E07370F0F26BE40B043374EB24202D129
:100A8000002624E05EE0354EB24201D101261EE090
:100A9000334EB24201D1022619E0324EB24201D1A8
:100AA000032614E0304EB24201D104260FE02F4E4F
:100AB000B24201D105260AE02D4EB24201D10626EE
:100AC00005E02C4EB24201D1072600E008268F0730
:100AD0003F0FBE4030431F4E8F0846F82700264E7A
:100AE0003068A0435E6806F48036B6F5803F00D1DA
:100AF0002043214E3060361D3068A0435E6806F406
:100B00000036B6F5003F00D120431B4E361D306045
:100B1000361D3068A0435E6806F48016B6F5801F67
:100B200000D12043144E08363060361D3068A04393
:100B30005E6806F40016B6F5001F00D120430E4E85
:100B40000C363060491C1029FFF41EAFF8BD0000C0
:100B500044380240083801400000024000040240CE
:100B600000080240000C0240001002400014024045
:100B700000180240001C0240003C0140024613697C
:100B80000B400BB1012000E00020704710B5426916
:100B900021EA020302EA010443EA0443836110BD2F
:100BA0000AB1816101E00B0483617047014800686C
:100BB000000C7047002004E0014800687047000006
:100BC00010000020034800680349097808440149DF
:100BD00008607047100000201800002010B50A4877
:100BE000006840F40070084908600846006840F456
:100BF00080600860052000F07FF80F2000F006F804
:100C000000F02AF8002010BD003C024070B50446F8
:100C10000E4800784FF47A71B1FBF0F00C49096886
:100C2000B1FBF0F5284600F087FC08B1012070BD4B
:100C3000102C07D200222146501E00F01EF8054855
:100C4000046001E00120F2E70020F0E71800002036
:100C500000000020140000207047014608460028CC
:100C600009DB00F01F0301229A4043099B0003F1B6
:100C7000E023C3F8002100BF70472DE9F05F8046F4
:100C80000D461646002701F0C9F8074639462A46A0
:100C9000334601F00700C0F1070ABAF1040F02D988
:100CA0004FF0040A01E0C0F1070AD14600F1040A3E
:100CB000BAF1070F02D24FF0000A01E0A0F1030AD7
:100CC000D4464FF0010A0AFA09FAAAF1010A0AEA1F
:100CD000020A0AFA0CFA4FF0010B0BFA0CFBABF10B
:100CE000010B0BEA030B4AEA0B042146404601F0D4
:100CF0009DF8BDE8F09F000000BF00F00702064B22
:100D000019684FF6FF031940044B0B4343EA0221D5
:100D1000014B196000BF70470CED00E00000FA05C0
:100D200070B504460D460CB9012070BD58480068E6
:100D300000F00700A84209D255490D700846006826
:100D400000F00700A84201D00120EEE7207800F073
:100D5000020002281DD1207800F00400042805D1EB
:100D60004C48006840F4E0504A490860207800F0A0
:100D70000800082805D14748006840F4604045490C
:100D800008604448006820F0F000A1680843414929
:100D90000860207800F00100A8B36068012807D13E
:100DA0003C4808380068C0F34040B8B90120BCE7AF
:100DB0006068022802D06068032807D135480838E7
:100DC0000068C0F3406048B90120AEE731480838F8
:100DD0000068C0F3400008B90120A6E72D4800686C
:100DE00020F00300616808432A490860FFF7E4FE29
:100DF000064609E0FFF7E0FE801B41F28831884299
:100E000002D9032091E707E02248006800F00C00B7
:100E10006168B0EB810FEDD11D48006800F007005C
:100E2000A84209D91A490D700846006800F0070069
:100E3000A84201D0012078E7207800F004000428BF
:100E400007D11448006820F4E050E16808431149D4
:100E50000860207800F00800082808D10D480068D4
:100E600020F46040216940EAC1000A49086000F0AE
:100E70003FF808490968C1F30311074A515CC840AB
:100E80000649086006480068FFF7C0FE00204CE7EE
:100E9000003C024008380240965C00080000002038
:100EA0001400002001480068704700000000002086
:100EB00000B5FFF7F7FF04490968C1F38221034A2F
:100EC000515CC84000BD000008380240A65C000824
:100ED00000B5FFF7E7FF04490968C1F34231034A4F
:100EE000515CC84000BD000008380240A65C000804
:100EF0002DE9F047002400250026A146254800687A
:100F000000F00C0020B1042805D008283AD105E0F3
:100F1000DFF8849039E0DFF8849036E01D48001F48
:100F2000006800F03F041B48001F006800F48000C8
:100F300078B11A481749091F0968C1F38811A0FB45
:100F400001700146224600233846FFF798F905460E
:100F50000EE011480F49091F0968C1F38811A0FB71
:100F600001700146224600233846FFF788F90546FE
:100F70000848001F0068C0F30140401C4600B5FB54
:100F8000F6F902E0DFF8109000BF00BF4846BDE868
:100F9000F0870000083802400024F40000127A00B4
:100FA000F8B504460CB90120F8BD207800F0010026
:100FB000002874D0F948006800F00C0004280DD017
:100FC000F648006800F00C00082813D1F348001F11
:100FD000006800F48000B0F5800F0BD1EF480838AE
:100FE0000068C0F34040002859D06068002856D1FE
:100FF0000120D9E700BF6068B0F5803F08D1E7481D
:101000000838006840F48030E449083908601EE080
:101010006068B0F5A02F0DD1E0480838006840F4B2
:101020008020DE49083908600846006840F48030B6
:1010300008600CE0D9480838006820F48030D749AF
:10104000083908600846006820F48020086000BF66
:10105000606890B1FFF7B0FD054606E0FFF7ACFD14
:10106000401B642801D903209EE7CC48083800685B
:10107000C0F340400028F1D011E0FFF79DFD054688
:1010800006E0FFF799FD401B642801D903208BE798
:10109000C24808380068C0F340400028F1D12078E9
:1010A00000F0020002285FD1BC48006800F00C008C
:1010B00058B1BA48006800F00C0008281CD1B748A5
:1010C000001F006800F48000B0B9B4480838006818
:1010D000C0F3400020B1E068012801D0012063E79F
:1010E000AE480838006820F0F800216940EAC100E5
:1010F000AA490839086037E0E06800B30120A84930
:101100000860FFF759FD054606E0FFF755FD401B57
:10111000022801D9032047E7A04808380068C0F337
:1011200040000028F1D09D480838006820F0F80001
:10113000216940EAC10099490839086014E000209B
:1011400097490860FFF738FD054606E0FFF734FDD4
:10115000401B022801D9032026E790480838006880
:10116000C0F340000028F1D1207800F008000828E2
:101170002CD16069A8B101208A490860FFF71CFDE5
:10118000054606E0FFF718FD401B022801D90320A1
:101190000AE782486C300068C0F340000028F1D0B4
:1011A00014E000207F490860FFF706FD054606E0D1
:1011B000FFF702FD401B022801D90320F4E677481F
:1011C0006C300068C0F340000028F1D1207800F0B6
:1011D0000400042870D1002770483830006800F0FF
:1011E000805090B900BF002000906C4838300068F3
:1011F00040F080506949383108600846006800F0C6
:101200008050009000BF00BF01276748006800F4CD
:101210008070B0B96448006840F48070624908602A
:10122000FFF7CAFC054606E0FFF7C6FC401B022894
:1012300001D90320B8E65C48006800F480700028FB
:10124000F2D000BFA068012808D154486830006877
:1012500040F001005149683108601DE0A068052890
:101260000DD14E486830006840F004004B496831A9
:1012700008600846006840F0010008600CE047483C
:101280006830006820F00100444968310860084671
:10129000006820F00400086000BFA068A8B1FFF754
:1012A0008BFC054609E0FFF787FC401B41F28831C3
:1012B000884202D9032077E626E038486830006883
:1012C000C0F340000028EED013E0FFF775FC0546A0
:1012D00008E0FFF771FC401B41F28831884201D9D8
:1012E000032061E62D4868300068C0F34000002804
:1012F000EFD1012F07D129483830006820F0805005
:1013000026493831086000BFA069002845D023482D
:10131000006800F00C0008285DD0A069022845D1C3
:1013200000201F490866FFF747FC054606E0FFF767
:1013300043FC401B022801D9032035E61748083832
:101340000068C0F340600028F1D1D4E907010843E8
:10135000616A40EA81110122A06AC2EB500041EAB1
:1013600000412C20005D41EA00600C49091F086023
:1013700001200B490866FFF71FFC054606E0FFF752
:101380001BFC401B022801D903200DE60348083846
:101390000068C0F340600028F1D049E008380240FE
:1013A00000004742800E4742007000400020214963
:1013B0000866FFF701FC054606E0FFF7FDFB401B52
:1013C000022801D90320EFE51B480068C0F3406004
:1013D0000028F2D12CE0A069012800D1E4E51648EC
:1013E000001D0668A069012820D006F48001E0698C
:1013F00081421BD106F03F01206A814216D147F697
:10140000C0703040616AB0EB811F0FD106F44031EB
:101410000122A06AC2EB5000B1EB004F06D106F0EA
:1014200070612C20005DB1EB006F01D00120BBE5A5
:101430000020B9E5000047420038024070B504467C
:101440000E4615460CB9012070BD94F8490028B924
:10145000002084F84800204600F01CF804F1080140
:101460002068FFF7F9F83146A2682068FFF722F9F3
:101470002946236BD4E90102FFF7CAF8A168206866
:1014800050F8210040F00100A268216841F82200D4
:101490000020D9E710B586B0044600BF00200090B8
:1014A0002248006840F001002049086008460068B2
:1014B00000F00100009000BF00BF00BF00200090BE
:1014C0001A480838006840F00800184908390860D0
:1014D0000846006800F00800009000BF00BF00BF91
:1014E000002000900846006840F0100008600846A0
:1014F000006800F01000009000BF00BF4CF20370C5
:1015000001900220029001200390022004900C2000
:10151000059001A90648FFF72FFA4FF68070019059
:1015200001A90448FFF728FA06B010BD3838024078
:10153000000C02400010024070B504462546681EAB
:10154000B0F1807F01D301200FE0681E4FF0E02151
:1015500048610F214FF0FF3000F068FC00204FF091
:10156000E021886107200861002070BD7047704746
:101570002DE9F84F0446206805682068C668206891
:1015800047694FF00009CA4605F00F09B9F1000F8D
:101590000AD105F0200038B106F0200020B1204625
:1015A00000F069FABDE8F88FB9F1000F72D007F0CA
:1015B000010018B906F4907000286BD005F0010006
:1015C00030B106F4807018B1206C40F00100206446
:1015D00005F0040030B107F0010018B1206C40F0B4
:1015E0000200206405F0020030B107F0010018B1DC
:1015F000206C40F00400206405F0080048B106F0BB
:10160000200010B907F0010018B1206C40F008006C
:101610002064206C70B305F0200028B106F0200093
:1016200010B1204600F027FA20684069C0F3801A04
:10163000206C00F0080010B9BAF1000F23D020464A
:1016400000F0EEF92068406900F04000402816D113
:101650002068406920F0400021684861A06B50B1CB
:101660005648A16B0865A06BFFF771F910B1A06B2C
:10167000016D88470CE02046FFF779FF08E020461F
:10168000FFF775FF04E02046FFF771FF002020649C
:1016900088E7FFE7206B012879D105F010000028CA
:1016A00075D006F01000002871D000BF0020009017
:1016B00020680068009020684068009000BF00BF6C
:1016C0002068406900F04000402839D1A06B0068D4
:1016D00040681FFA80F8B8F1000F30D0A08D404567
:1016E0002DDDA4F82E80A06BC069B0F5807F1FD0DF
:1016F0002068C06820F480702168C8602068406954
:1017000020F00100216848612068406920F0400015
:1017100021684861202084F83E0000202063206872
:10172000C06820F010002168C860A06BFFF7BAF80D
:10173000A08DE28D801A81B22046FFF717FF31E7B6
:10174000A08DE18D401A1FFA80F8E08DE8B1B8F164
:10175000000F1AD02068C06820F490702168C8601B
:101760002068406920F0010021684861202084F849
:101770003E00002020632068C06820F0100021682F
:10178000C86041462046FFF7F1FE0BE7FFE705F092
:10179000800030B106F0800018B1204600F003FB55
:1017A00000E705F0400030B106F0400018B12046D7
:1017B00000F051F9F6E600BFF4E600000D1A00084B
:1017C00010B504460CB9012010BDA06900B100E0BD
:1017D00000BF94F83D0028B9002084F83C00204662
:1017E00000F028F8242084F83D002068C06820F428
:1017F00000502168C860204600F09CF9206800690C
:1018000020F49040216808612068406920F02A0097
:10181000216848612068C06840F400502168C860B1
:1018200000202064202084F83D0084F83E00002041
:10183000CAE7000010B586B004462E4920688842E9
:1018400055D100BF00BF002000902B48006840F039
:101850001000294908600846006800F01000009058
:1018600000BF00BF00BF00BF00BF002000902248A3
:101870001438006840F001001F4914390860084618
:10188000006800F00100009000BF00BF00BF00BF73
:1018900000BF002000900846006840F0010008608A
:1018A0000846006800F00100009000BF00BF00BFC4
:1018B000481501900220029001200390022004901C
:1018C0000720059001A90D48FFF756F84FF48060F6
:1018D00001900720059001A90848FFF74DF8252041
:1018E000FFF7BBF9032211462520FFF7C6F906B022
:1018F00010BD0000001001404438024000000240CA
:1019000070B504460D46164694F83E00202816D1C0
:1019100005B10EB9012070BD00BF94F83C0001284C
:1019200001D10220F7E7012084F83C0000BF00202D
:10193000206332462946204600F012FAEBE70220E7
:10194000E9E7000010B504462049206888423BD1F1
:101950001F48008800F4004088BB1D48008800F440
:10196000804070B11B4800780A2803D00020184935
:10197000088024E01648008840F40040144908809C
:101980001DE0144800780D2806D11148008840F465
:1019900080400F49088012E00E4800780C49098801
:1019A000C1F30D010C4A505409480088401C0849F5
:1019B000088008460088C72801DD00200880012231
:1019C00004490648FFF79CFF10BD000000100140CD
:1019D0000C0000200E00002028000020F000002055
:1019E000704700BFFEE700BFFEE7704770477047D3
:1019F00010B5FFF7E7F810BD0348006840F4700029
:101A0000014908607047000088ED00E070B50546A8
:101A1000AC6B0020E085E0842046FFF7A8FD70BD98
:101A20000168C96821F490710268D1600168496950
:101A300021F0010102685161016B012905D10168A2
:101A4000C96821F010010268D160202180F83E10A1
:101A500000210163704710B504462068C06820F07B
:101A600040002168C860202084F83D002046FFF730
:101A7000B7FF002010BD70B5044694F83E00222840
:101A800056D1A068B0F5805F0CD1206950B900250F
:101A9000A66A20684068C0F308003080A06A801CF5
:101AA000A06215E0A56A0026A068B0F5805F03D0AB
:101AB000A06828B9206918B920684068287004E037
:101AC0002068406800F07F002870A06A401CA06277
:101AD000E08D401E80B2E08540BB2068C06820F0E9
:101AE00020002168C8602068C06820F480702168E8
:101AF000C8602068406920F001002168486120200A
:101B000084F83E00206B01280AD12068C06820F0CC
:101B100010002168C860A18D2046FFF727FD02E074
:101B20002046FFF70FFF0020206370BD0020FCE778
:101B30000220FAE72DE9F84F04462068006920F4F6
:101B40004050E1680843216808612169A0680843A2
:101B500061690843E169084300902068C06849F260
:101B60000C618843009908432168C8602068406977
:101B700020F44070A16908432168486176492068D3
:101B8000884203D075492068884203D1FFF7A0F945
:101B9000814602E0FFF78CF98146E069B0F5004F1D
:101BA0006CD102206168A0FB015003461920A9FBFB
:101BB000007001462A463846FEF761FB6421B0FBFF
:101BC000F1F04FEA001A02206168A0FB01510B46B8
:101BD0001920A9FB00712A463846FEF750FB8346C0
:101BE00002206168A0FB015003461920A9FB007187
:101BF0002A463846FEF743FB6421B0FBF1F000EBC8
:101C0000C00101EB0010ABEB8000322101EBC00002
:101C10006421B0FBF1F000F0F8000AEB400A02206A
:101C20006168A0FB015003461920A9FB0070014622
:101C30002A463846FEF723FB834602206168A0FB54
:101C4000015003461920A9FB00712A463846FEF7C9
:101C500016FB6421B0FBF1F000EBC00101EB0010BA
:101C6000ABEB8000322101EBC0006421B0FBF1F04E
:101C700000F007005044216888606AE00420616831
:101C8000A0FB015003461920A9FB007001462A461B
:101C90003846FEF7F4FA824604206168A0FB015042
:101CA00003461920A9FB007001462A463846FEF774
:101CB000E6FA6421B0FBF1F000EBC00101EB00108B
:101CC000AAEB8000322101EB00106421B0FBF1F09F
:101CD00000F0F00A04206168A0FB0170034619209F
:101CE000A9FB00513A462846FEF7C9FA6421B0FB29
:101CF000F1F00AEB001A04206168A0FB01510B46C9
:101D00001920A9FB00712A463846FEF7B8FA834627
:101D100004206168A0FB015003461920A9FB007054
:101D200001462A463846FEF7AAFA6421B0FBF1F0D4
:101D300000EBC00101EB0010ABEB8000322101EBA6
:101D400000106421B0FBF1F000F00F005044216856
:101D50008860BDE8F88F00000010014000140140C9
:101D600010B5034699629A85DA850020186422200E
:101D700083F83E0000BF002083F83C0000BF1868D5
:101D8000C06840F480701C68E0601868406940F0EA
:101D900001001C6860611868C06840F020001C6881
:101DA000E060002010BD014691F83D00212828D1B7
:101DB0008868B0F5805F0BD1086948B90A6A108855
:101DC000C0F308000B685860086A801C086205E0D0
:101DD0000B6A581C086218780B685860C88C401E43
:101DE00080B2C88458B90868C06820F080000B68C9
:101DF000D8600868C06840F040000B68D8600020D8
:101E000070470220FCE7000010B50248FFF7B0FB66
:101E100010BD0000F000002000BFFEE7024800688F
:101E2000C0F30220704700000CED00E010B5002860
:101E300004DB0A07130E054A135406E00A07140EC2
:101E4000034A00F00F031B1FD45410BD00E400E050
:101E500018ED00E000BF70471CB50A480A49086049
:101E60000846FEF77AFC0020009002200190002234
:101E700069460548FEF740FC00210348FEF7D6FC02
:101E80001CBD000000740040940100202DE9F047C3
:101E90002DED028B0646884614469946701CA042DA
:101EA00003DCBDEC028BBDE8F087204604EBD0716B
:101EB0004A10711C91FBF2F100EE101AF8EEC08A84
:101EC000002740E09FED220AB0EE408ABCEEC80A2F
:101ED00010EE103A002211461E48FEF791FC002534
:101EE00011E038EE280AB0EE408ABCEEC80A10EEC7
:101EF000103A002211461748FEF782FC404600F0D7
:101F00003BF8681C85B204EBD471B5EB610FE8DBDC
:101F1000002511E038EE680AB0EE408ABCEEC80A2F
:101F200010EE103A002211460A48FEF769FC4046BE
:101F300000F022F8681C85B204EBD471B5EB610F98
:101F4000E8DB781C87B24F45BCDB00BFA9E7000087
:101F50000000000094010020014908607047000063
:101F60000400002010B504464FF47A7104FB01F020
:101F700000F002F810BD000070B5034600224FF0DB
:101F8000E02675690D4E366803FB06F44FF0E02637
:101F9000B16910E04FF0E026B06988420BD088426A
:101FA00002D20E1A324402E02E1A0E443244014686
:101FB000A24200D300E0EDE700BF70BD04000020A6
:101FC00000BF054A126802F04002002AF9D0C2B2EE
:101FD000014B5A60704700000010014000B587B007
:101FE00000BF00BF002001903148006840F01000A1
:101FF0002F4908600846006800F01000019000BFFB
:1020000000BF00BF00BF00BF00200190084600686D
:1020100040F0100008600846006800F010000190D1
:1020200000BF00BF00BF00BF00BF002001900846F6
:10203000006840F0100008600846006800F01000DA
:10204000019000BF00BF00BF00BF00BF0020019093
:102050000846006840F0010008600846006800F08B
:102060000100019000BF00BF00BF102002900020BF
:102070000390012004900220059002A90D48FEF76C
:102080007BFC0820029002A90A48FEF775FC042098
:10209000029002A90748FEF76FFC0120029002207F
:1020A000049002A90448FEF767FC07B000BD0000D9
:1020B00030380240001002400000024070B5054672
:1020C00000242A480078002834D010212848FEF740
:1020D00055FD78B108212648FEF750FD50B1042186
:1020E0002348FEF74BFD28B101212248FEF746FDAB
:1020F00001281FD10A20FFF735FF00201B49087077
:1021000010211B48FEF73AFD00B9012408211848A8
:10211000FEF734FD00B9022404211548FEF72EFD18
:1021200000B9032401211348FEF728FD01281BD123
:10213000042419E010210E48FEF720FD012813D1D8
:1021400008210B48FEF71AFD01280DD1042108488B
:10215000FEF714FD012807D101210648FEF70EFD08
:1021600010B9012001490870204670BD24000020EC
:10217000001002400000024070B5044600260948E5
:102180000588408845430021084603F0B5F803F070
:1021900061FA00BF02E004480480761CAE42FAD324
:1021A00070BD0000840100208000006C10B5044662
:1021B00058488471002C58D1F020564908804FF4BB
:1021C000A07048800846808845F21051884210D19E
:1021D0004FF430504F4908814FF4285048814FF454
:1021E0002C5088814FF4F07008804FF4487048807C
:1021F0001AE04848808841F6631188420DD12C20AE
:10220000444908812B2048812A2088814FF4F070AE
:1022100008804FF44870488006E02C203D49088132
:102220002A2048812B2088813A48808845F2103145
:10223000884205D03748808847F29671884206D197
:102240004FF4A070334908804FF4F0704880314853
:10225000808849F60601884258D14FF4F0702D4924
:1022600008804FF44870488050E04FF4A07029492E
:102270000880F02048800846808845F21051884246
:1022800010D14FF43050234908814FF42850488131
:102290004FF42C5088814FF4487008804FF4F07050
:1022A000488020E01B48808841F66311884205D0B1
:1022B0001848808849F6060188420DD12C2015491E
:1022C00008812A2048812B2088814FF4487008809B
:1022D0004FF4F070488006E02C200E4908812A2037
:1022E00048812B2088810B48808845F21031884234
:1022F00005D00848808847F29671884206D14FF48D
:10230000F070044908804FF4A0704880002002F06B
:10231000D5FE10BD8401002070B505460E4614465A
:102320003146284602F0E8FF03F094F901490C8099
:1023300070BD00008000006C10B5CF2003F07EF966
:10234000002003F06FF9C12003F06CF9302003F096
:1023500069F9ED2003F072F9642003F063F90320BA
:1023600003F060F9122003F05DF9812003F05AF9BF
:10237000E82003F063F9852003F054F9102003F0FE
:1023800051F97A2003F04EF9CB2003F057F93920A8
:1023900003F048F92C2003F045F9002003F042F93E
:1023A000342003F03FF9022003F03CF9F72003F05A
:1023B00045F9202003F036F9EA2003F03FF9002028
:1023C00003F030F9002003F02DF9C02003F036F9B6
:1023D0001B2003F027F9C12003F030F9012003F09E
:1023E00021F9C52003F02AF9302003F01BF9302031
:1023F00003F018F9C72003F021F9B72003F012F910
:10240000362003F01BF9482003F00CF93A2003F0C2
:1024100015F9552003F006F9B12003F00FF900205B
:1024200003F000F91A2003F0FDF8B62003F006F9D6
:102430000A2003F0F7F8A22003F0F4F8F22003F0EA
:10244000FDF8002003F0EEF8262003F0F7F8012055
:1024500003F0E8F8E02003F0F1F80F2003F0E2F8D1
:102460002A2003F0DFF8282003F0DCF8082003F02E
:10247000D9F80E2003F0D6F8082003F0D3F8542042
:1024800003F0D0F8A92003F0CDF8432003F0CAF8F8
:102490000A2003F0C7F80F2003F0C4F8002003F06F
:1024A000C1F8002003F0BEF8002003F0BBF80020C4
:1024B00003F0B8F8E12003F0C1F8002003F0B2F80F
:1024C000152003F0AFF8172003F0ACF8072003F055
:1024D000A9F8112003F0A6F8062003F0A3F82B209A
:1024E00003F0A0F8562003F09DF83C2003F09AF882
:1024F000052003F097F8102003F094F80F2003F064
:1025000091F83F2003F08EF83F2003F08BF80F2066
:1025100003F088F82B2003F091F8002003F082F8F4
:10252000002003F07FF8012003F07CF83F2003F047
:1025300079F82A2003F082F8002003F073F80020D5
:1025400003F070F8002003F06DF8EF2003F06AF854
:10255000112003F073F87820FFF704FD292003F021
:102560006DF810BD10B5FF2003F068F8FF2003F0F0
:1025700059F8982003F056F8062003F053F8BC20D1
:1025800003F05CF8012003F04DF80F2003F04AF847
:10259000612003F047F8FF2003F044F8012003F026
:1025A00041F8012003F03EF80B2003F03BF8102027
:1025B00003F038F8372003F035F8632003F032F8E1
:1025C000FF2003F02FF8FF2003F02CF8012003F088
:1025D00029F8012003F026F8002003F023F800205A
:1025E00003F020F8FF2003F01DF8522003F01AF842
:1025F000012003F017F8002003F014F8402003F046
:1026000011F8BD2003F01AF8012003F00BF8232085
:1026100003F008F8452003F005F8672003F002F8FE
:10262000012002F0FFFF232002F0FCFF452002F012
:10263000F9FF672002F0F6FFBE2002F0FFFF002046
:1026400002F0F0FF012002F0EDFFAB2002F0EAFF04
:10265000602002F0E7FF222002F0E4FF222002F0D7
:10266000E1FF222002F0DEFF222002F0DBFF222029
:1026700002F0D8FFC72002F0E1FF362002F0D2FFBF
:10268000ED2002F0DBFF7F2002F0CCFF0F2002F0F4
:10269000C9FFC02002F0D2FF0F2002F0C3FF0B20C1
:1026A00002F0C0FF0A2002F0BDFFFC2002F0C6FFCE
:1026B000082002F0B7FFDF2002F0C0FF002002F088
:1026C000B1FF002002F0AEFF002002F0ABFF0020BF
:1026D00002F0A8FF002002F0A5FF202002F0A2FFD8
:1026E000F32002F0ABFF742002F09CFFB42002F054
:1026F000A5FF002002F096FF002002F093FF0020CB
:1027000002F090FFF72002F099FF822002F08AFF8A
:10271000B12002F093FF002002F084FF132002F0AA
:1027200081FF132002F07EFFF22002F087FF80205D
:1027300002F078FF042002F075FF402002F072FFE3
:10274000282002F06FFFC12002F078FF172002F06E
:1027500069FF882002F066FF882002F063FF2020D6
:1027600002F060FFE02002F069FF002002F05AFF53
:102770000A2002F057FF122002F054FF102002F04E
:1027800051FF0E2002F04EFF202002F04BFFCC2024
:1027900002F048FF072002F045FF062002F042FF4A
:1027A0000B2002F03FFF0E2002F03CFF0F2002F052
:1027B00039FF0D2002F036FF152002F033FF102004
:1027C00002F030FF002002F02DFFE12002F036FF82
:1027D000002002F027FF0B2002F024FF132002F05C
:1027E00021FF0D2002F01EFF0E2002F01BFF1B2018
:1027F00002F018FF712002F015FF062002F012FF10
:10280000062002F00FFF0A2002F00CFF0F2002F05A
:1028100009FF0E2002F006FF0F2002F003FF152033
:1028200002F000FF0C2002F0FDFE002002F0FAFE94
:102830002A2002F003FF002002F0F4FE002002F044
:10284000F1FE012002F0EEFEDF2002F0EBFE2B2075
:1028500002F0F4FE002002F0E5FE002002F0E2FEAD
:10286000032002F0DFFE1F2002F0DCFE3A2002F01F
:10287000E5FE552002F0D6FE362002F0DFFE0020F5
:1028800002F0D0FE112002F0D9FE7820FFF76AFB9B
:10289000292002F0D3FE1420FFF764FB2C2002F065
:1028A000CDFE10BD10B5ED2002F0C8FE012002F0F3
:1028B000B9FEFE2002F0B6FEEE2002F0BFFEDE20E2
:1028C00002F0B0FE212002F0ADFEF12002F0B6FED3
:1028D000012002F0A7FEDF2002F0B0FE102002F07F
:1028E000A1FEC42002F0AAFE8F2002F09BFEC620AB
:1028F00002F0A4FE002002F095FEE22002F092FE1B
:10290000E22002F08FFEE22002F08CFEBF2002F0F7
:1029100095FEAA2002F086FEB02002F08FFE0D2068
:1029200002F080FE002002F07DFE0D2002F07AFE13
:10293000002002F077FE112002F074FE002002F069
:1029400071FE192002F06EFE002002F06BFE2120C5
:1029500002F068FE002002F065FE2D2002F062FE0B
:10296000002002F05FFE3D2002F05CFE002002F03D
:1029700059FE5D2002F056FE002002F053FE5D205D
:1029800002F050FE002002F04DFEB12002F056FE93
:10299000802002F047FE002002F044FE8B2002F06F
:1029A00041FE002002F03EFE962002F03BFE002099
:1029B00002F038FEB22002F041FE002002F032FEAA
:1029C000002002F02FFE022002F02CFE002002F078
:1029D00029FE032002F026FE002002F023FEB32091
:1029E00002F02CFE002002F01DFE002002F01AFE74
:1029F000002002F017FE002002F014FE002002F07A
:102A000011FE002002F00EFE002002F00BFE00205E
:102A100002F008FE002002F005FE002002F002FE97
:102A2000002002F0FFFD002002F0FCFD002002F07B
:102A3000F9FD002002F0F6FD002002F0F3FD002079
:102A400002F0F0FD002002F0EDFD002002F0EAFDB2
:102A5000002002F0E7FD002002F0E4FD002002F07B
:102A6000E1FD002002F0DEFD002002F0DBFD002091
:102A700002F0D8FDB42002F0E1FD8B2002F0D2FD7F
:102A8000002002F0CFFD962002F0CCFD002002F0E5
:102A9000C9FDA12002F0C6FD002002F0C3FDB52053
:102AA00002F0CCFD022002F0BDFD002002F0BAFDD4
:102AB000032002F0B7FD002002F0B4FD042002F074
:102AC000B1FD002002F0AEFDB62002F0B7FD0020FF
:102AD00002F0A8FD002002F0A5FDB72002F0AEFD37
:102AE000002002F09FFD002002F09CFD3F2002F03C
:102AF00099FD002002F096FD5E2002F093FD00207B
:102B000002F090FD642002F08DFD002002F08AFDAD
:102B10008C2002F087FD002002F084FDAC2002F042
:102B200081FD002002F07EFDDC2002F07BFD002014
:102B300002F078FD702002F075FD002002F072FDB9
:102B4000902002F06FFD002002F06CFDEB2002F0FF
:102B500069FD002002F066FDDC2002F063FD00202C
:102B600002F060FDB82002F069FD002002F05AFD7D
:102B7000002002F057FD002002F054FD002002F07A
:102B800051FD002002F04EFD002002F04BFD002020
:102B900002F048FD002002F045FDBA2002F04EFD93
:102BA000242002F03FFD002002F03CFD002002F056
:102BB00039FD002002F036FDC12002F03FFD20204B
:102BC00002F030FD002002F02DFD542002F02AFD1D
:102BD000002002F027FDFF2002F024FD002002F07B
:102BE00021FDC22002F02AFD0A2002F01BFD002078
:102BF00002F018FD042002F015FD002002F012FD85
:102C0000C32002F01BFD3C2002F00CFD002002F06E
:102C100009FD3A2002F006FD002002F003FD3920F4
:102C200002F000FD002002F0FDFC372002F0FAFC6B
:102C3000002002F0F7FC3C2002F0F4FC002002F03F
:102C4000F1FC362002F0EEFC002002F0EBFC32201A
:102C500002F0E8FC002002F0E5FC2F2002F0E2FC8C
:102C6000002002F0DFFC2C2002F0DCFC002002F04F
:102C7000D9FC292002F0D6FC002002F0D3FC26204B
:102C800002F0D0FC002002F0CDFC242002F0CAFCAF
:102C9000002002F0C7FC242002F0C4FC002002F057
:102CA000C1FC232002F0BEFC002002F0BBFC3C2053
:102CB00002F0B8FC002002F0B5FC362002F0B2FCB5
:102CC000002002F0AFFC322002F0ACFC002002F049
:102CD000A9FC2F2002F0A6FC002002F0A3FC2C206F
:102CE00002F0A0FC002002F09DFC292002F09AFCDA
:102CF000002002F097FC262002F094FC002002F055
:102D000091FC242002F08EFC002002F08BFC242099
:102D100002F088FC002002F085FC232002F082FCF7
:102D2000002002F07FFCC42002F088FC622002F048
:102D300079FC002002F076FC052002F073FC0020F4
:102D400002F070FC842002F06DFC002002F06AFCAE
:102D5000F02002F067FC002002F064FC182002F072
:102D600061FC002002F05EFCA42002F05BFC00206D
:102D700002F058FC182002F055FC002002F052FC32
:102D8000502002F04FFC002002F04CFC0C2002F01E
:102D900049FC002002F046FC172002F043FC002012
:102DA00002F040FC952002F03DFC002002F03AFCCD
:102DB000F32002F037FC002002F034FCE62002F0A1
:102DC00031FC002002F02EFCC52002F037FC32203E
:102DD00002F028FC002002F025FC442002F022FC36
:102DE000002002F01FFC652002F01CFC002002F015
:102DF00019FC762002F016FC002002F013FC88205B
:102E000002F010FC002002F00DFCC62002F016FCBF
:102E1000202002F007FC002002F004FC172002F042
:102E200001FC002002F0FEFB012002F0FBFB002071
:102E300002F0F8FBC72002F001FC002002F0F2FBD8
:102E4000002002F0EFFB002002F0ECFB002002F07B
:102E5000E9FBC82002F0F2FB002002F0E3FB0020B7
:102E600002F0E0FB002002F0DDFB002002F0DAFBC4
:102E7000C92002F0E3FB002002F0D4FB002002F0A6
:102E8000D1FB002002F0CEFB002002F0CBFB0020A3
:102E900002F0C8FB002002F0C5FB002002F0C2FBDC
:102EA000002002F0BFFB002002F0BCFB002002F07B
:102EB000B9FB002002F0B6FB002002F0B3FB0020BB
:102EC00002F0B0FB002002F0ADFB002002F0AAFBF4
:102ED000002002F0A7FBE02002F0B0FB162002F079
:102EE000A1FB002002F09EFB1C2002F09BFB0020B7
:102EF00002F098FB212002F095FB002002F092FBEB
:102F0000362002F08FFB002002F08CFB462002F0FE
:102F100089FB002002F086FB522002F083FB002098
:102F200002F080FB642002F07DFB002002F07AFBBF
:102F30007A2002F077FB002002F074FB8B2002F075
:102F400071FB002002F06EFB992002F06BFB002069
:102F500002F068FBA82002F065FB002002F062FB93
:102F6000B92002F05FFB002002F05CFBC42002F0FD
:102F700059FB002002F056FBCA2002F053FB002050
:102F800002F050FBD22002F04DFB002002F04AFB81
:102F9000D92002F047FB002002F044FBE02002F0C1
:102FA00041FB002002F03EFBF32002F03BFB00203F
:102FB00002F038FBE12002F041FB162002F032FB68
:102FC000002002F02FFB1C2002F02CFB002002F05E
:102FD00029FB222002F026FB002002F023FB3620F2
:102FE00002F020FB002002F01DFB452002F01AFB3E
:102FF000002002F017FB522002F014FB002002F028
:1030000011FB642002F00EFB002002F00BFB7A2083
:1030100002F008FB002002F005FB8B2002F002FB0F
:10302000002002F0FFFA992002F0FCFA002002F0E2
:10303000F9FAA82002F0F6FA002002F0F3FAB9201B
:1030400002F0F0FA002002F0EDFAC42002F0EAFAF1
:10305000002002F0E7FACA2002F0E4FA002002F0B1
:10306000E1FAD22002F0DEFA002002F0DBFAD820EA
:1030700002F0D8FA002002F0D5FAE02002F0D2FAED
:10308000002002F0CFFAF32002F0CCFA002002F088
:10309000C9FAE22002F0D2FA052002F0C3FA0020B9
:1030A00002F0C0FA0B2002F0BDFA002002F0BAFADA
:1030B0001B2002F0B7FA002002F0B4FA342002F02C
:1030C000B1FA002002F0AEFA442002F0ABFA002080
:1030D00002F0A8FA4F2002F0A5FA002002F0A2FAAE
:1030E000612002F09FFA002002F09CFA792002F0A1
:1030F00099FA002002F096FA882002F093FA002054
:1031000002F090FA972002F08DFA002002F08AFA7D
:10311000A62002F087FA002002F084FAB72002F01D
:1031200081FA002002F07EFAC22002F07BFA002031
:1031300002F078FAC72002F075FA002002F072FA65
:10314000D12002F06FFA002002F06CFAD62002F0D3
:1031500069FA002002F066FADD2002F063FA00202E
:1031600002F060FAF32002F05DFA002002F05AFA51
:10317000E32002F063FA052002F054FA002002F086
:1031800051FA0A2002F04EFA002002F04BFA1C20FD
:1031900002F048FA002002F045FA332002F042FA29
:1031A000002002F03FFA442002F03CFA002002F036
:1031B00039FA502002F036FA002002F033FA622089
:1031C00002F030FA002002F02DFA782002F02AFAFC
:1031D000002002F027FA882002F024FA002002F0F2
:1031E00021FA972002F01EFA002002F01BFAA62016
:1031F00002F018FA002002F015FAB72002F012FAD5
:10320000002002F00FFAC22002F00CFA002002F0B7
:1032100009FAC72002F006FA002002F003FAD120D2
:1032200002F000FA002002F0FDF9D52002F0FAF9D0
:10323000002002F0F7F9DD2002F0F4F9002002F09E
:10324000F1F9F32002F0EEF9002002F0EBF9E420AE
:1032500002F0F4F9012002F0E5F9002002F0E2F9B1
:10326000012002F0DFF9002002F0DCF9022002F078
:10327000D9F9002002F0D6F92A2002F0D3F9002073
:1032800002F0D0F93C2002F0CDF9002002F0CAF99A
:103290004B2002F0C7F9002002F0C4F95D2002F0D3
:1032A000C1F9002002F0BEF9742002F0BBF9002041
:1032B00002F0B8F9842002F0B5F9002002F0B2F96A
:1032C000932002F0AFF9002002F0ACF9A22002F046
:1032D000A9F9002002F0A6F9B32002F0A3F900201A
:1032E00002F0A0F9BE2002F09DF9002002F09AF948
:1032F000C42002F097F9002002F094F9CD2002F0EA
:1033000091F9002002F08EF9D32002F08BF9002011
:1033100002F088F9DD2002F085F9002002F082F940
:10332000F32002F07FF9002002F07CF9E52002F0A2
:1033300085F9002002F076F9002002F073F90020F0
:1033400002F070F9002002F06DF9022002F06AF933
:10335000002002F067F9292002F064F9002002F051
:1033600061F93C2002F05EF9002002F05BF94B208D
:1033700002F058F9002002F055F95D2002F052F9F0
:10338000002002F04FF9742002F04CF9002002F006
:1033900049F9842002F046F9002002F043F9932015
:1033A00002F040F9002002F03DF9A22002F03AF9C3
:1033B000002002F037F9B32002F034F9002002F0C7
:1033C00031F9BE2002F02EF9002002F02BF9C420C2
:1033D00002F028F9002002F025F9CD2002F022F9B0
:1033E000002002F01FF9D32002F01CF9002002F0A7
:1033F00019F9DC2002F016F9002002F013F9F3208D
:1034000002F010F9002002F00DF9E62002F016F9A2
:10341000112002F007F9002002F004F9342002F034
:1034200001F9002002F0FEF8562002F0FBF800201F
:1034300002F0F8F8762002F0F5F8002002F0F2F839
:10344000772002F0EFF8002002F0ECF8662002F09E
:10345000E9F8002002F0E6F8882002F0E3F8002006
:1034600002F0E0F8992002F0DDF8002002F0DAF82E
:10347000BB2002F0D7F8002002F0D4F8992002F027
:10348000D1F8002002F0CEF8662002F0CBF8002040
:1034900002F0C8F8552002F0C5F8002002F0C2F88A
:1034A000552002F0BFF8002002F0BCF8452002F0E1
:1034B000B9F8002002F0B6F8432002F0B3F800207B
:1034C00002F0B0F8442002F0ADF8002002F0AAF8B3
:1034D000E72002F0B3F8322002F0A4F8002002F056
:1034E000A1F8552002F09EF8002002F09BF876200B
:1034F00002F098F8002002F095F8662002F092F8A9
:10350000002002F08FF8672002F08CF8002002F013
:1035100089F8672002F086F8002002F083F88720FF
:1035200002F080F8002002F07DF8992002F07AF88D
:10353000002002F077F8BB2002F074F8002002F0BF
:1035400071F8992002F06EF8002002F06BF87720F5
:1035500002F068F8002002F065F8442002F062F8FA
:10356000002002F05FF8562002F05CF8002002F024
:1035700059F8232002F056F8002002F053F83320C7
:1035800002F050F8002002F04DF8452002F04AF811
:10359000002002F047F8E82002F050F8002002F086
:1035A00041F8002002F03EF8992002F03BF800209C
:1035B00002F038F8872002F035F8002002F032F8E7
:1035C000882002F02FF8002002F02CF8772002F07B
:1035D00029F8002002F026F8662002F023F80020E7
:1035E00002F020F8882002F01DF8002002F01AF8FE
:1035F000AA2002F017F8002002F014F8BB2002F015
:1036000011F8002002F00EF8992002F00BF80020CB
:1036100002F008F8662002F005F8002002F002F837
:10362000552001F0FFFF002001F0FCFF552001F0C4
:10363000F9FF002001F0F6FF442001F0F3FF002025
:1036400001F0F0FF442001F0EDFF002001F0EAFF5F
:10365000552001F0E7FF002001F0E4FFE92001F030
:10366000EDFFAA2001F0DEFF002001F0DBFF0020CB
:1036700001F0D8FF002001F0D5FF002001F0DEFFAF
:10368000AA2001F0CFFFCF2001F0D8FF002001F0E9
:10369000C9FF002001F0C6FF002001F0C3FF002099
:1036A00001F0C0FF002001F0BDFF002001F0BAFFD3
:1036B000002001F0B7FF002001F0B4FF002001F06E
:1036C000B1FF002001F0AEFF002001F0ABFF0020B1
:1036D00001F0A8FF002001F0A5FF002001F0A2FFEB
:1036E000002001F09FFF002001F09CFF002001F06E
:1036F00099FFF02001F0A2FF002001F093FF50207D
:1037000001F090FF002001F08DFF002001F08AFF02
:10371000002001F087FFF32001F090FF002001F06E
:1037200081FFF92001F08AFF062001F07BFF1020C5
:1037300001F078FF292001F075FF002001F072FFF1
:103740003A2001F07BFF552001F06CFF112001F0C1
:1037500075FF6420FEF706FC292001F06FFF35207D
:1037600001F06CFF002001F05DFF512001F066FFC9
:10377000FF2001F057FF532001F060FF2C2001F0E3
:1037800051FF552001F05AFF822001F04BFF2C2001
:1037900001F054FF10BD10B555214FF4704001F0F9
:1037A00063FFAA214FF2010001F05EFF52214FF2A8
:1037B000020001F059FF08214FF2030001F054FF0D
:1037C00001214FF2040001F04FFF0D214FF4304072
:1037D00001F04AFF0D214BF2010001F045FF0D21E0
:1037E0004BF2020001F040FF34214FF4364001F06B
:1037F0003BFF34214BF2016001F036FF34214BF2E4
:10380000026001F031FF0D214FF4314001F02CFF37
:103810000D214BF2011001F027FF0D214BF2021098
:1038200001F022FF34214FF4374001F01DFF342115
:103830004BF2017001F018FF34214BF2027001F0DD
:1038400013FF00214FF4324001F00EFF00214BF234
:10385000012001F009FF00214BF2022001F004FFDA
:1038600024214FF4384001F0FFFE24214BF60100E3
:1038700001F0FAFE24214BF6020001F0F5FE0121D1
:103880004FF43F4001F0F0FE0F214FF4334001F0C0
:10389000EBFE0F214BF2013001F0E6FE0F214BF25F
:1038A000023001F0E1FE34214FF4394001F0DCFE3A
:1038B00034214BF6011001F0D7FE34214BF60210F3
:1038C00001F0D2FE08214FF4354001F0CDFE082171
:1038D0004BF2015001F0C8FE08214BF2025001F0FA
:1038E000C3FE03214FF4424001F0BEFE24214FF4F9
:1038F0003A4001F0B9FE24214BF6012001F0B4FE5C
:1039000024214BF6022001F0AFFE00214FF43C4091
:1039100001F0AAFE78214BF6014001F0A5FE00213E
:103920004BF6024001F0A0FE00214FF43D4001F0B3
:103930009BFE78214BF6015001F096FE00214BF6DC
:10394000025001F091FE00214FF43E4001F08CFE48
:1039500064214BF6016001F087FE00214FF45140D5
:1039600001F082FE33214DF2011001F07DFE0021B5
:103970004DF2021001F078FE34214DF2031001F0F7
:1039800073FE00214DF2041001F06EFE3A214DF25B
:10399000051001F069FE00214DF2061001F064FEF1
:1039A0004A214DF2071001F05FFE00214DF2081090
:1039B00001F05AFE5C214DF2091001F055FE002184
:1039C0004DF20A1001F050FE81214DF20B1001F072
:1039D0004BFE00214DF20C1001F046FEA6214DF2E7
:1039E0000D1001F041FE00214DF20E1001F03CFEE1
:1039F000E5214DF20F1001F037FE01214DF21010BC
:103A000001F032FE13214DF2111001F02DFE0121C3
:103A10004DF2121001F028FE54214DF2131001F066
:103A200023FE01214DF2141001F01EFE82214DF201
:103A3000151001F019FE01214DF2161001F014FECF
:103A4000CA214DF2171001F00FFE02214DF218109D
:103A500001F00AFE00214DF2191001F005FE0221CD
:103A60004DF21A1001F000FE01214DF21B1001F081
:103A7000FBFD02214DF21C1001F0F6FD34214DF248
:103A80001D1001F0F1FD02214DF21E1001F0ECFDC0
:103A900067214DF21F1001F0E7FD02214DF22010C9
:103AA00001F0E2FD84214DF2211001F0DDFD022143
:103AB0004DF2221001F0D8FDA4214DF2231001F0A7
:103AC000D3FD02214DF2241001F0CEFDB7214DF2BD
:103AD000251001F0C9FD02214DF2261001F0C4FDB0
:103AE000CF214DF2271001F0BFFD02214DF2281029
:103AF00001F0BAFDDE214DF2291001F0B5FD0221E1
:103B00004DF22A1001F0B0FDF2214DF22B1001F020
:103B1000ABFD02214DF22C1001F0A6FDFE214DF26D
:103B20002D1001F0A1FD03214DF22E1001F09CFD9E
:103B300010214DF22F1001F097FD03214DF23010AE
:103B400001F092FD33214DF2311001F08DFD032182
:103B50004DF2321001F088FD6D214DF2331001F06D
:103B600083FD00214FF4524001F07EFD33214DF2E0
:103B7000012001F079FD00214DF2022001F074FDD9
:103B800034214DF2032001F06FFD00214DF204209D
:103B900001F06AFD3A214DF2052001F065FD00219A
:103BA0004DF2062001F060FD4A214DF2072001F0A0
:103BB0005BFD00214DF2082001F056FD5C214DF225
:103BC000092001F051FD00214DF20A2001F04CFDC9
:103BD00081214DF20B2001F047FD00214DF20C2018
:103BE00001F042FDA6214DF20D2001F03DFD002126
:103BF0004DF20E2001F038FDE5214DF20F2001F0CD
:103C000033FD01214DF2102001F02EFD13214DF264
:103C1000112001F029FD01214DF2122001F024FDB7
:103C200054214DF2132001F01FFD01214DF214200B
:103C300001F01AFD82214DF2152001F015FD012140
:103C40004DF2162001F010FDCA214DF2172001F0AF
:103C50000BFD02214DF2182001F006FD00214DF26E
:103C6000192001F001FD02214DF21A2001F0FCFCA7
:103C700001214DF21B2001F0F7FC02214DF21C2026
:103C800001F0F2FC34214DF21D2001F0EDFC022187
:103C90004DF21E2001F0E8FC67214DF21F2001F0DB
:103CA000E3FC02214DF2202001F0DEFC84214DF2E4
:103CB000212001F0D9FC02214DF2222001F0D4FC98
:103CC000A4214DF2232001F0CFFC02214DF224204B
:103CD00001F0CAFCB7214DF2252001F0C5FC0221FC
:103CE0004DF2262001F0C0FCCF214DF2272001F03B
:103CF000BBFC02214DF2282001F0B6FCDE214DF282
:103D0000292001F0B1FC02214DF22A2001F0ACFC87
:103D1000F2214DF22B2001F0A7FC02214DF22C20C4
:103D200001F0A2FCFE214DF22D2001F09DFC0321AB
:103D30004DF22E2001F098FC10214DF22F2001F0C1
:103D400093FC03214DF2302001F08EFC33214DF223
:103D5000312001F089FC03214DF2322001F084FC76
:103D60006D214DF2332001F07FFC00214FF45340D0
:103D700001F07AFC33214DF2013001F075FC002195
:103D80004DF2023001F070FC34214DF2033001F0AD
:103D90006BFC00214DF2043001F066FC3A214DF23B
:103DA000053001F061FC00214DF2063001F05CFCB1
:103DB0004A214DF2073001F057FC00214DF2083046
:103DC00001F052FC5C214DF2093001F04DFC002164
:103DD0004DF20A3001F048FC81214DF20B3001F028
:103DE00043FC00214DF20C3001F03EFCA6214DF2C7
:103DF0000D3001F039FC00214DF20E3001F034FCA1
:103E0000E5214DF20F3001F02FFC01214DF2103071
:103E100001F02AFC13214DF2113001F025FC0121A3
:103E20004DF2123001F020FC54214DF2133001F01C
:103E30001BFC01214DF2143001F016FC82214DF2E1
:103E4000153001F011FC01214DF2163001F00CFC8F
:103E5000CA214DF2173001F007FC02214DF2183053
:103E600001F002FC00214DF2193001F0FDFB0221AE
:103E70004DF21A3001F0F8FB01214DF21B3001F038
:103E8000F3FB02214DF21C3001F0EEFB34214DF228
:103E90001D3001F0E9FB02214DF21E3001F0E4FB80
:103EA00067214DF21F3001F0DFFB02214DF220307F
:103EB00001F0DAFB84214DF2213001F0D5FB022123
:103EC0004DF2223001F0D0FBA4214DF2233001F05D
:103ED000CBFB02214DF2243001F0C6FBB7214DF29D
:103EE000253001F0C1FB02214DF2263001F0BCFB70
:103EF000CF214DF2273001F0B7FB02214DF22830DF
:103F000001F0B2FBDE214DF2293001F0ADFB0221C0
:103F10004DF22A3001F0A8FBF2214DF22B3001F0D6
:103F2000A3FB02214DF22C3001F09EFBFE214DF24D
:103F30002D3001F099FB03214DF22E3001F094FB5E
:103F400010214DF22F3001F08FFB03214DF2303064
:103F500001F08AFB33214DF2313001F085FB032162
:103F60004DF2323001F080FB6D214DF2333001F023
:103F70007BFB00214FF4544001F076FB33214DF2DE
:103F8000014001F071FB00214DF2024001F06CFB99
:103F900034214DF2034001F067FB00214DF2044053
:103FA00001F062FB3A214DF2054001F05DFB00217A
:103FB0004DF2064001F058FB4A214DF2074001F056
:103FC00053FB00214DF2084001F04EFB5C214DF205
:103FD000094001F049FB00214DF20A4001F044FB89
:103FE00081214DF20B4001F03FFB00214DF20C40CE
:103FF00001F03AFBA6214DF20D4001F035FB002106
:104000004DF20E4001F030FBE5214DF20F4001F082
:104010002BFB01214DF2104001F026FB13214DF244
:10402000114001F021FB01214DF2124001F01CFB77
:1040300054214DF2134001F017FB01214DF21440C1
:1040400001F012FB82214DF2154001F00DFB012120
:104050004DF2164001F008FBCA214DF2174001F065
:1040600003FB02214DF2184001F0FEFA00214DF24F
:10407000194001F0F9FA02214DF21A4001F0F4FA68
:1040800001214DF21B4001F0EFFA02214DF21C40DC
:1040900001F0EAFA34214DF21D4001F0E5FA022167
:1040A0004DF21E4001F0E0FA67214DF21F4001F091
:1040B000DBFA02214DF2204001F0D6FA84214DF2C4
:1040C000214001F0D1FA02214DF2224001F0CCFA58
:1040D000A4214DF2234001F0C7FA02214DF2244001
:1040E00001F0C2FAB7214DF2254001F0BDFA0221DC
:1040F0004DF2264001F0B8FACF214DF2274001F0F1
:10410000B3FA02214DF2284001F0AEFADE214DF261
:10411000294001F0A9FA02214DF22A4001F0A4FA47
:10412000F2214DF22B4001F09FFA02214DF22C407A
:1041300001F09AFAFE214DF22D4001F095FA03218B
:104140004DF22E4001F090FA10214DF22F4001F077
:104150008BFA03214DF2304001F086FA33214DF203
:10416000314001F081FA03214DF2324001F07CFA36
:104170006D214DF2334001F077FA00214FF45540A4
:1041800001F072FA33214DF2015001F06DFA002175
:104190004DF2025001F068FA34214DF2035001F063
:1041A00063FA00214DF2045001F05EFA3A214DF21B
:1041B000055001F059FA00214DF2065001F054FA71
:1041C0004A214DF2075001F04FFA00214DF20850FC
:1041D00001F04AFA5C214DF2095001F045FA002144
:1041E0004DF20A5001F040FA81214DF20B5001F0DE
:1041F0003BFA00214DF20C5001F036FAA6214DF2A7
:104200000D5001F031FA00214DF20E5001F02CFA60
:10421000E5214DF20F5001F027FA01214DF2105027
:1042200001F022FA13214DF2115001F01DFA012183
:104230004DF2125001F018FA54214DF2135001F0D2
:1042400013FA01214DF2145001F00EFA82214DF2C1
:10425000155001F009FA01214DF2165001F004FA4F
:10426000CA214DF2175001F0FFF902214DF218500A
:1042700001F0FAF900214DF2195001F0F5F902218F
:104280004DF21A5001F0F0F901214DF21B5001F0EE
:10429000EBF902214DF21C5001F0E6F934214DF208
:1042A0001D5001F0E1F902214DF21E5001F0DCF940
:1042B00067214DF21F5001F0D7F902214DF2205035
:1042C00001F0D2F984214DF2215001F0CDF9022103
:1042D0004DF2225001F0C8F9A4214DF2235001F013
:1042E000C3F902214DF2245001F0BEF9B7214DF27D
:1042F000255001F0B9F902214DF2265001F0B4F930
:10430000CF214DF2275001F0AFF902214DF2285094
:1043100001F0AAF9DE214DF2295001F0A5F90221A0
:104320004DF22A5001F0A0F9F2214DF22B5001F08C
:104330009BF902214DF22C5001F096F9FE214DF22D
:104340002D5001F091F903214DF22E5001F08CF91E
:1043500010214DF22F5001F087F903214DF230501A
:1043600001F082F933214DF2315001F07DF9032142
:104370004DF2325001F078F96D214DF2335001F0D9
:1043800073F900214FF4564001F06EF933214DF2DC
:10439000016001F069F900214DF2026001F064F959
:1043A00034214DF2036001F05FF900214DF2046009
:1043B00001F05AF93A214DF2056001F055F900215A
:1043C0004DF2066001F050F94A214DF2076001F00C
:1043D0004BF900214DF2086001F046F95C214DF2E5
:1043E000096001F041F900214DF20A6001F03CF949
:1043F00081214DF20B6001F037F900214DF20C6084
:1044000001F032F9A6214DF20D6001F02DF90021E5
:104410004DF20E6001F028F9E5214DF20F6001F038
:1044200023F901214DF2106001F01EF913214DF224
:10443000116001F019F901214DF2126001F014F937
:1044400054214DF2136001F00FF901214DF2146077
:1044500001F00AF982214DF2156001F005F9012100
:104460004DF2166001F000F9CA214DF2176001F01B
:10447000FBF802214DF2186001F0F6F800214DF230
:10448000196001F0F1F802214DF21A6001F0ECF828
:1044900001214DF21B6001F0E7F802214DF21C6092
:1044A00001F0E2F834214DF21D6001F0DDF8022147
:1044B0004DF21E6001F0D8F867214DF21F6001F047
:1044C000D3F802214DF2206001F0CEF884214DF2A4
:1044D000216001F0C9F802214DF2226001F0C4F818
:1044E000A4214DF2236001F0BFF802214DF22460B7
:1044F00001F0BAF8B7214DF2256001F0B5F80221BC
:104500004DF2266001F0B0F8CF214DF2276001F0A6
:10451000ABF802214DF2286001F0A6F8DE214DF241
:10452000296001F0A1F802214DF22A6001F09CF807
:10453000F2214DF22B6001F097F802214DF22C6030
:1045400001F092F8FE214DF22D6001F08DF803216B
:104550004DF22E6001F088F810214DF22F6001F02D
:1045600083F803214DF2306001F07EF833214DF2E3
:10457000316001F079F803214DF2326001F074F8F6
:104580006D214DF2336001F06FF855214FF470400A
:1045900001F06AF8AA214FF2010001F065F85221FA
:1045A0004FF2020001F060F808214FF2030001F021
:1045B0005BF800214FF2040001F056F8CC214FF4D3
:1045C000314001F051F800214BF2011001F04CF89C
:1045D00005214FF4364001F047F870214FF4374081
:1045E00001F042F870214BF2017001F03DF8012119
:1045F0004FF4384001F038F803214BF6010001F088
:1046000033F803214BF6020001F02EF803214BF69C
:10461000030001F029F802214FF43C4001F024F896
:1046200000214BF6014001F01FF800214BF602403B
:1046300001F01AF8D0214FF4494001F015F8022199
:104640004CF6011001F010F850214CF6021001F068
:104650000BF850214CF6031001F006F850214CF6EF
:10466000041001F001F800214FF4545000F0FCFF59
:1046700055214FF4685000F0F7FF4FF4885000F0D8
:10468000DDFF7820FDF778FC4FF4245000F0D6FFD2
:1046900010BD10B5E22000F0D1FF1D2000F0C2FFD8
:1046A000022000F0BFFF042000F0BCFF6420FDF7F3
:1046B00063FCE02000F0C2FF012000F0B3FF0A20FD
:1046C000FDF750FCE02000F0B9FF032000F0AAFF46
:1046D0000C20FDF747FC012000F0B0FF0A20FDF799
:1046E00041FCE62000F0AAFF2F2000F09BFFFF20F6
:1046F00000F098FFFF2000F095FFB02000F09EFF33
:10470000202000F08FFF002000F08CFF032000F03D
:1047100089FF40F21F3000F085FF012000F082FF8A
:1047200040F2DF1000F07EFF002000F07BFFB4209D
:1047300000F084FF042000F075FF40F21F4000F0FD
:1047400071FF002000F06EFF2E2000F06BFF0020B4
:1047500000F068FF002000F065FF002000F062FF1D
:10476000002000F05FFFB62000F068FF022000F09C
:1047700059FF4FF4037000F055FF002000F052FF86
:10478000172000F04FFF152000F04CFF002000F034
:1047900049FF002000F046FFF02000F04FFF03200B
:1047A00000F040FF292000F049FFD02000F046FF34
:1047B000002000F037FFBE2000F040FF052000F091
:1047C00031FFFE2000F02EFF012000F02BFF002023
:1047D00000F028FF002000F025FF002000F022FF5D
:1047E000B82000F02BFF032000F01CFF012000F098
:1047F00019FFBA2000F022FF012000F013FF10BDC6
:1048000010B5112000F01AFF7820FDF7ABFB362021
:1048100000F014FF002000F005FF3A2000F00EFF2A
:10482000052000F0FFFEB22000F008FF0C2000F091
:10483000F9FE0C2000F0F6FE002000F0F3FE33201D
:1048400000F0F0FE332000F0EDFEB72000F0F6FEA1
:10485000352000F0E7FEBB2000F0F0FE322000F033
:10486000E1FEC02000F0EAFE0C2000F0DBFEC220DA
:1048700000F0E4FE012000F0D5FEC32000F0DEFED3
:10488000102000F0CFFEC42000F0D8FE202000F061
:10489000C9FEC62000F0D2FE0F2000F0C3FED020DB
:1048A00000F0CCFEA42000F0BDFEA12000F0BAFE76
:1048B000E02000F0C3FED02000F0B4FE002000F0A5
:1048C000B1FE022000F0AEFE072000F0ABFE0A2091
:1048D00000F0A8FE282000F0A5FE322000F0A2FE85
:1048E000442000F09FFE422000F09CFE062000F0D5
:1048F00099FE0E2000F096FE122000F093FE142088
:1049000000F090FE172000F08DFEE12000F096FEF2
:10491000D02000F087FE002000F084FE022000F08E
:1049200081FE072000F07EFE0A2000F07BFE28209A
:1049300000F078FE312000F075FE542000F072FE89
:10494000472000F06FFE0E2000F06CFE1C2000F0EF
:1049500069FE172000F066FE1B2000F063FE1E209B
:1049600000F060FE2A2000F069FE002000F05AFEF0
:10497000002000F057FE002000F054FEEF2000F071
:1049800051FE2B2000F05AFE002000F04BFE0020CC
:1049900000F048FE012000F045FE3F2000F042FEFE
:1049A000292000F04BFE10BD10B5112000F046FE8E
:1049B0007820FDF7D7FA362000F040FE482000F0BE
:1049C00031FE3A2000F03AFE552000F02BFEF02098
:1049D00000F034FEC32000F025FEF02000F02EFE93
:1049E000962000F01FFEB42000F028FE012000F009
:1049F00019FEB62000F022FE0A2000F013FEA220CD
:104A000000F010FEB72000F019FEC62000F00AFEEC
:104A1000B92000F013FE022000F004FEE02000F0B8
:104A200001FEC02000F00AFE802000F0FBFD1620F1
:104A300000F0F8FDC12000F001FE192000F0F2FDA9
:104A4000C22000F0FBFDA72000F0ECFDC52000F027
:104A5000F5FD162000F0E6FDE82000F0EFFD402017
:104A600000F0E0FD8A2000F0DDFD002000F0DAFD1E
:104A7000002000F0D7FD292000F0D4FD192000F01F
:104A8000D1FDA52000F0CEFD332000F0CBFDE020CD
:104A900000F0D4FDF02000F0C5FD072000F0C2FDBD
:104AA0000D2000F0BFFD042000F0BCFD052000F04B
:104AB000B9FD142000F0B6FD362000F0B3FD5420FF
:104AC00000F0B0FD4C2000F0ADFD382000F0AAFD54
:104AD000132000F0A7FD142000F0A4FD2E2000F00C
:104AE000A1FD342000F09EFDE12000F0A7FDF020A4
:104AF00000F098FD102000F095FD142000F092FDCC
:104B00000E2000F08FFD0C2000F08CFD082000F03E
:104B100089FD352000F086FD442000F083FD4C2007
:104B200000F080FD262000F07DFD102000F07AFDD1
:104B3000122000F077FD2C2000F074FD322000F0F0
:104B400071FDF02000F07AFD3C2000F06BFDF020BC
:104B500000F074FD692000F065FD7820FDF702FA91
:104B6000212000F06BFD292000F068FD10BD000041
:104B700000B595B000BF00BF00200190F848006864
:104B800040F04000F64908600846006800F0400028
:104B9000019000BF00BF00BF00BF00BF0020019018
:104BA0000846006840F0080008600846006800F009
:104BB0000800019000BF00BF00BF00BF00BF002081
:104BC00001900846006840F0080008600846006848
:104BD00000F00800019000BF00BF00BF00BF00BF91
:104BE000002001900846006840F040000860084638
:104BF000006800F04000019000BF00BF00BF00BF90
:104C000000BF002001900846006840F002000860E4
:104C10000846006800F00200019000BF00BF00BF1E
:104C200088141090022011900120129002201390FD
:104C30000C20149010A9CB48FBF79EFE202010906A
:104C400010A9C948FBF798FE1020109010A9C6487B
:104C5000FBF792FE4FF48050109010A9C348FBF769
:104C60008BFE4FF4004010900120119010A9C04815
:104C7000FBF782FE4FF02040BE490860BE48486006
:104C8000062088600021BB48C160102141610021DD
:104C90008161C16141624FF4805181620021C16232
:104CA0004FF4804101630021416381630F2009902B
:104CB00000200A903C200B9000200F9009200290C9
:104CC00000200390092004900020089002AA09A95E
:104CD000A848FCF7B3FB3220FDF744F9D32000F0DD
:104CE000ADFC00F0DFF9A549888000F0DBF9A349AD
:104CF000888000F0D7F9A1498880084680884FF65F
:104D0000FF7101EA00209D49888000F0CBF99B49A2
:104D100089880843994988800846808849F241314A
:104D200088427CD0042000F089FC00F0BBF9934954
:104D3000888000F0B7F99149888000F0B3F98F4975
:104D40008880084680884FF6FF7101EA00208B4971
:104D5000888000F0A7F989498988084387498880B5
:104D60000846808848F25251884203D147F2897040
:104D7000824988808148808847F289718842D0D0F2
:104D8000D42000F05BFC00F08DF97C49888000F0B5
:104D900089F97A49888000F085F978498880084641
:104DA00080884FF6FF7101EA00207449888000F086
:104DB00079F9724989880843704988800846808853
:104DC00045F210318842ACD0D32000F037FC00F01F
:104DD00069F96A49888000F065F96849888000F0BF
:104DE00061F966498880084680884FF6FF7101EABC
:104DF00000206249888000F055F96049898808439D
:104E00005E4988800846808847F29671884288D03B
:104E100055214FF4704000F027FCAA2100E07EE00D
:104E20004FF2010000F020FC52214FF2020000F08E
:104E30001BFC08214FF2030000F016FC01214FF289
:104E4000040000F011FC4FF4454000F0F7FB00F0C7
:104E500029F94A498880084680884FF6FF7101EA9F
:104E60000020464988804CF2015000F0E7FB00F03A
:104E700019F9424989880843404988800520FDF78F
:104E800071F83E48808845F21051884247D0D320BF
:104E900000F0D4FB00F006F93849888000F002F9F0
:104EA0003649888000F0FEF83449888008468088BA
:104EB0004FF6FF7101EA00203049888000F0F2F8D7
:104EC0002E49898808432D4988800846808849F6FC
:104ED0000601884223D0A12000F0B0FB00F0E2F8E8
:104EE0002649888000F0DEF82449888008468088BA
:104EF0004FF6FF7101EA00202049888000F0D2F8C7
:104F00001E49898808431D4988800846808845F2E3
:104F10006171884203D141F66310184988801748AF
:104F2000818817A0FBF722FA1448808847F289711C
:104F3000884202D1FFF764FC4EE01048808849F2B5
:104F40004131884202D1FDF7F7F945E00B488088EE
:104F500045F21031884219D1FDF7A4FC3CE0000075
:104F60003038024000180240000C02400014024099
:104F70000004024034010020040100A0840100204C
:104F80004C43442049443A25780D0A003F48808824
:104F900047F29671884202D1FFF706FD1CE03B48BC
:104FA000808845F21051884202D1FEF7F4FB13E0ED
:104FB0003648808849F60601884202D1FDF7D2FAC8
:104FC0000AE03248808841F66311884204D1FFF735
:104FD00060FB642000F0F6FA2C48808847F2897163
:104FE00088420AD103200290049029490B6B8A68F9
:104FF000486802A9FBF70CFB38E02448808849F692
:10500000060188420BD02148808849F2413188420C
:1050100005D01E48808845F2105188420AD10220EE
:10502000029004901A490B6B8A68486802A9FBF742
:10503000EFFA1BE01548808845F2103188420BD00A
:105040001248808847F29671884205D00F488088C0
:1050500041F66311884209D10120029004900C4965
:105060000B6B8A68486802A9FBF7D2FA0020FDF7AB
:105070009DF800BF0122D1030648FBF791FD00BF58
:105080004FF6FF70FDF778F815B000BD84010020E1
:10509000340100200004024000BF0100A0F1010023
:1050A000FBD1704708B50220FFF7F6FF02480088E1
:1050B0000090BDF8000008BD8000006CF0B505460A
:1050C000002400278B488079012805D189488088F1
:1050D00041F66311884208D186488079F0B9854845
:1050E000808841F66311884218D1082D15D2DFE877
:1050F00005F00406080A0C0E101206250DE007251F
:105100000BE0042509E0052507E0012505E0002561
:1051100003E0032501E0022500BF00BF082D1CD2DB
:10512000DFE805F00406090C0F12151800BF14E0A3
:1051300044F0800411E044F040040EE044F0C00468
:105140000BE044F0200408E044F0600405E044F083
:10515000A00402E044F0E00400BF00BF3627654829
:10516000808845F21051884200D13F026148808812
:1051700049F2413188420BD05E48808847F28971FC
:10518000884205D05B48808847F29671884201D1F9
:1051900044F008042146384600F066FA55488088F5
:1051A00041F6631188421DD004F0200068B15148D7
:1051B000008850494988884214DA4E480688408859
:1051C0004C490880084646800CE04A480088494916
:1051D0004988884206DD4748068840884549088056
:1051E000084646804348808845F21051884252D193
:1051F0004049488900F022FA002000F013FA3D49A6
:105200004989491C88B200F019FA002000F00AFA16
:1052100038494989891C88B200F010FA3549098853
:10522000491EC1F30F2000F0FDF932494989C91C1C
:1052300088B200F003FA2F490978491EC8B200F07D
:10524000F1F92C49888900F0F9F9002000F0EAF919
:1052500028498989491C88B200F0F0F9002000F043
:10526000E1F924498989891C88B200F0E7F92149CC
:105270004988491EC1F30F2000F0D4F91D498989DE
:10528000C91C88B200F0DAF91A498978491EC8B2F7
:1052900000F0C8F92DE01749488900F0CFF9002047
:1052A00000F0C0F9002000F0BDF912490988491E3C
:1052B000C1F30F2000F0B6F90E490978491EC8B2B3
:1052C00000F0B0F90B49888900F0B8F9002000F02F
:1052D000A9F9002000F0A6F906494988491EC1F342
:1052E0000F2000F09FF903498978491EC8B200F0E9
:1052F00099F9F0BD8401002010B502460C464548DE
:10530000808841F66311884247D142488079A8B924
:1053100040480088401E801A82B23E49488900F009
:105320008DF9002000F07EF9002000F07BF91012CA
:1053300000F078F9D0B200F075F916E035494889E7
:1053400000F07CF9101200F06DF9D0B200F06AF9AB
:1053500030490988491EC1F30F2000F063F92D4937
:105360000978491EC8B200F05DF92A49888900F021
:1053700065F9201200F056F9E0B200F053F9254922
:105380004988491EC1F30F2000F04CF92149897862
:10539000491EC8B200F046F93AE01E48808845F23E
:1053A0001051884220D11B49488900F047F910125A
:1053B00000F038F917494989491C88B200F03EF9D4
:1053C000D0B200F02FF91349888900F037F9201284
:1053D00000F028F90F498989491C88B200F02EF99C
:1053E000E0B200F01FF913E00A49488900F026F9FD
:1053F000101200F017F9D0B200F014F905498889AD
:1054000000F01CF9201200F00DF9E0B200F00AF9EA
:1054100010BD0000840100202DE9FC4F80460E469F
:1054200015461C46B3460020019000902046E31725
:1054300004EB5373DB1021464FEAE47C04EB5C7C05
:105440004FEAEC0CA4EBCC0CBCF1000F02D04FF0F7
:10545000010C01E04FF0000C6344224604EBD27CC7
:105460004FEA6C0C03FB0CF3DBB20193A5F12000B7
:10547000C5B20C2C06D0102C0BD0182C0ED0202C22
:1054800018D112E005EB45002D4901EB800000909A
:1054900012E02C4800EB051000900DE005EBC50074
:1054A000294901EB8000009006E0284800EB8510B8
:1054B000009001E0BDE8FC8F00BF00273AE00098B3
:1054C00010F807904FF0000A2EE009F0800028B194
:1054D000314640460C9AFCF71FFF07E00B9828B9AD
:1054E0001B48314602684046FCF716FF4FEA496008
:1054F0004FEA1069701C86B216484088B04200DC42
:10550000D8E7A6EB0B00A0420AD15E4608F10100E5
:105510001FFA80F80F480088404500DCCAE706E023
:105520000AF1010000F0FF0ABAF1080FCDDB00BF5D
:10553000781CC7B201988742C1DB00BFBAE7000000
:10554000AE5C000822610008126700086E74000853
:1055500020000020840100202DE9FC4F04460D4668
:1055600090469946DDE90C7A0B9E04F0FF0B08EBA0
:1055700004001FFA80F809EB05001FFA80F917E014
:10558000444502DB5C46A81985B24D4500DB15E0B9
:105590000020CDE9000A3A78334629462046FFF735
:1055A0003BFF304606EBD07104EB61018CB27F1CEF
:1055B00038787E2802DC38782028E1DA00BFBDE8A0
:1055C000FC8F000070B52DED048B0446BE2000F06A
:1055D00035F8052000F026F8204600F046FA41ECA8
:1055E000190B9FED0E0B53EC102B00F051FA41EC10
:1055F000180B00F00DFA85B2284600F013F80120D0
:1056000000F010F8FF2000F00DF8002000F00AF87C
:10561000002000F007F8BDEC048B70BD666666667E
:105620006666044001B5BDF800000090BDF80000BA
:105630000149088008BD00008000006C01B5BDF87C
:1056400000000090BDF800000149088008BD00007E
:105650007E00006C02480089024908807047000003
:10566000840100207E00006C034A10804FF0D84275
:10567000A2F88010704700007E00006C00B587B073
:1056800000BF00BF002001902048006840F02000CB
:105690001E4908600846006800F02000019000BF25
:1056A00000BF00BF00BF00BF002001900846006897
:1056B00040F0200008600846006800F020000190DB
:1056C00000BF00BF00BF4815029001200390049066
:1056D0000220059002A90E48FBF74EF94FF48060B6
:1056E000029002A90A48FBF747F900BF01225102C4
:1056F0000748FBF755FA00BF00BF0122910204489A
:10570000FBF74EFA00BF07B000BD00003038024082
:10571000001402400EB50025FBF760FA07230222B1
:1057200008214FF4A87000F0E9F8A820FCF714FC59
:105730004FF4E13000F050F9FFF7A0FFFFF718FA3F
:10574000FCF74CFCFCF788FB4FF478404BA110228F
:105750001346CDE900210290C82232211E20FFF716
:10576000FBFE4FF4784047A110221346CDE90021FB
:105770000290C82246211E20FFF7EEFE4FF478402B
:1057800047A110221346CDE900210290C8225A21D8
:105790001E20FFF7E1FE4FF4784045A1102213468A
:1057A000CDE900210290C8226E211E20FFF7D4FE11
:1057B0001F2045A110221346CDE900210290C822E6
:1057C00082211E20FFF7C8FE57E0681CC5B20020EA
:1057D000FCF774FC0446012C20D11F203DA11022AF
:1057E0001346CDE900210290C82282211E20FFF736
:1057F000B3FE64234FF4FA62052140F6FF70FCF714
:1058000045FB1F2036A110221346CDE9002102904E
:10581000C82282211E20FFF79FFE21E0022C1FD10B
:105820001F2032A110221346CDE900210290C82288
:1058300082211E20FFF790FE642314224FF4FA7198
:1058400040F6FF70FCF722FB1F2025A11022134613
:10585000CDE900210290C82282211E20FFF77CFEA4
:105860000A2D07D100BF4FF400712348FBF78EF9D2
:1058700000BF00250A20FCF775FBA6E753544D3303
:105880003200000044414320547269616E67756CB8
:105890006172205741564520544553540000000082
:1058A00041544F4D40414C49454E54454B0000003A
:1058B0004B4559303A576176653120204B45593177
:1058C0003A57617665320000444143204E6F6E6561
:1058D00000000000444143205761766531200000FC
:1058E000444143204E6F6E65202000004441432018
:1058F0005761766532200000001402402DE9F04126
:1059000092B080460C4615461E460027302106A858
:10591000FAF798FD142101A8FAF794FD00BF0020C2
:1059200000902A48006840F08050284908600846E6
:10593000006800F08050009000BF00BF00BF002052
:1059400000902348006840F48040214908600846E0
:10595000006800F48040009000BF00BF0120069066
:105960000004079002200C9041050D91CDF83C8079
:105970000E941095119606A8FBF712FB07461FB16F
:10598000012012B0BDE8F0810F20019002200290AA
:10599000002003904FF4A05004904FF480500590E5
:1059A000052101A8FBF7BCF907460FB10120E8E784
:1059B000FBF7FCF841F20101884205D10548006877
:1059C00040F48070034908600020DAE74038024064
:1059D00000700040003C024010B5044609480A49E6
:1059E00008600846446000218160C16001618161F6
:1059F0000C214161FBF7E4FE012204490248FBF758
:105A00007FFF10BD00100140F00000200E000020BC
:105A10004FEA1153A3F58063D3F11E03A8BFD3F15E
:105A2000200C08DB4FF0004242EAC12252EA5052F9
:105A300032FA03F0704709420BD4102BC4BF002088
:105A4000704703F5787CBCF1FF3F05D04FF0FF3085
:105A500070474FF00000704770B500F0C3F800BF0A
:105A60004992248000207047F0E7B0FA80F310FAE2
:105A700003F10AD0C3F11D0303F580634FEA4150DF
:105A80004FEA035202EBD12170474FF000007047FC
:105A9000DFF848C170B51CEA111E1EBF1CEA1315C1
:105AA0009EEA0C0F95EA0C0F00F06F8081EA030468
:105AB00023EA4C134EEAD47E21EA4C1141F48011C2
:105AC00043F48013AE44A1FB024CA0FB0365AEF18E
:105AD0007F7E361955EB0C05A1FB034C4CF10003FE
