:020000040800F2
:1000000048070020310200086D1C0008651C00082C
:10001000691C0008290600083923000800000000B8
:10002000000000000000000000000000711C00083B
:100030002D060008000000006F1C0008731C00085B
:100040003D2300085502000855020008550200082B
:100050005502000855020008310600085502000844
:1000600045060008590600086D06000855020008FC
:100070005502000855020008550200085502000804
:1000800055020008550200085502000855020008F4
:1000900055020008550200085502000855020008E4
:1000A00055020008550200085502000855020008D4
:1000B00055020008911C000855020008550200086E
:1000C00055020008550200085502000855020008B4
:1000D00055020008292300085502000855020008AF
:1000E0005502000855020008550200085502000894
:1000F000E91C000855020008E11C00085502000830
:100100005502000855020008550200085502000873
:100110005502000855020008C11C0008D11C000847
:100120005502000855020008550200085502000853
:100130005502000855020008550200085502000843
:100140005502000855020008550200085502000833
:100150005502000855020008550200085502000823
:100160005502000855020008550200085502000813
:100170005502000855020008550200080000000062
:10018000550200085502000800F002F800F041F89E
:100190000AA090E8000C82448344AAF10107DA45E2
:1001A00001D100F036F8AFF2090EBAE80F0013F0F3
:1001B000010F18BFFB1A43F001031847B0290000D4
:1001C000D0290000103A24BF78C878C1FAD8520765
:1001D00024BF30C830C144BF04680C6070470000C1
:1001E0000023002400250026103A28BF78C1FBD840
:1001F000520728BF30C148BF0B607047642900F028
:10020000F580002070471FB502F09EFC1FBD10B5A1
:1002100010BD00F0D9F91146FFF7F5FF02F088FA9A
:1002200000F0F7F903B4FFF7F2FF03BC02F0AAF8FD
:100230000C48016841F4700101600B4880470B488D
:100240000047FEE7FEE7FEE7FEE7FEE7FEE7FEE724
:10025000FEE7FEE7FEE7000005480649044A064BB4
:100260007047000088ED00E07D1C0008890100084F
:10027000480300204807002048030020704753EA45
:10028000020C00F069802DE9F04B4FF00006002BC6
:100290001FBFB3FA83F503FA05F424FA05F65E40AE
:1002A00012BF1643B2FA82F502FA05F4C5F1200531
:1002B0001EBF22FA05FC44EA0C04203556EA044C21
:1002C0004FEA144418BF641C4FF000084FF00009B7
:1002D000904271EB030C39D3002919BFB1FA81F7B1
:1002E00001FA07F6B0FA80F700FA07F6C7F120071F
:1002F0001EBF20FA07FC46EA0C062037B6FBF4FCCA
:10030000A7EB0507103F07F01F0BCBF120060CFAF7
:100310000BFB2CFA06F644BFB3460026202FA4BFE1
:100320005E464FF0000B5BEA060C08BF4FF0010B76
:1003300019EB0B09ABFB027C48EB0608C01B06FB64
:1003400002CC0BFB03CC71EB0C01C1E70B46024660
:1003500041464846BDE8F08B13B54FF000004FF022
:100360000001AFF30080BDE81C4070470FB40449A2
:1003700010B503AA029800F0F9F810BC5DF814FB60
:10038000080000202DE9F0410E46044600202062BE
:100390002046E168884730B3252805D0D4E90121FB
:1003A0009047206A401CF2E7E16820460027884712
:1003B000050018D0A5F14100192802D820354FF4C6
:1003C00000673246294620462760FFF717FF40B1F5
:1003D000012804D0F61D26F007060836D8E7361D9A
:1003E000D6E72846DAE7206ABDE8F0812DE9F0413A
:1003F0000646002410687529314616A510D0AFF3C3
:100400000080002802DA404213A507E031688A071D
:1004100001D512A502E0490704D511A5012401E088
:10042000AFF3008000210A2206F1240709E0B0FBA7
:10043000F2FCB0FBF2F302FB1C003030785418469B
:10044000491C0028F3D123462A463046BDE8F04136
:1004500000F033B8000000002D0000002B00000069
:10046000200000004FF0000200B513469446964667
:10047000203922BFA0E80C50A0E80C50B1F12001B7
:10048000BFF4F7AF090728BFA0E80C5048BF0CC065
:100490005DF804EB890028BF40F8042B08BF7047C3
:1004A00048BF20F8022B11F0804F18BF00F8012B35
:1004B000704770477047704770472DE9F0470D4609
:1004C00099469246044600F124080168880604D53E
:1004D000E06921F01001216000E00120A84201DD67
:1004E000471B00E00027A1697A1902EB0900081AEE
:1004F000A0612078C00602D42046AFF30080002619
:1005000008E0D4E901211AF806009047206A401C4F
:10051000761C20624E45F4DB2078C0060AD52046C2
:10052000AFF3008006E0D4E9012130209047206A33
:10053000401C2062381EA7F10107F4DC07E0D4E973
:10054000012118F805009047206A401C2062281EEF
:10055000A5F10105F3DC2046AFF30080207800060A
:1005600002D50220BDE8F0870120FBE7074B70B5FC
:100570000D467B4400F011F80446284600F020F8B0
:1005800010B14FF0FF3070BD204670BD0721000054
:1005900001694A1C02610878704700B58FB0CDE947
:1005A00001310021059105497944CDE90310114637
:1005B0006846FFF7E7FE0FB000BD0000E5FFFFFF54
:1005C000007B00F080007047754600F029F8AE46C9
:1005D00005006946534620F00700854618B020B54F
:1005E000FFF73AFEBDE820404FF000064FF000074D
:1005F0004FF000084FF0000B21F00701AC46ACE8CB
:10060000C009ACE8C009ACE8C009ACE8C0098D4637
:1006100070470446AFF300802046FFF703FE00005A
:1006200000487047E402002000BFFEE7704700006A
:1006300010B5012000F0DEF801200149086010BD6E
:10064000143C014010B5042000F0D4F80420014906
:10065000086010BD143C014010B5082000F0CAF835
:1006600008200149086010BD143C014010B510205D
:1006700000F0C0F810200149086010BD143C014092
:1006800070B50446A56D00F0E3F9064694F8350010
:10069000022808D08020606500BF002084F8340064
:1006A00000BF012070BD2068006820F0160021689E
:1006B00008602068406920F0800021684861206C53
:1006C00008B9A06C28B12068006820F008002168F3
:1006D00008602068006820F00100216808600FE0D1
:1006E00000F0B6F9801B05280AD92020606500BFFC
:1006F000002084F8340000BF032084F83500D1E7DF
:100700002068006800F001000028E9D194F85C102E
:100710003F208840A86000BF002084F8340000BF5C
:10072000012084F835000020BCE7014691F835002F
:10073000022803D08020486501207047052081F8F9
:1007400035000868006820F001000A681060002089
:10075000F3E7000010B50446142001F061FF012CFE
:1007600032D0042C1CD0082C0DD0102C39D11021E3
:100770001D4800F04FF928B900BF61011B4800F087
:1007800051F900BF2EE00821174800F043F930B9B5
:1007900000BF4FF48061154800F044F900BF21E02C
:1007A0000421114800F036F968B900BF4FF48061A8
:1007B0000E4800F037F900BF00BF4FF400710B483E
:1007C00000F030F900BF0DE00121094800F022F9E6
:1007D000012805D100BF0102044800F023F900BF41
:1007E00000E000BF00BF10BD001002400014024036
:1007F0000000024010B5044604480068204020B1C3
:10080000024804602046FFF7A5FF10BD143C0140DC
:10081000F8B502460B460025002400200021DEE04A
:10082000012606FA01F51E6806EA0504AC4275D1F8
:100830001E7906F00306012E04D01E7906F0030689
:10084000022E13D190684F000326BE40B0434F00E4
:10085000DE68BE4030439060506801268E40B04351
:100860001E79C6F300168E40304350601E7906F0A4
:100870000306032E09D0D0684F000326BE40B043C4
:100880004F009E68BE403043D0601E7906F00306DC
:10089000022E13D1CF0802F1200656F827004E078A
:1008A000F70E0F26BE40B0434F07FF0E1E69BE4035
:1008B0003043CF0802F1200646F8270010684F00A9
:1008C0000326BE40B0431E7906F003064F00BE402B
:1008D000304310605E6806F08056B6F1805F7DD1CF
:1008E00000BF00260096404E366846F480463E4FD4
:1008F0003E603E46366806F48046009600BF00BF64
:100900003A4E8F0856F827008E07370F0F26BE4045
:10091000B043374EB24202D1002624E05EE0354EAD
:10092000B24201D101261EE0334EB24201D102266D
:1009300019E0324EB24201D1032614E0304EB242E9
:1009400001D104260FE02F4EB24201D105260AE064
:100950002D4EB24201D1062605E02C4EB24201D105
:10096000072600E008268F073F0FBE4030431F4E8A
:100970008F0846F82700264E3068A0435E6806F4CC
:100980008036B6F5803F00D12043214E3060361DC1
:100990003068A0435E6806F40036B6F5003F00D12B
:1009A00020431B4E361D3060361D3068A0435E6804
:1009B00006F48016B6F5801F00D12043144E083689
:1009C0003060361D3068A0435E6806F40016B6F548
:1009D000001F00D120430E4E0C363060491C1029F8
:1009E000FFF41EAFF8BD0000443802400838014053
:1009F000000002400004024000080240000C0240D7
:100A0000001002400014024000180240001C024086
:100A1000003C0140024613690B400BB1012000E08D
:100A20000020704710B5426921EA020302EA01047E
:100A300043EA0443836110BD0AB1816101E00B0404
:100A40008361704701480068000C7047002004E093
:100A5000014800687047000010000020034800684B
:100A600003490978084401490860704710000020D4
:100A70001800002010B50A48006840F400700849CA
:100A800008600846006840F480600860052000F0B7
:100A90007FF80F2000F006F800F02AF8002010BDC3
:100AA000003C024070B504460E4800784FF47A715D
:100AB000B1FBF0F00C490968B1FBF0F5284600F0F5
:100AC00009FC08B1012070BD102C07D2002221467C
:100AD000501E00F01EF80548046001E00120F2E716
:100AE0000020F0E718000020000000201400002083
:100AF000704701460846002809DB00F01F03012269
:100B00009A4043099B0003F1E023C3F8002100BF92
:100B100070472DE9F05F80460D461646002701F02C
:100B200015FC074639462A46334601F00700C0F156
:100B3000070ABAF1040F02D94FF0040A01E0C0F12C
:100B4000070AD14600F1040ABAF1070F02D24FF0AA
:100B5000000A01E0A0F1030AD4464FF0010A0AFAA4
:100B600009FAAAF1010A0AEA020A0AFA0CFA4FF093
:100B7000010B0BFA0CFBABF1010B0BEA030B4AEA7E
:100B80000B042146404601F0E9FBBDE8F09F000060
:100B900000BF00F00702064B19684FF6FF0319402B
:100BA000044B0B4343EA0221014B196000BF70471D
:100BB0000CED00E00000FA0570B504460D460CB9D6
:100BC000012070BD5848006800F00700A84209D213
:100BD00055490D700846006800F00700A84201D092
:100BE0000120EEE7207800F0020002281DD12078D5
:100BF00000F00400042805D14C48006840F4E0509F
:100C00004A490860207800F00800082805D14748C4
:100C1000006840F46040454908604448006820F09E
:100C2000F000A168084341490860207800F0010005
:100C3000A8B36068012807D13C4808380068C0F3B1
:100C40004040B8B90120BCE76068022802D0606863
:100C5000032807D1354808380068C0F3406048B918
:100C60000120AEE7314808380068C0F3400008B9F9
:100C70000120A6E72D48006820F0030061680843C2
:100C80002A490860FFF7E4FE064609E0FFF7E0FEA8
:100C9000801B41F28831884202D9032091E707E0A6
:100CA0002248006800F00C006168B0EB810FEDD1C4
:100CB0001D48006800F00700A84209D91A490D70C4
:100CC0000846006800F00700A84201D0012078E73C
:100CD000207800F00400042807D11448006820F4AC
:100CE000E050E168084311490860207800F00800EE
:100CF000082808D10D48006820F46040216940EAC6
:100D0000C1000A49086000F03FF808490968C1F3CA
:100D10000311074A515CC84006490860064800684C
:100D2000FFF7C0FE00204CE7003C024008380240BC
:100D3000522B000800000020140000200148006829
:100D4000704700000000002000B5FFF7F7FF0449DE
:100D50000968C1F38221034A515CC84000BD00000C
:100D600008380240622B000800B5FFF7E7FF04498E
:100D70000968C1F34231034A515CC84000BD00001C
:100D800008380240622B00082DE9F04700240025B6
:100D90000026A1462548006800F00C0020B1042878
:100DA00005D008283AD105E0DFF8849039E0DFF873
:100DB000849036E01D48001F006800F03F041B4887
:100DC000001F006800F4800078B11A481749091F15
:100DD0000968C1F38811A0FB017001462246002377
:100DE0003846FFF74CFA05460EE011480F49091F37
:100DF0000968C1F38811A0FB017001462246002357
:100E00003846FFF73CFA05460848001F0068C0F363
:100E10000140401C4600B5FBF6F902E0DFF81090F7
:100E200000BF00BF4846BDE8F08700000838024018
:100E30000024F40000127A00F8B504460CB9012031
:100E4000F8BD207800F00100002874D0F94800684F
:100E500000F00C0004280DD0F648006800F00C00EB
:100E6000082813D1F348001F006800F48000B0F593
:100E7000800F0BD1EF4808380068C0F340400028CD
:100E800059D06068002856D10120D9E700BF6068BA
:100E9000B0F5803F08D1E7480838006840F480305A
:100EA000E449083908601EE06068B0F5A02F0DD154
:100EB000E0480838006840F48020DE4908390860BE
:100EC0000846006840F4803008600CE0D9480838D3
:100ED000006820F48030D749083908600846006867
:100EE00020F48020086000BF606890B1FFF7B0FD7B
:100EF000054606E0FFF7ACFD401B642801D903203E
:100F00009EE7CC4808380068C0F340400028F1D084
:100F100011E0FFF79DFD054606E0FFF799FD401B38
:100F2000642801D903208BE7C24808380068C0F361
:100F300040400028F1D1207800F0020002285FD163
:100F4000BC48006800F00C0058B1BA48006800F0D6
:100F50000C0008281CD1B748001F006800F480006E
:100F6000B0B9B44808380068C0F3400020B1E06868
:100F7000012801D0012063E7AE480838006820F05E
:100F8000F800216940EAC100AA490839086037E041
:100F9000E06800B30120A8490860FFF759FD054645
:100FA00006E0FFF755FD401B022801D9032047E763
:100FB000A04808380068C0F340000028F1D09D48E0
:100FC0000838006820F0F800216940EAC10099491A
:100FD0000839086014E0002097490860FFF738FDE1
:100FE000054606E0FFF734FD401B022801D9032027
:100FF00026E7904808380068C0F340000028F1D187
:10100000207800F0080008282CD16069A8B10120E0
:101010008A490860FFF71CFD054606E0FFF718FD4A
:10102000401B022801D903200AE782486C3000687F
:10103000C0F340000028F1D014E000207F49086090
:10104000FFF706FD054606E0FFF702FD401B0228FC
:1010500001D90320F4E677486C300068C0F3400003
:101060000028F1D1207800F00400042870D1002776
:1010700070483830006800F0805090B900BF002000
:1010800000906C483830006840F080506949383131
:1010900008600846006800F08050009000BF00BF64
:1010A00001276748006800F48070B0B964480068A0
:1010B00040F4807062490860FFF7CAFC054606E00C
:1010C000FFF7C6FC401B022801D90320B8E65C48A4
:1010D000006800F480700028F2D000BFA0680128EA
:1010E00008D154486830006840F001005149683127
:1010F00008601DE0A06805280DD14E4868300068E2
:1011000040F004004B49683108600846006840F030
:10111000010008600CE047486830006820F00100DA
:101120004449683108600846006820F004000860FF
:1011300000BFA068A8B1FFF78BFC054609E0FFF7E8
:1011400087FC401B41F28831884202D9032077E6B0
:1011500026E0384868300068C0F340000028EED030
:1011600013E0FFF775FC054608E0FFF771FC401B34
:1011700041F28831884201D9032061E62D48683068
:101180000068C0F340000028EFD1012F07D12948A3
:101190003830006820F0805026493831086000BFA0
:1011A000A069002845D02348006800F00C000828FA
:1011B0005DD0A069022845D100201F490866FFF7CD
:1011C00047FC054606E0FFF743FC401B022801D917
:1011D000032035E6174808380068C0F3406000284F
:1011E000F1D1D4E907010843616A40EA8111012283
:1011F000A06AC2EB500041EA00412C20005D41EAA8
:1012000000600C49091F086001200B490866FFF7C0
:101210001FFC054606E0FFF71BFC401B022801D916
:1012200003200DE6034808380068C0F3406000283A
:10123000F1D049E00838024000004742800E4742A2
:1012400000700040002021490866FFF701FC0546B8
:1012500006E0FFF7FDFB401B022801D90320EFE564
:101260001B480068C0F340600028F2D12CE0A06960
:10127000012800D1E4E51648001D0668A069012890
:1012800020D006F48001E06981421BD106F03F01C5
:10129000206A814216D147F6C0703040616AB0EBD7
:1012A000811F0FD106F440310122A06AC2EB500029
:1012B000B1EB004F06D106F070612C20005DB1EB60
:1012C000006F01D00120BBE50020B9E500004742D6
:1012D0000038024070B504462546681EB0F1807F94
:1012E00001D301200FE0681E4FF0E02148610F217B
:1012F0004FF0FF3001F032F800204FF0E02188611C
:1013000007200861002070BD7047704770472DE9C5
:10131000F04104460D46164600BF94F83C000128F3
:1013200002D10220BDE8F081012084F83C0000BF1A
:1013300096B9EB68D5E90012206800F057FD2068E7
:10134000806920F00C002168886120688069A968A4
:101350000843216888613DE0042E13D1EB68D5E98C
:101360000012206800F08AFD2068806920F4406047
:101370002168886120688069A96840EA01202168A5
:10138000886127E0082E12D1EB68D5E900122068A9
:1013900000F091FD2068C06920F00C002168C86150
:1013A0002068C069A96808432168C86112E0EB6839
:1013B000D5E90012206800F09AFD2068C06920F489
:1013C00040602168C8612068C069A96840EA0120BE
:1013D0002168C86100BF002084F83C0000BF00BF46
:1013E000A0E710B504460CB9012010BD94F83D00EB
:1013F00028B9002084F83C00204600F025F802209F
:1014000084F83D00211D206800F072FC012084F862
:10141000460000BF84F83E0001213F2001554020D6
:1014200001554120015500BF00BF012084F8420052
:1014300043200155442001554520015500BF01209E
:1014400084F83D000020D0E7704700002DE9F0410E
:1014500004460D4615B994F83E000BE0042D02D168
:101460003F20005D06E0082D02D14020005D01E034
:101470004120005D074615B994F842000BE0042DA9
:1014800002D14320005D06E0082D02D14420005D1A
:1014900001E04520005D8046012F02D1B8F1010F27
:1014A00002D00120BDE8F0811DB9022084F83E0081
:1014B0000EE0042D03D102213F20015508E0082D44
:1014C00003D102214020015502E0022141200155B3
:1014D0001DB9022084F842000EE0042D03D1022140
:1014E0004320015508E0082D03D102214420015575
:1014F00002E002214520015501222946206800F022
:1015000063FC1A49206888421BD02068B0F1804FE4
:1015100017D017492068884213D01649206888429E
:101520000FD01549206888420BD0144920688842A2
:1015300007D013492068884203D0124920688842A6
:101540000CD12068806800F00706062E0CD02068B9
:10155000006840F001002168086005E0206800682C
:1015600040F001002168086000209BE70000014076
:101570000004004000080040000C0040000401404E
:10158000004001400018004010B504462068006982
:10159000C0F34000D8B12068C068C0F34000B0B1CB
:1015A0006FF00200216808610120207720688069BF
:1015B00000F0030018B12046FFF7A8FE05E0204622
:1015C00000F0ADF8204600F0ABF80020207720684E
:1015D0000069C0F38000D8B12068C068C0F3800003
:1015E000B0B16FF004002168086102202077206804
:1015F000806900F4407018B12046FFF787FE05E0CF
:10160000204600F08CF8204600F08AF80020207771
:1016100020680069C0F3C000D8B12068C068C0F37A
:10162000C000B0B16FF00800216808610420207785
:101630002068C06900F0030018B12046FFF766FE7D
:1016400005E0204600F06BF8204600F069F8002025
:10165000207720680069C0F30010D8B12068C06806
:10166000C0F30010B0B16FF01000216808610820CD
:1016700020772068C06900F4407018B12046FFF759
:1016800045FE05E0204600F04AF8204600F048F804
:10169000002020772068006900F0010058B1206820
:1016A000C06800F0010030B16FF0010021680861EE
:1016B000204600F037F820680069C0F3C01058B128
:1016C0002068C068C0F3C01030B16FF0800021689E
:1016D00008612046FFF718FE20680069C0F38010FB
:1016E00058B12068C068C0F3801030B16FF040007E
:1016F00021680861204600F04CF820680069C0F3BA
:10170000401058B12068C068C0F3401030B16FF08D
:101710002000216808612046FFF7F7FD10BD7047E3
:101720007047000010B504460A492068884205D178
:1017300000BF01150848FFF775F900BF0749206889
:10174000884205D100BF81150348FFF76BF900BF40
:1017500010BD0000001000400014024000140040C2
:101760000246002031B1042907D0082908D00C29ED
:101770000CD108E01368586B09E01368986B06E019
:101780001368D86B03E01368186C00E000BF00BF5B
:1017900070477047704770472DE9F84F044620683E
:1017A00005682068C668206847694FF00009CA4686
:1017B00005F00F09B9F1000F0AD105F0200038B18A
:1017C00006F0200020B1204600F0E4FBBDE8F88FD1
:1017D000B9F1000F72D007F0010018B906F490704B
:1017E00000286BD005F0010030B106F4807018B10C
:1017F000206C40F00100206405F0040030B107F0D7
:10180000010018B1206C40F00200206405F00200D5
:1018100030B107F0010018B1206C40F004002064E2
:1018200005F0080048B106F0200010B907F00100EB
:1018300018B1206C40F008002064206C70B305F0F3
:10184000200028B106F0200010B1204600F0A2FBD5
:1018500020684069C0F3801A206C00F0080010B9BD
:10186000BAF1000F23D0204600F069FB20684069E0
:1018700000F04000402816D12068406920F0400068
:1018800021684861A06B50B15648A16B0865A06BF8
:10189000FEF74BFF10B1A06B016D88470CE02046AE
:1018A000FFF779FF08E02046FFF775FF04E02046C8
:1018B000FFF771FF0020206488E7FFE7206B012815
:1018C00079D105F01000002875D006F0100000282E
:1018D00071D000BF00200090206800680090206850
:1018E0004068009000BF00BF2068406900F04000E1
:1018F000402839D1A06B006840681FFA80F8B8F121
:10190000000F30D0A08D40452DDDA4F82E80A06BB7
:10191000C069B0F5807F1FD02068C06820F4807057
:101920002168C8602068406920F001002168486192
:101930002068406920F0400021684861202084F838
:101940003E00002020632068C06820F0100021685D
:10195000C860A06BFEF794FEA08DE28D801A81B264
:101960002046FFF717FF31E7A08DE18D401A1FFADF
:1019700080F8E08DE8B1B8F1000F1AD02068C06897
:1019800020F490702168C8602068406920F0010050
:1019900021684861202084F83E00002020632068F0
:1019A000C06820F010002168C86041462046FFF75B
:1019B000F1FE0BE7FFE705F0800030B106F0800094
:1019C00018B1204600F07FFC00E705F0400030B180
:1019D00006F0400018B1204600F0CCFAF6E600BF51
:1019E000F4E600002B1F000810B504460CB90120D6
:1019F00010BDA06900B100E000BF94F83D0028B917
:101A0000002084F83C00204600F028F8242084F8C8
:101A10003D002068C06820F400502168C86020465E
:101A200000F018FB2068006920F4904021680861EC
:101A30002068406920F02A00216848612068C06859
:101A400040F400502168C86000202064202084F801
:101A50003D0084F83E000020CAE7000010B586B0C3
:101A600004462E492068884255D100BF00BF00209F
:101A700000902B48006840F0100029490860084693
:101A8000006800F01000009000BF00BF00BF00BF62
:101A900000BF0020009022481438006840F0010088
:101AA0001F49143908600846006800F001000090E2
:101AB00000BF00BF00BF00BF00BF0020009008466D
:101AC000006840F0010008600846006800F001006E
:101AD000009000BF00BF00BF481501900220029097
:101AE00001200390022004900720059001A90D48D1
:101AF000FEF78EFE4FF4806001900720059001A94B
:101B00000848FEF785FE2520FEF7F3FF0322114665
:101B10002520FEF7FEFF06B010BD000000100140BA
:101B2000443802400000024070B504460D46164697
:101B300094F83E00202816D105B10EB9012070BDE1
:101B400000BF94F83C00012801D10220F7E70120F2
:101B500084F83C0000BF002020633246294620461E
:101B600000F08EFBEBE70220E9E7000010B5044629
:101B70002049206888423BD11F48008800F400407B
:101B800088BB1D48008800F4804070B11B48007875
:101B90000A2803D000201849088024E0164800884D
:101BA00040F40040144908801DE0144800780D28D6
:101BB00006D11148008840F480400F49088012E0A7
:101BC0000E4800780C490988C1F30D010C4A5054A5
:101BD00009480088401C0849088008460088C72832
:101BE00001DD00200880012204490648FFF79CFF20
:101BF00010BD0000001001400C0000200E0000206D
:101C000030000020F80000207047000010B50446A6
:101C1000054800F021F800BF4FF480610348FEF74B
:101C200001FF00BF10BD00003C0100200014024075
:101C300010B5044620684068C0F3402058B12068C1
:101C4000806800F0010030B16FF001002168886009
:101C50002046FFF7DBFF10BD01460A68C868106028
:101C60000020704700BFFEE700BFFEE770477047E7
:101C7000704710B5FEF7F2FE10BD00000348006883
:101C800040F47000014908607047000088ED00E0F2
:101C900010B509480068006900F0010058B100BFA4
:101CA0004FF480610548FEF7BDFE00BF6FF00100F4
:101CB00001490968086110BDE001002000140240DC
:101CC00010B50248FFF760FC10BD00005001002075
:101CD00010B50248FFF758FC10BD0000500100206D
:101CE00010B500F051FB10BD10B500F04DFB10BD5C
:101CF00010B50268294B98420ED0B0F1804F0BD03E
:101D0000274B984208D0274B984205D0264B984243
:101D100002D0264B984203D122F070024B681A433E
:101D20001E4B984220D0B0F1804F1DD01C4B9842E2
:101D30001AD01C4B984217D01B4B984214D01B4B07
:101D4000984211D01A4B98420ED01A4B98420BD0A1
:101D5000194B984208D0194B984205D0184B98421D
:101D600002D0184B984203D122F44072CB681A4338
:101D700022F080034C6943EA040202608B68C3626C
:101D80000B688362054B984202D0084B984201D100
:101D90000B6903630123436110BD00000000014093
:101DA0000004004000080040000C00400004014016
:101DB000004001400044014000480140001800403C
:101DC000001C00400020004030B501F01F05012438
:101DD00004FA05F3046A9C430462046A01F01F05D7
:101DE00002FA05F52C43046230BD000070B50C46C4
:101DF0001546066A26F0010606628169026A184ED7
:101E0000B04214D0B0F1804F11D0164EB0420ED077
:101E1000154EB0420BD0154EB04208D0144EB04211
:101E200005D0144EB04202D0134EB04201D101266B
:101E300000E000261EB121F00301294301E041F03A
:101E4000010121F0F001F02606EA0316314322F0E9
:101E50000A0204F00A0632438161026270BD00008A
:101E6000000001400004004000080040000C004059
:101E700000040140004001400018004070B50C46CD
:101E80001546066A26F0100606628169026A21F488
:101E9000407141EA052121F470414FF4704606EA91
:101EA0000336314322F0A002A02606EA041632438C
:101EB0008161026270BD70B50C461546066A26F453
:101EC00080760662C169026A21F00301294321F08C
:101ED000F001F02606EA0316314322F420624FF4A3
:101EE000206606EA04263243C161026270BD70B505
:101EF0000C461546066A26F480560662C169026AD7
:101F000021F4407141EA052121F470414FF47046FB
:101F100006EA0336314322F420424FF4204606EA13
:101F200004363243C161026270BD70B50546AC6BC8
:101F30000020E085E0842046FFF72DFC70BD01689D
:101F4000C96821F490710268D1600168496921F083
:101F5000010102685161016B012905D10168C9685D
:101F600021F010010268D160202180F83E1000218C
:101F70000163704710B504462068C06820F0400037
:101F80002168C860202084F83D002046FFF73CFE11
:101F9000002010BD70B5044694F83E00222856D1AA
:101FA000A068B0F5805F0CD1206950B90025A66A01
:101FB00020684068C0F308003080A06A801CA062DE
:101FC00015E0A56A0026A068B0F5805F03D0A06880
:101FD00028B9206918B920684068287004E0206892
:101FE000406800F07F002870A06A401CA062E08D6D
:101FF000401E80B2E08540BB2068C06820F0200011
:102000002168C8602068C06820F480702168C860BA
:102010002068406920F0010021684861202084F890
:102020003E00206B01280AD12068C06820F0100013
:102030002168C860A18D2046FFF7ACFB02E0204676
:10204000FFF794FD0020206370BD0020FCE7022014
:10205000FAE700002DE9F84F04462068006920F4F3
:102060004050E1680843216808612169A06808437D
:1020700061690843E169084300902068C06849F23B
:102080000C618843009908432168C8602068406952
:1020900020F44070A16908432168486176492068AE
:1020A000884203D075492068884203D1FEF75CFE60
:1020B000814602E0FEF748FE8146E069B0F5004F38
:1020C0006CD102206168A0FB015003461920A9FBD6
:1020D000007001462A463846FEF7D1F86421B0FB6D
:1020E000F1F04FEA001A02206168A0FB01510B4693
:1020F0001920A9FB00712A463846FEF7C0F883462E
:1021000002206168A0FB015003461920A9FB007161
:102110002A463846FEF7B3F86421B0FBF1F000EB35
:10212000C00101EB0010ABEB8000322101EBC000DD
:102130006421B0FBF1F000F0F8000AEB400A022045
:102140006168A0FB015003461920A9FB00700146FD
:102150002A463846FEF793F8834602206168A0FBC2
:10216000015003461920A9FB00712A463846FEF7A4
:1021700086F86421B0FBF1F000EBC00101EB001028
:10218000ABEB8000322101EBC0006421B0FBF1F029
:1021900000F007005044216888606AE0042061680C
:1021A000A0FB015003461920A9FB007001462A46F6
:1021B0003846FEF764F8824604206168A0FB0150AF
:1021C00003461920A9FB007001462A463846FEF74F
:1021D00056F86421B0FBF1F000EBC00101EB0010F8
:1021E000AAEB8000322101EB00106421B0FBF1F07A
:1021F00000F0F00A04206168A0FB0170034619207A
:10220000A9FB00513A462846FEF739F86421B0FB95
:10221000F1F00AEB001A04206168A0FB01510B46A3
:102220001920A9FB00712A463846FEF728F8834694
:1022300004206168A0FB015003461920A9FB00702F
:1022400001462A463846FEF71AF86421B0FBF1F041
:1022500000EBC00101EB0010ABEB8000322101EB81
:1022600000106421B0FBF1F000F00F005044216831
:102270008860BDE8F88F00000010014000140140A4
:1022800010B5034699629A85DA85002018642220E9
:1022900083F83E0000BF002083F83C0000BF1868B0
:1022A000C06840F480701C68E0601868406940F0C5
:1022B00001001C6860611868C06840F020001C685C
:1022C000E060002010BD014691F83D00212828D192
:1022D0008868B0F5805F0BD1086948B90A6A108830
:1022E000C0F308000B685860086A801C086205E0AB
:1022F0000B6A581C086218780B685860C88C401E1E
:1023000080B2C88458B90868C06820F080000B68A3
:10231000D8600868C06840F040000B68D8600020B2
:1023200070470220FCE7000010B50248FFF734FABE
:1023300010BD0000F800002000BFFEE710B5024805
:10234000FFF776FC10BD00003C0100200248006849
:10235000C0F30220704700000CED00E010B500282B
:1023600004DB0A07130E054A135406E00A07140E8D
:10237000034A00F00F031B1FD45410BD00E400E01B
:1023800018ED00E000BF704710B57C480078A0B1A0
:1023900000207B490880C01E7A49096808616FF0F7
:1023A0000400784909680861801076490968086165
:1023B000002074490968486210BD724800680069CD
:1023C00000F00100002847D06FF001006D49096856
:1023D00008616C4800680069C0F3400000283BD1E8
:1023E000694908706648008828B965480088401C1B
:1023F0006349088019E0624800884FF6FF718842FF
:1024000003D100205E4908800FE05D480088B0F5E8
:10241000004F04DB4FF6FF705949088005E058482B
:1024200000884004000C56490880554800885549EA
:10243000096888620020534909684862C01E5149F2
:10244000096808616FF004004E490968086180104E
:102450004C4909680861AFE74B480078C0B9494862
:102460000068006900F00200022802D101204649FC
:1024700008706FF002004349096808616FF00400BA
:1024800040490968086180103E490968086193E77E
:102490003A480078002861D13A480068006900F0A5
:1024A000020002285AD104213648FFF759F9401C8E
:1024B0003649086000213348FFF752F9401C34497F
:1024C0000860324800680968884245D201202B49DB
:1024D0000870304800682A4908800846008848B9D2
:1024E0002A480068401C2949086029480068401CA7
:1024F00027490860002024490870264828380068C9
:1025000020F001002349283908601E480068C0688F
:1025100020F002001B490968C8601A480068C068BA
:1025200020F0040017490968C86016480068C068B0
:1025300020F0010013490968C8606FF002001149DA
:10254000096808616FF004000E490968086180108D
:102550000C490968086101E000F01EF86FF0020004
:102560000849096808616FF00400064909680861B4
:10257000801004490968086100BF1DE71C000020A5
:102580001E000020980100202800002020000020CC
:10259000240000202804014010B500F0FDF80020C0
:1025A0001949087019490880194909688862184949
:1025B0000968486216480068C06840F00200144983
:1025C0000968C86012480068C06840F001001049FE
:1025D0000968C8600E480068006840F001000C49B6
:1025E000096808606FF002000949096808616FF026
:1025F00004000749096808618010054909680861F5
:1026000000F0CCF810BD00001C0000201E000020CF
:102610009801002001490860704700000400002074
:1026200010B504464FF47A7104FB01F000F002F893
:1026300010BD000070B5034600224FF0E02675691A
:102640000D4E366803FB06F44FF0E026B16910E04A
:102650004FF0E026B06988420BD0884202D20E1AB1
:10266000324402E02E1A0E4432440146A24200D304
:1026700000E0EDE700BF70BD0400002000BF054A88
:10268000126802F04002002AF9D0C2B2014B5A602F
:10269000704700000010014000B587B000BF00BFC8
:1026A000002001902048006840F020001E4908608A
:1026B0000846006800F02000019000BF00BF00BF86
:1026C00000BF00BF002001900846006840F02000D5
:1026D00008600846006800F02000019000BF00BFBD
:1026E00000BF48150290012003900490022005903D
:1026F00002A90E48FEF78CF84FF48060029002A900
:102700000A48FEF785F800BF012251020748FEF78C
:1027100093F900BF00BF012291020448FEF78CF933
:1027200000BF07B000BD0000303802400014024076
:102730000124FEF79FF90723022208214FF4A87015
:1027400000F02EF8A820FFF765FF4FF4E13000F00D
:10275000DFF9FFF7A1FF082000F0C4F819E001201D
:1027600000F04EF930B100BF4FF480610948FEF728
:1027700059F900BF601CC4B20F2C07D1002400BF60
:102780004FF400710348FEF74DF900BF0A20FFF730
:1027900047FFE4E70014024072B6704762B6704724
:1027A0002DE9F04192B080460C4615461E460027A2
:1027B000302106A8FDF756FE142101A8FDF752FEB0
:1027C00000BF002000902A48006840F0805028494F
:1027D00008600846006800F08050009000BF00BF0D
:1027E00000BF002000902348006840F48040214949
:1027F00008600846006800F48040009000BF00BFF9
:10280000012006900004079002200C9041050D91D4
:10281000CDF83C800E941095119606A8FEF70CFB9F
:1028200007461FB1012012B0BDE8F0810F200190D2
:1028300002200290002003904FF4A05004904FF427
:1028400080500590052101A8FEF7B6F907460FB1A3
:102850000120E8E7FEF7F6F841F20101884205D1D0
:102860000548006840F48070034908600020DAE7FA
:102870004038024000700040003C024070B50646FF
:102880000024002505E000F00BF80446AC4200DD12
:1028900025463000A6F10101CEB2F4D1284670BD24
:1028A00010B5022400F07CF80AE00D480068406A88
:1028B00010F5FA7F04D30A480068406A80B210BD60
:1028C0000748006800692040A04201D1012000E0D3
:1028D00000200028E9D04FF08040406B80B2EEE746
:1028E0008C020020F0B585B00746781E81B24FF00B
:1028F000FF3000F0AFF8002408E0FFF7D1FF2DF81B
:1029000014000A20FFF78CFE601CC4B20A2CF4DB12
:10291000002416E0601CC5B20FE03DF814003DF83D
:102920001510884207DD3DF814603DF815002DF8BC
:1029300014002DF81560681CC5B20A2DEDDB601C73
:10294000C4B2092CE6DB0026022405E03DF81400A1
:10295000304486B2601CC4B2082CF7DB062096FB1C
:10296000F0F0084908800846018807A0FDF7FEFC42
:1029700004480088B0F5004F02DB012005B0F0BD2F
:102980000020FBE72A000020675F747061645F64C9
:10299000656661756C745F76616C3A25640D0A003A
:1029A00000B585B020200090012001900220029007
:1029B000039069461048FDF72BFF002220210E48A6
:1029C000FEF73AF80520FFF72BFE00200B490968B7
:1029D00008610A490968486220200090022001909D
:1029E00000200290022003900120049069460248D2
:1029F000FDF70EFF05B000BD000002408C02002074
:102A00002DE9F0410546002603271DB106270020C9
:102A10000E4908703846FFF731FF04460C4800881D
:102A20006430844206DD0948007800B9012603209D
:102A3000064908700548007820B104480078401E17
:102A4000024908703046BDE8F08100002C000020EB
:102A50002A00002030B587B005460C4600BF00BFF5
:102A6000002001902648006840F0010024490860D9
:102A70000846006800F00100019000BF00BF00BFE1
:102A800000BF00BF002001901D481030006840F0DA
:102A900001001B49103108600846006800F0010081
:102AA000019000BF00BF00BF2020029000200490D2
:102AB0000220039005900120069002A91148FDF71D
:102AC000A7FE4FF08040104908600846446000218E
:102AD0008160C5600161FEF784FC00200B4908603D
:102AE0008860012048600020C86000220648FEF788
:102AF0000EFC00210448FEF7A9FC07B030BD000021
:102B000030380240000002408C020020D402002035
:102B100010B5044609480A49086008464460002187
:102B20008160C160016181610C214161FEF75CFF40
:102B3000012204490248FEF7F7FF10BD00100140D2
:102B4000F80000200E0000204FF04070E1EE100A67
:102B500070470000000000000000010203040607A7
:102B60000809000000000102030400008C2B00088B
:102B70000000002030000000C4010008BC2B000849
:102B80003000002018070000E00100080024F400D5
:102B90000000000000000000000000000000000035
:102BA0001000000001000000000000000000000014
:0C2BB00000000000000000000000000019
:040000050800018965
:00000001FF
