:020000040800F2
:10000000F8050020550200087F280008772800081E
:100010007B2800084B160008AD2C000800000000EB
:10002000000000000000000000000000832800081D
:100030004F160008000000008128000885280008ED
:1000400079020008790200087902000879020008A4
:100050007902000879020008790200087902000894
:100060007902000879020008790200087902000884
:100070007902000879020008790200087902000874
:100080007902000879020008790200087902000864
:100090007902000879020008790200087902000854
:1000A0007902000879020008790200087902000844
:1000B0007902000879020008790200087902000834
:1000C0007902000879020008790200087902000824
:1000D000790200089D2C00087902000879020008C6
:1000E0007902000879020008790200087902000804
:1000F00079020008790200087902000879020008F4
:1001000079020008790200087902000879020008E3
:1001100079020008790200087902000879020008D3
:1001200079020008790200087902000879020008C3
:1001300079020008790200087902000879020008B3
:1001400079020008790200087902000879020008A3
:100150007902000879020008790200087902000893
:100160007902000879020008790200087902000883
:1001700079020008790200087902000800000000F6
:10018000790200087902000800F002F800F052F845
:100190000AA090E8000C82448344AAF10107DA45E2
:1001A00001D100F047F8AFF2090EBAE80F0013F0E2
:1001B000010F18BFFB1A43F00103184700B00000FD
:1001C00020B00000103A24BF78C878C1FAD852078E
:1001D00024BF30C830C144BF04680C6070470000C1
:1001E0000023002400250026103A28BF78C1FBD840
:1001F000520728BF30C148BF0B607047662907F01F
:100200006487642900F03481782900F06D817329B6
:1002100000F0DD84002070471FB507F04CFF00F0B0
:10022000EDFC04000020002107F034FAE0601FBD5F
:1002300010B510BD00F0E2FD1146FFF7EDFF06F02E
:100240001BFF00F000FE03B4FFF7F2FF03BC02F057
:100250006EFF00000C48016841F4700101600B481A
:1002600080470B480047FEE7FEE7FEE7FEE7FEE7B4
:10027000FEE7FEE7FEE7FEE7FEE700000548064969
:10028000044A064B7047000088ED00E08D28000806
:1002900089010008F8010020F8050020F80100207D
:1002A000704753EA020C00F069802DE9F04B4FF0E3
:1002B0000006002B1FBFB3FA83F503FA05F424FAF6
:1002C00005F65E4012BF1643B2FA82F502FA05F453
:1002D000C5F120051EBF22FA05FC44EA0C042035B6
:1002E00056EA044C4FEA144418BF641C4FF000084F
:1002F0004FF00009904271EB030C39D3002919BF6C
:10030000B1FA81F701FA07F6B0FA80F700FA07F6BA
:10031000C7F120071EBF20FA07FC46EA0C0620376B
:10032000B6FBF4FCA7EB0507103F07F01F0BCBF162
:1003300020060CFA0BFB2CFA06F644BFB346002647
:10034000202FA4BF5E464FF0000B5BEA060C08BFEF
:100350004FF0010B19EB0B09ABFB027C48EB0608D5
:10036000C01B06FB02CC0BFB03CC71EB0C01C1E7FD
:100370000B46024641464846BDE8F08B13B54FF0A8
:1003800000004FF00001AFF30080BDE81C40704753
:100390000FB4044910B503AA029800F01DFC10BC6C
:1003A0005DF814FB0C0000200FB41CB5074B06AA27
:1003B0007B4469460090059800F0DFFB0020694609
:1003C00000F0EEFB1CBC5DF814FB0000ED07000024
:1003D00070B5044685690068C10601D5302600E085
:1003E0002026C00707D070BDD4E9012130469047D0
:1003F000206A401C20626D1EF6D570BD70B50446A3
:1004000085690078C00707D170BDD4E9012120209B
:100410009047206A401C20626D1EF6D570BD70B5F5
:100420000C460546012A05D02878800600D5EA69E1
:10043000002302E0012305E05B1C934202D2E05C52
:100440000028F9D1A869E618C01AA861286A1844DA
:1004500028622846FFF7BCFF04E0D5E9012114F823
:10046000010B9047B442F8D32846FFF7C7FF70BD91
:100470002DE9F0410646002410687529314616A57D
:1004800010D0AFF30080002802DA404213A507E045
:1004900031688A0701D512A502E0490704D511A5E4
:1004A000012401E0AFF3008000210A2206F12407B5
:1004B00009E0B0FBF2FCB0FBF2F302FB1C003030B1
:1004C00078541846491C0028F3D123462A46304662
:1004D000BDE8F04100F0E6B8000000002D0000008B
:1004E0002B0000002000000070B504460D46214698
:1004F0001068AFF300802188090502D50F4A7A44BD
:1005000002E00E4A7A440E32002104F1240305E091
:1005100000F00F060009965D5E54491C0028F7D1D3
:1005200020780023000704D5702D02D009B10223E2
:1005300011322046BDE8704000F0B4B864AB000052
:100540002DE9F0474FF0000A89460446C0F820A084
:100550002046E1688847002876D0252806D0D4E9CF
:1005600001219047206A401C2062F1E7E1682046A3
:1005700000258847C4F81CA006460027C4F818A028
:100580002A2E09D0304602F0CBFD38B304EB8708A1
:10059000303EC8F8186019E059F8041B204604EBF7
:1005A00087029161E1688847012F064618D1E0690A
:1005B000002820DA25F020051DE0D8F8180000EB0F
:1005C000800006EB40003038C8F818002046E1688B
:1005D0008847064602F0A4FD0028EED1012F0AD07C
:1005E0002E2E08D12046E16888477F1C0646022F40
:1005F00045F02005C4DBA069002803DA404245F03D
:100600000105A061E80701D025F01005B6B1A6F1FB
:100610004100192802D8203645F400654A46314683
:10062000204625604D46FFF7E9FD58B1012806D068
:10063000ED1D25F0070000F1080989E704E005F148
:10064000040985E730468AE7206ABDE8F0874FF065
:10065000000200B5134694469646203922BFA0E812
:100660000C50A0E80C50B1F12001BFF4F7AF09071E
:1006700028BFA0E80C5048BF0CC05DF804EB89000F
:1006800028BF40F8042B08BF704748BF20F8022B52
:1006900011F0804F18BF00F8012B7047704770476A
:1006A000704770472DE9F0470D469946924604463B
:1006B00000F124080168880604D5E06921F01001E2
:1006C000216000E00120A84201DD471B00E0002777
:1006D000A1697A1902EB0900081AA0612078C00606
:1006E00002D42046FFF774FE002608E0D4E9012179
:1006F0001AF806009047206A401C761C20624E457E
:10070000F4DB2078C0060AD52046FFF761FE06E03C
:10071000D4E9012130209047206A401C2062381E15
:10072000A7F10107F4DC07E0D4E9012118F805007E
:100730009047206A401C2062281EA5F10105F3DCC9
:100740002046FFF75BFE2078000602D50220BDE8B8
:10075000F0870120FBE770472DE9FF4F0C461E464E
:100760004FF0FF378BB0D2E90001DDF860800A90CE
:100770008A46C1F30A5505B93D46002108464FF0A7
:100780000000BAF1000F00F4400005DA00EB800031
:100790004FF4400101EA50004FEA9059B9F1010FBE
:1007A00000DDB9460A9850EA4A000ED044F61050CF
:1007B000A5F2FF3545432F14B8F1000F1ED0754246
:1007C000291E1EDDC9F100021CE0B8F1010F4FF037
:1007D000000001D0302103E0F24305E02154401C29
:1007E000B042FBDB30460022002121540B99C1F8B6
:1007F0000880C1E900200FB0BDE8F08FBD1B6D1C63
:10080000DEE74A4600DA694206A800F081FA06AB44
:1008100093E8070003AB83E8070050460A9900F00D
:1008200059FB8DE80700A0F500501F380090039891
:10083000002D09DD42F21F014A46084403A9039036
:10084000684600F0B8FD08E0A0F500504A461F38A1
:1008500003A90390684600F0C2FD8DE8070000047C
:10086000000C03D04FF0FF30410800E01046B8F113
:10087000000F03D00022009215461EE0751E05D41D
:1008800000F0C0F9303262556D1EF9D5B346012231
:10089000084302D000227F1C04E02078302801D1D8
:1008A00000227F1E002A099786D01DE0112D07DA4D
:1008B00000F0A8F9303262556D1C50EA0102F5D102
:1008C000084302D00098C8B10EE00021681E05E080
:1008D000235C625C63542254401E491C8142F7DB56
:1008E000AB46A81B401E0990002004F80B000B9893
:1008F000099AC0F80880C0E9002B7CE711264FF068
:10090000000859E72DE9F04F88460446D21D22F031
:10091000070191B0D1E90001CDE90A0102F0C8F95F
:1009200002460B98C00F01D02D2007E020688107F8
:1009300001D52B2002E0202101EAC000032A099002
:1009400001D0072A05DB03464146204600F0A0F906
:100950000BE12078800601D5E06900E00620B8F1BF
:10096000650F814606D0B8F1660F18D0B8F1670F51
:1009700070D131E00020B9F1110F009001DB11239B
:1009800001E009F101030AAA01A90CA8FFF7E4FE9E
:10099000DDE90C70002609F10105834647E00120DE
:1009A0004B4600904FF000470AAA01A90CA8FFF798
:1009B000D3FEDDE90DB00C995D46002610B909F1B2
:1009C00001000D18B9EB050003D4C0F1FF3609F1A1
:1009D0000105A5EB09002BE0B9F1010F01DA4FF099
:1009E00001090020B9F1110F0090484601DD1123E3
:1009F00000E003460AAA01A90CA8FFF7ADFEDDE955
:100A00000C704D4600268346207800070AD4AB457B
:100A100000DA5D4601A8012D04DD411911F8011C21
:100A2000302907D04F4502DA17F1040F04DA01200C
:100A300082460FE06D1EEEE7002F02DCED1B3E4408
:100A400003E0781CA84200DD7D1CB81B00F1010A00
:100A50004FF000472078000703D4AA4501DB4FF090
:100A6000FF3A0021B7F1004F0DF143088DF8431014
:100A700024D002202B23002F01DA7F422D230A21CC
:100A8000021EA0F1010000DC5FB197FBF1FC97FBB7
:100A9000F1F201FB1C7C17460CF1300C08F801CD7B
:100AA000EEE7A8F1010003702188090501D5452171
:100AB00000E06521A0F1010800F8011C09980FA9C8
:100AC000A1EB0807FF1D00B10120411901EBEA70FD
:100AD000A1693844081A401EA0612078C00602D4DB
:100AE0002046FFF775FC099828B1D4E90121904709
:100AF000206A401C20622078C00622D52046FFF7DD
:100B000067FC1EE0002E04DBB34502DD01A8805D1A
:100B100000E03020D4E901219047206A401C206287
:100B2000761CAAF101005FEA000A0AD100F066F81B
:100B3000C0680168405CD4E901219047206A401CEC
:100B40002062281EA5F10105DCDC07E0D4E90121C3
:100B500018F8010B9047206A401C2062381EA7F14C
:100B60000107F3DC2046FFF749FC032011B043E600
:100B700001694A1C02610878704700B58FB0CDE961
:100B800001310021059105497944CDE90310114651
:100B90006846FFF7D5FC0FB000BD0000E5FFFFFF82
:100BA0000A6802F8010B0A60704710B5436913B177
:100BB000AFF3008001E0FFF732FC012010BD127896
:100BC00000F124010A7000224A700122EDE7116849
:100BD0004FF0FF32E9E70000074B70B50D467B444C
:100BE000FFF7CBFF0446284600F000F910B14FF0A4
:100BF000FF3070BD204670BDF729000000487047E7
:100C0000B401002030B5B0F10A024FEA900E71F144
:100C100000034EEA817EB0EB0E0061EB91014FEADA
:100C2000101E4EEA017E10EB0E0041EB11114FEA4F
:100C3000102E4EEA016E10EB0E0041EB11214FEA2F
:100C4000104E4EEA014E10EB0E0041EB11414018E0
:100C500041F100014FEAD00040EA41704FEAD10172
:100C600010EB80054FEA810444EA907444EB0104E0
:100C70006D1944EB0404521BA3414FF0000348BF1D
:100C80000A3200D530BD401C41F1000130BD0000EA
:100C90002DE9F0411F46044603260168072A01F4A6
:100CA000006004DB08B116A505E016A503E008B155
:100CB00015A500E015A521F010002060A069C01E58
:100CC000A0610FB1401EA0612046FFF781FB4FB12C
:100CD000D4E9012138469047206A401C2062C01C9C
:100CE000206206E0206AFAE7D4E9012115F8010B39
:100CF0009047761EF8D22046FFF780FBBDE8F081D2
:100D00004E414E006E616E00494E4600696E6600AF
:100D10002DE9F047814616468AB0334878440DC81D
:100D20008DE80D0030487844801C03AC0DC884E881
:100D30000D0041F69B300844372190FBF1F290FB07
:100D4000F1F5A5F1800501FB12041B3C02D56442BC
:100D5000012000E00020DFF890A080460027FA4440
:100D6000AAF1BE0A0DE0E00709D03246684607EB5B
:100D700047010AEB810100F032FB8DE807006410A7
:100D80007F1C002CEFD1184F7F44AC3F18E0E807E0
:100D900014D007EB04100DF1180A90E80E008AE851
:100DA0000E00C068F04201D198190890324606A999
:100DB00003A800F014FB03AB83E807006D10641C6C
:100DC000002DE4D132466946B8F1000F03A802D0E5
:100DD00000F0F1FA01E000F002FBC9E90001C9F8F6
:100DE00008200AB0BDE8F08784A40000007B00F072
:100DF0008000704700487047940100207546FFF757
:100E0000F9FFAE4605006946534620F007008546C7
:100E100018B020B5FFF732FABDE820404FF00006C9
:100E20004FF000074FF000084FF0000B21F00701D2
:100E3000AC46ACE8C009ACE8C009ACE8C009ACE815
:100E4000C0098D4670470446AFF300802046FFF787
:100E5000FAF900004FF0013C50F8042B51F8043B24
:100E60009A4221D1A2EB0C03934313EACC1317D17E
:100E700050F8042B51F8043B9A4215D1A2EB0C0315
:100E8000934313EACC130BD150F8042B51F8043BD5
:100E90009A4209D1A2EB0C03934313EACC13DBD0A3
:100EA0004FF00000704700BFD01A01BAB1FA81F1CB
:100EB00001F0180122FA01F0CB40C1F12001DBB2B0
:100EC000C0B2C01A2CFA01F3D11A914311EAC3112E
:100ED000E6D170475FEA400C08BF91F0000F4FEA7F
:100EE0008C234FEAC12243EA51514FEA1C5018BFEC
:100EF00000F5F0404FEA300018BF41F000415FEAD2
:100F00006C5C00F02980BCF1FF3F08BF40F08040DE
:100F10007047130C06BF12044FF0100C4FF0000C7A
:100F2000130E04BF12020CF1080C130F04BF1201C0
:100F30000CF1040C930F04BF92000CF1020CD30FC0
:100F400004BF52000CF1010C11464FF00002A0F159
:100F50001F00A0EB0C00704711F0004F08BF704756
:100F600031F000413FF4D5AF0B0C06BF09044FF040
:100F7000100C4FF0000C0B0E04BF09020CF1080C12
:100F80000B0F04BF09010CF1040C8B0F04BF890087
:100F90000CF1020CCB0F04BF49000CF1010CCCF199
:100FA0002003A0EB0C0022FA03F302FA0CF241EA50
:100FB000030100F10100704720F07F4C80EA03003C
:100FC00023F07F47ACEB070303F57C5300F00040B0
:100FD00003F1FF032DE980494FEA154B09B44FEAAD
:100FE000144325EA0B4E24EA03480FF2042606EBCD
:100FF000132749083E785FEA320203FB0667C7F50C
:10100000000707FB06F64FEA54374FEAD64606F1CB
:10101000020607FB066CCCF1005C4FEA1C472CEA89
:10102000074C07FB06F40CFB06F504EB15464FEAEC
:10103000961634BF00204FF000404FEAD13706FB30
:1010400007FC4FEA1C4C0CFB0BF7D21B03FB0CF705
:1010500061EB07010CFB0EF7B0EB074072EB174298
:101060000CFB08F734BFA2EB0742B2EB074261EB7F
:1010700017414FEA0C444FEA910706FB07FC4FEA81
:101080001C4C0CFB0BF7B0EBC74072EB573203FB69
:101090000CF734BFA2EBC742B2EBC74261EB57314A
:1010A0000CFB0EF7B0EBC70072EB57720CFB08F7A6
:1010B00034BFA2EBC702B2EBC70261EB5771039FCB
:1010C0004FEA816141EA921104EBCC044FEAD13737
:1010D0004FEA826206FB07FC42EA90124FEA806008
:1010E0004FEA1C4C0CFB0BF7D21B03FB0CF761EB1C
:1010F00007010CFB0EF7B0EB074072EB17420CFB3D
:1011000008F734BFA2EB0742B2EB074261EB17418D
:101110004FEA8C554FEA910704EB9C2406FB07FC31
:101120004FEA1C4C0CFB0BF7B0EBC74072EB57328D
:1011300003FB0CF734BFA2EBC742B2EBC74261EB33
:1011400057310CFB0EF7B0EBC70072EB57720CFB7C
:1011500008F734BFA2EBC702B2EBC70261EB5771CD
:1011600015EB4C254FEA816141EA92114FEA826208
:101170004FEAD13742EA901206FB07FC44F1000423
:101180004FEA80604FEA1C4C0CFB0BF7D21B03FBB1
:101190000CF761EB07010CFB0EF7B0EB074072EBAD
:1011A00017420CFB08F734BFA2EB0742B2EB074231
:1011B00061EB174115EB1C154FEA813141EA924171
:1011C0004FEA823242EA90424FEA80304FEA0C7690
:1011D00044F1000448EA03434EEA0B484FF0000E86
:1011E000B2EB080C71EB030724BF624639464EEBA5
:1011F0000E0E4FF0000B0018524149414BEB0B0B08
:10120000B2EB080C71EB03077BF1000B24BF6246C5
:1012100039464EEB0E0E4FF0000B0018524149417B
:101220004BEB0B0BB2EB080C71EB03077BF1000BE4
:1012300024BF624639464EEB0E0E51EA020718BF34
:1012400046F0010616EB0E7655F1000254F100014E
:1012500003D5BDE88901BDE80088BDE88901BDE886
:101260000048B619524141EB0101A3F10103704757
:1012700080807F7E7D7C7B7A7978777676757473D3
:10128000727171706F6E6E6D6C6C6B6A6A69686892
:10129000676666656464636362616160605F5F5E28
:1012A0005E5D5D5C5C5B5B5A5A595958585757569E
:1012B0005655555554545353525252515150505003
:1012C0004F4F4F4E4E4D4D4D4C4C4C4B4B4B4A4A55
:1012D0004A49494948484847474747464646454599
:1012E00045444444444343434342424242414141D2
:1012F000002B26D4770021D01CB54FEA370703B462
:101300004FF010004FF010014FF000000FBCBDE88F
:1013100010400BF1010BBBF1010F08BF5FEA17078B
:1013200022BF12F1010211F101014FF0004143F11E
:10133000000300F0004043EA00007047F9D357086B
:10134000DAE746EA064613F1400F4FEA16461FDD7C
:1013500013F1200FDFBF16430A46002120335B4202
:10136000C8D0C3F1200746EA064602FA07F74FEA5B
:10137000164646EA0706C3F1200722FA03F201FAED
:1013800007F721FA03F14FF0000342EA0702B1E741
:1013900046EA020646EA06464FEA164646EA0106CD
:1013A000BCBF46EA0646360C4FF000034FF0000281
:1013B0004FF000019EE72DE9C048934630B491E814
:1013C000380007C831EA400C48BF34EA430C03D563
:1013D000FFF7F2FDFFF78CFFF0BCBDE800882DE9B8
:1013E000C048934630B491E8380007C810F0804FE9
:1013F00008BF13F0804F03D100F005F8FFF778FF26
:10140000F0BCBDE8008820F07F4780EA030023F0AD
:101410007F4C07EB0C03A3F57C5300F00040A3F1D5
:10142000FE0392F0000F00F0B38095F0000F00F083
:1014300077802DE901494FEA11404FEA144621EA2D
:10144000004800FB06FC24EA064708FB06F607FBFB
:1014500008F800FB07F718EB06484CEB164C4FEA70
:10146000124B18EB07484FEA15464CEB174022EA9F
:101470000B4E0BFB06FC25EA06470EFB06F607FBA8
:101480000EFE0BFB07F71EEB064E4CEB164C4FF017
:1014900000061EEB074E4CEB174B18EB0B0840F108
:1014A000000018EB0E0B58EB000840F100008F1AFB
:1014B0004FF000013CBFC943661B14BFB5EB040CE1
:1014C00000213CBFC943F61B4FEA17444EEA8E0E7B
:1014D00027EA04454FEA1C4704FB07622CEA074C45
:1014E00005FB07F70CFB05F604FB0CFC16EB0746A7
:1014F00042EB174216EB0C4642EB1C421BEB060676
:1015000058EB0202414146EA9E0601D5BDE8018939
:10151000B619524141EB0101A3F10103BDE8018974
:101520004FEA14454FEA114724EA054621EA074CE1
:1015300005FB07F406FB07F70CFB06F105FB0CFCAB
:1015400011EB074144EB17444FEA124711EB0C41F2
:1015500044EB1C4422EA074C05FB07F206FB07F7A5
:101560000CFB06F605FB0CFC16EB074642EB17429C
:1015700016EB0C4642EB1C456A1854F1000148BFBB
:101580007047B619524141EB0101A3F101037047C5
:1015900095F0000F37D04FEA11424FEA144721EA85
:1015A000024624EA074C02FB07F106FB07F70CFB97
:1015B00006F402FB0CFC14EB074441EB17414FEA25
:1015C000154714EB0C4441EB1C4125EA074C02FB88
:1015D00007F506FB07F70CFB06F602FB0CFC16EB07
:1015E000074645EB174516EB0C4645EB1C42121916
:1015F00051F1000148BF7047B619524141EB01015A
:10160000A3F1010370474FEA14454FEA114724EA5A
:10161000054621EA074C05FB07F106FB07F70CFB23
:1016200006F24FF0000605FB0CFC12EB074241EB03
:10163000174112EB0C4251EB1C4148BF7047921806
:1016400041EB0101A3F10103704700BFFEE77047C2
:1016500070B504461D460023B5F5804F13D154F8EC
:1016600022300C480340D1E9000640EA06108E689B
:1016700040EA06208E8940EA06408E6930430343E3
:1016800044F8223003E06FF0704044F8220000205C
:1016900070BD00000000F0CF10B5034600220868BE
:1016A00053F8202012480240D1E901042043CC68BD
:1016B00020430C6920434C6920438C692043CC694A
:1016C00020430C6A20434C6A20438C6A2043CC6A36
:1016D0002043CC6B20430C6B2043024388680828CE
:1016E00001D142F04002086843F82020002010BDDC
:1016F0008000F0FF30B503460024501C53F8204012
:1017000004F04044D1E9000540EA05108D6840EA44
:1017100005208D8940EA0545088A401E45EA0055A6
:10172000087D801E45EA00608D6928430443501CF3
:1017300043F82040002030BD70B50446A56D00F090
:1017400085F9064694F83500022808D080206065A7
:1017500000BF002084F8340000BF012070BD206865
:10176000006820F01600216808602068406920F0B9
:10177000800021684861206C08B9A06C28B12068FD
:10178000006820F00800216808602068006820F0E8
:101790000100216808600FE000F058F9801B05285F
:1017A0000AD92020606500BF002084F8340000BF03
:1017B000032084F83500D1E72068006800F00100BC
:1017C0000028E9D194F85C103F208840A86000BF51
:1017D000002084F8340000BF012084F83500002088
:1017E000BCE7014691F83500022803D08020486507
:1017F00001207047052081F835000868006820F056
:1018000001000A6810600020F3E70000F8B5024606
:101810000B460025002400200021DEE0012606FA08
:1018200001F51E6806EA0504AC4275D11E7906F082
:101830000306012E04D01E7906F00306022E13D1F2
:1018400090684F000326BE40B0434F00DE68BE40A4
:1018500030439060506801268E40B0431E79C6F335
:1018600000168E40304350601E7906F00306032EAA
:1018700009D0D0684F000326BE40B0434F009E6899
:10188000BE403043D0601E7906F00306022E13D10D
:10189000CF0802F1200656F827004E07F70E0F2654
:1018A000BE40B0434F07FF0E1E69BE403043CF0815
:1018B00002F1200646F8270010684F000326BE40BC
:1018C000B0431E7906F003064F00BE40304310605F
:1018D0005E6806F08056B6F1805F7DD100BF0026BD
:1018E0000096404E366846F480463E4F3E603E4687
:1018F000366806F48046009600BF00BF3A4E8F0857
:1019000056F827008E07370F0F26BE40B043374EDC
:10191000B24202D1002624E05EE0354EB24201D14F
:1019200001261EE0334EB24201D1022619E0324EAA
:10193000B24201D1032614E0304EB24201D1042656
:101940000FE02F4EB24201D105260AE02D4EB242E1
:1019500001D1062605E02C4EB24201D1072600E057
:1019600008268F073F0FBE4030431F4E8F0846F8B2
:101970002700264E3068A0435E6806F48036B6F530
:10198000803F00D12043214E3060361D3068A04397
:101990005E6806F40036B6F5003F00D120431B4ECA
:1019A000361D3060361D3068A0435E6806F4801630
:1019B000B6F5801F00D12043144E08363060361D26
:1019C0003068A0435E6806F40016B6F5001F00D12B
:1019D00020430E4E0C363060491C1029FFF41EAF18
:1019E000F8BD0000443802400838014000000240C1
:1019F0000004024000080240000C024000100240B7
:101A00000014024000180240001C0240003C01404B
:101A1000024613690B400BB1012000E00020704723
:101A200010B5426921EA020302EA010443EA0443D1
:101A3000836110BD0AB1816101E00B0483617047CD
:101A400001480068000C7047002004E0014800686D
:101A5000704700001400002003480068034909781B
:101A60000844014908607047140000201C00002051
:101A700010B50A48006840F400700849086008463C
:101A8000006840F480600860052000F07FF80F20B7
:101A900000F006F800F02AF8002010BD003C0240DB
:101AA00070B504460E4800784FF47A71B1FBF0F03F
:101AB0000C490968B1FBF0F5284600F087FC08B135
:101AC000012070BD102C07D200222146501E00F0CC
:101AD0001EF80548046001E00120F2E70020F0E76D
:101AE0001C00002004000020180000207047014660
:101AF0000846002809DB00F01F0301229A40430931
:101B00009B0003F1E023C3F8002100BF70472DE9DB
:101B1000F05F80460D461646002701F0E1F80746C3
:101B200039462A46334601F00700C0F1070ABAF1E8
:101B3000040F02D94FF0040A01E0C0F1070AD146B0
:101B400000F1040ABAF1070F02D24FF0000A01E0D7
:101B5000A0F1030AD4464FF0010A0AFA09FAAAF1E1
:101B6000010A0AEA020A0AFA0CFA4FF0010B0BFA10
:101B70000CFBABF1010B0BEA030B4AEA0B04214609
:101B8000404601F0B5F8BDE8F09F000000BF00F04E
:101B90000702064B19684FF6FF031940044B0B432D
:101BA00043EA0221014B196000BF70470CED00E0D1
:101BB0000000FA0570B504460D460CB9012070BD51
:101BC0005848006800F00700A84209D255490D7036
:101BD0000846006800F00700A84201D00120EEE7A7
:101BE000207800F0020002281DD1207800F00400C7
:101BF000042805D14C48006840F4E0504A49086088
:101C0000207800F00800082805D14748006840F413
:101C10006040454908604448006820F0F000A16831
:101C2000084341490860207800F00100A8B36068CB
:101C3000012807D13C4808380068C0F34040B8B9D3
:101C40000120BCE76068022802D06068032807D141
:101C5000354808380068C0F3406048B90120AEE755
:101C6000314808380068C0F3400008B90120A6E7F1
:101C70002D48006820F00300616808432A49086085
:101C8000FFF7E4FE064609E0FFF7E0FE801B41F2A5
:101C90008831884202D9032091E707E02248006892
:101CA00000F00C006168B0EB810FEDD11D480068B9
:101CB00000F00700A84209D91A490D7008460068CB
:101CC00000F00700A84201D0012078E7207800F05A
:101CD0000400042807D11448006820F4E050E168AB
:101CE000084311490860207800F00800082808D14E
:101CF0000D48006820F46040216940EAC1000A49AB
:101D0000086000F03FF808490968C1F30311074A69
:101D1000515CC8400649086006480068FFF7C0FEED
:101D200000204CE7003C024008380240CE8000080A
:101D300004000020180000200148006870470000DF
:101D40000400002000B5FFF7F7FF04490968C1F35C
:101D50008221034A515CC84000BD0000083802409F
:101D6000DE80000800B5FFF7E7FF04490968C1F30A
:101D70004231034A515CC84000BD000008380240AF
:101D8000DE8000082DE9F047002400250026A1464A
:101D90002548006800F00C0020B1042805D0082870
:101DA0003AD105E0DFF8849039E0DFF8849036E03E
:101DB0001D48001F006800F03F041B48001F00681A
:101DC00000F4800078B11A481749091F0968C1F367
:101DD0008811A0FB01700146224600233846FEF719
:101DE00060FA05460EE011480F49091F0968C1F362
:101DF0008811A0FB01700146224600233846FEF7F9
:101E000050FA05460848001F0068C0F30140401C16
:101E10004600B5FBF6F902E0DFF8109000BF00BF06
:101E20004846BDE8F0870000083802400024F4006E
:101E300000127A00F8B504460CB90120F8BD2078EC
:101E400000F00100002874D0F948006800F00C0090
:101E500004280DD0F648006800F00C00082813D1C3
:101E6000F348001F006800F48000B0F5800F0BD12C
:101E7000EF4808380068C0F34040002859D0606837
:101E8000002856D10120D9E700BF6068B0F5803F37
:101E900008D1E7480838006840F48030E449083940
:101EA00008601EE06068B0F5A02F0DD1E04808384A
:101EB000006840F48020DE49083908600846006860
:101EC00040F4803008600CE0D9480838006820F4FD
:101ED0008030D749083908600846006820F480201F
:101EE000086000BF606890B1FFF7B0FD054606E0EE
:101EF000FFF7ACFD401B642801D903209EE7CC48C6
:101F000008380068C0F340400028F1D011E0FFF726
:101F10009DFD054606E0FFF799FD401B642801D9A9
:101F200003208BE7C24808380068C0F3404000280F
:101F3000F1D1207800F0020002285FD1BC4800688F
:101F400000F00C0058B1BA48006800F00C000828F6
:101F50001CD1B748001F006800F48000B0B9B44835
:101F600008380068C0F3400020B1E068012801D0C3
:101F7000012063E7AE480838006820F0F8002169C6
:101F800040EAC100AA490839086037E0E06800B3B8
:101F90000120A8490860FFF759FD054606E0FFF754
:101FA00055FD401B022801D9032047E7A048083807
:101FB0000068C0F340000028F1D09D480838006850
:101FC00020F0F800216940EAC10099490839086009
:101FD00014E0002097490860FFF738FD054606E049
:101FE000FFF734FD401B022801D9032026E7904863
:101FF00008380068C0F340000028F1D1207800F0D4
:10200000080008282CD16069A8B101208A4908601D
:10201000FFF71CFD054606E0FFF718FD401B0228F0
:1020200001D903200AE782486C300068C0F3400001
:102030000028F1D014E000207F490860FFF706FD7A
:10204000054606E0FFF702FD401B022801D90320E8
:10205000F4E677486C300068C0F340000028F1D106
:10206000207800F00400042870D100277048383030
:10207000006800F0805090B900BF002000906C48CC
:102080003830006840F080506949383108600846AF
:10209000006800F08050009000BF00BF0127674833
:1020A000006800F48070B0B96448006840F4807043
:1020B00062490860FFF7CAFC054606E0FFF7C6FC68
:1020C000401B022801D90320B8E65C48006800F4F0
:1020D00080700028F2D000BFA068012808D15448C1
:1020E0006830006840F001005149683108601DE027
:1020F000A06805280DD14E486830006840F0040003
:102100004B49683108600846006840F001000860EB
:102110000CE047486830006820F00100444968310D
:1021200008600846006820F00400086000BFA0684E
:10213000A8B1FFF78BFC054609E0FFF787FC401BC1
:1021400041F28831884202D9032077E626E03848F8
:1021500068300068C0F340000028EED013E0FFF7BD
:1021600075FC054608E0FFF771FC401B41F2883121
:10217000884201D9032061E62D4868300068C0F329
:1021800040000028EFD1012F07D1294838300068DE
:1021900020F0805026493831086000BFA06900282F
:1021A00045D02348006800F00C0008285DD0A069E5
:1021B000022845D100201F490866FFF747FC054665
:1021C00006E0FFF743FC401B022801D9032035E657
:1021D000174808380068C0F340600028F1D1D4E9FE
:1021E00007010843616A40EA81110122A06AC2EB3B
:1021F000500041EA00412C20005D41EA00600C499A
:10220000091F086001200B490866FFF71FFC0546FF
:1022100006E0FFF71BFC401B022801D903200DE656
:10222000034808380068C0F340600028F1D049E056
:102230000838024000004742800E474200700040CC
:10224000002021490866FFF701FC054606E0FFF77C
:10225000FDFB401B022801D90320EFE51B48006865
:10226000C0F340600028F2D12CE0A069012800D121
:10227000E4E51648001D0668A069012820D006F490
:102280008001E06981421BD106F03F01206A814252
:1022900016D147F6C0703040616AB0EB811F0FD194
:1022A00006F440310122A06AC2EB5000B1EB004FAE
:1022B00006D106F070612C20005DB1EB006F01D0FB
:1022C0000120BBE50020B9E500004742003802408C
:1022D00070B504460E4615460CB9012070BD94F841
:1022E000490028B9002084F84800204600F01CF876
:1022F00004F108012068FFF7CFF93146A268206891
:10230000FFF7F8F92946236BD4E90102FFF7A0F99A
:10231000A168206850F8210040F00100A2682168FF
:1023200041F822000020D9E710B586B0044600BF6E
:10233000002000902248006840F001002049086019
:102340000846006800F00100009000BF00BF00BF19
:10235000002000901A480838006840F0080018492A
:10236000083908600846006800F00800009000BFC7
:1023700000BF00BF002000900846006840F0100039
:1023800008600846006800F01000009000BF00BF21
:102390004CF2037001900220029001200390022071
:1023A00004900C20059001A90648FFF72FFA4FF67C
:1023B0008070019001A90448FFF728FA06B010BD0B
:1023C00038380240000C02400010024070B504464C
:1023D0002546681EB0F1807F01D301200FE0681E02
:1023E0004FF0E02148610F214FF0FF3000F080FCFA
:1023F00000204FF0E021886107200861002070BDB7
:10240000704770472DE9F84F04462068056820683A
:10241000C668206847694FF00009CA4605F00F09F1
:10242000B9F1000F0AD105F0200038B106F0200004
:1024300020B1204600F069FABDE8F88FB9F1000F2D
:1024400072D007F0010018B906F4907000286BD024
:1024500005F0010030B106F4807018B1206C40F036
:102460000100206405F0040030B107F0010018B14C
:10247000206C40F00200206405F0020030B107F04B
:10248000010018B1206C40F00400206405F0080041
:1024900048B106F0200010B907F0010018B1206C17
:1024A00040F008002064206C70B305F0200028B1D3
:1024B00006F0200010B1204600F027FA206840699D
:1024C000C0F3801A206C00F0080010B9BAF1000FB8
:1024D00023D0204600F0EEF92068406900F040006B
:1024E000402816D12068406920F0400021684861EA
:1024F000A06B50B15648A16B0865A06BFFF771F94E
:1025000010B1A06B016D88470CE02046FFF779FF02
:1025100008E02046FFF775FF04E02046FFF771FF53
:102520000020206488E7FFE7206B012879D105F0BF
:102530001000002875D006F01000002871D000BFF0
:10254000002000902068006800902068406800909B
:1025500000BF00BF2068406900F04000402839D12A
:10256000A06B006840681FFA80F8B8F1000F30D007
:10257000A08D40452DDDA4F82E80A06BC069B0F57C
:10258000807F1FD02068C06820F480702168C860F8
:102590002068406920F00100216848612068406996
:1025A00020F0400021684861202084F83E0000208F
:1025B00020632068C06820F010002168C860A06B0C
:1025C000FFF7BAF8A08DE28D801A81B22046FFF79E
:1025D00017FF31E7A08DE18D401A1FFA80F8E08DDA
:1025E000E8B1B8F1000F1AD02068C06820F49070EC
:1025F0002168C8602068406920F0010021684861B6
:10260000202084F83E00002020632068C06820F06D
:1026100010002168C86041462046FFF7F1FE0BE735
:10262000FFE705F0800030B106F0800018B12046C9
:1026300000F003FB00E705F0400030B106F0400079
:1026400018B1204600F051F9F6E600BFF4E60000AC
:10265000A128000810B504460CB9012010BDA069DE
:1026600000B100E000BF94F83D0028B9002084F8D4
:102670003C00204600F028F8242084F83D00206823
:10268000C06820F400502168C860204600F09CF922
:102690002068006920F49040216808612068406942
:1026A00020F02A00216848612068C06840F400508A
:1026B0002168C86000202064202084F83D0084F850
:1026C0003E000020CAE7000010B586B004462E493F
:1026D0002068884255D100BF00BF002000902B48E1
:1026E000006840F01000294908600846006800F0C2
:1026F0001000009000BF00BF00BF00BF00BF00205F
:10270000009022481438006840F001001F49143935
:1027100008600846006800F00100009000BF00BF9C
:1027200000BF00BF00BF002000900846006840F0D6
:10273000010008600846006800F00100009000BF3A
:1027400000BF00BF481501900220029001200390B5
:10275000022004900720059001A90D48FFF756F8C4
:102760004FF4806001900720059001A90848FFF709
:102770004DF82520FFF7BBF9032211462520FFF76E
:10278000C6F906B010BD00000010014044380240F8
:102790000000024070B504460D46164694F83E000F
:1027A000202816D105B10EB9012070BD00BF94F8E4
:1027B0003C00012801D10220F7E7012084F83C0009
:1027C00000BF0020206332462946204600F012FA5E
:1027D000EBE70220E9E7000010B504462049206835
:1027E00088423BD11F48008800F4004088BB1D4848
:1027F000008800F4804070B11B4800780A2803D09C
:1028000000201849088024E01648008840F4004061
:10281000144908801DE0144800780D2806D111489D
:10282000008840F480400F49088012E00E4800788C
:102830000C490988C1F30D010C4A5054094800881D
:10284000401C0849088008460088C72801DD002090
:102850000880012204490648FFF79CFF10BD0000D4
:10286000001001401000002012000020280000206D
:10287000F0000020704700BFFEE700BFFEE7704792
:102880007047704710B5FFF7E7F810BD03480068C0
:1028900040F47000014908607047000088ED00E0D6
:1028A00070B50546AC6B0020E085E0842046FFF75C
:1028B000A8FD70BD0168C96821F490710268D160FB
:1028C0000168496921F0010102685161016B012928
:1028D00005D10168C96821F010010268D16020218A
:1028E00080F83E1000210163704710B5044620684F
:1028F000C06820F040002168C860202084F83D00B6
:102900002046FFF7B7FF002010BD70B5044694F8CD
:102910003E00222856D1A068B0F5805F0CD1206916
:1029200050B90025A66A20684068C0F308003080CE
:10293000A06A801CA06215E0A56A0026A068B0F518
:10294000805F03D0A06828B9206918B92068406862
:10295000287004E02068406800F07F002870A06ABA
:10296000401CA062E08D401E80B2E08540BB206824
:10297000C06820F020002168C8602068C06820F48A
:1029800080702168C8602068406920F001002168DB
:102990004861202084F83E00206B01280AD120687D
:1029A000C06820F010002168C860A18D2046FFF7A4
:1029B00027FD02E02046FFF70FFF0020206370BDD7
:1029C0000020FCE70220FAE72DE9F84F04462068D2
:1029D000006920F44050E1680843216808612169DA
:1029E000A068084361690843E169084300902068D2
:1029F000C06849F20C618843009908432168C860A7
:102A00002068406920F44070A1690843216848614A
:102A100076492068884203D075492068884203D1EE
:102A2000FFF7A0F9814602E0FFF78CF98146E069E3
:102A3000B0F5004F6CD102206168A0FB0150034645
:102A40001920A9FB007001462A463846FDF729FCEB
:102A50006421B0FBF1F04FEA001A02206168A0FB8C
:102A600001510B461920A9FB00712A463846FDF793
:102A700018FC834602206168A0FB01500346192020
:102A8000A9FB00712A463846FDF70BFC6421B0FB18
:102A9000F1F000EBC00101EB0010ABEB8000322144
:102AA00001EBC0006421B0FBF1F000F0F8000AEB8C
:102AB000400A02206168A0FB015003461920A9FBCF
:102AC000007001462A463846FDF7EBFB834602209C
:102AD0006168A0FB015003461920A9FB00712A463A
:102AE0003846FDF7DEFB6421B0FBF1F000EBC001DE
:102AF00001EB0010ABEB8000322101EBC000642140
:102B0000B0FBF1F000F007005044216888606AE0F3
:102B100004206168A0FB015003461920A9FB007046
:102B200001462A463846FDF7BCFB82460420616810
:102B3000A0FB015003461920A9FB007001462A465C
:102B40003846FDF7AEFB6421B0FBF1F000EBC001AD
:102B500001EB0010AAEB8000322101EB0010642190
:102B6000B0FBF1F000F0F00A04206168A0FB0170F6
:102B700003461920A9FB00513A462846FDF791FB70
:102B80006421B0FBF1F00AEB001A04206168A0FB9D
:102B900001510B461920A9FB00712A463846FDF762
:102BA00080FB834604206168A0FB01500346192086
:102BB000A9FB007001462A463846FDF772FB6421E6
:102BC000B0FBF1F000EBC00101EB0010ABEB8000BB
:102BD000322101EB00106421B0FBF1F000F00F0096
:102BE000504421688860BDE8F88F00000010014063
:102BF0000014014010B5034699629A85DA850020D9
:102C00001864222083F83E0000BF002083F83C00B7
:102C100000BF1868C06840F480701C68E0601868E5
:102C2000406940F001001C6860611868C06840F0AD
:102C300020001C68E060002010BD014691F83D00B6
:102C4000212828D18868B0F5805F0BD1086948B980
:102C50000A6A1088C0F308000B685860086A801C74
:102C6000086205E00B6A581C086218780B68586007
:102C7000C88C401E80B2C88458B90868C06820F06B
:102C800080000B68D8600868C06840F040000B689E
:102C9000D860002070470220FCE7000010B5024811
:102CA000FFF7B0FB10BD0000F000002000BFFEE702
:102CB00003B401984100009850EAC12018BF0420D5
:102CC0004A0D18BF40F0010040F2FF72B2EB515FB5
:102CD00008BF40F00200012808BF052002B070477D
:102CE00002480068C0F30220704700000CED00E0CD
:102CF00010B5002804DB0A07130E054A135406E03A
:102D00000A07140E034A00F00F031B1FD45410BD12
:102D100000E400E018ED00E070B59B482DED020BDB
:102D20002DED068B079D25F00044A04218DC974846
:102D3000844202DC0AD1069840B19DED060BBDEC41
:102D4000068B02B0BDE8704000F0CEB9002DCCBFBC
:102D50009FED8F0B9FED900BBDEC068B02B070BD0D
:102D60008F48A04215DD8F48A042D8BF4FF0FF34F6
:102D700058DD9DED060B51EC100BFFF799FF042871
:102D800008BF00F0BDF99DED060BBDEC068B02B04F
:102D900070BD9DED060B51EC100B00F011FCCDE960
:102DA000060181489FED828BA0423CDD8248A04213
:102DB0001FDD00249FED82AB9DED060B53EC1A2B1B
:102DC00051EC100B04F0BAFC9DED060B41EC190B15
:102DD00053EC1A2B51EC100B04F008FF53EC182B9A
:102DE00005F00EF853EC192B04F050FDCDE9060167
:102DF00049E09DED060B012453EC182B51EC100B10
:102E000004F09CFC9DED060B41EC190B53EC182BC8
:102E100051EC100B04F0F4FF53EC192B04F036FDC9
:102E2000CDE906012FE06848A0421FDD02249FED96
:102E3000689B9DED060B53EC192B51EC100B04F025
:102E4000D5FE53EC182B04F079FC9DED060B41ECFC
:102E5000180B53EC192B51EC100B04F0D1FF53EC71
:102E6000182B04F013FDCDE906010CE09DED060BD7
:102E7000032453EC102B9FED580B51EC100B04F076
:102E800005FDCDE906019DED060B53EC102B51EC31
:102E9000100B04F0ABFE41EC180B53EC182B04F0B4
:102EA000A5FE41EC190B4E480621B0EE490AF0EEA2
:102EB000690A784400F09CF853EC182B51EC100B85
:102EC00004F094FE41EC180B4648B0EE490AF0EECF
:102ED000690A0521784400F08BF853EC192B51EC6A
:102EE000100B04F083FE41EC100B51EC180B53EC6B
:102EF000102B002C0EDA04F021FC9DED061B53EC88
:102F0000112B04F073FE9DED061B53EC112B04F006
:102F10006BFF35E004F012FC9DED061B53EC112B0A
:102F200004F064FE41EC100B2F48784400EBC40021
:102F300090ED001B51EC100B53EC112B04F060FFD3
:102F40009DED061B53EC112B04F05AFF41EC100BC6
:102F50002648784400EBC40090ED001B51EC100BA8
:102F600053EC112B04F040FF41EC100B002DA2BFDD
:102F7000BDEC068B02B070BD51EC100B04F0A0FB51
:102F800041EC100B01E70000000010440000F07F4E
:102F9000182D4454FB21F93F182D4454FB21F9BF4F
:102FA0000000DC3F0000203E0000F33F0000000076
:102FB000000000000000F03F0000E63F00000000BD
:102FC00000000000000000400080034000000000FE
:102FD000000000000000F83F000000000000F0BF0B
:102FE00042820000F8810000828100003A810000E6
:102FF00070B504462DED028B4D1E00EBC500B0EE02
:10300000408AF0EE608A90ED000B35F0060017D094
:1030100053EC182B51EC100B04F0E8FD41EC100BB5
:103020006D1E04EBC50090ED001B51EC100B53EC32
:10303000112B04F083FB41EC100B35F00600E7D1B7
:10304000022D36D0042D1CD0062D1CBFBDEC028BEA
:1030500070BD53EC182B51EC100B04F0C7FD94ED30
:103060000A1B53EC112B04F069FB53EC182B04F0F2
:10307000BDFD94ED081B53EC112B04F05FFB41ECFC
:10308000100B53EC182B51EC100B04F0AFFD94ED2A
:10309000061B53EC112B04F051FB53EC182B04F0DE
:1030A000A5FD94ED040B53EC102B04F047FB41EC11
:1030B000100B53EC182B51EC100B04F097FD94ED12
:1030C000021B53EC112B04F039FB53EC182B04F0CA
:1030D0008DFD94ED001B53EC112B04F02FFBBDEC88
:1030E000028B41EC100B70BD10B553EC102B51EC62
:1030F000100B04F023FB41EC100B10BD000000008E
:103100009FED050B10B553EC102B51EC100B04F098
:103110006DFD41EC100B10BD000000000000001020
:1031200030380A2801D2012070470020704700BFC4
:10313000704700002DE9F04387B0002400250026E9
:103140000027A1464FF6FF7000F09EFC4FF4784038
:1031500048A110221346CDE900210290F0225A2105
:103160000A2003F0ABFE4FF4784047A1102213462B
:10317000CDE900210290F0226E210A2003F09EFE8C
:103180004FF4784047A110221346CDE90021029068
:10319000F02282210A2003F091FE3BE0002000F0A3
:1031A00011FC8146B9F1040F00D134E004AA05A94D
:1031B00006A804F069F88046B8F1000F23D1BDF9E4
:1031C0001800854202DABDF9180000E028460546DD
:1031D000BDF91800844202DDBDF9180000E0204668
:1031E0000446BDF91400874202DABDF9140000E07C
:1031F00038460746BDF91400864202DDBDF91400C9
:1032000000E03046064600BF4FF400712C48FEF740
:1032100007FC00BFC2E700BF281900EBD0714910BE
:1032200009B2284A1180B81900EBD071491009B2CF
:10323000254A1180214625A0FDF7AAF8294626A097
:10324000FDF7A6F8314627A0FDF7A2F8394628A0D9
:10325000FDF79EF81B48B0F9001028A0FDF798F87C
:103260001948B0F900102AA0FDF792F807B0BDE8A0
:10327000F0830000436F6D706173732043616C696C
:1032800062726174696F6E00506C7320726F74614A
:10329000746520686F72697A206F6E652063796348
:1032A0006C652100496620646F6E652C2070726524
:1032B000737320574B5550206B6579210000000037
:1032C000001402400000002002000020785F6D69B9
:1032D0006E3A25640D0A0000785F6D61783A2564C6
:1032E0000D0A0000795F6D696E3A25640D0A0000D1
:1032F000795F6D61783A25640D0A0000675F6D6142
:1033000067785F6F66667365743A25640D0A00001E
:10331000675F6D6167795F6F66667365743A256490
:103320000D0A000000B52DED108B83B00A236A460C
:1033300001A902A803F0DBFFBDF808007A4909885B
:10334000401A00B20290BDF8040078490988401A7A
:1033500000B20190BDF90800002836DDBDF9040077
:10336000002832DDBDF9080004F015FC41EC1D0B0E
:10337000BDF9040004F00FFC41EC1E0B53EC1D2BB7
:1033800004F084FA41EC1C0BB0EE4C0AF0EE6C0A2F
:10339000FFF7C2FCB0EE40BAF0EE60BA9FED640BEE
:1033A00053EC102B51EC1B0B04F020FC41EC1A0BDE
:1033B0009FED610B53EC102B04F068FA41EC190BF4
:1033C00004F08AF908EE100A94E0BDF9080000281C
:1033D0003EDDBDF9040000283ADABDF9080004F02A
:1033E000DAFB41EC1E0BBDF9040004F0D4FB41EC08
:1033F0001F0B53EC1E2B04F049FA41EC1D0BB0EEF1
:103400004D0AF0EE6D0AFFF787FCB0EE40CAF0EE11
:1034100060CA9FED470B53EC102B51EC1C0B04F0D2
:10342000E5FB41EC1B0B9FED440B53EC102B04F020
:103430002DFA41EC1A0B9FED420B53EC102B04F0CC
:103440007DF941EC190B04F047F908EE100A51E040
:10345000BDF8080030B9BDF90400002802DD9FED79
:103460003A8A47E0BDF8080030B9BDF904000028E9
:1034700002DA9FED368A3DE0BDF90800002839DA0E
:10348000BDF9080004F087FB41EC1E0BBDF90400F8
:1034900004F081FB41EC1F0B53EC1E2B04F0F6F9FA
:1034A00041EC1D0BB0EE4D0AF0EE6D0AFFF734FC57
:1034B000B0EE40CAF0EE60CA9FED1D0B53EC102B2E
:1034C00051EC1C0B04F092FB41EC1B0B9FED1A0B13
:1034D00053EC102B04F0DAF941EC1A0B9FED140BAE
:1034E00053EC102B04F02AF941EC190B04F0F4F81A
:1034F00008EE100A9FED160AB4EEC08AF1EE10FA3B
:1035000003DD9FED130AB0EE408AB5EEC08AF1EEFE
:1035100010FA03D29FED0F0AB0EE408AB0EE480ACF
:1035200003B0BDEC108B00BD0000002002000020A5
:10353000000000000080664000000000FA21094001
:1035400000000000008076400000B4420000874385
:103550000000B4430000000001490860704700000B
:103560000800002010B504464FF47A7104FB01F006
:1035700000F002F810BD000070B5034600224FF0C5
:10358000E02675690D4E366803FB06F44FF0E02621
:10359000B16910E04FF0E026B06988420BD0884254
:1035A00002D20E1A324402E02E1A0E443244014670
:1035B000A24200D300E0EDE700BF70BD080000208C
:1035C00082B0CDE9000121F0004001909DED000B9B
:1035D00002B051EC100B704700BF054A126802F0B0
:1035E0004002002AF9D0C2B2014B5A607047000075
:1035F0000010014010B500BF00224FF400711148C7
:10360000FEF718FA00BF00F01FF800BF01221102F8
:103610000C48FEF70FFA00BF00F016F800BF0022BA
:103620004FF480710748FEF705FA00BF00F00CF870
:1036300000BF012251020348FEF7FCF900BF00F071
:1036400003F810BD0004024010B50220FFF794FFFC
:1036500010BD000000B587B000BF00BF0020019082
:103660001B48006840F002001949086008460068DD
:1036700000F00200019000BF00BF00BF00BF00BF0C
:10368000002001900846006840F0020008600846EB
:10369000006800F00200019000BF00BF00BF881565
:1036A00002900120039004900320059002A909488C
:1036B000FEF7ACF84FF4007002901120039002A9BD
:1036C0000448FEF7A3F800F0B9F807B000BD000009
:1036D000303802400004024010B500BF0122510200
:1036E0000C48FEF7A7F900BFFFF7AEFF00BF0122AD
:1036F00011020848FEF79EF900BFFFF7A5FF00BFC3
:1037000000224FF480710348FEF794F900BFFFF7E1
:103710009BFF10BD0004024070B505460024002642
:103720001EE06006040E00BF012211021148FEF7E0
:1037300081F900BFFFF788FF4FF400710D48FEF7D5
:1037400067F908B1601CC4B200BF00224FF4807159
:103750000848FEF76FF900BFFFF776FF701CC6B28E
:10376000082EDEDB15B9FFF7B7FF01E0FFF742FFD8
:10377000204670BD0004024070B50446002528E0D4
:1037800000BFE00928B1012251021748FEF752F9A3
:1037900005E000224FF400711348FEF74BF900BF1B
:1037A000FFF752FF00BF012211020F48FEF742F956
:1037B00000BFFFF749FF00BF00224FF480710A48A5
:1037C000FEF738F900BFFFF73FFF6006040E681CE4
:1037D000C5B2082DD4DB00BF012251020248FEF71A
:1037E00029F900BF70BD00000004024010B500BF01
:1037F000012251021048FEF71DF900BF00BF01224F
:1038000011020D48FEF716F900BFFFF71DFF00BFBC
:1038100000224FF400710848FEF70CF900BFFFF7D3
:1038200013FF00BF00224FF480710348FEF702F936
:1038300000BFFFF709FF10BD0004024010B500BF34
:1038400000224FF400710C48FEF7F4F800BFFFF7B8
:10385000FBFE00BF012211020748FEF7EBF800BF94
:10386000FFF7F2FE00BF012251020348FEF7E2F823
:1038700000BFFFF7E9FE10BD0004024070B5002450
:10388000002500BF012251021548FEF7D3F800BF02
:10389000FFF7DAFE00BF012211021148FEF7CAF855
:1038A00000BFFFF7D1FE07E0601CC4B2FA2C03DDB5
:1038B000FFF7C4FF012506E04FF400710848FEF74A
:1038C000A7F80028F0D100BF00BF00224FF480719C
:1038D0000348FEF7AFF800BFFFF7B6FE284670BDFD
:1038E0000004024000B587B000BF00BF0020019077
:1038F0003148006840F010002F4908600846006811
:1039000000F01000019000BF00BF00BF00BF00BF6B
:10391000002001900846006840F01000086008464A
:10392000006800F01000019000BF00BF00BF00BFA2
:1039300000BF002001900846006840F010000860B9
:103940000846006800F01000019000BF00BF00BFF3
:1039500000BF00BF002001900846006840F0010051
:1039600008600846006800F00100019000BF00BF39
:1039700000BF10200290002003900120049002203C
:10398000059002A90D48FDF741FF0820029002A909
:103990000A48FDF73BFF0420029002A90748FDF703
:1039A00035FF012002900220049002A90448FDF78F
:1039B0002DFF07B000BD000030380240001002406B
:1039C0000000024070B50446002514B101202B49C7
:1039D00008702A480078002834D010212848FEF7C3
:1039E00017F878B108212648FEF712F850B10421E3
:1039F0002348FEF70DF828B101212248FEF708F808
:103A000001281FD10A20FFF7ADFD00201B490870D7
:103A100010211B48FDF7FCFF00B9012508211848BB
:103A2000FDF7F6FF00B9022504211548FDF7F0FF68
:103A300000B9032501211348FDF7EAFF01281BD136
:103A4000042519E010210E48FDF7E2FF012813D1EB
:103A500008210B48FDF7DCFF01280DD1042108489F
:103A6000FDF7D6FF012807D101210648FDF7D0FF59
:103A700010B9012001490870284670BD1D000020C2
:103A8000001002400000024070B5044600260948BC
:103A90000588408845430021084603F0DFF803F01D
:103AA0008BFA00BF02E004480480761CAE42FAD3D1
:103AB00070BD0000840100208000006C10B5044639
:103AC00058488471002C58D1F020564908804FF492
:103AD000A07048800846808845F21051884210D175
:103AE0004FF430504F4908814FF4285048814FF42B
:103AF0002C5088814FF4F07008804FF44870488053
:103B00001AE04848808841F6631188420DD12C2084
:103B1000444908812B2048812A2088814FF4F07085
:103B200008804FF44870488006E02C203D49088109
:103B30002A2048812B2088813A48808845F210311C
:103B4000884205D03748808847F29671884206D16E
:103B50004FF4A070334908804FF4F070488031482A
:103B6000808849F60601884258D14FF4F0702D49FB
:103B700008804FF44870488050E04FF4A070294905
:103B80000880F02048800846808845F2105188421D
:103B900010D14FF43050234908814FF42850488108
:103BA0004FF42C5088814FF4487008804FF4F07027
:103BB000488020E01B48808841F66311884205D088
:103BC0001848808849F6060188420DD12C201549F5
:103BD00008812A2048812B2088814FF44870088072
:103BE0004FF4F070488006E02C200E4908812A200E
:103BF00048812B2088810B48808845F2103188420B
:103C000005D00848808847F29671884206D14FF463
:103C1000F070044908804FF4A0704880002002F042
:103C2000FFFE10BD8401002070B505460E46144607
:103C30003146284603F012F803F0BEF901490C8022
:103C400070BD00008000006C10B5CF2003F0A8F913
:103C5000002003F099F9C12003F096F9302003F019
:103C600093F9ED2003F09CF9642003F08DF9032013
:103C700003F08AF9122003F087F9812003F084F918
:103C8000E82003F08DF9852003F07EF9102003F081
:103C90007BF97A2003F078F9CB2003F081F9392001
:103CA00003F072F92C2003F06FF9002003F06CF997
:103CB000342003F069F9022003F066F9F72003F0DD
:103CC0006FF9202003F060F9EA2003F069F9002081
:103CD00003F05AF9002003F057F9C02003F060F90F
:103CE0001B2003F051F9C12003F05AF9012003F021
:103CF0004BF9C52003F054F9302003F045F930208A
:103D000003F042F9C72003F04BF9B72003F03CF968
:103D1000362003F045F9482003F036F93A2003F045
:103D20003FF9552003F030F9B12003F039F90020B4
:103D300003F02AF91A2003F027F9B62003F030F92E
:103D40000A2003F021F9A22003F01EF9F22003F06B
:103D500027F9002003F018F9262003F021F90120AB
:103D600003F012F9E02003F01BF90F2003F00CF927
:103D70002A2003F009F9282003F006F9082003F0AF
:103D800003F90E2003F000F9082003F0FDF8542099
:103D900003F0FAF8A92003F0F7F8432003F0F4F851
:103DA0000A2003F0F1F80F2003F0EEF8002003F0F2
:103DB000EBF8002003F0E8F8002003F0E5F800201D
:103DC00003F0E2F8E12003F0EBF8002003F0DCF868
:103DD000152003F0D9F8172003F0D6F8072003F0D8
:103DE000D3F8112003F0D0F8062003F0CDF82B20F3
:103DF00003F0CAF8562003F0C7F83C2003F0C4F8DB
:103E0000052003F0C1F8102003F0BEF80F2003F0E6
:103E1000BBF83F2003F0B8F83F2003F0B5F80F20BF
:103E200003F0B2F82B2003F0BBF8002003F0ACF84D
:103E3000002003F0A9F8012003F0A6F83F2003F0CA
:103E4000A3F82A2003F0ACF8002003F09DF800202E
:103E500003F09AF8002003F097F8EF2003F094F8AD
:103E6000112003F09DF87820FFF77CFB292003F058
:103E700097F810BD10B5FF2003F092F8FF2003F073
:103E800083F8982003F080F8062003F07DF8BC202A
:103E900003F086F8012003F077F80F2003F074F8A0
:103EA000612003F071F8FF2003F06EF8012003F0A9
:103EB0006BF8012003F068F80B2003F065F8102080
:103EC00003F062F8372003F05FF8632003F05CF83A
:103ED000FF2003F059F8FF2003F056F8012003F00B
:103EE00053F8012003F050F8002003F04DF80020B3
:103EF00003F04AF8FF2003F047F8522003F044F89B
:103F0000012003F041F8002003F03EF8402003F0C8
:103F10003BF8BD2003F044F8012003F035F82320DE
:103F200003F032F8452003F02FF8672003F02CF857
:103F3000012003F029F8232003F026F8452003F0A0
:103F400023F8672003F020F8BE2003F029F80020B2
:103F500003F01AF8012003F017F8AB2003F014F86F
:103F6000602003F011F8222003F00EF8222003F065
:103F70000BF8222003F008F8222003F005F8222095
:103F800003F002F8C72003F00BF8362002F0FCFF24
:103F9000ED2003F005F87F2002F0F6FF0F2002F07D
:103FA000F3FFC02002F0FCFF0F2002F0EDFF0B201A
:103FB00002F0EAFF0A2002F0E7FFFC2002F0F0FF27
:103FC000082002F0E1FFDF2002F0EAFF002002F00B
:103FD000DBFF002002F0D8FF002002F0D5FF002018
:103FE00002F0D2FF002002F0CFFF202002F0CCFF31
:103FF000F32002F0D5FF742002F0C6FFB42002F0D7
:10400000CFFF002002F0C0FF002002F0BDFF002023
:1040100002F0BAFFF72002F0C3FF822002F0B4FFE3
:10402000B12002F0BDFF002002F0AEFF132002F02D
:10403000ABFF132002F0A8FFF22002F0B1FF8020B6
:1040400002F0A2FF042002F09FFF402002F09CFF3C
:10405000282002F099FFC12002F0A2FF172002F0F1
:1040600093FF882002F090FF882002F08DFF20202F
:1040700002F08AFFE02002F093FF002002F084FFAC
:104080000A2002F081FF122002F07EFF102002F0D1
:104090007BFF0E2002F078FF202002F075FFCC207D
:1040A00002F072FF072002F06FFF062002F06CFFA3
:1040B0000B2002F069FF0E2002F066FF0F2002F0D5
:1040C00063FF0D2002F060FF152002F05DFF10205D
:1040D00002F05AFF002002F057FFE12002F060FFDB
:1040E000002002F051FF0B2002F04EFF132002F0DF
:1040F0004BFF0D2002F048FF0E2002F045FF1B2071
:1041000002F042FF712002F03FFF062002F03CFF68
:10411000062002F039FF0A2002F036FF0F2002F0DD
:1041200033FF0E2002F030FF0F2002F02DFF15208C
:1041300002F02AFF0C2002F027FF002002F024FFEB
:104140002A2002F02DFF002002F01EFF002002F0C6
:104150001BFF012002F018FFDF2002F015FF2B20CB
:1041600002F01EFF002002F00FFF002002F00CFF03
:10417000032002F009FF1F2002F006FF3A2002F0A0
:104180000FFF552002F000FF362002F009FF00204B
:1041900002F0FAFE112002F003FF7820FFF7E2F9A7
:1041A000292002F0FDFE1420FFF7DCF92C2002F09C
:1041B000F7FE10BD10B5ED2002F0F2FE012002F076
:1041C000E3FEFE2002F0E0FEEE2002F0E9FEDE203B
:1041D00002F0DAFE212002F0D7FEF12002F0E0FE2C
:1041E000012002F0D1FEDF2002F0DAFE102002F002
:1041F000CBFEC42002F0D4FE8F2002F0C5FEC62004
:1042000002F0CEFE002002F0BFFEE22002F0BCFE73
:10421000E22002F0B9FEE22002F0B6FEBF2002F07A
:10422000BFFEAA2002F0B0FEB02002F0B9FE0D20C1
:1042300002F0AAFE002002F0A7FE0D2002F0A4FE6C
:10424000002002F0A1FE112002F09EFE002002F0EC
:104250009BFE192002F098FE002002F095FE21201E
:1042600002F092FE002002F08FFE2D2002F08CFE64
:10427000002002F089FE3D2002F086FE002002F0C0
:1042800083FE5D2002F080FE002002F07DFE5D20B6
:1042900002F07AFE002002F077FEB12002F080FEEC
:1042A000802002F071FE002002F06EFE8B2002F0F2
:1042B0006BFE002002F068FE962002F065FE0020F2
:1042C00002F062FEB22002F06BFE002002F05CFE03
:1042D000002002F059FE022002F056FE002002F0FB
:1042E00053FE032002F050FE002002F04DFEB320EA
:1042F00002F056FE002002F047FE002002F044FECD
:10430000002002F041FE002002F03EFE002002F0FC
:104310003BFE002002F038FE002002F035FE0020B7
:1043200002F032FE002002F02FFE002002F02CFEF0
:10433000002002F029FE002002F026FE002002F0FC
:1043400023FE002002F020FE002002F01DFE0020CF
:1043500002F01AFE002002F017FE002002F014FE08
:10436000002002F011FE002002F00EFE002002F0FC
:104370000BFE002002F008FE002002F005FE0020E7
:1043800002F002FEB42002F00BFE8B2002F0FCFDD6
:10439000002002F0F9FD962002F0F6FD002002F068
:1043A000F3FDA12002F0F0FD002002F0EDFDB520AC
:1043B00002F0F6FD022002F0E7FD002002F0E4FD2D
:1043C000032002F0E1FD002002F0DEFD042002F0F7
:1043D000DBFD002002F0D8FDB62002F0E1FD002058
:1043E00002F0D2FD002002F0CFFDB72002F0D8FD90
:1043F000002002F0C9FD002002F0C6FD3F2002F0BF
:10440000C3FD002002F0C0FD5E2002F0BDFD0020D3
:1044100002F0BAFD642002F0B7FD002002F0B4FD06
:104420008C2002F0B1FD002002F0AEFDAC2002F0C5
:10443000ABFD002002F0A8FDDC2002F0A5FD00206D
:1044400002F0A2FD702002F09FFD002002F09CFD12
:10445000902002F099FD002002F096FDEB2002F082
:1044600093FD002002F090FDDC2002F08DFD002085
:1044700002F08AFDB82002F093FD002002F084FDD6
:10448000002002F081FD002002F07EFD002002F0FD
:104490007BFD002002F078FD002002F075FD002079
:1044A00002F072FD002002F06FFDBA2002F078FDEC
:1044B000242002F069FD002002F066FD002002F0D9
:1044C00063FD002002F060FDC12002F069FD2020A4
:1044D00002F05AFD002002F057FD542002F054FD76
:1044E000002002F051FDFF2002F04EFD002002F0FE
:1044F0004BFDC22002F054FD0A2002F045FD0020D1
:1045000002F042FD042002F03FFD002002F03CFDDD
:10451000C32002F045FD3C2002F036FD002002F0F1
:1045200033FD3A2002F030FD002002F02DFD39204D
:1045300002F02AFD002002F027FD372002F024FDC2
:10454000002002F021FD3C2002F01EFD002002F0C0
:104550001BFD362002F018FD002002F015FD322070
:1045600002F012FD002002F00FFD2F2002F00CFDE2
:10457000002002F009FD2C2002F006FD002002F0D0
:1045800003FD292002F000FD002002F0FDFC2620A2
:1045900002F0FAFC002002F0F7FC242002F0F4FC08
:1045A000002002F0F1FC242002F0EEFC002002F0DA
:1045B000EBFC232002F0E8FC002002F0E5FC3C20AC
:1045C00002F0E2FC002002F0DFFC362002F0DCFC0E
:1045D000002002F0D9FC322002F0D6FC002002F0CC
:1045E000D3FC2F2002F0D0FC002002F0CDFC2C20C8
:1045F00002F0CAFC002002F0C7FC292002F0C4FC33
:10460000002002F0C1FC262002F0BEFC002002F0D7
:10461000BBFC242002F0B8FC002002F0B5FC2420F2
:1046200002F0B2FC002002F0AFFC232002F0ACFC50
:10463000002002F0A9FCC42002F0B2FC622002F0CB
:10464000A3FC002002F0A0FC052002F09DFC00204D
:1046500002F09AFC842002F097FC002002F094FC07
:10466000F02002F091FC002002F08EFC182002F0F5
:104670008BFC002002F088FCA42002F085FC0020C6
:1046800002F082FC182002F07FFC002002F07CFC8B
:10469000502002F079FC002002F076FC0C2002F0A1
:1046A00073FC002002F070FC172002F06DFC00206B
:1046B00002F06AFC952002F067FC002002F064FC26
:1046C000F32002F061FC002002F05EFCE62002F024
:1046D0005BFC002002F058FCC52002F061FC322097
:1046E00002F052FC002002F04FFC442002F04CFC8F
:1046F000002002F049FC652002F046FC002002F098
:1047000043FC762002F040FC002002F03DFC8820B3
:1047100002F03AFC002002F037FCC62002F040FC18
:10472000202002F031FC002002F02EFC172002F0C5
:104730002BFC002002F028FC012002F025FC0020C8
:1047400002F022FCC72002F02BFC002002F01CFC2F
:10475000002002F019FC002002F016FC002002F0FC
:1047600013FCC82002F01CFC002002F00DFC00200D
:1047700002F00AFC002002F007FC002002F004FC1A
:10478000C92002F00DFC002002F0FEFB002002F028
:10479000FBFB002002F0F8FB002002F0F5FB0020FC
:1047A00002F0F2FB002002F0EFFB002002F0ECFB35
:1047B000002002F0E9FB002002F0E6FB002002F0FE
:1047C000E3FB002002F0E0FB002002F0DDFB002014
:1047D00002F0DAFB002002F0D7FB002002F0D4FB4D
:1047E000002002F0D1FBE02002F0DAFB162002F0FC
:1047F000CBFB002002F0C8FB1C2002F0C5FB002010
:1048000002F0C2FB212002F0BFFB002002F0BCFB43
:10481000362002F0B9FB002002F0B6FB462002F081
:10482000B3FB002002F0B0FB522002F0ADFB0020F1
:1048300002F0AAFB642002F0A7FB002002F0A4FB18
:104840007A2002F0A1FB002002F09EFB8B2002F0F8
:104850009BFB002002F098FB992002F095FB0020C2
:1048600002F092FBA82002F08FFB002002F08CFBEC
:10487000B92002F089FB002002F086FBC42002F080
:1048800083FB002002F080FBCA2002F07DFB0020A9
:1048900002F07AFBD22002F077FB002002F074FBDA
:1048A000D92002F071FB002002F06EFBE02002F044
:1048B0006BFB002002F068FBF32002F065FB002098
:1048C00002F062FBE12002F06BFB162002F05CFBC1
:1048D000002002F059FB1C2002F056FB002002F0E1
:1048E00053FB222002F050FB002002F04DFB36204B
:1048F00002F04AFB002002F047FB452002F044FB97
:10490000002002F041FB522002F03EFB002002F0AA
:104910003BFB642002F038FB002002F035FB7A20DC
:1049200002F032FB002002F02FFB8B2002F02CFB68
:10493000002002F029FB992002F026FB002002F063
:1049400023FBA82002F020FB002002F01DFBB92071
:1049500002F01AFB002002F017FBC42002F014FB47
:10496000002002F011FBCA2002F00EFB002002F032
:104970000BFBD22002F008FB002002F005FBD82040
:1049800002F002FB002002F0FFFAE02002F0FCFA45
:10499000002002F0F9FAF32002F0F6FA002002F00B
:1049A000F3FAE22002F0FCFA052002F0EDFA002012
:1049B00002F0EAFA0B2002F0E7FA002002F0E4FA33
:1049C0001B2002F0E1FA002002F0DEFA342002F0AF
:1049D000DBFA002002F0D8FA442002F0D5FA0020D9
:1049E00002F0D2FA4F2002F0CFFA002002F0CCFA07
:1049F000612002F0C9FA002002F0C6FA792002F024
:104A0000C3FA002002F0C0FA882002F0BDFA0020AC
:104A100002F0BAFA972002F0B7FA002002F0B4FAD6
:104A2000A62002F0B1FA002002F0AEFAB72002F0A0
:104A3000ABFA002002F0A8FAC22002F0A5FA00208A
:104A400002F0A2FAC72002F09FFA002002F09CFABE
:104A5000D12002F099FA002002F096FAD62002F056
:104A600093FA002002F090FADD2002F08DFA002087
:104A700002F08AFAF32002F087FA002002F084FAAA
:104A8000E32002F08DFA052002F07EFA002002F009
:104A90007BFA0A2002F078FA002002F075FA1C2056
:104AA00002F072FA002002F06FFA332002F06CFA82
:104AB000002002F069FA442002F066FA002002F0B9
:104AC00063FA502002F060FA002002F05DFA6220E2
:104AD00002F05AFA002002F057FA782002F054FA55
:104AE000002002F051FA882002F04EFA002002F075
:104AF0004BFA972002F048FA002002F045FAA6206F
:104B000002F042FA002002F03FFAB72002F03CFA2D
:104B1000002002F039FAC22002F036FA002002F03A
:104B200033FAC72002F030FA002002F02DFAD1202B
:104B300002F02AFA002002F027FAD52002F024FA27
:104B4000002002F021FADD2002F01EFA002002F01F
:104B50001BFAF32002F018FA002002F015FAE42004
:104B600002F01EFA012002F00FFA002002F00CFA07
:104B7000012002F009FA002002F006FA022002F0F9
:104B800003FA002002F000FA2A2002F0FDF90020CA
:104B900002F0FAF93C2002F0F7F9002002F0F4F9F3
:104BA0004B2002F0F1F9002002F0EEF95D2002F056
:104BB000EBF9002002F0E8F9742002F0E5F900209A
:104BC00002F0E2F9842002F0DFF9002002F0DCF9C3
:104BD000932002F0D9F9002002F0D6F9A22002F0C9
:104BE000D3F9002002F0D0F9B32002F0CDF9002073
:104BF00002F0CAF9BE2002F0C7F9002002F0C4F9A1
:104C0000C42002F0C1F9002002F0BEF9CD2002F06C
:104C1000BBF9002002F0B8F9D32002F0B5F900206A
:104C200002F0B2F9DD2002F0AFF9002002F0ACF999
:104C3000F32002F0A9F9002002F0A6F9E52002F025
:104C4000AFF9002002F0A0F9002002F09DF9002049
:104C500002F09AF9002002F097F9022002F094F98C
:104C6000002002F091F9292002F08EF9002002F0D4
:104C70008BF93C2002F088F9002002F085F94B20E6
:104C800002F082F9002002F07FF95D2002F07CF949
:104C9000002002F079F9742002F076F9002002F089
:104CA00073F9842002F070F9002002F06DF993206E
:104CB00002F06AF9002002F067F9A22002F064F91C
:104CC000002002F061F9B32002F05EF9002002F04A
:104CD0005BF9BE2002F058F9002002F055F9C4201B
:104CE00002F052F9002002F04FF9CD2002F04CF909
:104CF000002002F049F9D32002F046F9002002F02A
:104D000043F9DC2002F040F9002002F03DF9F320E5
:104D100002F03AF9002002F037F9E62002F040F9FB
:104D2000112002F031F9002002F02EF9342002F0B7
:104D30002BF9002002F028F9562002F025F9002076
:104D400002F022F9762002F01FF9002002F01CF98F
:104D5000772002F019F9002002F016F9662002F01F
:104D600013F9002002F010F9882002F00DF900205C
:104D700002F00AF9992002F007F9002002F004F984
:104D8000BB2002F001F9002002F0FEF8992002F0A9
:104D9000FBF8002002F0F8F8662002F0F5F8002099
:104DA00002F0F2F8552002F0EFF8002002F0ECF8E3
:104DB000552002F0E9F8002002F0E6F8452002F064
:104DC000E3F8002002F0E0F8432002F0DDF80020D4
:104DD00002F0DAF8442002F0D7F8002002F0D4F80C
:104DE000E72002F0DDF8322002F0CEF8002002F0D9
:104DF000CBF8552002F0C8F8002002F0C5F8762064
:104E000002F0C2F8002002F0BFF8662002F0BCF801
:104E1000002002F0B9F8672002F0B6F8002002F096
:104E2000B3F8672002F0B0F8002002F0ADF8872058
:104E300002F0AAF8002002F0A7F8992002F0A4F8E6
:104E4000002002F0A1F8BB2002F09EF8002002F042
:104E50009BF8992002F098F8002002F095F877204E
:104E600002F092F8002002F08FF8442002F08CF853
:104E7000002002F089F8562002F086F8002002F0A7
:104E800083F8232002F080F8002002F07DF8332020
:104E900002F07AF8002002F077F8452002F074F86A
:104EA000002002F071F8E82002F07AF8002002F009
:104EB0006BF8002002F068F8992002F065F80020F5
:104EC00002F062F8872002F05FF8002002F05CF840
:104ED000882002F059F8002002F056F8772002F0FE
:104EE00053F8002002F050F8662002F04DF8002040
:104EF00002F04AF8882002F047F8002002F044F857
:104F0000AA2002F041F8002002F03EF8BB2002F097
:104F10003BF8002002F038F8992002F035F8002024
:104F200002F032F8662002F02FF8002002F02CF890
:104F3000552002F029F8002002F026F8552002F052
:104F400023F8002002F020F8442002F01DF8002091
:104F500002F01AF8442002F017F8002002F014F8CA
:104F6000552002F011F8002002F00EF8E92002F0BE
:104F700017F8AA2002F008F8002002F005F8002037
:104F800002F002F8002001F0FFFF002002F008F814
:104F9000AA2001F0F9FFCF2002F002F8002001F072
:104FA000F3FF002001F0F0FF002001F0EDFF0020F2
:104FB00001F0EAFF002001F0E7FF002001F0E4FF2C
:104FC000002001F0E1FF002001F0DEFF002001F0F1
:104FD000DBFF002001F0D8FF002001F0D5FF00200A
:104FE00001F0D2FF002001F0CFFF002001F0CCFF44
:104FF000002001F0C9FF002001F0C6FF002001F0F1
:10500000C3FFF02001F0CCFF002001F0BDFF5020D5
:1050100001F0BAFF002001F0B7FF002001F0B4FF5B
:10502000002001F0B1FFF32001F0BAFF002001F0F1
:10503000ABFFF92001F0B4FF062001F0A5FF10201E
:1050400001F0A2FF292001F09FFF002001F09CFF4A
:105050003A2001F0A5FF552001F096FF112001F044
:105060009FFF6420FEF77EFA292001F099FF35208A
:1050700001F096FF002001F087FF512001F090FF22
:10508000FF2001F081FF532001F08AFF2C2001F066
:105090007BFF552001F084FF822001F075FF2C205A
:1050A00001F07EFF10BD10B555214FF4704001F0A6
:1050B0008DFFAA214FF2010001F088FF52214FF22B
:1050C000020001F083FF08214FF2030001F07EFF90
:1050D00001214FF2040001F079FF0D214FF430401F
:1050E00001F074FF0D214BF2010001F06FFF0D2163
:1050F0004BF2020001F06AFF34214FF4364001F018
:1051000065FF34214BF2016001F060FF34214BF266
:10511000026001F05BFF0D214FF4314001F056FFBA
:105120000D214BF2011001F051FF0D214BF2021045
:1051300001F04CFF34214FF4374001F047FF342198
:105140004BF2017001F042FF34214BF2027001F08A
:105150003DFF00214FF4324001F038FF00214BF2B7
:10516000012001F033FF00214BF2022001F02EFF5D
:1051700024214FF4384001F029FF24214BF601008F
:1051800001F024FF24214BF6020001F01FFF012152
:105190004FF43F4001F01AFF0F214FF4334001F06C
:1051A00015FF0F214BF2013001F010FF0F214BF2E0
:1051B000023001F00BFF34214FF4394001F006FFBB
:1051C00034214BF6011001F001FF34214BF602109F
:1051D00001F0FCFE08214FF4354001F0F7FE0821F4
:1051E0004BF2015001F0F2FE08214BF2025001F0A7
:1051F000EDFE03214FF4424001F0E8FE24214FF47C
:105200003A4001F0E3FE24214BF6012001F0DEFEDE
:1052100024214BF6022001F0D9FE00214FF43C403E
:1052200001F0D4FE78214BF6014001F0CFFE0021C1
:105230004BF6024001F0CAFE00214FF43D4001F060
:10524000C5FE78214BF6015001F0C0FE00214BF65F
:10525000025001F0BBFE00214FF43E4001F0B6FECB
:1052600064214BF6016001F0B1FE00214FF4514082
:1052700001F0ACFE33214DF2011001F0A7FE002138
:105280004DF2021001F0A2FE34214DF2031001F0A4
:105290009DFE00214DF2041001F098FE3A214DF2DE
:1052A000051001F093FE00214DF2061001F08EFE74
:1052B0004A214DF2071001F089FE00214DF208103D
:1052C00001F084FE5C214DF2091001F07FFE002107
:1052D0004DF20A1001F07AFE81214DF20B1001F01F
:1052E00075FE00214DF20C1001F070FEA6214DF26A
:1052F0000D1001F06BFE00214DF20E1001F066FE64
:10530000E5214DF20F1001F061FE01214DF2101068
:1053100001F05CFE13214DF2111001F057FE012146
:105320004DF2121001F052FE54214DF2131001F013
:105330004DFE01214DF2141001F048FE82214DF284
:10534000151001F043FE01214DF2161001F03EFE52
:10535000CA214DF2171001F039FE02214DF218104A
:1053600001F034FE00214DF2191001F02FFE022150
:105370004DF21A1001F02AFE01214DF21B1001F02E
:1053800025FE02214DF21C1001F020FE34214DF2C9
:105390001D1001F01BFE02214DF21E1001F016FE41
:1053A00067214DF21F1001F011FE02214DF2201075
:1053B00001F00CFE84214DF2211001F007FE0221C4
:1053C0004DF2221001F002FEA4214DF2231001F053
:1053D000FDFD02214DF2241001F0F8FDB7214DF240
:1053E000251001F0F3FD02214DF2261001F0EEFD33
:1053F000CF214DF2271001F0E9FD02214DF22810D6
:1054000001F0E4FDDE214DF2291001F0DFFD022163
:105410004DF22A1001F0DAFDF2214DF22B1001F0CD
:10542000D5FD02214DF22C1001F0D0FDFE214DF2F0
:105430002D1001F0CBFD03214DF22E1001F0C6FD21
:1054400010214DF22F1001F0C1FD03214DF230105B
:1054500001F0BCFD33214DF2311001F0B7FD032105
:105460004DF2321001F0B2FD6D214DF2331001F01A
:10547000ADFD00214FF4524001F0A8FD33214DF263
:10548000012001F0A3FD00214DF2022001F09EFD5C
:1054900034214DF2032001F099FD00214DF204204A
:1054A00001F094FD3A214DF2052001F08FFD00211D
:1054B0004DF2062001F08AFD4A214DF2072001F04D
:1054C00085FD00214DF2082001F080FD5C214DF2A8
:1054D000092001F07BFD00214DF20A2001F076FD4C
:1054E00081214DF20B2001F071FD00214DF20C20C5
:1054F00001F06CFDA6214DF20D2001F067FD0021A9
:105500004DF20E2001F062FDE5214DF20F2001F079
:105510005DFD01214DF2102001F058FD13214DF2E7
:10552000112001F053FD01214DF2122001F04EFD3A
:1055300054214DF2132001F049FD01214DF21420B8
:1055400001F044FD82214DF2152001F03FFD0121C3
:105550004DF2162001F03AFDCA214DF2172001F05C
:1055600035FD02214DF2182001F030FD00214DF2F1
:10557000192001F02BFD02214DF21A2001F026FD29
:1055800001214DF21B2001F021FD02214DF21C20D2
:1055900001F01CFD34214DF21D2001F017FD022108
:1055A0004DF21E2001F012FD67214DF21F2001F087
:1055B0000DFD02214DF2202001F008FD84214DF265
:1055C000212001F003FD02214DF2222001F0FEFC1A
:1055D000A4214DF2232001F0F9FC02214DF22420F8
:1055E00001F0F4FCB7214DF2252001F0EFFC02217F
:1055F0004DF2262001F0EAFCCF214DF2272001F0E8
:10560000E5FC02214DF2282001F0E0FCDE214DF204
:10561000292001F0DBFC02214DF22A2001F0D6FC0A
:10562000F2214DF22B2001F0D1FC02214DF22C2071
:1056300001F0CCFCFE214DF22D2001F0C7FC03212E
:105640004DF22E2001F0C2FC10214DF22F2001F06E
:10565000BDFC03214DF2302001F0B8FC33214DF2A6
:10566000312001F0B3FC03214DF2322001F0AEFCF9
:105670006D214DF2332001F0A9FC00214FF453407D
:1056800001F0A4FC33214DF2013001F09FFC002118
:105690004DF2023001F09AFC34214DF2033001F05A
:1056A00095FC00214DF2043001F090FC3A214DF2BE
:1056B000053001F08BFC00214DF2063001F086FC34
:1056C0004A214DF2073001F081FC00214DF20830F3
:1056D00001F07CFC5C214DF2093001F077FC0021E7
:1056E0004DF20A3001F072FC81214DF20B3001F0D5
:1056F0006DFC00214DF20C3001F068FCA6214DF24A
:105700000D3001F063FC00214DF20E3001F05EFC23
:10571000E5214DF20F3001F059FC01214DF210301E
:1057200001F054FC13214DF2113001F04FFC012126
:105730004DF2123001F04AFC54214DF2133001F0C9
:1057400045FC01214DF2143001F040FC82214DF264
:10575000153001F03BFC01214DF2163001F036FC12
:10576000CA214DF2173001F031FC02214DF2183000
:1057700001F02CFC00214DF2193001F027FC022130
:105780004DF21A3001F022FC01214DF21B3001F0E4
:105790001DFC02214DF21C3001F018FC34214DF2A9
:1057A0001D3001F013FC02214DF21E3001F00EFC01
:1057B00067214DF21F3001F009FC02214DF220302B
:1057C00001F004FC84214DF2213001F0FFFB0221A5
:1057D0004DF2223001F0FAFBA4214DF2233001F00A
:1057E000F5FB02214DF2243001F0F0FBB7214DF220
:1057F000253001F0EBFB02214DF2263001F0E6FBF3
:10580000CF214DF2273001F0E1FB02214DF228308B
:1058100001F0DCFBDE214DF2293001F0D7FB022143
:105820004DF22A3001F0D2FBF2214DF22B3001F083
:10583000CDFB02214DF22C3001F0C8FBFE214DF2D0
:105840002D3001F0C3FB03214DF22E3001F0BEFBE1
:1058500010214DF22F3001F0B9FB03214DF2303011
:1058600001F0B4FB33214DF2313001F0AFFB0321E5
:105870004DF2323001F0AAFB6D214DF2333001F0D0
:10588000A5FB00214FF4544001F0A0FB33214DF261
:10589000014001F09BFB00214DF2024001F096FB1C
:1058A00034214DF2034001F091FB00214DF2044000
:1058B00001F08CFB3A214DF2054001F087FB0021FD
:1058C0004DF2064001F082FB4A214DF2074001F003
:1058D0007DFB00214DF2084001F078FB5C214DF288
:1058E000094001F073FB00214DF20A4001F06EFB0C
:1058F00081214DF20B4001F069FB00214DF20C407B
:1059000001F064FBA6214DF20D4001F05FFB002188
:105910004DF20E4001F05AFBE5214DF20F4001F02F
:1059200055FB01214DF2104001F050FB13214DF2C7
:10593000114001F04BFB01214DF2124001F046FBFA
:1059400054214DF2134001F041FB01214DF214406E
:1059500001F03CFB82214DF2154001F037FB0121A3
:105960004DF2164001F032FBCA214DF2174001F012
:105970002DFB02214DF2184001F028FB00214DF2D1
:10598000194001F023FB02214DF21A4001F01EFBE9
:1059900001214DF21B4001F019FB02214DF21C4088
:1059A00001F014FB34214DF21D4001F00FFB0221E8
:1059B0004DF21E4001F00AFB67214DF21F4001F03D
:1059C00005FB02214DF2204001F000FB84214DF245
:1059D000214001F0FBFA02214DF2224001F0F6FADB
:1059E000A4214DF2234001F0F1FA02214DF22440AE
:1059F00001F0ECFAB7214DF2254001F0E7FA02215F
:105A00004DF2264001F0E2FACF214DF2274001F09D
:105A1000DDFA02214DF2284001F0D8FADE214DF2E4
:105A2000294001F0D3FA02214DF22A4001F0CEFACA
:105A3000F2214DF22B4001F0C9FA02214DF22C4027
:105A400001F0C4FAFE214DF22D4001F0BFFA03210E
:105A50004DF22E4001F0BAFA10214DF22F4001F024
:105A6000B5FA03214DF2304001F0B0FA33214DF286
:105A7000314001F0ABFA03214DF2324001F0A6FAB9
:105A80006D214DF2334001F0A1FA00214FF4554051
:105A900001F09CFA33214DF2015001F097FA0021F8
:105AA0004DF2025001F092FA34214DF2035001F010
:105AB0008DFA00214DF2045001F088FA3A214DF29E
:105AC000055001F083FA00214DF2065001F07EFAF4
:105AD0004A214DF2075001F079FA00214DF20850A9
