:020000040800F2
:10000000A01A0020310200080F2100080721000873
:100010000B210008110800083D2500080000000021
:100020000000000000000000000000001321000894
:100030004B090008000000001121000815210008EC
:100040005502000855020008550200085502000834
:100050005502000855020008550200085502000824
:100060005502000855020008550200085502000814
:100070005502000855020008550200085502000804
:1000800055020008550200085502000855020008F4
:1000900055020008550200085502000855020008E4
:1000A00055020008550200085502000855020008D4
:1000B00055020008550200085502000855020008C4
:1000C00055020008550200085502000855020008B4
:1000D000550200082D2500085502000855020008A9
:1000E0005502000855020008550200085502000894
:1000F0005502000855020008550200085502000884
:100100005502000855020008550200085502000873
:100110005502000855020008550200085502000863
:100120005502000855020008550200085502000853
:10013000150800085502000855020008550200087D
:100140005502000855020008550200085502000833
:100150005502000855020008550200085502000823
:100160005502000855020008550200085502000813
:100170005502000855020008550200080000000062
:10018000550200085502000800F002F800F041F89E
:100190000AA090E8000C82448344AAF10107DA45E2
:1001A00001D100F036F8AFF2090EBAE80F0013F0F3
:1001B000010F18BFFB1A43F001031847D492000047
:1001C000F4920000103A24BF78C878C1FAD85207D8
:1001D00024BF30C830C144BF04680C6070470000C1
:1001E0000023002400250026103A28BF78C1FBD840
:1001F000520728BF30C148BF0B607047782900F014
:10020000F580002070471FB506F053F91FBD10B5EB
:1002100010BD00F0C9F91146FFF7F5FF05F0D6FD56
:1002200000F0E7F903B4FFF7F2FF03BC02F0A4F912
:100230000C48016841F4700101600B4880470B488D
:100240000047FEE7FEE7FEE7FEE7FEE7FEE7FEE724
:10025000FEE7FEE7FEE7000005480649044A064BB4
:100260007047000088ED00E01D21000889010008AA
:10027000A0160020A01A0020A0160020704753EA04
:10028000020C00F069802DE9F04B4FF00006002BC6
:100290001FBFB3FA83F503FA05F424FA05F65E40AE
:1002A00012BF1643B2FA82F502FA05F4C5F1200531
:1002B0001EBF22FA05FC44EA0C04203556EA044C21
:1002C0004FEA144418BF641C4FF000084FF00009B7
:1002D000904271EB030C39D3002919BFB1FA81F7B1
:1002E00001FA07F6B0FA80F700FA07F6C7F120071F
:1002F0001EBF20FA07FC46EA0C062037B6FBF4FCCA
:10030000A7EB0507103F07F01F0BCBF120060CFAF7
:100310000BFB2CFA06F644BFB3460026202FA4BFE1
:100320005E464FF0000B5BEA060C08BF4FF0010B76
:1003300019EB0B09ABFB027C48EB0608C01B06FB64
:1003400002CC0BFB03CC71EB0C01C1E70B46024660
:1003500041464846BDE8F08B13B54FF000004FF022
:100360000001AFF30080BDE81C4070470FB40449A2
:1003700010B503AA029800F0E9F810BC5DF814FB70
:10038000080000202DE9F0410E46044600202062BE
:100390002046E168884730B3252805D0D4E90121FB
:1003A0009047206A401CF2E7E16820460027884712
:1003B000050018D0A5F14100192802D820354FF4C6
:1003C00000673246294620462760FFF717FF40B1F5
:1003D000012804D0F61D26F007060836D8E7361D9A
:1003E000D6E72846DAE7206ABDE8F08170B5044612
:1003F0000D4621461068AFF300802188090502D51B
:100400000F4A7A4402E00E4A7A440E32002104F187
:10041000240305E000F00F060009965D5E54491CB8
:100420000028F7D120780023000704D5702D02D0D2
:1004300009B1022311322046BDE8704000F02DB80A
:10044000609000004FF0000200B5134694469646B7
:10045000203922BFA0E80C50A0E80C50B1F12001D7
:10046000BFF4F7AF090728BFA0E80C5048BF0CC085
:100470005DF804EB890028BF40F8042B08BF7047E3
:1004800048BF20F8022B11F0804F18BF00F8012B55
:10049000704770477047704770472DE9F0470D4629
:1004A00099469246044600F124080168880604D55E
:1004B000E06921F01001216000E00120A84201DD87
:1004C000471B00E00027A1697A1902EB0900081A0E
:1004D000A0612078C00602D42046AFF30080002639
:1004E00008E0D4E901211AF806009047206A401C70
:1004F000761C20624E45F4DB2078C0060AD52046E3
:10050000AFF3008006E0D4E9012130209047206A53
:10051000401C2062381EA7F10107F4DC07E0D4E993
:10052000012118F805009047206A401C2062281E0F
:10053000A5F10105F3DC2046AFF30080207800062A
:1005400002D50220BDE8F0870120FBE7074B70B51C
:100550000D467B4400F011F80446284600F020F8D0
:1005600010B14FF0FF3070BD204670BDE321000098
:1005700001694A1C02610878704700B58FB0CDE967
:1005800001310021059105497944CDE90310114657
:100590006846FFF7F7FE0FB000BD0000E5FFFFFF64
:1005A000007B00F080007047754600F029F8AE46E9
:1005B00005006946534620F00700854618B020B56F
:1005C000FFF74AFEBDE820404FF000064FF000075D
:1005D0004FF000084FF0000B21F00701AC46ACE8EB
:1005E000C009ACE8C009ACE8C009ACE8C0098D4658
:1005F00070470446AFF300802046FFF713FE00006B
:10060000004870473C16002070B50546AC6B206C66
:1006100000F0500050BB206C40F400702064206853
:10062000806800F04050E8B9207ED8B92068C06AE0
:1006300000F4700020B12068806800F4806088B900
:100640002068406820F0200021684860206C20F479
:1006500080702064206C00F4805018B9206C40F049
:1006600001002064204600F0ABFA0BE0206C00F0A3
:10067000100018B1204600F0A5FA03E0A06BC16C91
:100680002846884770BD70B50546AC6B4020206495
:10069000606C40F004006064204600F093FA70BD86
:1006A00070B50446A56B284600F08BFA70BD0000BB
:1006B00055494A6822F440324A604A6843681A43FE
:1006C0004A600268526822F4807203685A600268C5
:1006D0005368026943EA022203685A60026852685A
:1006E00022F0407203685A600268526883681A43B5
:1006F00003685A600268926822F4006203689A6094
:1007000002689268C3681A4303689A603F4B826A22
:100710009A4218D00268926822F0706203689A6068
:1007200002689268836A1A4303689A600268926852
:1007300022F0405203689A6002689268C36A1A43C2
:1007400003689A600BE00268926822F070620368A6
:100750009A600268926822F0405203689A600268C8
:10076000926822F0020203689A6002689368027E2F
:1007700043EA420203689A602022125CA2B1026836
:10078000526842F4006203685A600268526822F4B8
:10079000604203685A6002685368426A521E43EA24
:1007A000423203685A6005E00268526822F400622F
:1007B00003685A600268D26A22F470020368DA623F
:1007C0000268D36A828B521E43EA02520368DA62DD
:1007D0000268926822F4007203689A600268936863
:1007E00090F8302043EA422203689A6002689268D7
:1007F00022F4806203689A6002689368426943EA5F
:10080000822203689A607047002301400100000FB4
:1008100000BFFEE70848006800F0200050B101204A
:100820000649087004480830006840F0200002497A
:100830000831086070470000046402402400002072
:100840000146087810381823B0FBF3F20848805CA2
:10085000C865032A05D908686FF30900001D88657B
:1008600003E008686FF309008865886D7047000031
:10087000DE640008014600208A6A8B69CBB932B178
:10088000012A0DD0022A03D0032A10D10EE000BFA6
:10089000CB6A03F08073B3F1807F00D1012007E0C1
:1008A000CB6AB3F1C07F00D1012001E000E000BFBE
:1008B00034E08B69B3F5005F1AD132B1012A07D059
:1008C000022A03D0032A11D10AE000BF01200EE062
:1008D000CB6A03F08073B3F1807F00D1012006E082
:1008E000CB6AB3F1C07F00D1012000E000BF15E06A
:1008F00032B1012A05D0022A04D0032A0CD103E028
:1009000000BF00BF012008E0CB6A03F08073B3F1A1
:10091000807F00D1012000E000BF00BF704730B5EC
:100920000468246824F4802405682C6004686360EB
:100930008468402C04D10468A2600468E16003E08C
:100940000468A1600468E26030BD704770B5044679
:100950001D460023B5F5804F13D154F822300C48C2
:100960000340D1E9000640EA06108E6840EA0620FE
:100970008E8940EA06408E693043034344F82230B2
:1009800003E06FF0704044F82200002070BD0000CA
:100990000000F0CF10B503460022086853F820206D
:1009A00012480240D1E901042043CC6820430C697D
:1009B00020434C6920438C692043CC6920430C6A56
:1009C00020434C6A20438C6A2043CC6A2043CC6B82
:1009D00020430C6B204302438868082801D142F071
:1009E0004002086843F82020002010BD8000F0FF7E
:1009F00030B503460024501C53F8204004F0404416
:100A0000D1E9000540EA05108D6840EA05208D898E
:100A100040EA0545088A401E45EA0055087D801ECB
:100A200045EA00608D6928430443501C43F8204088
:100A3000002030BD38B502460020009000BF92F87B
:100A40003C00012801D1022038BD012082F83C0081
:100A500000BF0868092816D91068C0680C780A3CDD
:100A600004EB44050724AC40A0431468E0600C7814
:100A70000A3C04EB44048868A0401468E4682043FE
:100A80001468E06013E0106800690C7804EB44051A
:100A90000724AC40A043146820610C7804EB4404A4
:100AA0008868A0401468246920431468206148685D
:100AB000072817D21068406B0C79641E04EB84057C
:100AC0001F24AC40A04314686063088880B20C798E
:100AD000641E04EB8404A0401468646B2043146813
:100AE000606331E048680D2817D21068006B0C79FC
:100AF000E41F04EB84051F24AC40A043146820636A
:100B0000088880B20C79E41F04EB8404A0401468C8
:100B1000246B20431468206316E01068C06A0C79C7
:100B20000D3C04EB84051F24AC40A0431468E06234
:100B3000088880B20C790D3C04EB8404A040146852
:100B4000E46A20431468E062194B1A4C1068A04212
:100B500006D10868122803D1586840F48000586014
:100B6000144C1068A0421CD10868102802D00868F4
:100B7000112816D1586840F4000058600868102801
:100B80000FD10D4800680D4CB0FBF4F000EB800075
:100B90004000009002E00098401E0090009800285D
:100BA000F9D100BF002082F83C0000BF00BF4BE736
:100BB00000230140002001400000002040420F00BF
:100BC000704770477047000070B5044600250CB9A7
:100BD000012070BD1549A06A884200D000BF206C7A
:100BE00030B9204600F024F80020606484F83C000E
:100BF000206C00F0100088B9206C20F4885040F080
:100C0000020020642046FFF753FD00206064206C42
:100C100020F0020040F00100206400E0012500BF48
:100C2000002084F83C0000BF2846D2E70100000FF6
:100C300010B586B0044600BF00BF002000901748E2
:100C4000006840F00100154908600846006800F09F
:100C50000100009000BF00BF00BF00BF00BF002028
:100C600000900E481430006840F480700B49143135
:100C700008600846006800F48070009000BF00BF64
:100C800000BF20200190032002900020039001A9C2
:100C9000034800F00BFA06B010BD000030380240E7
:100CA00000000240F8B504460D46164600200090AC
:100CB00000BF94F83C00012801D10220F8BD0120BA
:100CC00084F83C0000BF2068806800F00100A0B9F3
:100CD0002068806840F001002168886055480068FD
:100CE0005549B0FBF1F000EB4000009002E00098A5
:100CF000401E009000980028F9D12068806800F418
:100D00008070B0F5807F05D12068806820F4807005
:100D1000216888602068806800F0010000287ED08B
:100D2000206C40F20161884340F4807020642068A8
:100D3000406800F4806028B1206C20F4005040F43A
:100D400080502064206C00F48050B0F5805F04D1A6
:100D5000606C20F00600606401E00020606400BF69
:100D6000002084F83C0000BF344F3548A16BC863B5
:100D70003448A16B08643448A16BC8646FF022004A
:100D8000216808602068406840F080602168486001
:100D90002068806840F4807021688860226802F1D1
:100DA0004C0133462A46A06B00F036F9786800F013
:100DB0001F0018BB25492068884213D024492068A9
:100DC000884204D1381D006800F01F0050B121494D
:100DD000206888422BD11948001D006800F01F00D0
:100DE000102824D22068806800F04050F8B92068AC
:100DF000806840F080402168886018E013492068CE
:100E0000884214D12068806800F0405078B920688A
:100E1000806840F080402168886008E0FFE7206C2F
:100E200040F010002064606C40F00100606400201D
:100E300044E700000000002040420F000023014072
:100E400009060008A10600088706000800200140E6
:100E5000002101400022014070B50446A56D00F05C
:100E60003DFA064694F83500022808D080206065D7
:100E700000BF002084F8340000BF012070BD20684E
:100E8000006820F01600216808602068406920F0A2
:100E9000800021684861206C08B9A06C28B12068E6
:100EA000006820F00800216808602068006820F0D1
:100EB0000100216808600FE000F010FA801B05288F
:100EC0000AD92020606500BF002084F8340000BFEC
:100ED000032084F83500D1E72068006800F00100A5
:100EE0000028E9D194F85C103F208840A86000BF3A
:100EF000002084F8340000BF012084F83500002071
:100F0000BCE7014691F83500022803D080204865EF
:100F100001207047052081F835000868006820F03E
:100F200001000A6810600020F3E700002DE9F0419D
:100F30000446002500F0D2F9074614B90120BDE8A7
:100F4000F081606A00B100BF00BF002084F8340067
:100F500000BF022084F835002068006820F00100FE
:100F6000216808600AE000F0B9F9C01B052805D91E
:100F700020206065032084F83500E0E720680068E1
:100F800000F001000028EED12068056821480540E6
:100F9000D4E901010843E168084321690843616914
:100FA0000843A1690843E1690843216A08430543EE
:100FB000606A042803D1D4E90B0108430543206883
:100FC00005602068456925F00705606A0543606A89
:100FD00004280DD1A06A0543E06A48B12046FFF716
:100FE00049FC28B140206065012084F83500A6E75F
:100FF000206845612046FFF723FC064694F85C1004
:101000003F208840B06000206065012084F83500F2
:10101000002094E73F8010F02DE9F04704460D468C
:1010200016461F464FF00008D4F8589000BF94F8B9
:101030003400012802D10220BDE8F087012084F8A5
:10104000340000BF94F83500012825D1022084F82F
:101050003500002060653B46324629462046FFF7B2
:101060005EFC94F85C103F208840C9F808002068B6
:10107000006840F0160021680860206C28B12068E4
:10108000006840F00800216808602068006840F0AF
:1010900001002168086006E000BF002084F83400E9
:1010A00000BF4FF002084046C6E70000F8B5024610
:1010B0000B460025002400200021DEE0012606FA70
:1010C00001F51E6806EA0504AC4275D11E7906F0EA
:1010D0000306012E04D01E7906F00306022E13D15A
:1010E00090684F000326BE40B0434F00DE68BE400C
:1010F00030439060506801268E40B0431E79C6F39D
:1011000000168E40304350601E7906F00306032E11
:1011100009D0D0684F000326BE40B0434F009E6800
:10112000BE403043D0601E7906F00306022E13D174
:10113000CF0802F1200656F827004E07F70E0F26BB
:10114000BE40B0434F07FF0E1E69BE403043CF087C
:1011500002F1200646F8270010684F000326BE4023
:10116000B0431E7906F003064F00BE4030431060C6
:101170005E6806F08056B6F1805F7DD100BF002624
:101180000096404E366846F480463E4F3E603E46EE
:10119000366806F48046009600BF00BF3A4E8F08BE
:1011A00056F827008E07370F0F26BE40B043374E44
:1011B000B24202D1002624E05EE0354EB24201D1B7
:1011C00001261EE0334EB24201D1022619E0324E12
:1011D000B24201D1032614E0304EB24201D10426BE
:1011E0000FE02F4EB24201D105260AE02D4EB24249
:1011F00001D1062605E02C4EB24201D1072600E0BF
:1012000008268F073F0FBE4030431F4E8F0846F819
:101210002700264E3068A0435E6806F48036B6F597
:10122000803F00D12043214E3060361D3068A043FE
:101230005E6806F40036B6F5003F00D120431B4E31
:10124000361D3060361D3068A0435E6806F4801697
:10125000B6F5801F00D12043144E08363060361D8D
:101260003068A0435E6806F40016B6F5001F00D192
:1012700020430E4E0C363060491C1029FFF41EAF7F
:10128000F8BD000044380240083801400000024028
:101290000004024000080240000C0240001002401E
:1012A0000014024000180240001C0240003C0140B3
:1012B00010B5426921EA020302EA010443EA044349
:1012C000836110BD0AB1816101E00B048361704745
:1012D00001480068000C7047002004E001480068E5
:1012E0007047000010000020034800680349097897
:1012F00008440149086070471000002018000020D1
:1013000010B50A48006840F40070084908600846B3
:10131000006840F480600860052000F07FF80F202E
:1013200000F006F800F02AF8002010BD003C024052
:1013300070B504460E4800784FF47A71B1FBF0F0B6
:101340000C490968B1FBF0F5284600F087FC08B1AC
:10135000012070BD102C07D200222146501E00F043
:101360001EF80548046001E00120F2E70020F0E7E4
:1013700018000020000000201400002070470146E3
:101380000846002809DB00F01F0301229A404309A8
:101390009B0003F1E023C3F8002100BF70472DE953
:1013A000F05F80460D461646002701F0C9F8074653
:1013B00039462A46334601F00700C0F1070ABAF160
:1013C000040F02D94FF0040A01E0C0F1070AD14628
:1013D00000F1040ABAF1070F02D24FF0000A01E04F
:1013E000A0F1030AD4464FF0010A0AFA09FAAAF159
:1013F000010A0AEA020A0AFA0CFA4FF0010B0BFA88
:101400000CFBABF1010B0BEA030B4AEA0B04214680
:10141000404601F09DF8BDE8F09F000000BF00F0DD
:101420000702064B19684FF6FF031940044B0B43A4
:1014300043EA0221014B196000BF70470CED00E048
:101440000000FA0570B504460D460CB9012070BDC8
:101450005848006800F00700A84209D255490D70AD
:101460000846006800F00700A84201D00120EEE71E
:10147000207800F0020002281DD1207800F004003E
:10148000042805D14C48006840F4E0504A490860FF
:10149000207800F00800082805D14748006840F48B
:1014A0006040454908604448006820F0F000A168A9
:1014B000084341490860207800F00100A8B3606843
:1014C000012807D13C4808380068C0F34040B8B94B
:1014D0000120BCE76068022802D06068032807D1B9
:1014E000354808380068C0F3406048B90120AEE7CD
:1014F000314808380068C0F3400008B90120A6E769
:101500002D48006820F00300616808432A490860FC
:10151000FFF7E4FE064609E0FFF7E0FE801B41F21C
:101520008831884202D9032091E707E02248006809
:1015300000F00C006168B0EB810FEDD11D48006830
:1015400000F00700A84209D91A490D700846006842
:1015500000F00700A84201D0012078E7207800F0D1
:101560000400042807D11448006820F4E050E16822
:10157000084311490860207800F00800082808D1C5
:101580000D48006820F46040216940EAC1000A4922
:10159000086000F03FF808490968C1F30311074AE1
:1015A000515CC8400649086006480068FFF7C0FE65
:1015B00000204CE7003C024008380240C6640008A6
:1015C000000000201400002001480068704700005F
:1015D0000000002000B5FFF7F7FF04490968C1F3D8
:1015E0008221034A515CC84000BD00000838024017
:1015F000D664000800B5FFF7E7FF04490968C1F3A6
:101600004231034A515CC84000BD00000838024026
:10161000D66400082DE9F047002400250026A146E5
:101620002548006800F00C0020B1042805D00828E7
:101630003AD105E0DFF8849039E0DFF8849036E0B5
:101640001D48001F006800F03F041B48001F006891
:1016500000F4800078B11A481749091F0968C1F3DE
:101660008811A0FB01700146224600233846FEF790
:1016700006FE05460EE011480F49091F0968C1F32F
:101680008811A0FB01700146224600233846FEF770
:10169000F6FD05460848001F0068C0F30140401CE5
:1016A0004600B5FBF6F902E0DFF8109000BF00BF7E
:1016B0004846BDE8F0870000083802400024F400E6
:1016C00000127A00F8B504460CB90120F8BD207864
:1016D00000F00100002874D0F948006800F00C0008
:1016E00004280DD0F648006800F00C00082813D13B
:1016F000F348001F006800F48000B0F5800F0BD1A4
:10170000EF4808380068C0F34040002859D06068AE
:10171000002856D10120D9E700BF6068B0F5803FAE
:1017200008D1E7480838006840F48030E4490839B7
:1017300008601EE06068B0F5A02F0DD1E0480838C1
:10174000006840F48020DE490839086008460068D7
:1017500040F4803008600CE0D9480838006820F474
:101760008030D749083908600846006820F4802096
:10177000086000BF606890B1FFF7B0FD054606E065
:10178000FFF7ACFD401B642801D903209EE7CC483D
:1017900008380068C0F340400028F1D011E0FFF79E
:1017A0009DFD054606E0FFF799FD401B642801D921
:1017B00003208BE7C24808380068C0F34040002887
:1017C000F1D1207800F0020002285FD1BC48006807
:1017D00000F00C0058B1BA48006800F00C0008286E
:1017E0001CD1B748001F006800F48000B0B9B448AD
:1017F00008380068C0F3400020B1E068012801D03B
:10180000012063E7AE480838006820F0F80021693D
:1018100040EAC100AA490839086037E0E06800B32F
:101820000120A8490860FFF759FD054606E0FFF7CB
:1018300055FD401B022801D9032047E7A04808387E
:101840000068C0F340000028F1D09D4808380068C7
:1018500020F0F800216940EAC10099490839086080
:1018600014E0002097490860FFF738FD054606E0C0
:10187000FFF734FD401B022801D9032026E79048DA
:1018800008380068C0F340000028F1D1207800F04B
:10189000080008282CD16069A8B101208A49086095
:1018A000FFF71CFD054606E0FFF718FD401B022868
:1018B00001D903200AE782486C300068C0F3400079
:1018C0000028F1D014E000207F490860FFF706FDF2
:1018D000054606E0FFF702FD401B022801D9032060
:1018E000F4E677486C300068C0F340000028F1D17E
:1018F000207800F00400042870D1002770483830A8
:10190000006800F0805090B900BF002000906C4843
:101910003830006840F08050694938310860084626
:10192000006800F08050009000BF00BF01276748AA
:10193000006800F48070B0B96448006840F48070BA
:1019400062490860FFF7CAFC054606E0FFF7C6FCDF
:10195000401B022801D90320B8E65C48006800F467
:1019600080700028F2D000BFA068012808D1544838
:101970006830006840F001005149683108601DE09E
:10198000A06805280DD14E486830006840F004007A
:101990004B49683108600846006840F00100086063
:1019A0000CE047486830006820F001004449683185
:1019B00008600846006820F00400086000BFA068C6
:1019C000A8B1FFF78BFC054609E0FFF787FC401B39
:1019D00041F28831884202D9032077E626E0384870
:1019E00068300068C0F340000028EED013E0FFF735
:1019F00075FC054608E0FFF771FC401B41F2883199
:101A0000884201D9032061E62D4868300068C0F3A0
:101A100040000028EFD1012F07D129483830006855
:101A200020F0805026493831086000BFA0690028A6
:101A300045D02348006800F00C0008285DD0A0695C
:101A4000022845D100201F490866FFF747FC0546DC
:101A500006E0FFF743FC401B022801D9032035E6CE
:101A6000174808380068C0F340600028F1D1D4E975
:101A700007010843616A40EA81110122A06AC2EBB2
:101A8000500041EA00412C20005D41EA00600C4911
:101A9000091F086001200B490866FFF71FFC054677
:101AA00006E0FFF71BFC401B022801D903200DE6CE
:101AB000034808380068C0F340600028F1D049E0CE
:101AC0000838024000004742800E47420070004044
:101AD000002021490866FFF701FC054606E0FFF7F4
:101AE000FDFB401B022801D90320EFE51B480068DD
:101AF000C0F340600028F2D12CE0A069012800D199
:101B0000E4E51648001D0668A069012820D006F407
:101B10008001E06981421BD106F03F01206A8142C9
:101B200016D147F6C0703040616AB0EB811F0FD10B
:101B300006F440310122A06AC2EB5000B1EB004F25
:101B400006D106F070612C20005DB1EB006F01D072
:101B50000120BBE50020B9E5000047420038024003
:101B600070B504460E4615460CB9012070BD94F8B8
:101B7000490028B9002084F84800204600F01CF8ED
:101B800004F108012068FEF705FF3146A2682068CD
:101B9000FEF72EFF2946236BD4E90102FEF7D6FE9D
:101BA000A168206850F8210040F00100A268216877
:101BB00041F822000020D9E710B586B0044600BFE6
:101BC000002000902248006840F001002049086091
:101BD0000846006800F00100009000BF00BF00BF91
:101BE000002000901A480838006840F008001849A2
:101BF000083908600846006800F00800009000BF3F
:101C000000BF00BF002000900846006840F01000B0
:101C100008600846006800F01000009000BF00BF98
:101C20004CF20370019002200290012003900220E8
:101C300004900C20059001A90648FFF737FA4FF6EB
:101C40008070019001A90448FFF730FA06B010BD7A
:101C500038380240000C02400010024070B50446C3
:101C60002546681EB0F1807F01D301200FE0681E79
:101C70004FF0E02148610F214FF0FF3000F068FC89
:101C800000204FF0E021886107200861002070BD2E
:101C9000704770472DE9F84F0446206805682068B2
:101CA000C668206847694FF00009CA4605F00F0969
:101CB000B9F1000F0AD105F0200038B106F020007C
:101CC00020B1204600F069FABDE8F88FB9F1000FA5
:101CD00072D007F0010018B906F4907000286BD09C
:101CE00005F0010030B106F4807018B1206C40F0AE
:101CF0000100206405F0040030B107F0010018B1C4
:101D0000206C40F00200206405F0020030B107F0C2
:101D1000010018B1206C40F00400206405F00800B8
:101D200048B106F0200010B907F0010018B1206C8E
:101D300040F008002064206C70B305F0200028B14A
:101D400006F0200010B1204600F027FA2068406914
:101D5000C0F3801A206C00F0080010B9BAF1000F2F
:101D600023D0204600F0EEF92068406900F04000E2
:101D7000402816D12068406920F040002168486161
:101D8000A06B50B15648A16B0865A06BFFF7B9F87E
:101D900010B1A06B016D88470CE02046FFF779FF7A
:101DA00008E02046FFF775FF04E02046FFF771FFCB
:101DB0000020206488E7FFE7206B012879D105F037
:101DC0001000002875D006F01000002871D000BF68
:101DD0000020009020680068009020684068009013
:101DE00000BF00BF2068406900F04000402839D1A2
:101DF000A06B006840681FFA80F8B8F1000F30D07F
:101E0000A08D40452DDDA4F82E80A06BC069B0F5F3
:101E1000807F1FD02068C06820F480702168C8606F
:101E20002068406920F0010021684861206840690D
:101E300020F0400021684861202084F83E00002006
:101E400020632068C06820F010002168C860A06B83
:101E5000FFF702F8A08DE28D801A81B22046FFF7CD
:101E600017FF31E7A08DE18D401A1FFA80F8E08D51
:101E7000E8B1B8F1000F1AD02068C06820F4907063
:101E80002168C8602068406920F00100216848612D
:101E9000202084F83E00002020632068C06820F0E5
:101EA00010002168C86041462046FFF7F1FE0BE7AD
:101EB000FFE705F0800030B106F0800018B1204641
:101EC00000F003FB00E705F0400030B106F04000F1
:101ED00018B1204600F051F9F6E600BFF4E6000024
:101EE0003121000810B504460CB9012010BDA069CD
:101EF00000B100E000BF94F83D0028B9002084F84C
:101F00003C00204600F028F8242084F83D0020689A
:101F1000C06820F400502168C860204600F09CF999
:101F20002068006920F490402168086120684069B9
:101F300020F02A00216848612068C06840F4005001
:101F40002168C86000202064202084F83D0084F8C7
:101F50003E000020CAE7000010B586B004462E49B6
:101F60002068884255D100BF00BF002000902B4858
:101F7000006840F01000294908600846006800F039
:101F80001000009000BF00BF00BF00BF00BF0020D6
:101F9000009022481438006840F001001F491439AD
:101FA00008600846006800F00100009000BF00BF14
:101FB00000BF00BF00BF002000900846006840F04E
:101FC000010008600846006800F00100009000BFB2
:101FD00000BF00BF4815019002200290012003902D
:101FE000022004900720059001A90D48FFF75EF834
:101FF0004FF4806001900720059001A90848FFF781
:1020000055F82520FFF7BBF9032211462520FFF7DD
:10201000C6F906B010BD000000100140443802406F
:102020000000024070B504460D46164694F83E0086
:10203000202816D105B10EB9012070BD00BF94F85B
:102040003C00012801D10220F7E7012084F83C0080
:1020500000BF0020206332462946204600F012FAD5
:10206000EBE70220E9E7000010B5044620492068AC
:1020700088423BD11F48008800F4004088BB1D48BF
:10208000008800F4804070B11B4800780A2803D013
:1020900000201849088024E01648008840F40040D9
:1020A000144908801DE0144800780D2806D1114815
:1020B000008840F480400F49088012E00E48007804
:1020C0000C490988C1F30D010C4A50540948008895
:1020D000401C0849088008460088C72801DD002008
:1020E0000880012204490648FFF79CFF10BD00004C
:1020F000001001400C0000200E00002028140020D9
:10210000F0140020704700BFFEE700BFFEE77047F5
:102110007047704710B5FFF7E7F810BD0348006837
:1021200040F47000014908607047000088ED00E04D
:1021300070B50546AC6B0020E085E0842046FFF7D3
:10214000A8FD70BD0168C96821F490710268D16072
:102150000168496921F0010102685161016B01299F
:1021600005D10168C96821F010010268D160202101
:1021700080F83E1000210163704710B504462068C6
:10218000C06820F040002168C860202084F83D002D
:102190002046FFF7B7FF002010BD70B5044694F845
:1021A0003E00222856D1A068B0F5805F0CD120698E
:1021B00050B90025A66A20684068C0F30800308046
:1021C000A06A801CA06215E0A56A0026A068B0F590
:1021D000805F03D0A06828B9206918B920684068DA
:1021E000287004E02068406800F07F002870A06A32
:1021F000401CA062E08D401E80B2E08540BB20689C
:10220000C06820F020002168C8602068C06820F401
:1022100080702168C8602068406920F00100216852
:102220004861202084F83E00206B01280AD12068F4
:10223000C06820F010002168C860A18D2046FFF71B
:1022400027FD02E02046FFF70FFF0020206370BD4E
:102250000020FCE70220FAE72DE9F84F0446206849
:10226000006920F44050E168084321680861216951
:10227000A068084361690843E16908430090206849
:10228000C06849F20C618843009908432168C8601E
:102290002068406920F44070A169084321684861C2
:1022A00076492068884203D075492068884203D166
:1022B000FFF7A0F9814602E0FFF78CF98146E0695B
:1022C000B0F5004F6CD102206168A0FB01500346BD
:1022D0001920A9FB007001462A463846FDF7CFFFBA
:1022E0006421B0FBF1F04FEA001A02206168A0FB04
:1022F00001510B461920A9FB00712A463846FDF70B
:10230000BEFF834602206168A0FB015003461920EE
:10231000A9FB00712A463846FDF7B1FF6421B0FBE6
:10232000F1F000EBC00101EB0010ABEB80003221BB
:1023300001EBC0006421B0FBF1F000F0F8000AEB03
:10234000400A02206168A0FB015003461920A9FB46
:10235000007001462A463846FDF791FF8346022069
:102360006168A0FB015003461920A9FB00712A46B1
:102370003846FDF784FF6421B0FBF1F000EBC001AB
:1023800001EB0010ABEB8000322101EBC0006421B7
:10239000B0FBF1F000F007005044216888606AE06B
:1023A00004206168A0FB015003461920A9FB0070BE
:1023B00001462A463846FDF762FF824604206168DE
:1023C000A0FB015003461920A9FB007001462A46D4
:1023D0003846FDF754FF6421B0FBF1F000EBC0017B
:1023E00001EB0010AAEB8000322101EB0010642108
:1023F000B0FBF1F000F0F00A04206168A0FB01706E
:1024000003461920A9FB00513A462846FDF737FF3D
:102410006421B0FBF1F00AEB001A04206168A0FB14
:1024200001510B461920A9FB00712A463846FDF7D9
:1024300026FF834604206168A0FB01500346192053
:10244000A9FB007001462A463846FDF718FF6421B3
:10245000B0FBF1F000EBC00101EB0010ABEB800032
:10246000322101EB00106421B0FBF1F000F00F000D
:10247000504421688860BDE8F88F000000100140DA
:102480000014014010B5034699629A85DA85002050
:102490001864222083F83E0000BF002083F83C002F
:1024A00000BF1868C06840F480701C68E06018685D
:1024B000406940F001001C6860611868C06840F025
:1024C00020001C68E060002010BD014691F83D002E
:1024D000212828D18868B0F5805F0BD1086948B9F8
:1024E0000A6A1088C0F308000B685860086A801CEC
:1024F000086205E00B6A581C086218780B6858607F
:10250000C88C401E80B2C88458B90868C06820F0E2
:1025100080000B68D8600868C06840F040000B6815
:10252000D860002070470220FCE7000010B5024888
:10253000FFF7B0FB10BD0000F014002000BFFEE765
:1025400002480068C0F30220704700000CED00E074
:1025500010B5002804DB0A07130E054A135406E0E1
:102560000A07140E034A00F00F031B1FD45410BDBA
:1025700000E400E018ED00E000BF704713498968EF
:1025800021F00101114A91601149096821F001010E
:102590000F4A116000BF0E49096801F001010029CE
:1025A000F9D10B49091D0860091F096841F00101B3
:1025B000074A11600549896841F00101034A9160A9
:1025C0001146896841F080419160704700200140C8
:1025D0007064024001B586B0002002900390049020
:1025E000059000BF01903448006840F480003249F3
:1025F00008600846006800F48000019000BF00BF3A
:102600002E482F4908600020486000212C48816036
:10261000C1604FF4806101614900416189008161BD
:102620000021C1614FF480310162FEF77FFC00BFE1
:1026300023482449886308462149886300BF22480B
:10264000204908604FF48030486000211D488160B7
:10265000C160016101210176C161002180F8201073
:1026600041621A4981620021C162012180F8301063
:10267000FEF7AAFA052002900120039000200490A2
:10268000059002A90F48FEF7D5F9032202213C204C
:10269000FEF785FE3C20FEF772FE00230A494C310E
:1026A0000748069AFEF7B8FC002206A90548FEF77F
:1026B000F9FA07B000BD00003038024070640240F3
:1026C00094150020F4150020002001400100000FA7
:1026D00001490860704700000400002010B504465E
:1026E0004FF47A7104FB01F000F002F810BD000015
:1026F00070B5034600224FF0E02675690D4E36682E
:1027000003FB06F44FF0E026B16910E04FF0E0263D
:10271000B06988420BD0884202D20E1A324402E0DD
:102720002E1A0E4432440146A24200D300E0EDE7E7
:1027300000BF70BD0400002000BF054A126802F00F
:102740004002002AF9D0C2B2014B5A607047000023
:102750000010014070B504460026094805884088ED
:1027600045430021084603F0C1F803F0CFFA00BF4B
:1027700002E004480480761CAE42FAD370BD00002B
:10278000841500208000006C10B504465848847100
:10279000002C58D1F020564908804FF4A070488092
:1027A0000846808845F21051884210D14FF43050CD
:1027B0004F4908814FF4285048814FF42C508881AC
:1027C0004FF4F07008804FF4487048801AE0484891
:1027D000808841F6631188420DD12C20444908813C
:1027E0002B2048812A2088814FF4F07008804FF414
:1027F0004870488006E02C203D4908812A20488105
:102800002B2088813A48808845F21031884205D0D3
:102810003748808847F29671884206D14FF4A070FD
:10282000334908804FF4F07048803148808849F679
:102830000601884258D14FF4F0702D4908804FF4BA
:102840004870488050E04FF4A07029490880F0207B
:1028500048800846808845F21051884210D14FF4D4
:102860003050234908814FF4285048814FF42C50B0
:1028700088814FF4487008804FF4F070488020E061
:102880001B48808841F66311884205D0184880882B
:1028900049F6060188420DD12C20154908812A20CD
:1028A00048812B2088814FF4487008804FF4F070E5
:1028B000488006E02C200E4908812A2048812B20E0
:1028C00088810B48808845F21031884205D008483D
:1028D000808847F29671884206D14FF4F07004491F
:1028E00008804FF4A0704880002002F0E1FE10BD87
:1028F0008415002070B505460E461446314628461C
:1029000002F0F4FF03F002FA01490C8070BD0000F0
:102910008000006C10B5CF2003F0ECF9002003F02C
:10292000DDF9C12003F0DAF9302003F0D7F9ED200A
:1029300003F0E0F9642003F0D1F9032003F0CEF9AD
:10294000122003F0CBF9812003F0C8F9E82003F04E
:10295000D1F9852003F0C2F9102003F0BFF97A20E5
:1029600003F0BCF9CB2003F0C5F9392003F0B6F928
:102970002C2003F0B3F9002003F0B0F9342003F069
:10298000ADF9022003F0AAF9F72003F0B3F92020F3
:1029900003F0A4F9EA2003F0ADF9002003F09EF95A
:1029A000002003F09BF9C02003F0A4F91B2003F0E2
:1029B00095F9C12003F09EF9012003F08FF9C5209D
:1029C00003F098F9302003F089F9302003F086F9FC
:1029D000C72003F08FF9B72003F080F9362003F009
:1029E00089F9482003F07AF93A2003F083F9552059
:1029F00003F074F9B12003F07DF9002003F06EF9C3
:102A00001A2003F06BF9B62003F074F90A2003F0E2
:102A100065F9A22003F062F9F22003F06BF90020BF
:102A200003F05CF9262003F065F9012003F056F964
:102A3000E02003F05FF90F2003F050F92A2003F0A3
:102A40004DF9282003F04AF9082003F047F90E2039
:102A500003F044F9082003F041F9542003F03EF953
:102A6000A92003F03BF9432003F038F90A2003F0D2
:102A700035F90F2003F032F9002003F02FF9002080
:102A800003F02CF9002003F029F9002003F026F9C7
:102A9000E12003F02FF9002003F020F9152003F0C6
:102AA0001DF9172003F01AF9072003F017F9112078
:102AB00003F014F9062003F011F92B2003F00EF9AE
:102AC000562003F00BF93C2003F008F9052003F031
:102AD00005F9102003F002F90F2003F0FFF83F2062
:102AE00003F0FCF83F2003F0F9F80F2003F0F6F8AC
:102AF0002B2003F0FFF8002003F0F0F8002003F093
:102B0000EDF8012003F0EAF83F2003F0E7F82A206F
:102B100003F0F0F8002003F0E1F8002003F0DEF805
:102B2000002003F0DBF8EF2003F0D8F8112003F0C9
:102B3000E1F87820FFF7D2FD292003F0DBF810BD83
:102B400010B5FF2003F0D6F8FF2003F0C7F8982057
:102B500003F0C4F8062003F0C1F8BC2003F0CAF863
:102B6000012003F0BBF80F2003F0B8F8612003F058
:102B7000B5F8FF2003F0B2F8012003F0AFF8012010
:102B800003F0ACF80B2003F0A9F8102003F0A6F82E
:102B9000372003F0A3F8632003F0A0F8FF2003F030
:102BA0009DF8FF2003F09AF8012003F097F8012028
:102BB00003F094F8002003F091F8002003F08EF861
:102BC000FF2003F08BF8522003F088F8012003F077
:102BD00085F8002003F082F8402003F07FF8BD2044
:102BE00003F088F8012003F079F8232003F076F849
:102BF000452003F073F8672003F070F8012003F01C
:102C00006DF8232003F06AF8452003F067F8672089
:102C100003F064F8BE2003F06DF8002003F05EF8C6
:102C2000012003F05BF8AB2003F058F8602003F0BC
:102C300055F8222003F052F8222003F04FF822200A
:102C400003F04CF8222003F049F8222003F046F864
:102C5000C72003F04FF8362003F040F8ED2003F0D2
:102C600049F87F2003F03AF80F2003F037F8C0202E
:102C700003F040F80F2003F031F80B2003F02EF89A
:102C80000A2003F02BF8FC2003F034F8082003F0AE
:102C900025F8DF2003F02EF8002003F01FF80020B5
:102CA00003F01CF8002003F019F8002003F016F8D8
:102CB000002003F013F8202003F010F8F32003F0B5
:102CC00019F8742003F00AF8B42003F013F8002078
:102CD00003F004F8002003F001F8002002F0FEFFEA
:102CE000F72003F007F8822002F0F8FFB12003F08C
:102CF00001F8002002F0F2FF132002F0EFFF132092
:102D000002F0ECFFF22002F0F5FF802002F0E6FF77
:102D1000042002F0E3FF402002F0E0FF282002F050
:102D2000DDFFC12002F0E6FF172002F0D7FF882068
:102D300002F0D4FF882002F0D1FF202002F0CEFF65
:102D4000E02002F0D7FF002002F0C8FF0A2002F0C6
:102D5000C5FF122002F0C2FF102002F0BFFF0E20BC
:102D600002F0BCFF202002F0B9FFCC2002F0B6FF39
:102D7000072002F0B3FF062002F0B0FF0B2002F0A4
:102D8000ADFF0E2002F0AAFF0F2002F0A7FF0D20DA
:102D900002F0A4FF152002F0A1FF102002F09EFF18
:102DA000002002F09BFFE12002F0A4FF002002F0CF
:102DB00095FF0B2002F092FF132002F08FFF0D20F1
:102DC00002F08CFF0E2002F089FF1B2002F086FF2C
:102DD000712002F083FF062002F080FF062002F03F
:102DE0007DFF0A2002F07AFF0F2002F077FF0E200D
:102DF00002F074FF0F2002F071FF152002F06EFF49
:102E00000C2002F06BFF002002F068FF2A2002F085
:102E100071FF002002F062FF002002F05FFF01203E
:102E200002F05CFFDF2002F059FF2B2002F062FF6E
:102E3000002002F053FF002002F050FF032002F0B8
:102E40004DFF1F2002F04AFF3A2002F053FF5520A9
:102E500002F044FF362002F04DFF002002F03EFF5A
:102E6000112002F047FF7820FFF738FC292002F0FC
:102E700041FF1420FFF732FC2C2002F03BFF10BD75
:102E800010B5ED2002F036FF012002F027FFFE20F2
:102E900002F024FFEE2002F02DFFDE2002F01EFFE4
:102EA000212002F01BFFF12002F024FF012002F09C
:102EB00015FFDF2002F01EFF102002F00FFFC420DC
:102EC00002F018FF8F2002F009FFC62002F012FF67
:102ED000002002F003FFE22002F000FFE22002F0F7
:102EE000FDFEE22002F0FAFEBF2002F003FFAA205E
:102EF00002F0F4FEB02002F0FDFE0D2002F0EEFE26
:102F0000002002F0EBFE0D2002F0E8FE002002F0AF
:102F1000E5FE112002F0E2FE002002F0DFFE1920A3
:102F200002F0DCFE002002F0D9FE212002F0D6FEE5
:102F3000002002F0D3FE2D2002F0D0FE002002F08F
:102F4000CDFE3D2002F0CAFE002002F0C7FE5D204B
:102F500002F0C4FE002002F0C1FE5D2002F0BEFEC1
:102F6000002002F0BBFEB12002F0C4FE802002F07F
:102F7000B5FE002002F0B2FE8B2002F0AFFE002072
:102F800002F0ACFE962002F0A9FE002002F0A6FEA0
:102F9000B22002F0AFFE002002F0A0FE002002F0FE
:102FA0009DFE022002F09AFE002002F097FE032010
:102FB00002F094FE002002F091FEB32002F09AFE8F
:102FC000002002F08BFE002002F088FE002002F0BC
:102FD00085FE002002F082FE002002F07FFE00202D
:102FE00002F07CFE002002F079FE002002F076FE66
:102FF000002002F073FE002002F070FE002002F0BC
:103000006DFE002002F06AFE002002F067FE002044
:1030100002F064FE002002F061FE002002F05EFE7D
:10302000002002F05BFE002002F058FE002002F0BB
:1030300055FE002002F052FE002002F04FFE00205C
:1030400002F04CFE002002F049FE002002F046FE95
:10305000B42002F04FFE8B2002F040FE002002F070
:103060003DFE962002F03AFE002002F037FEA1203D
:1030700002F034FE002002F031FEB52002F03AFEEC
:10308000022002F02BFE002002F028FE032002F0B6
:1030900025FE002002F022FE042002F01FFE002088
:1030A00002F01CFEB62002F025FE002002F016FE03
:1030B000002002F013FEB72002F01CFE002002F0F8
:1030C0000DFE002002F00AFE3F2002F007FE002065
:1030D00002F004FE5E2002F001FE002002F0FEFD80
:1030E000642002F0FBFD002002F0F8FD8C2002F0CD
:1030F000F5FD002002F0F2FDAC2002F0EFFD002013
:1031000002F0ECFDDC2002F0E9FD002002F0E6FD1B
:10311000702002F0E3FD002002F0E0FD902002F0BC
:10312000DDFD002002F0DAFDEB2002F0D7FD0020EB
:1031300002F0D4FDDC2002F0D1FD002002F0CEFD33
:10314000B82002F0D7FD002002F0C8FD002002F0F8
:10315000C5FD002002F0C2FD002002F0BFFD0020EE
:1031600002F0BCFD002002F0B9FD002002F0B6FD27
:10317000002002F0B3FDBA2002F0BCFD242002F0D2
:10318000ADFD002002F0AAFD002002F0A7FD002006
:1031900002F0A4FDC12002F0ADFD202002F09EFD52
:1031A000002002F09BFD542002F098FD002002F068
:1031B00095FDFF2002F092FD002002F08FFDC2205D
:1031C00002F098FD0A2002F089FD002002F086FD41
:1031D000042002F083FD002002F080FDC32002F0F5
:1031E00089FD3C2002F07AFD002002F077FD3A20B4
:1031F00002F074FD002002F071FD392002F06EFD36
:10320000002002F06BFD372002F068FD002002F084
:1032100065FD3C2002F062FD002002F05FFD3620DB
:1032200002F05CFD002002F059FD322002F056FD54
:10323000002002F053FD2F2002F050FD002002F08C
:103240004DFD2C2002F04AFD002002F047FD292010
:1032500002F044FD002002F041FD262002F03EFD78
:10326000002002F03BFD242002F038FD002002F097
:1032700035FD242002F032FD002002F02FFD232036
:1032800002F02CFD002002F029FD3C2002F026FD7A
:10329000002002F023FD362002F020FD002002F085
:1032A0001DFD322002F01AFD002002F017FD2F2034
:1032B00002F014FD002002F011FD2C2002F00EFDA2
:1032C000002002F00BFD292002F008FD002002F092
:1032D00005FD262002F002FD002002F0FFFC242064
:1032E00002F0FCFC002002F0F9FC242002F0F6FCC5
:1032F000002002F0F3FC232002F0F0FC002002F09A
:10330000EDFCC42002F0F6FC622002F0E7FC002095
:1033100002F0E4FC052002F0E1FC002002F0DEFCFB
:10332000842002F0DBFC002002F0D8FCF02002F048
:10333000D5FC002002F0D2FC182002F0CFFC0020C7
:1033400002F0CCFCA42002F0C9FC002002F0C6FC74
:10335000182002F0C3FC002002F0C0FC502002F054
:10336000BDFC002002F0BAFC0C2002F0B7FC0020EB
:1033700002F0B4FC172002F0B1FC002002F0AEFC19
:10338000952002F0ABFC002002F0A8FCF32002F034
:10339000A5FC002002F0A2FCE62002F09FFC002029
:1033A00002F09CFCC52002F0A5FC322002F096FC45
:1033B000002002F093FC442002F090FC002002F078
:1033C0008DFC652002F08AFC002002F087FC76204C
:1033D00002F084FC002002F081FC882002F07EFCD8
:1033E000002002F07BFCC62002F084FC202002F0CA
:1033F00075FC002002F072FC172002F06FFC002028
:1034000002F06CFC012002F069FC002002F066FC76
:10341000C72002F06FFC002002F060FC002002F0E8
:103420005DFC002002F05AFC002002F057FCC8208E
:1034300002F060FC002002F051FC002002F04EFC83
:10344000002002F04BFC002002F048FCC92002F0F2
:1034500051FC002002F042FC002002F03FFC002062
:1034600002F03CFC002002F039FC002002F036FCA7
:10347000002002F033FC002002F030FC002002F0BB
:103480002DFC002002F02AFC002002F027FC002086
:1034900002F024FC002002F021FC002002F01EFCBF
:1034A000002002F01BFC002002F018FC002002F0BB
:1034B00015FCE02002F01EFC162002F00FFC00209C
:1034C00002F00CFC1C2002F009FC002002F006FCBB
:1034D000212002F003FC002002F000FC362002F064
:1034E000FDFB002002F0FAFB462002F0F7FB002073
:1034F00002F0F4FB522002F0F1FB002002F0EEFBA0
:10350000642002F0EBFB002002F0E8FB7A2002F0DE
:10351000E5FB002002F0E2FB8B2002F0DFFB002045
:1035200002F0DCFB992002F0D9FB002002F0D6FB70
:10353000A82002F0D3FB002002F0D0FBB92002F05B
:10354000CDFB002002F0CAFBC42002F0C7FB002024
:1035500002F0C4FBCA2002F0C1FB002002F0BEFB57
:10356000D22002F0BBFB002002F0B8FBD92002F011
:10357000B5FB002002F0B2FBE02002F0AFFB002020
:1035800002F0ACFBF32002F0A9FB002002F0A6FB46
:10359000E12002F0AFFB162002F0A0FB002002F0B9
:1035A0009DFB1C2002F09AFB002002F097FB2220DA
:1035B00002F094FB002002F091FB362002F08EFB1B
:1035C000002002F08BFB452002F088FB002002F077
:1035D00085FB522002F082FB002002F07FFB64207A
:1035E00002F07CFB002002F079FB7A2002F076FBEF
:1035F000002002F073FB8B2002F070FB002002F031
:103600006DFB992002F06AFB002002F067FBA82006
:1036100002F064FB002002F061FBB92002F05EFBC7
:10362000002002F05BFBC42002F058FB002002F0F7
:1036300055FBCA2002F052FB002002F04FFBD220C3
:1036400002F04CFB002002F049FBD82002F046FBC0
:10365000002002F043FBE02002F040FB002002F0DB
:103660003DFBF32002F03AFB002002F037FBE220A2
:1036700002F040FB052002F031FB002002F02EFB9F
:103680000B2002F02BFB002002F028FB1B2002F095
:1036900025FB002002F022FB342002F01FFB00205B
:1036A00002F01CFB442002F019FB002002F016FB84
:1036B0004F2002F013FB002002F010FB612002F00B
:1036C0000DFB002002F00AFB792002F007FB00202E
:1036D00002F004FB882002F001FB002002F0FEFA59
:1036E000972002F0FBFA002002F0F8FAA62002F080
:1036F000F5FA002002F0F2FAB72002F0EFFA00200B
:1037000002F0ECFAC22002F0E9FA002002F0E6FA38
:10371000C72002F0E3FA002002F0E0FAD12002F024
:10372000DDFA002002F0DAFAD62002F0D7FA002003
:1037300002F0D4FADD2002F0D1FA002002F0CEFA35
:10374000F32002F0CBFA002002F0C8FAE32002F0E6
:10375000D1FA052002F0C2FA002002F0BFFA0A20D6
:1037600002F0BCFA002002F0B9FA1C2002F0B6FA0E
:10377000002002F0B3FA332002F0B0FA002002F089
:10378000ADFA442002F0AAFA002002F0A7FA502075
:1037900002F0A4FA002002F0A1FA622002F09EFAE0
:1037A000002002F09BFA782002F098FA002002F044
:1037B00095FA882002F092FA002002F08FFA972002
:1037C00002F08CFA002002F089FAA62002F086FAB4
:1037D000002002F083FAB72002F080FA002002F005
:1037E0007DFAC22002F07AFA002002F077FAC720B0
:1037F00002F074FA002002F071FAD12002F06EFAA1
:10380000002002F06BFAD52002F068FA002002F0E6
:1038100065FADD2002F062FA002002F05FFAF32080
:1038200002F05CFA002002F059FAE42002F062FA99
:10383000012002F053FA002002F050FA012002F0B9
:103840004DFA002002F04AFA022002F047FA002066
:1038500002F044FA2A2002F041FA002002F03EFA77
:103860003C2002F03BFA002002F038FA4B2002F034
:1038700035FA002002F032FA5D2002F02FFA002023
:1038800002F02CFA742002F029FA002002F026FA45
:10389000842002F023FA002002F020FA932002F0A4
:1038A0001DFA002002F01AFAA22002F017FA0020F6
:1038B00002F014FAB32002F011FA002002F00EFA1E
:1038C000BE2002F00BFA002002F008FAC42002F039
:1038D00005FA002002F002FACD2002F0FFF90020E4
:1038E00002F0FCF9D32002F0F9F9002002F0F6F919
:1038F000DD2002F0F3F9002002F0F0F9F32002F0ED
:10390000EDF9002002F0EAF9E52002F0F3F90020D9
:1039100002F0E4F9002002F0E1F9002002F0DEF903
:10392000002002F0DBF9022002F0D8F9002002F0BA
:10393000D5F9292002F0D2F9002002F0CFF93C207D
:1039400002F0CCF9002002F0C9F94B2002F0C6F9D0
:10395000002002F0C3F95D2002F0C0F9002002F05F
:10396000BDF9742002F0BAF9002002F0B7F9842002
:1039700002F0B4F9002002F0B1F9932002F0AEF9A0
:10398000002002F0ABF9A22002F0A8F9002002F01A
:10399000A5F9B32002F0A2F9002002F09FF9BE20A1
:1039A00002F09CF9002002F099F9C42002F096F987
:1039B000002002F093F9CD2002F090F9002002F0EF
:1039C0008DF9D32002F08AF9002002F087F9DC207B
:1039D00002F084F9002002F081F9F32002F07EF970
:1039E000002002F07BF9E62002F084F9112002F0B9
:1039F00075F9002002F072F9342002F06FF900200E
:103A000002F06CF9562002F069F9002002F066F924
:103A1000762002F063F9002002F060F9772002F0CE
:103A20005DF9002002F05AF9662002F057F90020F3
:103A300002F054F9882002F051F9002002F04EF90A
:103A4000992002F04BF9002002F048F9BB2002F067
:103A500045F9002002F042F9992002F03FF90020D8
:103A600002F03CF9662002F039F9002002F036F944
:103A7000552002F033F9002002F030F9552002F011
:103A80002DF9002002F02AF9452002F027F9002044
:103A900002F024F9432002F021F9002002F01EF97F
:103AA000442002F01BF9002002F018F9E72002F090
:103AB00021F9322002F012F9002002F00FF955200E
:103AC00002F00CF9002002F009F9762002F006F964
:103AD000002002F003F9662002F000F9002002F055
:103AE000FDF8672002F0FAF8002002F0F7F86720EE
:103AF00002F0F4F8002002F0F1F8872002F0EEF86E
:103B0000002002F0EBF8992002F0E8F8002002F023
:103B1000E5F8BB2002F0E2F8002002F0DFF899207F
:103B200002F0DCF8002002F0D9F8772002F0D6F895
:103B3000002002F0D3F8442002F0D0F8002002F078
:103B4000CDF8562002F0CAF8002002F0C7F8232072
:103B500002F0C4F8002002F0C1F8332002F0BEF8F1
:103B6000002002F0BBF8452002F0B8F8002002F077
:103B7000B5F8E82002F0BEF8002002F0AFF800200F
:103B800002F0ACF8992002F0A9F8002002F0A6F8A3
:103B9000872002F0A3F8002002F0A0F8882002F0AD
:103BA0009DF8002002F09AF8772002F097F80020A4
:103BB00002F094F8662002F091F8002002F08EF8EE
:103BC000882002F08BF8002002F088F8AA2002F08A
:103BD00085F8002002F082F8BB2002F07FF8002078
:103BE00002F07CF8992002F079F8002002F076F8D3
:103BF000662002F073F8002002F070F8552002F001
:103C00006DF8002002F06AF8552002F067F80020F5
:103C100002F064F8442002F061F8002002F05EF83F
:103C2000442002F05BF8002002F058F8552002F022
:103C300055F8002002F052F8E92002F05BF8AA20C3
:103C400002F04CF8002002F049F8002002F046F89B
:103C5000002002F043F8002002F04CF8AA2002F005
:103C60003DF8CF2002F046F8002002F037F800209F
:103C700002F034F8002002F031F8002002F02EF8B3
:103C8000002002F02BF8002002F028F8002002F0BB
:103C900025F8002002F022F8002002F01FF8002092
:103CA00002F01CF8002002F019F8002002F016F8CB
:103CB000002002F013F8002002F010F8002002F0BB
:103CC0000DF8002002F00AF8002002F007F8F020BA
:103CD00002F010F8002002F001F8502001F0FEFF81
:103CE000002001F0FBFF002001F0F8FF002001F0B0
:103CF000F5FFF32001F0FEFF002001F0EFFFF920B7
:103D000001F0F8FF062001F0E9FF102001F0E6FFC6
:103D1000292001F0E3FF002001F0E0FF3A2001F04C
:103D2000E9FF552001F0DAFF112001F0E3FF6420E4
:103D3000FEF7D4FC292001F0DDFF352001F0DAFF89
:103D4000002001F0CBFF512001F0D4FFFF2001F053
:103D5000C5FF532001F0CEFF2C2001F0BFFF5520FE
:103D600001F0C8FF822001F0B9FF2C2001F0C2FF52
:103D700010BD10B555214FF4704001F0D1FFAA21BC
:103D80004FF2010001F0CCFF52214FF2020001F08E
:103D9000C7FF08214FF2030001F0C2FF01214FF2DB
:103DA000040001F0BDFF0D214FF4304001F0B8FFD9
:103DB0000D214BF2010001F0B3FF0D214BF2020087
:103DC00001F0AEFF34214FF4364001F0A9FF342159
:103DD0004BF2016001F0A4FF34214BF2026001F0CC
:103DE0009FFF0D214FF4314001F09AFF0D214BF25E
:103DF000011001F095FF0D214BF2021001F090FF30
:103E000034214FF4374001F08BFF34214BF2017025
:103E100001F086FF34214BF2027001F081FF002196
:103E20004FF4324001F07CFF00214BF2012001F001
:103E300077FF00214BF2022001F072FF24214FF4A2
:103E4000384001F06DFF24214BF6010001F068FFBE
:103E500024214BF6020001F063FF01214FF43F40A3
:103E600001F05EFF0F214FF4334001F059FF0F21A5
:103E70004BF2013001F054FF0F214BF2023001F000
:103E80004FFF34214FF4394001F04AFF34214BF603
:103E9000011001F045FF34214BF6021001F040FF04
:103EA00008214FF4354001F03BFF08214BF201504F
:103EB00001F036FF08214BF2025001F031FF0321DF
:103EC0004FF4424001F02CFF24214FF43A4001F01E
:103ED00027FF24214BF6012001F022FF24214BF67D
:103EE000022001F01DFF00214FF43C4001F018FFBB
:103EF00078214BF6014001F013FF00214BF6024000
:103F000001F00EFF00214FF43D4001F009FF782140
:103F10004BF6015001F004FF00214BF6025001F076
:103F2000FFFE00214FF43E4001F0FAFE64214BF603
:103F3000016001F0F5FE00214FF4514001F0F0FE68
:103F400033214DF2011001F0EBFE00214DF2021081
:103F500001F0E6FE34214DF2031001F0E1FE0021F4
:103F60004DF2041001F0DCFE3A214DF2051001F093
:103F7000D7FE00214DF2061001F0D2FE4A214DF28B
:103F8000071001F0CDFE00214DF2081001F0C8FE2F
:103F90005C214DF2091001F0C3FE00214DF20A1020
:103FA00001F0BEFE81214DF20B1001F0B9FE00219F
:103FB0004DF20C1001F0B4FEA6214DF20D1001F0EF
:103FC000AFFE00214DF20E1001F0AAFEE5214DF2E8
:103FD0000F1001F0A5FE01214DF2101001F0A0FE1E
:103FE00013214DF2111001F09BFE01214DF2121030
:103FF00001F096FE54214DF2131001F091FE0121C3
:104000004DF2141001F08CFE82214DF2151001F0DA
:1040100087FE01214DF2161001F082FECA214DF2F9
:10402000171001F07DFE02214DF2181001F078FE0C
:1040300000214DF2191001F073FE02214DF21A1009
:1040400001F06EFE01214DF21B1001F069FE02210C
:104050004DF21C1001F064FE34214DF21D1001F0F0
:104060005FFE02214DF21E1001F05AFE67214DF253
:104070001F1001F055FE02214DF2201001F050FEFC
:1040800084214DF2211001F04BFE02214DF222104D
:1040900001F046FEA4214DF2231001F041FE022161
:1040A0004DF2241001F03CFEB7214DF2251001F035
:1040B00037FE02214DF2261001F032FECF214DF2E3
:1040C000271001F02DFE02214DF2281001F028FEEC
:1040D000DE214DF2291001F023FE02214DF22A10BB
:1040E00001F01EFEF2214DF22B1001F019FE02210B
:1040F0004DF22C1001F014FEFE214DF22D1001F0B6
:104100000FFE03214DF22E1001F00AFE10214DF298
:104110002F1001F005FE03214DF2301001F000FEDA
:1041200033214DF2311001F0FBFD03214DF232102D
:1041300001F0F6FD6D214DF2331001F0F1FD00218B
:104140004FF4524001F0ECFD33214DF2012001F01B
:10415000E7FD00214DF2022001F0E2FD34214DF295
:10416000032001F0DDFD00214DF2042001F0D8FD17
:104170003A214DF2052001F0D3FD00214DF2062039
:1041800001F0CEFD4A214DF2072001F0C9FD0021CA
:104190004DF2082001F0C4FD5C214DF2092001F030
:1041A000BFFD00214DF20A2001F0BAFD81214DF240
:1041B0000B2001F0B5FD00214DF20C2001F0B0FD07
:1041C000A6214DF20D2001F0ABFD00214DF20E2095
:1041D00001F0A6FDE5214DF20F2001F0A1FD012126
:1041E0004DF2102001F09CFD13214DF2112001F041
:1041F00097FD01214DF2122001F092FD54214DF264
:10420000132001F08DFD01214DF2142001F088FDF5
:1042100082214DF2152001F083FD01214DF216207F
:1042200001F07EFDCA214DF2172001F079FD022137
:104230004DF2182001F074FD00214DF2192001F01B
:104240006FFD02214DF21A2001F06AFD01214DF2AD
:104250001B2001F065FD02214DF21C2001F060FDE4
:1042600034214DF21D2001F05BFD02214DF21E2094
:1042700001F056FD67214DF21F2001F051FD022192
:104280004DF2202001F04CFD84214DF2212001F05F
:1042900047FD02214DF2222001F042FDA4214DF202
:1042A000232001F03DFD02214DF2242001F038FDD4
:1042B000B7214DF2252001F033FD02214DF22620D9
:1042C00001F02EFDCF214DF2272001F029FD022122
:1042D0004DF2282001F024FDDE214DF2292001F0CD
:1042E0001FFD02214DF22A2001F01AFDF2214DF2AC
:1042F0002B2001F015FD02214DF22C2001F010FDC4
:10430000FE214DF22D2001F00BFD03214DF22E2058
:1043100001F006FD10214DF22F2001F001FD0321D7
:104320004DF2302001F0FCFC33214DF2312001F040
:10433000F7FC03214DF2322001F0F2FC6D214DF229
:10434000332001F0EDFC00214FF4534001F0E8FC74
:1043500033214DF2013001F0E3FC00214DF2023037
:1043600001F0DEFC34214DF2033001F0D9FC0021D4
:104370004DF2043001F0D4FC3A214DF2053001F049
:10438000CFFC00214DF2063001F0CAFC4A214DF26B
:10439000073001F0C5FC00214DF2083001F0C0FCEF
:1043A0005C214DF2093001F0BBFC00214DF20A30D6
:1043B00001F0B6FC81214DF20B3001F0B1FC00217F
:1043C0004DF20C3001F0ACFCA6214DF20D3001F0A5
:1043D000A7FC00214DF20E3001F0A2FCE5214DF2C8
:1043E0000F3001F09DFC01214DF2103001F098FCDE
:1043F00013214DF2113001F093FC01214DF21230E6
:1044000001F08EFC54214DF2133001F089FC0121A2
:104410004DF2143001F084FC82214DF2153001F090
:104420007FFC01214DF2163001F07AFCCA214DF2D9
:10443000173001F075FC02214DF2183001F070FCCC
:1044400000214DF2193001F06BFC02214DF21A30BF
:1044500001F066FC01214DF21B3001F061FC0221EC
:104460004DF21C3001F05CFC34214DF21D3001F0A6
:1044700057FC02214DF21E3001F052FC67214DF233
:104480001F3001F04DFC02214DF2203001F048FCBC
:1044900084214DF2213001F043FC02214DF2223003
:1044A00001F03EFCA4214DF2233001F039FC022141
:1044B0004DF2243001F034FCB7214DF2253001F0EB
:1044C0002FFC02214DF2263001F02AFCCF214DF2C3
:1044D000273001F025FC02214DF2283001F020FCAC
:1044E000DE214DF2293001F01BFC02214DF22A3071
:1044F00001F016FCF2214DF22B3001F011FC0221EB
:104500004DF22C3001F00CFCFE214DF22D3001F06B
:1045100007FC03214DF22E3001F002FC10214DF278
:104520002F3001F0FDFB03214DF2303001F0F8FB9C
:1045300033214DF2313001F0F3FB03214DF23230E3
:1045400001F0EEFB6D214DF2333001F0E9FB00216B
:104550004FF4544001F0E4FB33214DF2014001F0EF
:10456000DFFB00214DF2024001F0DAFB34214DF275
:10457000034001F0D5FB00214DF2044001F0D0FBD7
:104580003A214DF2054001F0CBFB00214DF20640EF
:1045900001F0C6FB4A214DF2074001F0C1FB0021AA
:1045A0004DF2084001F0BCFB5C214DF2094001F0E6
:1045B000B7FB00214DF20A4001F0B2FB81214DF220
:1045C0000B4001F0ADFB00214DF20C4001F0A8FBC7
:1045D000A6214DF20D4001F0A3FB00214DF20E404B
:1045E00001F09EFBE5214DF20F4001F099FB012106
:1045F0004DF2104001F094FB13214DF2114001F0F7
:104600008FFB01214DF2124001F08AFB54214DF243
:10461000134001F085FB01214DF2144001F080FBB5
:1046200082214DF2154001F07BFB01214DF2164035
:1046300001F076FBCA214DF2174001F071FB022117
:104640004DF2184001F06CFB00214DF2194001F0D1
:1046500067FB02214DF21A4001F062FB01214DF28D
:104660001B4001F05DFB02214DF21C4001F058FBA4
:1046700034214DF21D4001F053FB02214DF21E404A
:1046800001F04EFB67214DF21F4001F049FB022172
:104690004DF2204001F044FB84214DF2214001F015
:1046A0003FFB02214DF2224001F03AFBA4214DF2E2
:1046B000234001F035FB02214DF2244001F030FB94
:1046C000B7214DF2254001F02BFB02214DF226408F
:1046D00001F026FBCF214DF2274001F021FB022102
:1046E0004DF2284001F01CFBDE214DF2294001F083
:1046F00017FB02214DF22A4001F012FBF2214DF28C
:104700002B4001F00DFB02214DF22C4001F008FB83
:10471000FE214DF22D4001F003FB03214DF22E400E
:1047200001F0FEFA10214DF22F4001F0F9FA0321B9
:104730004DF2304001F0F4FA33214DF2314001F0F6
:10474000EFFA03214DF2324001F0EAFA6D214DF209
:10475000334001F0E5FA00214FF4554001F0E0FA52
:1047600033214DF2015001F0DBFA00214DF20250ED
:1047700001F0D6FA34214DF2035001F0D1FA0021B4
:104780004DF2045001F0CCFA3A214DF2055001F0FF
:10479000C7FA00214DF2065001F0C2FA4A214DF24B
:1047A000075001F0BDFA00214DF2085001F0B8FAAF
:1047B0005C214DF2095001F0B3FA00214DF20A508C
:1047C00001F0AEFA81214DF20B5001F0A9FA00215F
:1047D0004DF20C5001F0A4FAA6214DF20D5001F05B
:1047E0009FFA00214DF20E5001F09AFAE5214DF2A8
:1047F0000F5001F095FA01214DF2105001F090FA9E
:1048000013214DF2115001F08BFA01214DF212509B
:1048100001F086FA54214DF2135001F081FA012182
:104820004DF2145001F07CFA82214DF2155001F046
:1048300077FA01214DF2165001F072FACA214DF2B9
:10484000175001F06DFA02214DF2185001F068FA8C
:1048500000214DF2195001F063FA02214DF21A5075
:1048600001F05EFA01214DF21B5001F059FA0221CC
:104870004DF21C5001F054FA34214DF21D5001F05C
:104880004FFA02214DF21E5001F04AFA67214DF213
:104890001F5001F045FA02214DF2205001F040FA7C
:1048A00084214DF2215001F03BFA02214DF22250B9
:1048B00001F036FAA4214DF2235001F031FA022121
:1048C0004DF2245001F02CFAB7214DF2255001F0A1
:1048D00027FA02214DF2265001F022FACF214DF2A3
:1048E000275001F01DFA02214DF2285001F018FA6C
:1048F000DE214DF2295001F013FA02214DF22A5027
:1049000001F00EFAF2214DF22B5001F009FA0221CA
:104910004DF22C5001F004FAFE214DF22D5001F021
:10492000FFF903214DF22E5001F0FAF910214DF25A
:104930002F5001F0F5F903214DF2305001F0F0F95C
:1049400033214DF2315001F0EBF903214DF2325099
:1049500001F0E6F96D214DF2335001F0E1F900214B
:104960004FF4564001F0DCF933214DF2016001F0C3
:10497000D7F900214DF2026001F0D2F934214DF255
:10498000036001F0CDF900214DF2046001F0C8F997
:104990003A214DF2056001F0C3F900214DF20660A5
:1049A00001F0BEF94A214DF2076001F0B9F900218A
:1049B0004DF2086001F0B4F95C214DF2096001F09C
:1049C000AFF900214DF20A6001F0AAF981214DF200
:1049D0000B6001F0A5F900214DF20C6001F0A0F987
:1049E000A6214DF20D6001F09BF900214DF20E6001
:1049F00001F096F9E5214DF20F6001F091F90121E6
:104A00004DF2106001F08CF913214DF2116001F0AC
:104A100087F901214DF2126001F082F954214DF223
:104A2000136001F07DF901214DF2146001F078F975
:104A300082214DF2156001F073F901214DF21660EB
:104A400001F06EF9CA214DF2176001F069F90221F7
:104A50004DF2186001F064F900214DF2196001F087
:104A60005FF902214DF21A6001F05AF901214DF26D
:104A70001B6001F055F902214DF21C6001F050F964
:104A800034214DF21D6001F04BF902214DF21E6000
:104A900001F046F967214DF21F6001F041F9022152
:104AA0004DF2206001F03CF984214DF2216001F0CB
:104AB00037F902214DF2226001F032F9A4214DF2C2
:104AC000236001F02DF902214DF2246001F028F954
:104AD000B7214DF2256001F023F902214DF2266045
:104AE00001F01EF9CF214DF2276001F019F90221E2
:104AF0004DF2286001F014F9DE214DF2296001F039
:104B00000FF902214DF22A6001F00AF9F2214DF26B
:104B10002B6001F005F902214DF22C6001F000F943
:104B2000FE214DF22D6001F0FBF803214DF22E60C5
:104B300001F0F6F810214DF22F6001F0F1F8032199
:104B40004DF2306001F0ECF833214DF2316001F0AC
:104B5000E7F803214DF2326001F0E2F86D214DF2E9
:104B6000336001F0DDF855214FF4704001F0D8F8C2
:104B7000AA214FF2010001F0D3F852214FF20200B6
:104B800001F0CEF808214FF2030001F0C9F800212E
:104B90004FF2040001F0C4F8CC214FF4314001F091
:104BA000BFF800214BF2011001F0BAF805214FF4D3
:104BB000364001F0B5F870214FF4374001F0B0F8FD
:104BC00070214BF2017001F0ABF801214FF4384035
:104BD00001F0A6F803214BF6010001F0A1F8032132
:104BE0004BF6020001F09CF803214BF6030001F0A4
:104BF00097F802214FF43C4001F092F800214BF667
:104C0000014001F08DF800214BF6024001F088F8D8
:104C1000D0214FF4494001F083F802214CF60110F5
:104C200001F07EF850214CF6021001F079F8502185
:104C30004CF6031001F074F850214CF6041001F00A
:104C40006FF800214FF4545001F06AF855214FF4E9
:104C5000685001F065F84FF4885001F04BF8782067
:104C6000FDF746FD4FF4245001F044F810BD10B597
:104C7000E22001F03FF81D2001F030F8022001F0A1
:104C80002DF8042001F02AF86420FDF731FDE02022
:104C900001F030F8012001F021F80A20FDF71EFD97
:104CA000E02001F027F8032001F018F80C20FDF7B0
:104CB00015FD012001F01EF80A20FDF70FFDE6208A
:104CC00001F018F82F2001F009F8FF2001F006F894
:104CD000FF2001F003F8B02001F00CF8202000F0D4
:104CE000FDFF002000F0FAFF032000F0F7FF40F284
:104CF0001F3000F0F3FF012000F0F0FF40F2DF1062
:104D000000F0ECFF002000F0E9FFB42000F0F2FF1B
:104D1000042000F0E3FF40F21F4000F0DFFF00201E
:104D200000F0DCFF2E2000F0D9FF002000F0D6FFBD
:104D3000002000F0D3FF002000F0D0FF002000F0A2
:104D4000CDFFB62000F0D6FF022000F0C7FF4FF4E1
:104D5000037000F0C3FF002000F0C0FF172000F038
:104D6000BDFF152000F0BAFF002000F0B7FF0020C3
:104D700000F0B4FFF02000F0BDFF032000F0AEFF14
:104D8000292000F0B7FFD02000F0B4FF002000F091
:104D9000A5FFBE2000F0AEFF052000F09FFFFE2023
:104DA00000F09CFF012000F099FF002000F096FF2A
:104DB000002000F093FF002000F090FFB82000F0EA
:104DC00099FF032000F08AFF012000F087FFBA203E
:104DD00000F090FF012000F081FF10BD10B5112000
:104DE00000F088FF7820FDF779FC362000F082FF84
:104DF000002000F073FF3A2000F07CFF052000F057
:104E00006DFFB22000F076FF0C2000F067FF0C2051
:104E100000F064FF002000F061FF332000F05EFF2F
:104E2000332000F05BFFB72000F064FF352000F076
:104E300055FFBB2000F05EFF322000F04FFFC02086
:104E400000F058FF0C2000F049FFC22000F052FF94
:104E5000012000F043FFC32000F04CFF102000F0C1
:104E60003DFFC42000F046FF202000F037FFC620A1
:104E700000F040FF0F2000F031FFD02000F03AFF9B
:104E8000A42000F02BFFA12000F028FFE02000F07C
:104E900031FFD02000F022FF002000F01FFF022091
:104EA00000F01CFF072000F019FF0A2000F016FF99
:104EB000282000F013FF322000F010FF442000F003
:104EC0000DFF422000F00AFF062000F007FF0E2031
:104ED00000F004FF122000F001FF142000F0FEFE9D
:104EE000172000F0FBFEE12000F004FFD02000F0CE
:104EF000F5FE002000F0F2FE022000F0EFFE072099
:104F000000F0ECFE0A2000F0E9FE282000F0E6FEAA
:104F1000312000F0E3FE542000F0E0FE472000F0D6
:104F2000DDFE0E2000F0DAFE1C2000F0D7FE172078
:104F300000F0D4FE1B2000F0D1FE1E2000F0CEFEBB
:104F40002A2000F0D7FE002000F0C8FE002000F06C
:104F5000C5FE002000F0C2FEEF2000F0BFFE2B20B7
:104F600000F0C8FE002000F0B9FE002000F0B6FE00
:104F7000012000F0B3FE3F2000F0B0FE292000F039
:104F8000B9FE10BD10B5112000F0B4FE7820FDF779
:104F9000A5FB362000F0AEFE482000F09FFE3A2030
:104FA00000F0A8FE552000F099FEF02000F0A2FECF
:104FB000C32000F093FEF02000F09CFE962000F04D
:104FC0008DFEB42000F096FE012000F087FEB62092
:104FD00000F090FE0A2000F081FEA22000F07EFE8C
:104FE000B72000F087FEC62000F078FEB92000F060
:104FF00081FE022000F072FEE02000F06FFEC02073
:1050000000F078FE802000F069FE162000F066FEB9
:10501000C12000F06FFE192000F060FEC22000F0F9
:1050200069FEA72000F05AFEC52000F063FE16209E
:1050300000F054FEE82000F05DFE402000F04EFE3F
:105040008A2000F04BFE002000F048FE002000F017
:1050500045FE292000F042FE192000F03FFEA52069
:1050600000F03CFE332000F039FEE02000F042FE6C
:10507000F02000F033FE072000F030FE0D2000F09D
:105080002DFE042000F02AFE052000F027FE14204B
:1050900000F024FE362000F021FE542000F01EFE19
:1050A0004C2000F01BFE382000F018FE132000F00A
:1050B00015FE142000F012FE2E2000F00FFE34200A
:1050C00000F00CFEE12000F015FEF02000F006FEDE
:1050D000102000F003FE142000F000FE0E2000F06F
:1050E000FDFD0C2000F0FAFD082000F0F7FD352052
:1050F00000F0F4FD442000F0F1FD4C2000F0EEFD46
:10510000262000F0EBFD102000F0E8FD122000F05A
:10511000E5FD2C2000F0E2FD322000F0DFFDF02064
:1051200000F0E8FD3C2000F0D9FDF02000F0E2FDA9
:10513000692000F0D3FD7820FDF7D0FA212000F09F
:10514000D9FD292000F0D6FD10BD000000B595B0B6
:1051500000BF00BF00200190F848006840F0400008
:10516000F64908600846006800F04000019000BF62
:1051700000BF00BF00BF00BF0020019008460068CC
:1051800040F0080008600846006800F00800019040
:1051900000BF00BF00BF00BF00BF00200190084655
:1051A000006840F0080008600846006800F0080049
:1051B000019000BF00BF00BF00BF00BF00200190F2
:1051C0000846006840F0400008600846006800F0AB
:1051D0004000019000BF00BF00BF00BF00BF002023
:1051E00001900846006840F0020008600846006828
:1051F00000F00200019000BF00BF00BF88141090B3
:105200000220119001201290022013900C20149083
:1052100010A9CB48FBF74AFF2020109010A9C948DD
:10522000FBF744FF1020109010A9C648FBF73EFF83
:105230004FF48050109010A9C348FBF737FF4FF48C
:10524000004010900120119010A9C048FBF72EFFDC
:105250004FF02040BE490860BE4848600620886084
:105260000021BB48C1601021416100218161C16101
:1052700041624FF4805181620021C1624FF480414C
:1052800001630021416381630F20099000200A908F
:105290003C200B9000200F900920029000200390EA
:1052A000092004900020089002AA09A9A848FCF748
:1052B00057FC3220FDF712FAD32000F01BFD00F05E
:1052C000EBF9A549888000F0E7F9A349888000F050
:1052D000E3F9A1498880084680884FF6FF7101EA0A
:1052E00000209D49888000F0D7F99B4989880843B0
:1052F000994988800846808849F2413188427CD0AB
:10530000042000F0F7FC00F0C7F99349888000F012
:10531000C3F99149888000F0BFF98F498880084619
:1053200080884FF6FF7101EA00208B49888000F0E9
:10533000B3F9894989880843874988800846808865
:1053400048F25251884203D147F2897082498880DD
:105350008148808847F289718842D0D0D42000F0FB
:10536000C9FC00F099F97C49888000F095F97A49E8
:10537000888000F091F978498880084680884FF647
:10538000FF7101EA00207449888000F085F97249B4
:1053900089880843704988800846808845F2103122
:1053A0008842ACD0D32000F0A5FC00F075F96A4922
:1053B000888000F071F96849888000F06DF96649CD
:1053C0008880084680884FF6FF7101EA0020624914
:1053D000888000F061F96049898808435E498880C7
:1053E0000846808847F29671884288D055214FF44C
:1053F000704000F095FCAA2100E07EE04FF2010031
:1054000000F08EFC52214FF2020000F089FC0821CE
:105410004FF2030000F084FC01214FF2040000F081
:105420007FFC4FF4454000F065FC00F035F94A4937
:105430008880084680884FF6FF7101EA00204649BF
:1054400088804CF2015000F055FC00F025F94249EB
:1054500089880843404988800520FDF73FF93E4888
:10546000808845F21051884247D0D32000F042FC9A
:1054700000F012F93849888000F00EF9364988802A
:1054800000F00AF934498880084680884FF6FF7199
:1054900001EA00203049888000F0FEF82E49898812
:1054A00008432D4988800846808849F606018842CD
:1054B00023D0A12000F01EFC00F0EEF826498880E1
:1054C00000F0EAF824498880084680884FF6FF718A
:1054D00001EA00202049888000F0DEF81E49898812
:1054E00008431D4988800846808845F261718842DA
:1054F00003D141F66310184988801748818817A0A6
:10550000FAF734FF1448808847F28971884202D143
:10551000FFF764FC4EE01048808849F24131884230
:1055200002D1FDF7F7F945E00B48808845F21031CC
:10553000884219D1FDF7A4FC3CE00000303802405D
:1055400000180240000C0240001402400004024017
:1055500034150020040100A0841500204C43442091
:1055600049443A25780D0A003F48808847F29671F1
:10557000884202D1FFF706FD1CE03B48808845F2D7
:105580001051884202D1FEF7F4FB13E036488088C0
:1055900049F60601884202D1FDF7D2FA0AE0324804
:1055A000808841F66311884204D1FFF760FB6420D4
:1055B00000F064FB2C48808847F2897188420AD148
:1055C00003200290049029490B6B8A68486802A95D
:1055D000FBF7BCF938E02448808849F60601884288
:1055E0000BD02148808849F24131884205D01E48BD
:1055F000808845F2105188420AD10220029004901E
:105600001A490B6B8A68486802A9FBF79FF91BE0EF
:105610001548808845F2103188420BD012488088A6
:1056200047F29671884205D00F48808841F6631191
:10563000884209D10120029004900C490B6B8A68C2
:10564000486802A9FBF782F90020FDF79DF800BF2A
:105650000122D1030648FBF735FE00BF4FF6FF706D
:10566000FDF778F815B000BD841500203415002032
:105670000004024000BF0100A0F10100FBD170470F
:1056800010B50246012000E050430B00A1F10104D7
:10569000E1B2F9D110BD000008B50220FFF7EAFF22
:1056A000024800880090BDF8000008BD8000006C32
:1056B000F0B50546002400278B488079012805D1E4
:1056C0008948808841F66311884208D186488079EC
:1056D000F0B98548808841F66311884218D1082DB9
:1056E00015D2DFE805F00406080A0C0E1012062594
:1056F0000DE007250BE0042509E0052507E001255D
:1057000005E0002503E0032501E0022500BF00BFFE
:10571000082D1CD2DFE805F00406090C0F1215183D
:1057200000BF14E044F0800411E044F040040EE0B7
:1057300044F0C0040BE044F0200408E044F06004AE
:1057400005E044F0A00402E044F0E00400BF00BF24
:1057500036276548808845F21051884200D13F02C3
:105760006148808849F2413188420BD05E48808888
:1057700047F28971884205D05B48808847F296716C
:10578000884201D144F008042146384600F0C8FAA6
:105790005548808841F6631188421DD004F02000EE
:1057A00068B15148008850494988884214DA4E4807
:1057B000068840884C490880084646800CE04A48E4
:1057C000008849494988884206DD4748068840885C
:1057D00045490880084646804348808845F2105174
:1057E000884252D14049488900F084FA002000F0F4
:1057F00075FA3D494989491C88B200F07BFA0020BE
:1058000000F06CFA38494989891C88B200F072FAB4
:1058100035490988491EC1F30F2000F05FFA32496B
:105820004989C91C88B200F065FA2F490978491ED8
:10583000C8B200F053FA2C49888900F05BFA0020C6
:1058400000F04CFA28498989491C88B200F052FAC4
:10585000002000F043FA24498989891C88B200F0AD
:1058600049FA21494988491EC1F30F2000F036FA50
:105870001D498989C91C88B200F03CFA1A49897807
:10588000491EC8B200F02AFA2DE01749488900F0F5
:1058900031FA002000F022FA002000F01FFA12492D
:1058A0000988491EC1F30F2000F018FA0E49097843
:1058B000491EC8B200F012FA0B49888900F01AFAA2
:1058C000002000F00BFA002000F008FA0649498891
:1058D000491EC1F30F2000F001FA03498978491EDF
:1058E000C8B200F0FBF9F0BD8415002010B50246E7
:1058F0000C464548808841F66311884247D14248AA
:105900008079A8B940480088401E801A82B23E497A
:10591000488900F0EFF9002000F0E0F9002000F0E5
:10592000DDF9101200F0DAF9D0B200F0D7F916E084
:105930003549488900F0DEF9101200F0CFF9D0B2F5
:1059400000F0CCF930490988491EC1F30F2000F05E
:10595000C5F92D490978491EC8B200F0BFF92A4996
:10596000888900F0C7F9201200F0B8F9E0B200F021
:10597000B5F925494988491EC1F30F2000F0AEF959
:1059800021498978491EC8B200F0A8F93AE01E48BA
:10599000808845F21051884220D11B49488900F087
:1059A000A9F9101200F09AF917494989491C88B2DF
:1059B00000F0A0F9D0B200F091F91349888900F005
:1059C00099F9201200F08AF90F498989491C88B297
:1059D00000F090F9E0B200F081F913E00A4948893B
:1059E00000F088F9101200F079F9D0B200F076F9E1
:1059F0000549888900F07EF9201200F06FF9E0B2C5
:105A000000F06CF910BD0000841500202DE9FC4F5A
:105A100080460E4615461C46B34600200190009075
:105A20002046E31704EB5373DB1021464FEAE47C76
:105A300004EB5C7C4FEAEC0CA4EBCC0CBCF1000F4B
:105A400002D04FF0010C01E04FF0000C63442246FD
:105A500004EBD27C4FEA6C0C03FB0CF3DBB201933A
:105A6000A5F12000C5B20C2C06D0102C0BD0182CA0
:105A70000ED0202C18D112E005EB45002D4901EB8A
:105A80008000009012E02C4800EB051000900DE023
:105A900005EBC500294901EB8000009006E028488D
:105AA00000EB8510009001E0BDE8FC8F00BF0027EF
:105AB0003AE0009810F807904FF0000A2EE009F045
:105AC000800028B1314640460C9AFCF713FF07E0EE
:105AD0000B9828B91B48314602684046FCF70AFF7C
